{
	"VRFTester.sol": {
		"VRFManager": {
			"abi": [
				{
					"inputs": [
						{
							"internalType": "address",
							"name": "_initialAdmin",
							"type": "address"
						}
					],
					"stateMutability": "nonpayable",
					"type": "constructor"
				},
				{
					"inputs": [],
					"name": "AccessControlBadConfirmation",
					"type": "error"
				},
				{
					"inputs": [
						{
							"internalType": "address",
							"name": "account",
							"type": "address"
						},
						{
							"internalType": "bytes32",
							"name": "neededRole",
							"type": "bytes32"
						}
					],
					"name": "AccessControlUnauthorizedAccount",
					"type": "error"
				},
				{
					"anonymous": false,
					"inputs": [
						{
							"indexed": false,
							"internalType": "uint256",
							"name": "requestId",
							"type": "uint256"
						},
						{
							"indexed": false,
							"internalType": "uint256[]",
							"name": "randomWords",
							"type": "uint256[]"
						}
					],
					"name": "RequestFulfilled",
					"type": "event"
				},
				{
					"anonymous": false,
					"inputs": [
						{
							"indexed": false,
							"internalType": "uint256",
							"name": "requestId",
							"type": "uint256"
						},
						{
							"indexed": false,
							"internalType": "address",
							"name": "_requester",
							"type": "address"
						}
					],
					"name": "RequestSent",
					"type": "event"
				},
				{
					"anonymous": false,
					"inputs": [
						{
							"indexed": true,
							"internalType": "bytes32",
							"name": "role",
							"type": "bytes32"
						},
						{
							"indexed": true,
							"internalType": "bytes32",
							"name": "previousAdminRole",
							"type": "bytes32"
						},
						{
							"indexed": true,
							"internalType": "bytes32",
							"name": "newAdminRole",
							"type": "bytes32"
						}
					],
					"name": "RoleAdminChanged",
					"type": "event"
				},
				{
					"anonymous": false,
					"inputs": [
						{
							"indexed": true,
							"internalType": "bytes32",
							"name": "role",
							"type": "bytes32"
						},
						{
							"indexed": true,
							"internalType": "address",
							"name": "account",
							"type": "address"
						},
						{
							"indexed": true,
							"internalType": "address",
							"name": "sender",
							"type": "address"
						}
					],
					"name": "RoleGranted",
					"type": "event"
				},
				{
					"anonymous": false,
					"inputs": [
						{
							"indexed": true,
							"internalType": "bytes32",
							"name": "role",
							"type": "bytes32"
						},
						{
							"indexed": true,
							"internalType": "address",
							"name": "account",
							"type": "address"
						},
						{
							"indexed": true,
							"internalType": "address",
							"name": "sender",
							"type": "address"
						}
					],
					"name": "RoleRevoked",
					"type": "event"
				},
				{
					"inputs": [],
					"name": "DEFAULT_ADMIN_ROLE",
					"outputs": [
						{
							"internalType": "bytes32",
							"name": "",
							"type": "bytes32"
						}
					],
					"stateMutability": "view",
					"type": "function"
				},
				{
					"inputs": [],
					"name": "drawingContract",
					"outputs": [
						{
							"internalType": "contract IHierarchicalDrawing",
							"name": "",
							"type": "address"
						}
					],
					"stateMutability": "view",
					"type": "function"
				},
				{
					"inputs": [
						{
							"internalType": "uint256",
							"name": "_requestId",
							"type": "uint256"
						},
						{
							"internalType": "uint256[]",
							"name": "_randomWords",
							"type": "uint256[]"
						}
					],
					"name": "fulfillRandomWords",
					"outputs": [],
					"stateMutability": "nonpayable",
					"type": "function"
				},
				{
					"inputs": [
						{
							"internalType": "uint256",
							"name": "_requestId",
							"type": "uint256"
						}
					],
					"name": "getRequestStatus",
					"outputs": [
						{
							"internalType": "bool",
							"name": "fulfilled",
							"type": "bool"
						},
						{
							"internalType": "uint256[]",
							"name": "randomWords",
							"type": "uint256[]"
						}
					],
					"stateMutability": "view",
					"type": "function"
				},
				{
					"inputs": [
						{
							"internalType": "bytes32",
							"name": "role",
							"type": "bytes32"
						}
					],
					"name": "getRoleAdmin",
					"outputs": [
						{
							"internalType": "bytes32",
							"name": "",
							"type": "bytes32"
						}
					],
					"stateMutability": "view",
					"type": "function"
				},
				{
					"inputs": [
						{
							"internalType": "bytes32",
							"name": "role",
							"type": "bytes32"
						},
						{
							"internalType": "address",
							"name": "account",
							"type": "address"
						}
					],
					"name": "grantRole",
					"outputs": [],
					"stateMutability": "nonpayable",
					"type": "function"
				},
				{
					"inputs": [
						{
							"internalType": "bytes32",
							"name": "role",
							"type": "bytes32"
						},
						{
							"internalType": "address",
							"name": "account",
							"type": "address"
						}
					],
					"name": "hasRole",
					"outputs": [
						{
							"internalType": "bool",
							"name": "",
							"type": "bool"
						}
					],
					"stateMutability": "view",
					"type": "function"
				},
				{
					"inputs": [],
					"name": "lastRequestId",
					"outputs": [
						{
							"internalType": "uint256",
							"name": "",
							"type": "uint256"
						}
					],
					"stateMutability": "view",
					"type": "function"
				},
				{
					"inputs": [
						{
							"internalType": "bytes32",
							"name": "role",
							"type": "bytes32"
						},
						{
							"internalType": "address",
							"name": "callerConfirmation",
							"type": "address"
						}
					],
					"name": "renounceRole",
					"outputs": [],
					"stateMutability": "nonpayable",
					"type": "function"
				},
				{
					"inputs": [
						{
							"internalType": "uint256",
							"name": "",
							"type": "uint256"
						}
					],
					"name": "requestIds",
					"outputs": [
						{
							"internalType": "uint256",
							"name": "",
							"type": "uint256"
						}
					],
					"stateMutability": "view",
					"type": "function"
				},
				{
					"inputs": [
						{
							"internalType": "address",
							"name": "_requester",
							"type": "address"
						}
					],
					"name": "requestRandomWords",
					"outputs": [
						{
							"internalType": "uint256",
							"name": "requestId",
							"type": "uint256"
						}
					],
					"stateMutability": "nonpayable",
					"type": "function"
				},
				{
					"inputs": [
						{
							"internalType": "bytes32",
							"name": "role",
							"type": "bytes32"
						},
						{
							"internalType": "address",
							"name": "account",
							"type": "address"
						}
					],
					"name": "revokeRole",
					"outputs": [],
					"stateMutability": "nonpayable",
					"type": "function"
				},
				{
					"inputs": [
						{
							"internalType": "uint256",
							"name": "",
							"type": "uint256"
						}
					],
					"name": "s_requests",
					"outputs": [
						{
							"internalType": "bool",
							"name": "fulfilled",
							"type": "bool"
						},
						{
							"internalType": "bool",
							"name": "exists",
							"type": "bool"
						}
					],
					"stateMutability": "view",
					"type": "function"
				},
				{
					"inputs": [
						{
							"internalType": "address",
							"name": "_contract",
							"type": "address"
						}
					],
					"name": "setDrawingContract",
					"outputs": [],
					"stateMutability": "nonpayable",
					"type": "function"
				},
				{
					"inputs": [
						{
							"internalType": "bytes4",
							"name": "interfaceId",
							"type": "bytes4"
						}
					],
					"name": "supportsInterface",
					"outputs": [
						{
							"internalType": "bool",
							"name": "",
							"type": "bool"
						}
					],
					"stateMutability": "view",
					"type": "function"
				}
			],
			"devdoc": {
				"errors": {
					"AccessControlBadConfirmation()": [
						{
							"details": "The caller of a function is not the expected one. NOTE: Don't confuse with {AccessControlUnauthorizedAccount}."
						}
					],
					"AccessControlUnauthorizedAccount(address,bytes32)": [
						{
							"details": "The `account` is missing a role."
						}
					]
				},
				"events": {
					"RoleAdminChanged(bytes32,bytes32,bytes32)": {
						"details": "Emitted when `newAdminRole` is set as ``role``'s admin role, replacing `previousAdminRole` `DEFAULT_ADMIN_ROLE` is the starting admin for all roles, despite {RoleAdminChanged} not being emitted signaling this."
					},
					"RoleGranted(bytes32,address,address)": {
						"details": "Emitted when `account` is granted `role`. `sender` is the account that originated the contract call, an admin role bearer except when using {AccessControl-_setupRole}."
					},
					"RoleRevoked(bytes32,address,address)": {
						"details": "Emitted when `account` is revoked `role`. `sender` is the account that originated the contract call:   - if using `revokeRole`, it is the admin role bearer   - if using `renounceRole`, it is the role bearer (i.e. `account`)"
					}
				},
				"kind": "dev",
				"methods": {
					"getRoleAdmin(bytes32)": {
						"details": "Returns the admin role that controls `role`. See {grantRole} and {revokeRole}. To change a role's admin, use {_setRoleAdmin}."
					},
					"grantRole(bytes32,address)": {
						"details": "Grants `role` to `account`. If `account` had not been already granted `role`, emits a {RoleGranted} event. Requirements: - the caller must have ``role``'s admin role. May emit a {RoleGranted} event."
					},
					"hasRole(bytes32,address)": {
						"details": "Returns `true` if `account` has been granted `role`."
					},
					"renounceRole(bytes32,address)": {
						"details": "Revokes `role` from the calling account. Roles are often managed via {grantRole} and {revokeRole}: this function's purpose is to provide a mechanism for accounts to lose their privileges if they are compromised (such as when a trusted device is misplaced). If the calling account had been revoked `role`, emits a {RoleRevoked} event. Requirements: - the caller must be `callerConfirmation`. May emit a {RoleRevoked} event."
					},
					"revokeRole(bytes32,address)": {
						"details": "Revokes `role` from `account`. If `account` had been granted `role`, emits a {RoleRevoked} event. Requirements: - the caller must have ``role``'s admin role. May emit a {RoleRevoked} event."
					},
					"supportsInterface(bytes4)": {
						"details": "See {IERC165-supportsInterface}."
					}
				},
				"version": 1
			},
			"evm": {
				"assembly": "    /* \"VRFTester.sol\":183:2401  contract VRFManager is IVRFManager, AccessControl {    ... */\n  mstore(0x40, 0x80)\n    /* \"VRFTester.sol\":661:762  constructor(... */\n  callvalue\n  dup1\n  iszero\n  tag_1\n  jumpi\n  0x00\n  dup1\n  revert\ntag_1:\n  pop\n  mload(0x40)\n  sub(codesize, bytecodeSize)\n  dup1\n  bytecodeSize\n  dup4\n  codecopy\n  dup2\n  add\n  0x40\n  dup2\n  swap1\n  mstore\n  tag_2\n  swap2\n  tag_3\n  jump\t// in\ntag_2:\n    /* \"VRFTester.sol\":715:760  _grantRole(DEFAULT_ADMIN_ROLE, _initialAdmin) */\n  tag_6\n    /* \"@openzeppelin/contracts/access/AccessControl.sol\":2232:2236  0x00 */\n  0x00\n    /* \"VRFTester.sol\":746:759  _initialAdmin */\n  dup3\n    /* \"VRFTester.sol\":715:725  _grantRole */\n  tag_7\n    /* \"VRFTester.sol\":715:760  _grantRole(DEFAULT_ADMIN_ROLE, _initialAdmin) */\n  jump\t// in\ntag_6:\n  pop\n    /* \"VRFTester.sol\":661:762  constructor(... */\n  pop\n    /* \"VRFTester.sol\":183:2401  contract VRFManager is IVRFManager, AccessControl {    ... */\n  jump(tag_18)\n    /* \"@openzeppelin/contracts/access/AccessControl.sol\":6179:6495  function _grantRole(bytes32 role, address account) internal virtual returns (bool) {... */\ntag_7:\n    /* \"@openzeppelin/contracts/access/AccessControl.sol\":6256:6260  bool */\n  0x00\n    /* \"@openzeppelin/contracts/access/AccessControl.sol\":2954:2966  _roles[role] */\n  dup3\n  dup2\n  mstore\n  0x20\n  dup2\n  dup2\n  mstore\n  0x40\n  dup1\n  dup4\n  keccak256\n  sub(shl(0xa0, 0x01), 0x01)\n    /* \"@openzeppelin/contracts/access/AccessControl.sol\":2954:2983  _roles[role].hasRole[account] */\n  dup6\n  and\n  dup5\n  mstore\n  swap1\n  swap2\n  mstore\n  dup2\n  keccak256\n  sload\n  0xff\n  and\n    /* \"@openzeppelin/contracts/access/AccessControl.sol\":6272:6489  if (!hasRole(role, account)) {... */\n  tag_12\n  jumpi\n    /* \"@openzeppelin/contracts/access/AccessControl.sol\":6315:6321  _roles */\n  0x00\n    /* \"@openzeppelin/contracts/access/AccessControl.sol\":6315:6327  _roles[role] */\n  dup4\n  dup2\n  mstore\n  0x20\n  dup2\n  dup2\n  mstore\n  0x40\n  dup1\n  dup4\n  keccak256\n  sub(shl(0xa0, 0x01), 0x01)\n    /* \"@openzeppelin/contracts/access/AccessControl.sol\":6315:6344  _roles[role].hasRole[account] */\n  dup7\n  and\n  dup5\n  mstore\n  swap1\n  swap2\n  mstore\n  swap1\n  keccak256\n    /* \"@openzeppelin/contracts/access/AccessControl.sol\":6315:6351  _roles[role].hasRole[account] = true */\n  dup1\n  sload\n  not(0xff)\n  and\n    /* \"@openzeppelin/contracts/access/AccessControl.sol\":6347:6351  true */\n  0x01\n    /* \"@openzeppelin/contracts/access/AccessControl.sol\":6315:6351  _roles[role].hasRole[account] = true */\n  or\n  swap1\n  sstore\n    /* \"@openzeppelin/contracts/access/AccessControl.sol\":6397:6409  _msgSender() */\n  tag_13\n    /* \"@openzeppelin/contracts/utils/Context.sol\":735:745  msg.sender */\n  caller\n  swap1\n    /* \"@openzeppelin/contracts/utils/Context.sol\":656:752  function _msgSender() internal view virtual returns (address) {... */\n  jump\n    /* \"@openzeppelin/contracts/access/AccessControl.sol\":6397:6409  _msgSender() */\ntag_13:\n  sub(shl(0xa0, 0x01), 0x01)\n    /* \"@openzeppelin/contracts/access/AccessControl.sol\":6370:6410  RoleGranted(role, account, _msgSender()) */\n  and\n    /* \"@openzeppelin/contracts/access/AccessControl.sol\":6388:6395  account */\n  dup3\n  sub(shl(0xa0, 0x01), 0x01)\n    /* \"@openzeppelin/contracts/access/AccessControl.sol\":6370:6410  RoleGranted(role, account, _msgSender()) */\n  and\n    /* \"@openzeppelin/contracts/access/AccessControl.sol\":6382:6386  role */\n  dup5\n    /* \"@openzeppelin/contracts/access/AccessControl.sol\":6370:6410  RoleGranted(role, account, _msgSender()) */\n  0x2f8788117e7eff1d82e926ec794901d17c78024a50270940304540a733656f0d\n  mload(0x40)\n  mload(0x40)\n  dup1\n  swap2\n  sub\n  swap1\n  log4\n  pop\n    /* \"@openzeppelin/contracts/access/AccessControl.sol\":6431:6435  true */\n  0x01\n    /* \"@openzeppelin/contracts/access/AccessControl.sol\":6424:6435  return true */\n  jump(tag_15)\n    /* \"@openzeppelin/contracts/access/AccessControl.sol\":6272:6489  if (!hasRole(role, account)) {... */\ntag_12:\n  pop\n    /* \"@openzeppelin/contracts/access/AccessControl.sol\":6473:6478  false */\n  0x00\n    /* \"@openzeppelin/contracts/access/AccessControl.sol\":6272:6489  if (!hasRole(role, account)) {... */\ntag_15:\n    /* \"@openzeppelin/contracts/access/AccessControl.sol\":6179:6495  function _grantRole(bytes32 role, address account) internal virtual returns (bool) {... */\n  swap3\n  swap2\n  pop\n  pop\n  jump\t// out\n    /* \"#utility.yul\":14:304   */\ntag_3:\n    /* \"#utility.yul\":84:90   */\n  0x00\n    /* \"#utility.yul\":137:139   */\n  0x20\n    /* \"#utility.yul\":125:134   */\n  dup3\n    /* \"#utility.yul\":116:123   */\n  dup5\n    /* \"#utility.yul\":112:135   */\n  sub\n    /* \"#utility.yul\":108:140   */\n  slt\n    /* \"#utility.yul\":105:157   */\n  iszero\n  tag_20\n  jumpi\n    /* \"#utility.yul\":153:154   */\n  0x00\n    /* \"#utility.yul\":150:151   */\n  dup1\n    /* \"#utility.yul\":143:155   */\n  revert\n    /* \"#utility.yul\":105:157   */\ntag_20:\n    /* \"#utility.yul\":179:195   */\n  dup2\n  mload\n  sub(shl(0xa0, 0x01), 0x01)\n    /* \"#utility.yul\":224:255   */\n  dup2\n  and\n    /* \"#utility.yul\":214:256   */\n  dup2\n  eq\n    /* \"#utility.yul\":204:274   */\n  tag_21\n  jumpi\n    /* \"#utility.yul\":270:271   */\n  0x00\n    /* \"#utility.yul\":267:268   */\n  dup1\n    /* \"#utility.yul\":260:272   */\n  revert\n    /* \"#utility.yul\":204:274   */\ntag_21:\n    /* \"#utility.yul\":293:298   */\n  swap4\n    /* \"#utility.yul\":14:304   */\n  swap3\n  pop\n  pop\n  pop\n  jump\t// out\ntag_18:\n    /* \"VRFTester.sol\":183:2401  contract VRFManager is IVRFManager, AccessControl {    ... */\n  dataSize(sub_0)\n  dup1\n  dataOffset(sub_0)\n  0x00\n  codecopy\n  0x00\n  return\nstop\n\nsub_0: assembly {\n        /* \"VRFTester.sol\":183:2401  contract VRFManager is IVRFManager, AccessControl {    ... */\n      mstore(0x40, 0x80)\n      callvalue\n      dup1\n      iszero\n      tag_1\n      jumpi\n      0x00\n      dup1\n      revert\n    tag_1:\n      pop\n      jumpi(tag_2, lt(calldatasize, 0x04))\n      shr(0xe0, calldataload(0x00))\n      dup1\n      0x8796ba8c\n      gt\n      tag_18\n      jumpi\n      dup1\n      0xbdf1e06d\n      gt\n      tag_19\n      jumpi\n      dup1\n      0xbdf1e06d\n      eq\n      tag_14\n      jumpi\n      dup1\n      0xd547741f\n      eq\n      tag_15\n      jumpi\n      dup1\n      0xd8a4676f\n      eq\n      tag_16\n      jumpi\n      dup1\n      0xfc2a88c3\n      eq\n      tag_17\n      jumpi\n      0x00\n      dup1\n      revert\n    tag_19:\n      dup1\n      0x8796ba8c\n      eq\n      tag_10\n      jumpi\n      dup1\n      0x91d14854\n      eq\n      tag_11\n      jumpi\n      dup1\n      0xa168fa89\n      eq\n      tag_12\n      jumpi\n      dup1\n      0xa217fddf\n      eq\n      tag_13\n      jumpi\n      0x00\n      dup1\n      revert\n    tag_18:\n      dup1\n      0x2f2ff15d\n      gt\n      tag_20\n      jumpi\n      dup1\n      0x2f2ff15d\n      eq\n      tag_6\n      jumpi\n      dup1\n      0x36568abe\n      eq\n      tag_7\n      jumpi\n      dup1\n      0x38ba4614\n      eq\n      tag_8\n      jumpi\n      dup1\n      0x80c95b14\n      eq\n      tag_9\n      jumpi\n      0x00\n      dup1\n      revert\n    tag_20:\n      dup1\n      0x01ffc9a7\n      eq\n      tag_3\n      jumpi\n      dup1\n      0x0fa08046\n      eq\n      tag_4\n      jumpi\n      dup1\n      0x248a9ca3\n      eq\n      tag_5\n      jumpi\n    tag_2:\n      0x00\n      dup1\n      revert\n        /* \"@openzeppelin/contracts/access/AccessControl.sol\":2565:2767  function supportsInterface(bytes4 interfaceId) public view virtual override returns (bool) {... */\n    tag_3:\n      tag_21\n      tag_22\n      calldatasize\n      0x04\n      tag_23\n      jump\t// in\n    tag_22:\n      tag_24\n      jump\t// in\n    tag_21:\n      mload(0x40)\n        /* \"#utility.yul\":470:484   */\n      swap1\n      iszero\n        /* \"#utility.yul\":463:485   */\n      iszero\n        /* \"#utility.yul\":445:486   */\n      dup2\n      mstore\n        /* \"#utility.yul\":433:435   */\n      0x20\n        /* \"#utility.yul\":418:436   */\n      add\n        /* \"@openzeppelin/contracts/access/AccessControl.sol\":2565:2767  function supportsInterface(bytes4 interfaceId) public view virtual override returns (bool) {... */\n    tag_25:\n      mload(0x40)\n      dup1\n      swap2\n      sub\n      swap1\n      return\n        /* \"VRFTester.sol\":243:286  IHierarchicalDrawing public drawingContract */\n    tag_4:\n      sload(0x01)\n      tag_27\n      swap1\n      sub(shl(0xa0, 0x01), 0x01)\n      and\n      dup2\n      jump\n    tag_27:\n      mload(0x40)\n      sub(shl(0xa0, 0x01), 0x01)\n        /* \"#utility.yul\":689:721   */\n      swap1\n      swap2\n      and\n        /* \"#utility.yul\":671:722   */\n      dup2\n      mstore\n        /* \"#utility.yul\":659:661   */\n      0x20\n        /* \"#utility.yul\":644:662   */\n      add\n        /* \"VRFTester.sol\":243:286  IHierarchicalDrawing public drawingContract */\n      tag_25\n        /* \"#utility.yul\":497:728   */\n      jump\n        /* \"@openzeppelin/contracts/access/AccessControl.sol\":3810:3930  function getRoleAdmin(bytes32 role) public view virtual returns (bytes32) {... */\n    tag_5:\n      tag_31\n      tag_32\n      calldatasize\n      0x04\n      tag_33\n      jump\t// in\n    tag_32:\n        /* \"@openzeppelin/contracts/access/AccessControl.sol\":3875:3882  bytes32 */\n      0x00\n        /* \"@openzeppelin/contracts/access/AccessControl.sol\":3901:3913  _roles[role] */\n      swap1\n      dup2\n      mstore\n      0x20\n      dup2\n      swap1\n      mstore\n      0x40\n      swap1\n      keccak256\n        /* \"@openzeppelin/contracts/access/AccessControl.sol\":3901:3923  _roles[role].adminRole */\n      0x01\n      add\n      sload\n      swap1\n        /* \"@openzeppelin/contracts/access/AccessControl.sol\":3810:3930  function getRoleAdmin(bytes32 role) public view virtual returns (bytes32) {... */\n      jump\n    tag_31:\n      mload(0x40)\n        /* \"#utility.yul\":1064:1089   */\n      swap1\n      dup2\n      mstore\n        /* \"#utility.yul\":1052:1054   */\n      0x20\n        /* \"#utility.yul\":1037:1055   */\n      add\n        /* \"@openzeppelin/contracts/access/AccessControl.sol\":3810:3930  function getRoleAdmin(bytes32 role) public view virtual returns (bytes32) {... */\n      tag_25\n        /* \"#utility.yul\":918:1095   */\n      jump\n        /* \"@openzeppelin/contracts/access/AccessControl.sol\":4226:4362  function grantRole(bytes32 role, address account) public virtual onlyRole(getRoleAdmin(role)) {... */\n    tag_6:\n      tag_37\n      tag_38\n      calldatasize\n      0x04\n      tag_39\n      jump\t// in\n    tag_38:\n      tag_40\n      jump\t// in\n    tag_37:\n      stop\n        /* \"@openzeppelin/contracts/access/AccessControl.sol\":5328:5573  function renounceRole(bytes32 role, address callerConfirmation) public virtual {... */\n    tag_7:\n      tag_37\n      tag_42\n      calldatasize\n      0x04\n      tag_39\n      jump\t// in\n    tag_42:\n      tag_43\n      jump\t// in\n        /* \"VRFTester.sol\":1628:2068  function fulfillRandomWords(... */\n    tag_8:\n      tag_37\n      tag_45\n      calldatasize\n      0x04\n      tag_46\n      jump\t// in\n    tag_45:\n      tag_47\n      jump\t// in\n        /* \"VRFTester.sol\":1079:1550  function requestRandomWords(address _requester) external returns(uint256 requestId){... */\n    tag_9:\n      tag_31\n      tag_49\n      calldatasize\n      0x04\n      tag_50\n      jump\t// in\n    tag_49:\n      tag_51\n      jump\t// in\n        /* \"VRFTester.sol\":589:616  uint256[] public requestIds */\n    tag_10:\n      tag_31\n      tag_55\n      calldatasize\n      0x04\n      tag_33\n      jump\t// in\n    tag_55:\n      tag_57\n      jump\t// in\n        /* \"@openzeppelin/contracts/access/AccessControl.sol\":2854:2990  function hasRole(bytes32 role, address account) public view virtual returns (bool) {... */\n    tag_11:\n      tag_21\n      tag_60\n      calldatasize\n      0x04\n      tag_39\n      jump\t// in\n    tag_60:\n      tag_61\n      jump\t// in\n        /* \"VRFTester.sol\":526:577  mapping(uint256 => RequestStatus) public s_requests */\n    tag_12:\n      tag_63\n      tag_64\n      calldatasize\n      0x04\n      tag_33\n      jump\t// in\n    tag_64:\n      mstore(0x20, 0x02)\n      0x00\n      swap1\n      dup2\n      mstore\n      0x40\n      swap1\n      keccak256\n      sload\n      0xff\n      dup1\n      dup3\n      and\n      swap2\n      0x0100\n      swap1\n      div\n      and\n      dup3\n      jump\n    tag_63:\n      0x40\n      dup1\n      mload\n        /* \"#utility.yul\":3602:3616   */\n      swap3\n      iszero\n        /* \"#utility.yul\":3595:3617   */\n      iszero\n        /* \"#utility.yul\":3577:3618   */\n      dup4\n      mstore\n        /* \"#utility.yul\":3661:3675   */\n      swap1\n      iszero\n        /* \"#utility.yul\":3654:3676   */\n      iszero\n        /* \"#utility.yul\":3649:3651   */\n      0x20\n        /* \"#utility.yul\":3634:3652   */\n      dup4\n      add\n        /* \"#utility.yul\":3627:3677   */\n      mstore\n        /* \"#utility.yul\":3550:3568   */\n      add\n        /* \"VRFTester.sol\":526:577  mapping(uint256 => RequestStatus) public s_requests */\n      tag_25\n        /* \"#utility.yul\":3415:3683   */\n      jump\n        /* \"@openzeppelin/contracts/access/AccessControl.sol\":2187:2236  bytes32 public constant DEFAULT_ADMIN_ROLE = 0x00 */\n    tag_13:\n      tag_31\n        /* \"@openzeppelin/contracts/access/AccessControl.sol\":2232:2236  0x00 */\n      0x00\n        /* \"@openzeppelin/contracts/access/AccessControl.sol\":2187:2236  bytes32 public constant DEFAULT_ADMIN_ROLE = 0x00 */\n      dup2\n      jump\n        /* \"VRFTester.sol\":895:1027  function setDrawingContract(address _contract) external onlyOwner {... */\n    tag_14:\n      tag_37\n      tag_72\n      calldatasize\n      0x04\n      tag_50\n      jump\t// in\n    tag_72:\n      tag_73\n      jump\t// in\n        /* \"@openzeppelin/contracts/access/AccessControl.sol\":4642:4780  function revokeRole(bytes32 role, address account) public virtual onlyRole(getRoleAdmin(role)) {... */\n    tag_15:\n      tag_37\n      tag_75\n      calldatasize\n      0x04\n      tag_39\n      jump\t// in\n    tag_75:\n      tag_76\n      jump\t// in\n        /* \"VRFTester.sol\":2074:2399  function getRequestStatus(... */\n    tag_16:\n      tag_77\n      tag_78\n      calldatasize\n      0x04\n      tag_33\n      jump\t// in\n    tag_78:\n      tag_79\n      jump\t// in\n    tag_77:\n      mload(0x40)\n      tag_25\n      swap3\n      swap2\n      swap1\n      tag_81\n      jump\t// in\n        /* \"VRFTester.sol\":622:650  uint256 public lastRequestId */\n    tag_17:\n      tag_31\n      sload(0x04)\n      dup2\n      jump\n        /* \"@openzeppelin/contracts/access/AccessControl.sol\":2565:2767  function supportsInterface(bytes4 interfaceId) public view virtual override returns (bool) {... */\n    tag_24:\n        /* \"@openzeppelin/contracts/access/AccessControl.sol\":2650:2654  bool */\n      0x00\n      not(sub(shl(0xe0, 0x01), 0x01))\n        /* \"@openzeppelin/contracts/access/AccessControl.sol\":2673:2720  interfaceId == type(IAccessControl).interfaceId */\n      dup3\n      and\n      shl(0xe0, 0x7965db0b)\n      eq\n      dup1\n        /* \"@openzeppelin/contracts/access/AccessControl.sol\":2673:2760  interfaceId == type(IAccessControl).interfaceId || super.supportsInterface(interfaceId) */\n      tag_87\n      jumpi\n      pop\n      shl(0xe0, 0x01ffc9a7)\n      not(sub(shl(0xe0, 0x01), 0x01))\n        /* \"@openzeppelin/contracts/utils/introspection/ERC165.sol\":861:901  interfaceId == type(IERC165).interfaceId */\n      dup4\n      and\n      eq\n        /* \"@openzeppelin/contracts/access/AccessControl.sol\":2724:2760  super.supportsInterface(interfaceId) */\n    tag_87:\n        /* \"@openzeppelin/contracts/access/AccessControl.sol\":2666:2760  return interfaceId == type(IAccessControl).interfaceId || super.supportsInterface(interfaceId) */\n      swap3\n        /* \"@openzeppelin/contracts/access/AccessControl.sol\":2565:2767  function supportsInterface(bytes4 interfaceId) public view virtual override returns (bool) {... */\n      swap2\n      pop\n      pop\n      jump\t// out\n        /* \"@openzeppelin/contracts/access/AccessControl.sol\":4226:4362  function grantRole(bytes32 role, address account) public virtual onlyRole(getRoleAdmin(role)) {... */\n    tag_40:\n        /* \"@openzeppelin/contracts/access/AccessControl.sol\":3875:3882  bytes32 */\n      0x00\n        /* \"@openzeppelin/contracts/access/AccessControl.sol\":3901:3913  _roles[role] */\n      dup3\n      dup2\n      mstore\n      0x20\n      dup2\n      swap1\n      mstore\n      0x40\n      swap1\n      keccak256\n        /* \"@openzeppelin/contracts/access/AccessControl.sol\":3901:3923  _roles[role].adminRole */\n      0x01\n      add\n      sload\n        /* \"@openzeppelin/contracts/access/AccessControl.sol\":2464:2480  _checkRole(role) */\n      tag_92\n        /* \"@openzeppelin/contracts/access/AccessControl.sol\":2475:2479  role */\n      dup2\n        /* \"@openzeppelin/contracts/access/AccessControl.sol\":2464:2474  _checkRole */\n      tag_93\n        /* \"@openzeppelin/contracts/access/AccessControl.sol\":2464:2480  _checkRole(role) */\n      jump\t// in\n    tag_92:\n        /* \"@openzeppelin/contracts/access/AccessControl.sol\":4330:4355  _grantRole(role, account) */\n      tag_95\n        /* \"@openzeppelin/contracts/access/AccessControl.sol\":4341:4345  role */\n      dup4\n        /* \"@openzeppelin/contracts/access/AccessControl.sol\":4347:4354  account */\n      dup4\n        /* \"@openzeppelin/contracts/access/AccessControl.sol\":4330:4340  _grantRole */\n      tag_96\n        /* \"@openzeppelin/contracts/access/AccessControl.sol\":4330:4355  _grantRole(role, account) */\n      jump\t// in\n    tag_95:\n      pop\n        /* \"@openzeppelin/contracts/access/AccessControl.sol\":4226:4362  function grantRole(bytes32 role, address account) public virtual onlyRole(getRoleAdmin(role)) {... */\n      pop\n      pop\n      pop\n      jump\t// out\n        /* \"@openzeppelin/contracts/access/AccessControl.sol\":5328:5573  function renounceRole(bytes32 role, address callerConfirmation) public virtual {... */\n    tag_43:\n      sub(shl(0xa0, 0x01), 0x01)\n        /* \"@openzeppelin/contracts/access/AccessControl.sol\":5421:5455  callerConfirmation != _msgSender() */\n      dup2\n      and\n        /* \"@openzeppelin/contracts/utils/Context.sol\":735:745  msg.sender */\n      caller\n        /* \"@openzeppelin/contracts/access/AccessControl.sol\":5421:5455  callerConfirmation != _msgSender() */\n      eq\n        /* \"@openzeppelin/contracts/access/AccessControl.sol\":5417:5519  if (callerConfirmation != _msgSender()) {... */\n      tag_100\n      jumpi\n        /* \"@openzeppelin/contracts/access/AccessControl.sol\":5478:5508  AccessControlBadConfirmation() */\n      mload(0x40)\n      shl(0xe1, 0x334bd919)\n      dup2\n      mstore\n      0x04\n      add\n      mload(0x40)\n      dup1\n      swap2\n      sub\n      swap1\n      revert\n        /* \"@openzeppelin/contracts/access/AccessControl.sol\":5417:5519  if (callerConfirmation != _msgSender()) {... */\n    tag_100:\n        /* \"@openzeppelin/contracts/access/AccessControl.sol\":5529:5566  _revokeRole(role, callerConfirmation) */\n      tag_101\n        /* \"@openzeppelin/contracts/access/AccessControl.sol\":5541:5545  role */\n      dup3\n        /* \"@openzeppelin/contracts/access/AccessControl.sol\":5547:5565  callerConfirmation */\n      dup3\n        /* \"@openzeppelin/contracts/access/AccessControl.sol\":5529:5540  _revokeRole */\n      tag_102\n        /* \"@openzeppelin/contracts/access/AccessControl.sol\":5529:5566  _revokeRole(role, callerConfirmation) */\n      jump\t// in\n    tag_101:\n      pop\n        /* \"@openzeppelin/contracts/access/AccessControl.sol\":5328:5573  function renounceRole(bytes32 role, address callerConfirmation) public virtual {... */\n      pop\n      pop\n      jump\t// out\n        /* \"VRFTester.sol\":1628:2068  function fulfillRandomWords(... */\n    tag_47:\n        /* \"VRFTester.sol\":807:846  hasRole(DEFAULT_ADMIN_ROLE, msg.sender) */\n      tag_104\n        /* \"@openzeppelin/contracts/access/AccessControl.sol\":2232:2236  0x00 */\n      0x00\n        /* \"VRFTester.sol\":835:845  msg.sender */\n      caller\n        /* \"VRFTester.sol\":807:814  hasRole */\n      tag_61\n        /* \"VRFTester.sol\":807:846  hasRole(DEFAULT_ADMIN_ROLE, msg.sender) */\n      jump\t// in\n    tag_104:\n        /* \"VRFTester.sol\":799:871  require(hasRole(DEFAULT_ADMIN_ROLE, msg.sender), \"Restricted to admin.\") */\n      tag_105\n      jumpi\n      mload(0x40)\n      shl(0xe5, 0x461bcd)\n      dup2\n      mstore\n        /* \"#utility.yul\":4677:4679   */\n      0x20\n        /* \"VRFTester.sol\":799:871  require(hasRole(DEFAULT_ADMIN_ROLE, msg.sender), \"Restricted to admin.\") */\n      0x04\n      dup3\n      add\n        /* \"#utility.yul\":4659:4680   */\n      mstore\n        /* \"#utility.yul\":4716:4718   */\n      0x14\n        /* \"#utility.yul\":4696:4714   */\n      0x24\n      dup3\n      add\n        /* \"#utility.yul\":4689:4719   */\n      mstore\n      shl(0x61, 0x2932b9ba3934b1ba32b2103a379030b236b4b717)\n        /* \"#utility.yul\":4735:4753   */\n      0x44\n      dup3\n      add\n        /* \"#utility.yul\":4728:4778   */\n      mstore\n        /* \"#utility.yul\":4795:4813   */\n      0x64\n      add\n        /* \"VRFTester.sol\":799:871  require(hasRole(DEFAULT_ADMIN_ROLE, msg.sender), \"Restricted to admin.\") */\n    tag_106:\n      mload(0x40)\n      dup1\n      swap2\n      sub\n      swap1\n      revert\n    tag_105:\n        /* \"VRFTester.sol\":1766:1788  s_requests[_requestId] */\n      0x00\n      dup3\n      dup2\n      mstore\n        /* \"VRFTester.sol\":1766:1776  s_requests */\n      0x02\n        /* \"VRFTester.sol\":1766:1788  s_requests[_requestId] */\n      0x20\n      mstore\n      0x40\n      swap1\n      keccak256\n        /* \"VRFTester.sol\":1766:1795  s_requests[_requestId].exists */\n      sload\n      0x0100\n      swap1\n      div\n      0xff\n      and\n        /* \"VRFTester.sol\":1758:1817  require(s_requests[_requestId].exists, \"request not found\") */\n      tag_109\n      jumpi\n      mload(0x40)\n      shl(0xe5, 0x461bcd)\n      dup2\n      mstore\n        /* \"#utility.yul\":5026:5028   */\n      0x20\n        /* \"VRFTester.sol\":1758:1817  require(s_requests[_requestId].exists, \"request not found\") */\n      0x04\n      dup3\n      add\n        /* \"#utility.yul\":5008:5029   */\n      mstore\n        /* \"#utility.yul\":5065:5067   */\n      0x11\n        /* \"#utility.yul\":5045:5063   */\n      0x24\n      dup3\n      add\n        /* \"#utility.yul\":5038:5068   */\n      mstore\n      shl(0x7a, 0x1c995c5d595cdd081b9bdd08199bdd5b99)\n        /* \"#utility.yul\":5084:5102   */\n      0x44\n      dup3\n      add\n        /* \"#utility.yul\":5077:5124   */\n      mstore\n        /* \"#utility.yul\":5141:5159   */\n      0x64\n      add\n        /* \"VRFTester.sol\":1758:1817  require(s_requests[_requestId].exists, \"request not found\") */\n      tag_106\n        /* \"#utility.yul\":4824:5165   */\n      jump\n        /* \"VRFTester.sol\":1758:1817  require(s_requests[_requestId].exists, \"request not found\") */\n    tag_109:\n        /* \"VRFTester.sol\":1827:1849  s_requests[_requestId] */\n      0x00\n      dup3\n      dup2\n      mstore\n        /* \"VRFTester.sol\":1827:1837  s_requests */\n      0x02\n        /* \"VRFTester.sol\":1827:1849  s_requests[_requestId] */\n      0x20\n      swap1\n      dup2\n      mstore\n      0x40\n      swap1\n      swap2\n      keccak256\n        /* \"VRFTester.sol\":1827:1866  s_requests[_requestId].fulfilled = true */\n      dup1\n      sload\n      not(0xff)\n      and\n        /* \"VRFTester.sol\":1862:1866  true */\n      0x01\n        /* \"VRFTester.sol\":1827:1866  s_requests[_requestId].fulfilled = true */\n      swap1\n      dup2\n      or\n      dup3\n      sstore\n        /* \"VRFTester.sol\":1876:1925  s_requests[_requestId].randomWords = _randomWords */\n      dup4\n      mload\n      tag_112\n      swap4\n        /* \"VRFTester.sol\":1876:1910  s_requests[_requestId].randomWords */\n      swap3\n      swap1\n      swap2\n      add\n      swap2\n        /* \"VRFTester.sol\":1876:1925  s_requests[_requestId].randomWords = _randomWords */\n      dup5\n      add\n      swap1\n      tag_113\n      jump\t// in\n    tag_112:\n      pop\n        /* \"VRFTester.sol\":1944:1959  drawingContract */\n      sload(0x01)\n        /* \"VRFTester.sol\":1944:2004  drawingContract.fulfillRandomWords(_requestId, _randomWords) */\n      mload(0x40)\n      shl(0xe2, 0x0e2e9185)\n      dup2\n      mstore\n      sub(shl(0xa0, 0x01), 0x01)\n        /* \"VRFTester.sol\":1944:1959  drawingContract */\n      swap1\n      swap2\n      and\n      swap1\n        /* \"VRFTester.sol\":1944:1978  drawingContract.fulfillRandomWords */\n      0x38ba4614\n      swap1\n        /* \"VRFTester.sol\":1944:2004  drawingContract.fulfillRandomWords(_requestId, _randomWords) */\n      tag_114\n      swap1\n        /* \"VRFTester.sol\":1979:1989  _requestId */\n      dup6\n      swap1\n        /* \"VRFTester.sol\":1991:2003  _randomWords */\n      dup6\n      swap1\n        /* \"VRFTester.sol\":1944:2004  drawingContract.fulfillRandomWords(_requestId, _randomWords) */\n      0x04\n      add\n      tag_115\n      jump\t// in\n    tag_114:\n      0x00\n      mload(0x40)\n      dup1\n      dup4\n      sub\n      dup2\n      0x00\n      dup8\n      dup1\n      extcodesize\n      iszero\n      dup1\n      iszero\n      tag_116\n      jumpi\n      0x00\n      dup1\n      revert\n    tag_116:\n      pop\n      gas\n      call\n      iszero\n      dup1\n      iszero\n      tag_118\n      jumpi\n      returndatasize\n      0x00\n      dup1\n      returndatacopy\n      revert(0x00, returndatasize)\n    tag_118:\n      pop\n      pop\n      pop\n      pop\n        /* \"VRFTester.sol\":2019:2061  RequestFulfilled(_requestId, _randomWords) */\n      0xfe2e2d779dba245964d4e3ef9b994be63856fd568bf7d3ca9e224755cb1bd54d\n        /* \"VRFTester.sol\":2036:2046  _requestId */\n      dup3\n        /* \"VRFTester.sol\":2048:2060  _randomWords */\n      dup3\n        /* \"VRFTester.sol\":2019:2061  RequestFulfilled(_requestId, _randomWords) */\n      mload(0x40)\n      tag_119\n      swap3\n      swap2\n      swap1\n      tag_115\n      jump\t// in\n    tag_119:\n      mload(0x40)\n      dup1\n      swap2\n      sub\n      swap1\n      log1\n        /* \"VRFTester.sol\":1628:2068  function fulfillRandomWords(... */\n      pop\n      pop\n      jump\t// out\n        /* \"VRFTester.sol\":1079:1550  function requestRandomWords(address _requester) external returns(uint256 requestId){... */\n    tag_51:\n        /* \"VRFTester.sol\":1202:1247  abi.encodePacked(_requester, block.timestamp) */\n      mload(0x40)\n      not(0xffffffffffffffffffffffff)\n        /* \"#utility.yul\":5684:5686   */\n      0x60\n        /* \"#utility.yul\":5680:5695   */\n      dup4\n      swap1\n      shl\n        /* \"#utility.yul\":5676:5729   */\n      and\n        /* \"VRFTester.sol\":1202:1247  abi.encodePacked(_requester, block.timestamp) */\n      0x20\n      dup3\n      add\n        /* \"#utility.yul\":5664:5730   */\n      mstore\n        /* \"VRFTester.sol\":1231:1246  block.timestamp */\n      timestamp\n        /* \"#utility.yul\":5746:5758   */\n      0x34\n      dup3\n      add\n        /* \"#utility.yul\":5739:5767   */\n      mstore\n        /* \"VRFTester.sol\":1144:1161  uint256 requestId */\n      0x00\n      swap1\n        /* \"#utility.yul\":5783:5795   */\n      0x54\n      add\n        /* \"VRFTester.sol\":1202:1247  abi.encodePacked(_requester, block.timestamp) */\n      0x40\n      dup1\n      mload\n      dup1\n      dup4\n      sub\n      not(0x1f)\n      add\n      dup2\n      mstore\n      dup3\n      dup3\n      mstore\n        /* \"VRFTester.sol\":1192:1248  keccak256(abi.encodePacked(_requester, block.timestamp)) */\n      dup1\n      mload\n        /* \"VRFTester.sol\":1202:1247  abi.encodePacked(_requester, block.timestamp) */\n      0x20\n        /* \"VRFTester.sol\":1192:1248  keccak256(abi.encodePacked(_requester, block.timestamp)) */\n      swap2\n      dup3\n      add\n      keccak256\n        /* \"VRFTester.sol\":1284:1396  RequestStatus({... */\n      0x60\n      dup5\n      add\n      dup4\n      mstore\n      0x00\n      dup1\n      dup6\n      mstore\n      0x01\n      dup4\n      dup7\n      add\n      mstore\n        /* \"VRFTester.sol\":1321:1337  new uint256[](0) */\n      dup4\n      mload\n      dup2\n      dup2\n      mstore\n      swap3\n      dup4\n      add\n      dup5\n      mstore\n        /* \"VRFTester.sol\":1192:1248  keccak256(abi.encodePacked(_requester, block.timestamp)) */\n      swap1\n      swap5\n      pop\n        /* \"VRFTester.sol\":1284:1396  RequestStatus({... */\n      swap2\n      dup4\n      add\n      swap2\n      pop\n      swap1\n      mstore\n        /* \"VRFTester.sol\":1260:1281  s_requests[requestId] */\n      0x00\n      dup3\n      dup2\n      mstore\n        /* \"VRFTester.sol\":1260:1270  s_requests */\n      0x02\n        /* \"VRFTester.sol\":1260:1281  s_requests[requestId] */\n      0x20\n      swap1\n      dup2\n      mstore\n      0x40\n      swap2\n      dup3\n      swap1\n      keccak256\n        /* \"VRFTester.sol\":1260:1396  s_requests[requestId] = RequestStatus({... */\n      dup4\n      mload\n      dup2\n      sload\n      dup6\n      dup5\n      add\n      mload\n      iszero\n      iszero\n      0x0100\n      mul\n      not(0xff00)\n      swap3\n      iszero\n      iszero\n      swap3\n      swap1\n      swap3\n      and\n      not(0xffff)\n      swap1\n      swap2\n      and\n      or\n      or\n      dup2\n      sstore\n      swap2\n      dup4\n      add\n      mload\n      dup1\n      mload\n      tag_127\n      swap3\n      0x01\n      dup6\n      add\n      swap3\n      add\n      swap1\n      tag_113\n      jump\t// in\n    tag_127:\n      pop\n      pop\n        /* \"VRFTester.sol\":1407:1417  requestIds */\n      0x03\n        /* \"VRFTester.sol\":1407:1433  requestIds.push(requestId) */\n      dup1\n      sload\n      0x01\n      dup2\n      add\n      dup3\n      sstore\n      0x00\n      swap2\n      swap1\n      swap2\n      mstore\n      0xc2575a0e9e593c00f959f8c92f12db2869c3395a3b0502d05e2516446f71f85b\n      add\n      dup3\n      swap1\n      sstore\n      pop\n        /* \"VRFTester.sol\":1443:1456  lastRequestId */\n      0x04\n        /* \"VRFTester.sol\":1443:1468  lastRequestId = requestId */\n      dup2\n      swap1\n      sstore\n        /* \"VRFTester.sol\":1483:1517  RequestSent(requestId, _requester) */\n      0x40\n      dup1\n      mload\n        /* \"#utility.yul\":5980:6005   */\n      dup3\n      dup2\n      mstore\n      sub(shl(0xa0, 0x01), 0x01)\n        /* \"#utility.yul\":6041:6073   */\n      dup5\n      and\n        /* \"#utility.yul\":6036:6038   */\n      0x20\n        /* \"#utility.yul\":6021:6039   */\n      dup3\n      add\n        /* \"#utility.yul\":6014:6074   */\n      mstore\n        /* \"VRFTester.sol\":1483:1517  RequestSent(requestId, _requester) */\n      0x48b98ad7a8a8dbe21cc82bf98710ad4d2cdd949ccac393692e4d9a1722c162c7\n      swap2\n        /* \"#utility.yul\":5953:5971   */\n      add\n        /* \"VRFTester.sol\":1483:1517  RequestSent(requestId, _requester) */\n      mload(0x40)\n      dup1\n      swap2\n      sub\n      swap1\n      log1\n        /* \"VRFTester.sol\":1079:1550  function requestRandomWords(address _requester) external returns(uint256 requestId){... */\n      swap2\n      swap1\n      pop\n      jump\t// out\n        /* \"VRFTester.sol\":589:616  uint256[] public requestIds */\n    tag_57:\n      0x03\n      dup2\n      dup2\n      sload\n      dup2\n      lt\n      tag_131\n      jumpi\n      0x00\n      dup1\n      revert\n    tag_131:\n      0x00\n      swap2\n      dup3\n      mstore\n      0x20\n      swap1\n      swap2\n      keccak256\n      add\n      sload\n      swap1\n      pop\n      dup2\n      jump\t// out\n        /* \"@openzeppelin/contracts/access/AccessControl.sol\":2854:2990  function hasRole(bytes32 role, address account) public view virtual returns (bool) {... */\n    tag_61:\n        /* \"@openzeppelin/contracts/access/AccessControl.sol\":2931:2935  bool */\n      0x00\n        /* \"@openzeppelin/contracts/access/AccessControl.sol\":2954:2966  _roles[role] */\n      swap2\n      dup3\n      mstore\n      0x20\n      dup3\n      dup2\n      mstore\n      0x40\n      dup1\n      dup5\n      keccak256\n      sub(shl(0xa0, 0x01), 0x01)\n        /* \"@openzeppelin/contracts/access/AccessControl.sol\":2954:2983  _roles[role].hasRole[account] */\n      swap4\n      swap1\n      swap4\n      and\n      dup5\n      mstore\n      swap2\n      swap1\n      mstore\n      swap1\n      keccak256\n      sload\n      0xff\n      and\n      swap1\n        /* \"@openzeppelin/contracts/access/AccessControl.sol\":2854:2990  function hasRole(bytes32 role, address account) public view virtual returns (bool) {... */\n      jump\t// out\n        /* \"VRFTester.sol\":895:1027  function setDrawingContract(address _contract) external onlyOwner {... */\n    tag_73:\n        /* \"VRFTester.sol\":807:846  hasRole(DEFAULT_ADMIN_ROLE, msg.sender) */\n      tag_135\n        /* \"@openzeppelin/contracts/access/AccessControl.sol\":2232:2236  0x00 */\n      0x00\n        /* \"VRFTester.sol\":835:845  msg.sender */\n      caller\n        /* \"VRFTester.sol\":807:814  hasRole */\n      tag_61\n        /* \"VRFTester.sol\":807:846  hasRole(DEFAULT_ADMIN_ROLE, msg.sender) */\n      jump\t// in\n    tag_135:\n        /* \"VRFTester.sol\":799:871  require(hasRole(DEFAULT_ADMIN_ROLE, msg.sender), \"Restricted to admin.\") */\n      tag_136\n      jumpi\n      mload(0x40)\n      shl(0xe5, 0x461bcd)\n      dup2\n      mstore\n        /* \"#utility.yul\":4677:4679   */\n      0x20\n        /* \"VRFTester.sol\":799:871  require(hasRole(DEFAULT_ADMIN_ROLE, msg.sender), \"Restricted to admin.\") */\n      0x04\n      dup3\n      add\n        /* \"#utility.yul\":4659:4680   */\n      mstore\n        /* \"#utility.yul\":4716:4718   */\n      0x14\n        /* \"#utility.yul\":4696:4714   */\n      0x24\n      dup3\n      add\n        /* \"#utility.yul\":4689:4719   */\n      mstore\n      shl(0x61, 0x2932b9ba3934b1ba32b2103a379030b236b4b717)\n        /* \"#utility.yul\":4735:4753   */\n      0x44\n      dup3\n      add\n        /* \"#utility.yul\":4728:4778   */\n      mstore\n        /* \"#utility.yul\":4795:4813   */\n      0x64\n      add\n        /* \"VRFTester.sol\":799:871  require(hasRole(DEFAULT_ADMIN_ROLE, msg.sender), \"Restricted to admin.\") */\n      tag_106\n        /* \"#utility.yul\":4475:4819   */\n      jump\n        /* \"VRFTester.sol\":799:871  require(hasRole(DEFAULT_ADMIN_ROLE, msg.sender), \"Restricted to admin.\") */\n    tag_136:\n        /* \"VRFTester.sol\":971:986  drawingContract */\n      0x01\n        /* \"VRFTester.sol\":971:1020  drawingContract = IHierarchicalDrawing(_contract) */\n      dup1\n      sload\n      not(sub(shl(0xa0, 0x01), 0x01))\n      and\n      sub(shl(0xa0, 0x01), 0x01)\n      swap3\n      swap1\n      swap3\n      and\n      swap2\n      swap1\n      swap2\n      or\n      swap1\n      sstore\n        /* \"VRFTester.sol\":895:1027  function setDrawingContract(address _contract) external onlyOwner {... */\n      jump\t// out\n        /* \"@openzeppelin/contracts/access/AccessControl.sol\":4642:4780  function revokeRole(bytes32 role, address account) public virtual onlyRole(getRoleAdmin(role)) {... */\n    tag_76:\n        /* \"@openzeppelin/contracts/access/AccessControl.sol\":3875:3882  bytes32 */\n      0x00\n        /* \"@openzeppelin/contracts/access/AccessControl.sol\":3901:3913  _roles[role] */\n      dup3\n      dup2\n      mstore\n      0x20\n      dup2\n      swap1\n      mstore\n      0x40\n      swap1\n      keccak256\n        /* \"@openzeppelin/contracts/access/AccessControl.sol\":3901:3923  _roles[role].adminRole */\n      0x01\n      add\n      sload\n        /* \"@openzeppelin/contracts/access/AccessControl.sol\":2464:2480  _checkRole(role) */\n      tag_141\n        /* \"@openzeppelin/contracts/access/AccessControl.sol\":2475:2479  role */\n      dup2\n        /* \"@openzeppelin/contracts/access/AccessControl.sol\":2464:2474  _checkRole */\n      tag_93\n        /* \"@openzeppelin/contracts/access/AccessControl.sol\":2464:2480  _checkRole(role) */\n      jump\t// in\n    tag_141:\n        /* \"@openzeppelin/contracts/access/AccessControl.sol\":4747:4773  _revokeRole(role, account) */\n      tag_95\n        /* \"@openzeppelin/contracts/access/AccessControl.sol\":4759:4763  role */\n      dup4\n        /* \"@openzeppelin/contracts/access/AccessControl.sol\":4765:4772  account */\n      dup4\n        /* \"@openzeppelin/contracts/access/AccessControl.sol\":4747:4758  _revokeRole */\n      tag_102\n        /* \"@openzeppelin/contracts/access/AccessControl.sol\":4747:4773  _revokeRole(role, account) */\n      jump\t// in\n        /* \"VRFTester.sol\":2074:2399  function getRequestStatus(... */\n    tag_79:\n        /* \"VRFTester.sol\":2157:2171  bool fulfilled */\n      0x00\n        /* \"VRFTester.sol\":2221:2243  s_requests[_requestId] */\n      dup2\n      dup2\n      mstore\n        /* \"VRFTester.sol\":2221:2231  s_requests */\n      0x02\n        /* \"VRFTester.sol\":2221:2243  s_requests[_requestId] */\n      0x20\n      mstore\n      0x40\n      dup2\n      keccak256\n        /* \"VRFTester.sol\":2221:2250  s_requests[_requestId].exists */\n      sload\n        /* \"VRFTester.sol\":2173:2201  uint256[] memory randomWords */\n      0x60\n      swap1\n        /* \"VRFTester.sol\":2221:2250  s_requests[_requestId].exists */\n      0x0100\n      swap1\n      div\n      0xff\n      and\n        /* \"VRFTester.sol\":2213:2272  require(s_requests[_requestId].exists, \"request not found\") */\n      tag_145\n      jumpi\n      mload(0x40)\n      shl(0xe5, 0x461bcd)\n      dup2\n      mstore\n        /* \"#utility.yul\":5026:5028   */\n      0x20\n        /* \"VRFTester.sol\":2213:2272  require(s_requests[_requestId].exists, \"request not found\") */\n      0x04\n      dup3\n      add\n        /* \"#utility.yul\":5008:5029   */\n      mstore\n        /* \"#utility.yul\":5065:5067   */\n      0x11\n        /* \"#utility.yul\":5045:5063   */\n      0x24\n      dup3\n      add\n        /* \"#utility.yul\":5038:5068   */\n      mstore\n      shl(0x7a, 0x1c995c5d595cdd081b9bdd08199bdd5b99)\n        /* \"#utility.yul\":5084:5102   */\n      0x44\n      dup3\n      add\n        /* \"#utility.yul\":5077:5124   */\n      mstore\n        /* \"#utility.yul\":5141:5159   */\n      0x64\n      add\n        /* \"VRFTester.sol\":2213:2272  require(s_requests[_requestId].exists, \"request not found\") */\n      tag_106\n        /* \"#utility.yul\":4824:5165   */\n      jump\n        /* \"VRFTester.sol\":2213:2272  require(s_requests[_requestId].exists, \"request not found\") */\n    tag_145:\n        /* \"VRFTester.sol\":2282:2310  RequestStatus memory request */\n      0x00\n        /* \"VRFTester.sol\":2313:2335  s_requests[_requestId] */\n      dup4\n      dup2\n      mstore\n        /* \"VRFTester.sol\":2313:2323  s_requests */\n      0x02\n        /* \"VRFTester.sol\":2313:2335  s_requests[_requestId] */\n      0x20\n      swap1\n      dup2\n      mstore\n      0x40\n      dup1\n      dup4\n      keccak256\n        /* \"VRFTester.sol\":2282:2335  RequestStatus memory request = s_requests[_requestId] */\n      dup2\n      mload\n      0x60\n      dup2\n      add\n      dup4\n      mstore\n      dup2\n      sload\n      0xff\n      dup1\n      dup3\n      and\n      iszero\n      iszero\n      dup4\n      mstore\n      0x0100\n      swap1\n      swap2\n      div\n      and\n      iszero\n      iszero\n      dup2\n      dup6\n      add\n      mstore\n      0x01\n      dup3\n      add\n      dup1\n      sload\n      dup5\n      mload\n      dup2\n      dup8\n      mul\n      dup2\n      add\n      dup8\n      add\n      dup7\n      mstore\n      dup2\n      dup2\n      mstore\n      swap3\n      swap6\n        /* \"VRFTester.sol\":2313:2335  s_requests[_requestId] */\n      swap4\n      swap5\n        /* \"VRFTester.sol\":2282:2335  RequestStatus memory request = s_requests[_requestId] */\n      dup7\n      add\n      swap4\n      dup4\n      add\n      dup3\n      dup3\n      dup1\n      iszero\n      tag_147\n      jumpi\n      0x20\n      mul\n      dup3\n      add\n      swap2\n      swap1\n      0x00\n      mstore\n      keccak256(0x00, 0x20)\n      swap1\n    tag_148:\n      dup2\n      sload\n      dup2\n      mstore\n      0x20\n      add\n      swap1\n      0x01\n      add\n      swap1\n      dup1\n      dup4\n      gt\n      tag_148\n      jumpi\n    tag_147:\n      pop\n      pop\n      pop\n      pop\n      pop\n      dup2\n      mstore\n      pop\n      pop\n      swap1\n      pop\n        /* \"VRFTester.sol\":2353:2360  request */\n      dup1\n        /* \"VRFTester.sol\":2353:2370  request.fulfilled */\n      0x00\n      add\n      mload\n        /* \"VRFTester.sol\":2372:2379  request */\n      dup2\n        /* \"VRFTester.sol\":2372:2391  request.randomWords */\n      0x40\n      add\n      mload\n        /* \"VRFTester.sol\":2345:2392  return (request.fulfilled, request.randomWords) */\n      swap3\n      pop\n      swap3\n      pop\n      pop\n        /* \"VRFTester.sol\":2074:2399  function getRequestStatus(... */\n      swap2\n      pop\n      swap2\n      jump\t// out\n        /* \"@openzeppelin/contracts/access/AccessControl.sol\":3199:3302  function _checkRole(bytes32 role) internal view virtual {... */\n    tag_93:\n        /* \"@openzeppelin/contracts/access/AccessControl.sol\":3265:3295  _checkRole(role, _msgSender()) */\n      tag_151\n        /* \"@openzeppelin/contracts/access/AccessControl.sol\":3276:3280  role */\n      dup2\n        /* \"@openzeppelin/contracts/utils/Context.sol\":735:745  msg.sender */\n      caller\n        /* \"@openzeppelin/contracts/access/AccessControl.sol\":3265:3275  _checkRole */\n      tag_153\n        /* \"@openzeppelin/contracts/access/AccessControl.sol\":3265:3295  _checkRole(role, _msgSender()) */\n      jump\t// in\n    tag_151:\n        /* \"@openzeppelin/contracts/access/AccessControl.sol\":3199:3302  function _checkRole(bytes32 role) internal view virtual {... */\n      pop\n      jump\t// out\n        /* \"@openzeppelin/contracts/access/AccessControl.sol\":6179:6495  function _grantRole(bytes32 role, address account) internal virtual returns (bool) {... */\n    tag_96:\n        /* \"@openzeppelin/contracts/access/AccessControl.sol\":6256:6260  bool */\n      0x00\n        /* \"@openzeppelin/contracts/access/AccessControl.sol\":6277:6299  hasRole(role, account) */\n      tag_155\n        /* \"@openzeppelin/contracts/access/AccessControl.sol\":6285:6289  role */\n      dup4\n        /* \"@openzeppelin/contracts/access/AccessControl.sol\":6291:6298  account */\n      dup4\n        /* \"@openzeppelin/contracts/access/AccessControl.sol\":6277:6284  hasRole */\n      tag_61\n        /* \"@openzeppelin/contracts/access/AccessControl.sol\":6277:6299  hasRole(role, account) */\n      jump\t// in\n    tag_155:\n        /* \"@openzeppelin/contracts/access/AccessControl.sol\":6272:6489  if (!hasRole(role, account)) {... */\n      tag_156\n      jumpi\n        /* \"@openzeppelin/contracts/access/AccessControl.sol\":6315:6321  _roles */\n      0x00\n        /* \"@openzeppelin/contracts/access/AccessControl.sol\":6315:6327  _roles[role] */\n      dup4\n      dup2\n      mstore\n      0x20\n      dup2\n      dup2\n      mstore\n      0x40\n      dup1\n      dup4\n      keccak256\n      sub(shl(0xa0, 0x01), 0x01)\n        /* \"@openzeppelin/contracts/access/AccessControl.sol\":6315:6344  _roles[role].hasRole[account] */\n      dup7\n      and\n      dup5\n      mstore\n      swap1\n      swap2\n      mstore\n      swap1\n      keccak256\n        /* \"@openzeppelin/contracts/access/AccessControl.sol\":6315:6351  _roles[role].hasRole[account] = true */\n      dup1\n      sload\n      not(0xff)\n      and\n        /* \"@openzeppelin/contracts/access/AccessControl.sol\":6347:6351  true */\n      0x01\n        /* \"@openzeppelin/contracts/access/AccessControl.sol\":6315:6351  _roles[role].hasRole[account] = true */\n      or\n      swap1\n      sstore\n        /* \"@openzeppelin/contracts/access/AccessControl.sol\":6397:6409  _msgSender() */\n      tag_157\n        /* \"@openzeppelin/contracts/utils/Context.sol\":735:745  msg.sender */\n      caller\n      swap1\n        /* \"@openzeppelin/contracts/utils/Context.sol\":656:752  function _msgSender() internal view virtual returns (address) {... */\n      jump\n        /* \"@openzeppelin/contracts/access/AccessControl.sol\":6397:6409  _msgSender() */\n    tag_157:\n      sub(shl(0xa0, 0x01), 0x01)\n        /* \"@openzeppelin/contracts/access/AccessControl.sol\":6370:6410  RoleGranted(role, account, _msgSender()) */\n      and\n        /* \"@openzeppelin/contracts/access/AccessControl.sol\":6388:6395  account */\n      dup3\n      sub(shl(0xa0, 0x01), 0x01)\n        /* \"@openzeppelin/contracts/access/AccessControl.sol\":6370:6410  RoleGranted(role, account, _msgSender()) */\n      and\n        /* \"@openzeppelin/contracts/access/AccessControl.sol\":6382:6386  role */\n      dup5\n        /* \"@openzeppelin/contracts/access/AccessControl.sol\":6370:6410  RoleGranted(role, account, _msgSender()) */\n      0x2f8788117e7eff1d82e926ec794901d17c78024a50270940304540a733656f0d\n      mload(0x40)\n      mload(0x40)\n      dup1\n      swap2\n      sub\n      swap1\n      log4\n      pop\n        /* \"@openzeppelin/contracts/access/AccessControl.sol\":6431:6435  true */\n      0x01\n        /* \"@openzeppelin/contracts/access/AccessControl.sol\":6424:6435  return true */\n      jump(tag_87)\n        /* \"@openzeppelin/contracts/access/AccessControl.sol\":6272:6489  if (!hasRole(role, account)) {... */\n    tag_156:\n      pop\n        /* \"@openzeppelin/contracts/access/AccessControl.sol\":6473:6478  false */\n      0x00\n        /* \"@openzeppelin/contracts/access/AccessControl.sol\":6466:6478  return false */\n      jump(tag_87)\n        /* \"@openzeppelin/contracts/access/AccessControl.sol\":6730:7047  function _revokeRole(bytes32 role, address account) internal virtual returns (bool) {... */\n    tag_102:\n        /* \"@openzeppelin/contracts/access/AccessControl.sol\":6808:6812  bool */\n      0x00\n        /* \"@openzeppelin/contracts/access/AccessControl.sol\":6828:6850  hasRole(role, account) */\n      tag_161\n        /* \"@openzeppelin/contracts/access/AccessControl.sol\":6836:6840  role */\n      dup4\n        /* \"@openzeppelin/contracts/access/AccessControl.sol\":6842:6849  account */\n      dup4\n        /* \"@openzeppelin/contracts/access/AccessControl.sol\":6828:6835  hasRole */\n      tag_61\n        /* \"@openzeppelin/contracts/access/AccessControl.sol\":6828:6850  hasRole(role, account) */\n      jump\t// in\n    tag_161:\n        /* \"@openzeppelin/contracts/access/AccessControl.sol\":6824:7041  if (hasRole(role, account)) {... */\n      iszero\n      tag_156\n      jumpi\n        /* \"@openzeppelin/contracts/access/AccessControl.sol\":6898:6903  false */\n      0x00\n        /* \"@openzeppelin/contracts/access/AccessControl.sol\":6866:6878  _roles[role] */\n      dup4\n      dup2\n      mstore\n      0x20\n      dup2\n      dup2\n      mstore\n      0x40\n      dup1\n      dup4\n      keccak256\n      sub(shl(0xa0, 0x01), 0x01)\n        /* \"@openzeppelin/contracts/access/AccessControl.sol\":6866:6895  _roles[role].hasRole[account] */\n      dup7\n      and\n      dup1\n      dup6\n      mstore\n      swap3\n      mstore\n      dup1\n      dup4\n      keccak256\n        /* \"@openzeppelin/contracts/access/AccessControl.sol\":6866:6903  _roles[role].hasRole[account] = false */\n      dup1\n      sload\n      not(0xff)\n      and\n      swap1\n      sstore\n        /* \"@openzeppelin/contracts/access/AccessControl.sol\":6922:6962  RoleRevoked(role, account, _msgSender()) */\n      mload\n        /* \"@openzeppelin/contracts/utils/Context.sol\":735:745  msg.sender */\n      caller\n      swap3\n        /* \"@openzeppelin/contracts/access/AccessControl.sol\":6866:6878  _roles[role] */\n      dup7\n      swap2\n        /* \"@openzeppelin/contracts/access/AccessControl.sol\":6922:6962  RoleRevoked(role, account, _msgSender()) */\n      0xf6391f5c32d9c69d2a47ea670b442974b53935d1edc7fd64eb21e047a839171b\n      swap2\n        /* \"@openzeppelin/contracts/access/AccessControl.sol\":6898:6903  false */\n      swap1\n        /* \"@openzeppelin/contracts/access/AccessControl.sol\":6922:6962  RoleRevoked(role, account, _msgSender()) */\n      log4\n      pop\n        /* \"@openzeppelin/contracts/access/AccessControl.sol\":6983:6987  true */\n      0x01\n        /* \"@openzeppelin/contracts/access/AccessControl.sol\":6976:6987  return true */\n      jump(tag_87)\n        /* \"@openzeppelin/contracts/access/AccessControl.sol\":3432:3629  function _checkRole(bytes32 role, address account) internal view virtual {... */\n    tag_153:\n        /* \"@openzeppelin/contracts/access/AccessControl.sol\":3520:3542  hasRole(role, account) */\n      tag_166\n        /* \"@openzeppelin/contracts/access/AccessControl.sol\":3528:3532  role */\n      dup3\n        /* \"@openzeppelin/contracts/access/AccessControl.sol\":3534:3541  account */\n      dup3\n        /* \"@openzeppelin/contracts/access/AccessControl.sol\":3520:3527  hasRole */\n      tag_61\n        /* \"@openzeppelin/contracts/access/AccessControl.sol\":3520:3542  hasRole(role, account) */\n      jump\t// in\n    tag_166:\n        /* \"@openzeppelin/contracts/access/AccessControl.sol\":3515:3623  if (!hasRole(role, account)) {... */\n      tag_167\n      jumpi\n        /* \"@openzeppelin/contracts/access/AccessControl.sol\":3565:3612  AccessControlUnauthorizedAccount(account, role) */\n      mload(0x40)\n      shl(0xe0, 0xe2517d3f)\n      dup2\n      mstore\n      sub(shl(0xa0, 0x01), 0x01)\n        /* \"#utility.yul\":6277:6309   */\n      dup3\n      and\n        /* \"@openzeppelin/contracts/access/AccessControl.sol\":3565:3612  AccessControlUnauthorizedAccount(account, role) */\n      0x04\n      dup3\n      add\n        /* \"#utility.yul\":6259:6310   */\n      mstore\n        /* \"#utility.yul\":6326:6344   */\n      0x24\n      dup2\n      add\n        /* \"#utility.yul\":6319:6353   */\n      dup4\n      swap1\n      mstore\n        /* \"#utility.yul\":6232:6250   */\n      0x44\n      add\n        /* \"@openzeppelin/contracts/access/AccessControl.sol\":3565:3612  AccessControlUnauthorizedAccount(account, role) */\n      tag_106\n        /* \"#utility.yul\":6085:6359   */\n      jump\n        /* \"@openzeppelin/contracts/access/AccessControl.sol\":3515:3623  if (!hasRole(role, account)) {... */\n    tag_167:\n        /* \"@openzeppelin/contracts/access/AccessControl.sol\":3432:3629  function _checkRole(bytes32 role, address account) internal view virtual {... */\n      pop\n      pop\n      jump\t// out\n    tag_113:\n      dup3\n      dup1\n      sload\n      dup3\n      dup3\n      sstore\n      swap1\n      0x00\n      mstore\n      keccak256(0x00, 0x20)\n      swap1\n      dup2\n      add\n      swap3\n      dup3\n      iszero\n      tag_172\n      jumpi\n      swap2\n      0x20\n      mul\n      dup3\n      add\n    tag_171:\n      dup3\n      dup2\n      gt\n      iszero\n      tag_172\n      jumpi\n      dup3\n      mload\n      dup3\n      sstore\n      swap2\n      0x20\n      add\n      swap2\n      swap1\n      0x01\n      add\n      swap1\n      jump(tag_171)\n    tag_172:\n      pop\n      tag_173\n      swap3\n      swap2\n      pop\n      tag_174\n      jump\t// in\n    tag_173:\n      pop\n      swap1\n      jump\t// out\n    tag_174:\n    tag_175:\n      dup1\n      dup3\n      gt\n      iszero\n      tag_173\n      jumpi\n      0x00\n      dup2\n      sstore\n      0x01\n      add\n      jump(tag_175)\n        /* \"#utility.yul\":14:300   */\n    tag_23:\n        /* \"#utility.yul\":72:78   */\n      0x00\n        /* \"#utility.yul\":125:127   */\n      0x20\n        /* \"#utility.yul\":113:122   */\n      dup3\n        /* \"#utility.yul\":104:111   */\n      dup5\n        /* \"#utility.yul\":100:123   */\n      sub\n        /* \"#utility.yul\":96:128   */\n      slt\n        /* \"#utility.yul\":93:145   */\n      iszero\n      tag_181\n      jumpi\n        /* \"#utility.yul\":141:142   */\n      0x00\n        /* \"#utility.yul\":138:139   */\n      dup1\n        /* \"#utility.yul\":131:143   */\n      revert\n        /* \"#utility.yul\":93:145   */\n    tag_181:\n        /* \"#utility.yul\":167:190   */\n      dup2\n      calldataload\n      not(sub(shl(0xe0, 0x01), 0x01))\n        /* \"#utility.yul\":219:251   */\n      dup2\n      and\n        /* \"#utility.yul\":209:252   */\n      dup2\n      eq\n        /* \"#utility.yul\":199:270   */\n      tag_182\n      jumpi\n        /* \"#utility.yul\":266:267   */\n      0x00\n        /* \"#utility.yul\":263:264   */\n      dup1\n        /* \"#utility.yul\":256:268   */\n      revert\n        /* \"#utility.yul\":199:270   */\n    tag_182:\n        /* \"#utility.yul\":289:294   */\n      swap4\n        /* \"#utility.yul\":14:300   */\n      swap3\n      pop\n      pop\n      pop\n      jump\t// out\n        /* \"#utility.yul\":733:913   */\n    tag_33:\n        /* \"#utility.yul\":792:798   */\n      0x00\n        /* \"#utility.yul\":845:847   */\n      0x20\n        /* \"#utility.yul\":833:842   */\n      dup3\n        /* \"#utility.yul\":824:831   */\n      dup5\n        /* \"#utility.yul\":820:843   */\n      sub\n        /* \"#utility.yul\":816:848   */\n      slt\n        /* \"#utility.yul\":813:865   */\n      iszero\n      tag_186\n      jumpi\n        /* \"#utility.yul\":861:862   */\n      0x00\n        /* \"#utility.yul\":858:859   */\n      dup1\n        /* \"#utility.yul\":851:863   */\n      revert\n        /* \"#utility.yul\":813:865   */\n    tag_186:\n      pop\n        /* \"#utility.yul\":884:907   */\n      calldataload\n      swap2\n        /* \"#utility.yul\":733:913   */\n      swap1\n      pop\n      jump\t// out\n        /* \"#utility.yul\":1100:1273   */\n    tag_177:\n        /* \"#utility.yul\":1168:1188   */\n      dup1\n      calldataload\n      sub(shl(0xa0, 0x01), 0x01)\n        /* \"#utility.yul\":1217:1248   */\n      dup2\n      and\n        /* \"#utility.yul\":1207:1249   */\n      dup2\n      eq\n        /* \"#utility.yul\":1197:1267   */\n      tag_189\n      jumpi\n        /* \"#utility.yul\":1263:1264   */\n      0x00\n        /* \"#utility.yul\":1260:1261   */\n      dup1\n        /* \"#utility.yul\":1253:1265   */\n      revert\n        /* \"#utility.yul\":1197:1267   */\n    tag_189:\n        /* \"#utility.yul\":1100:1273   */\n      swap2\n      swap1\n      pop\n      jump\t// out\n        /* \"#utility.yul\":1278:1532   */\n    tag_39:\n        /* \"#utility.yul\":1346:1352   */\n      0x00\n        /* \"#utility.yul\":1354:1360   */\n      dup1\n        /* \"#utility.yul\":1407:1409   */\n      0x40\n        /* \"#utility.yul\":1395:1404   */\n      dup4\n        /* \"#utility.yul\":1386:1393   */\n      dup6\n        /* \"#utility.yul\":1382:1405   */\n      sub\n        /* \"#utility.yul\":1378:1410   */\n      slt\n        /* \"#utility.yul\":1375:1427   */\n      iszero\n      tag_191\n      jumpi\n        /* \"#utility.yul\":1423:1424   */\n      0x00\n        /* \"#utility.yul\":1420:1421   */\n      dup1\n        /* \"#utility.yul\":1413:1425   */\n      revert\n        /* \"#utility.yul\":1375:1427   */\n    tag_191:\n        /* \"#utility.yul\":1459:1468   */\n      dup3\n        /* \"#utility.yul\":1446:1469   */\n      calldataload\n        /* \"#utility.yul\":1436:1469   */\n      swap2\n      pop\n        /* \"#utility.yul\":1488:1526   */\n      tag_192\n        /* \"#utility.yul\":1522:1524   */\n      0x20\n        /* \"#utility.yul\":1511:1520   */\n      dup5\n        /* \"#utility.yul\":1507:1525   */\n      add\n        /* \"#utility.yul\":1488:1526   */\n      tag_177\n      jump\t// in\n    tag_192:\n        /* \"#utility.yul\":1478:1526   */\n      swap1\n      pop\n        /* \"#utility.yul\":1278:1532   */\n      swap3\n      pop\n      swap3\n      swap1\n      pop\n      jump\t// out\n        /* \"#utility.yul\":1537:1664   */\n    tag_125:\n        /* \"#utility.yul\":1598:1608   */\n      0x4e487b71\n        /* \"#utility.yul\":1593:1596   */\n      0xe0\n        /* \"#utility.yul\":1589:1609   */\n      shl\n        /* \"#utility.yul\":1586:1587   */\n      0x00\n        /* \"#utility.yul\":1579:1610   */\n      mstore\n        /* \"#utility.yul\":1629:1633   */\n      0x41\n        /* \"#utility.yul\":1626:1627   */\n      0x04\n        /* \"#utility.yul\":1619:1634   */\n      mstore\n        /* \"#utility.yul\":1653:1657   */\n      0x24\n        /* \"#utility.yul\":1650:1651   */\n      0x00\n        /* \"#utility.yul\":1643:1658   */\n      revert\n        /* \"#utility.yul\":1669:2852   */\n    tag_46:\n        /* \"#utility.yul\":1762:1768   */\n      0x00\n        /* \"#utility.yul\":1770:1776   */\n      dup1\n        /* \"#utility.yul\":1823:1825   */\n      0x40\n        /* \"#utility.yul\":1811:1820   */\n      dup4\n        /* \"#utility.yul\":1802:1809   */\n      dup6\n        /* \"#utility.yul\":1798:1821   */\n      sub\n        /* \"#utility.yul\":1794:1826   */\n      slt\n        /* \"#utility.yul\":1791:1843   */\n      iszero\n      tag_195\n      jumpi\n        /* \"#utility.yul\":1839:1840   */\n      0x00\n        /* \"#utility.yul\":1836:1837   */\n      dup1\n        /* \"#utility.yul\":1829:1841   */\n      revert\n        /* \"#utility.yul\":1791:1843   */\n    tag_195:\n        /* \"#utility.yul\":1875:1884   */\n      dup3\n        /* \"#utility.yul\":1862:1885   */\n      calldataload\n        /* \"#utility.yul\":1852:1885   */\n      swap2\n      pop\n        /* \"#utility.yul\":1904:1906   */\n      0x20\n        /* \"#utility.yul\":1957:1959   */\n      dup1\n        /* \"#utility.yul\":1946:1955   */\n      dup5\n        /* \"#utility.yul\":1942:1960   */\n      add\n        /* \"#utility.yul\":1929:1961   */\n      calldataload\n        /* \"#utility.yul\":1980:1998   */\n      0xffffffffffffffff\n        /* \"#utility.yul\":2021:2023   */\n      dup1\n        /* \"#utility.yul\":2013:2019   */\n      dup3\n        /* \"#utility.yul\":2010:2024   */\n      gt\n        /* \"#utility.yul\":2007:2041   */\n      iszero\n      tag_196\n      jumpi\n        /* \"#utility.yul\":2037:2038   */\n      0x00\n        /* \"#utility.yul\":2034:2035   */\n      dup1\n        /* \"#utility.yul\":2027:2039   */\n      revert\n        /* \"#utility.yul\":2007:2041   */\n    tag_196:\n        /* \"#utility.yul\":2075:2081   */\n      dup2\n        /* \"#utility.yul\":2064:2073   */\n      dup7\n        /* \"#utility.yul\":2060:2082   */\n      add\n        /* \"#utility.yul\":2050:2082   */\n      swap2\n      pop\n        /* \"#utility.yul\":2120:2127   */\n      dup7\n        /* \"#utility.yul\":2113:2117   */\n      0x1f\n        /* \"#utility.yul\":2109:2111   */\n      dup4\n        /* \"#utility.yul\":2105:2118   */\n      add\n        /* \"#utility.yul\":2101:2128   */\n      slt\n        /* \"#utility.yul\":2091:2146   */\n      tag_197\n      jumpi\n        /* \"#utility.yul\":2142:2143   */\n      0x00\n        /* \"#utility.yul\":2139:2140   */\n      dup1\n        /* \"#utility.yul\":2132:2144   */\n      revert\n        /* \"#utility.yul\":2091:2146   */\n    tag_197:\n        /* \"#utility.yul\":2178:2180   */\n      dup2\n        /* \"#utility.yul\":2165:2181   */\n      calldataload\n        /* \"#utility.yul\":2200:2202   */\n      dup2\n        /* \"#utility.yul\":2196:2198   */\n      dup2\n        /* \"#utility.yul\":2193:2203   */\n      gt\n        /* \"#utility.yul\":2190:2226   */\n      iszero\n      tag_199\n      jumpi\n        /* \"#utility.yul\":2206:2224   */\n      tag_199\n      tag_125\n      jump\t// in\n    tag_199:\n        /* \"#utility.yul\":2252:2254   */\n      dup1\n        /* \"#utility.yul\":2249:2250   */\n      0x05\n        /* \"#utility.yul\":2245:2255   */\n      shl\n        /* \"#utility.yul\":2284:2286   */\n      0x40\n        /* \"#utility.yul\":2278:2287   */\n      mload\n        /* \"#utility.yul\":2347:2349   */\n      0x1f\n        /* \"#utility.yul\":2343:2350   */\n      not\n        /* \"#utility.yul\":2338:2340   */\n      0x3f\n        /* \"#utility.yul\":2334:2336   */\n      dup4\n        /* \"#utility.yul\":2330:2341   */\n      add\n        /* \"#utility.yul\":2326:2351   */\n      and\n        /* \"#utility.yul\":2318:2324   */\n      dup2\n        /* \"#utility.yul\":2314:2352   */\n      add\n        /* \"#utility.yul\":2402:2408   */\n      dup2\n        /* \"#utility.yul\":2390:2400   */\n      dup2\n        /* \"#utility.yul\":2387:2409   */\n      lt\n        /* \"#utility.yul\":2382:2384   */\n      dup6\n        /* \"#utility.yul\":2370:2380   */\n      dup3\n        /* \"#utility.yul\":2367:2385   */\n      gt\n        /* \"#utility.yul\":2364:2410   */\n      or\n        /* \"#utility.yul\":2361:2433   */\n      iszero\n      tag_201\n      jumpi\n        /* \"#utility.yul\":2413:2431   */\n      tag_201\n      tag_125\n      jump\t// in\n    tag_201:\n        /* \"#utility.yul\":2449:2451   */\n      0x40\n        /* \"#utility.yul\":2442:2464   */\n      mstore\n        /* \"#utility.yul\":2499:2517   */\n      swap2\n      dup3\n      mstore\n        /* \"#utility.yul\":2533:2548   */\n      dup5\n      dup3\n      add\n      swap3\n      pop\n        /* \"#utility.yul\":2575:2586   */\n      dup4\n      dup2\n      add\n        /* \"#utility.yul\":2571:2591   */\n      dup6\n      add\n      swap2\n        /* \"#utility.yul\":2603:2622   */\n      dup10\n      dup4\n      gt\n        /* \"#utility.yul\":2600:2639   */\n      iszero\n      tag_202\n      jumpi\n        /* \"#utility.yul\":2635:2636   */\n      0x00\n        /* \"#utility.yul\":2632:2633   */\n      dup1\n        /* \"#utility.yul\":2625:2637   */\n      revert\n        /* \"#utility.yul\":2600:2639   */\n    tag_202:\n        /* \"#utility.yul\":2659:2670   */\n      swap4\n      dup6\n      add\n      swap4\n        /* \"#utility.yul\":2679:2821   */\n    tag_203:\n        /* \"#utility.yul\":2695:2701   */\n      dup3\n        /* \"#utility.yul\":2690:2693   */\n      dup6\n        /* \"#utility.yul\":2687:2702   */\n      lt\n        /* \"#utility.yul\":2679:2821   */\n      iszero\n      tag_205\n      jumpi\n        /* \"#utility.yul\":2761:2778   */\n      dup5\n      calldataload\n        /* \"#utility.yul\":2749:2779   */\n      dup5\n      mstore\n        /* \"#utility.yul\":2712:2724   */\n      swap4\n      dup6\n      add\n      swap4\n        /* \"#utility.yul\":2799:2811   */\n      swap3\n      dup6\n      add\n      swap3\n        /* \"#utility.yul\":2679:2821   */\n      jump(tag_203)\n    tag_205:\n        /* \"#utility.yul\":2840:2846   */\n      dup1\n        /* \"#utility.yul\":2830:2846   */\n      swap7\n      pop\n      pop\n      pop\n      pop\n      pop\n      pop\n      pop\n        /* \"#utility.yul\":1669:2852   */\n      swap3\n      pop\n      swap3\n      swap1\n      pop\n      jump\t// out\n        /* \"#utility.yul\":2857:3043   */\n    tag_50:\n        /* \"#utility.yul\":2916:2922   */\n      0x00\n        /* \"#utility.yul\":2969:2971   */\n      0x20\n        /* \"#utility.yul\":2957:2966   */\n      dup3\n        /* \"#utility.yul\":2948:2955   */\n      dup5\n        /* \"#utility.yul\":2944:2967   */\n      sub\n        /* \"#utility.yul\":2940:2972   */\n      slt\n        /* \"#utility.yul\":2937:2989   */\n      iszero\n      tag_207\n      jumpi\n        /* \"#utility.yul\":2985:2986   */\n      0x00\n        /* \"#utility.yul\":2982:2983   */\n      dup1\n        /* \"#utility.yul\":2975:2987   */\n      revert\n        /* \"#utility.yul\":2937:2989   */\n    tag_207:\n        /* \"#utility.yul\":3008:3037   */\n      tag_182\n        /* \"#utility.yul\":3027:3036   */\n      dup3\n        /* \"#utility.yul\":3008:3037   */\n      tag_177\n      jump\t// in\n        /* \"#utility.yul\":3688:4123   */\n    tag_178:\n        /* \"#utility.yul\":3741:3744   */\n      0x00\n        /* \"#utility.yul\":3779:3784   */\n      dup2\n        /* \"#utility.yul\":3773:3785   */\n      mload\n        /* \"#utility.yul\":3806:3812   */\n      dup1\n        /* \"#utility.yul\":3801:3804   */\n      dup5\n        /* \"#utility.yul\":3794:3813   */\n      mstore\n        /* \"#utility.yul\":3832:3836   */\n      0x20\n        /* \"#utility.yul\":3861:3863   */\n      dup1\n        /* \"#utility.yul\":3856:3859   */\n      dup6\n        /* \"#utility.yul\":3852:3864   */\n      add\n        /* \"#utility.yul\":3845:3864   */\n      swap5\n      pop\n        /* \"#utility.yul\":3898:3900   */\n      dup1\n        /* \"#utility.yul\":3891:3896   */\n      dup5\n        /* \"#utility.yul\":3887:3901   */\n      add\n        /* \"#utility.yul\":3919:3920   */\n      0x00\n        /* \"#utility.yul\":3929:4098   */\n    tag_214:\n        /* \"#utility.yul\":3943:3949   */\n      dup4\n        /* \"#utility.yul\":3940:3941   */\n      dup2\n        /* \"#utility.yul\":3937:3950   */\n      lt\n        /* \"#utility.yul\":3929:4098   */\n      iszero\n      tag_216\n      jumpi\n        /* \"#utility.yul\":4004:4017   */\n      dup2\n      mload\n        /* \"#utility.yul\":3992:4018   */\n      dup8\n      mstore\n        /* \"#utility.yul\":4038:4050   */\n      swap6\n      dup3\n      add\n      swap6\n        /* \"#utility.yul\":4073:4088   */\n      swap1\n      dup3\n      add\n      swap1\n        /* \"#utility.yul\":3965:3966   */\n      0x01\n        /* \"#utility.yul\":3958:3967   */\n      add\n        /* \"#utility.yul\":3929:4098   */\n      jump(tag_214)\n    tag_216:\n      pop\n        /* \"#utility.yul\":4114:4117   */\n      swap5\n      swap6\n        /* \"#utility.yul\":3688:4123   */\n      swap5\n      pop\n      pop\n      pop\n      pop\n      pop\n      jump\t// out\n        /* \"#utility.yul\":4128:4470   */\n    tag_81:\n        /* \"#utility.yul\":4343:4349   */\n      dup3\n        /* \"#utility.yul\":4336:4350   */\n      iszero\n        /* \"#utility.yul\":4329:4351   */\n      iszero\n        /* \"#utility.yul\":4318:4327   */\n      dup2\n        /* \"#utility.yul\":4311:4352   */\n      mstore\n        /* \"#utility.yul\":4388:4390   */\n      0x40\n        /* \"#utility.yul\":4383:4385   */\n      0x20\n        /* \"#utility.yul\":4372:4381   */\n      dup3\n        /* \"#utility.yul\":4368:4386   */\n      add\n        /* \"#utility.yul\":4361:4391   */\n      mstore\n        /* \"#utility.yul\":4292:4296   */\n      0x00\n        /* \"#utility.yul\":4408:4464   */\n      tag_218\n        /* \"#utility.yul\":4460:4462   */\n      0x40\n        /* \"#utility.yul\":4449:4458   */\n      dup4\n        /* \"#utility.yul\":4445:4463   */\n      add\n        /* \"#utility.yul\":4437:4443   */\n      dup5\n        /* \"#utility.yul\":4408:4464   */\n      tag_178\n      jump\t// in\n    tag_218:\n        /* \"#utility.yul\":4400:4464   */\n      swap5\n        /* \"#utility.yul\":4128:4470   */\n      swap4\n      pop\n      pop\n      pop\n      pop\n      jump\t// out\n        /* \"#utility.yul\":5170:5502   */\n    tag_115:\n        /* \"#utility.yul\":5377:5383   */\n      dup3\n        /* \"#utility.yul\":5366:5375   */\n      dup2\n        /* \"#utility.yul\":5359:5384   */\n      mstore\n        /* \"#utility.yul\":5420:5422   */\n      0x40\n        /* \"#utility.yul\":5415:5417   */\n      0x20\n        /* \"#utility.yul\":5404:5413   */\n      dup3\n        /* \"#utility.yul\":5400:5418   */\n      add\n        /* \"#utility.yul\":5393:5423   */\n      mstore\n        /* \"#utility.yul\":5340:5344   */\n      0x00\n        /* \"#utility.yul\":5440:5496   */\n      tag_218\n        /* \"#utility.yul\":5492:5494   */\n      0x40\n        /* \"#utility.yul\":5481:5490   */\n      dup4\n        /* \"#utility.yul\":5477:5495   */\n      add\n        /* \"#utility.yul\":5469:5475   */\n      dup5\n        /* \"#utility.yul\":5440:5496   */\n      tag_178\n      jump\t// in\n\n    auxdata: 0xa2646970667358221220d2d787aa781b359d92b6077014d45d5e71bbc90f7ed14e7c95b9cf5dc3b48bb164736f6c63430008140033\n}\n",
				"bytecode": {
					"linkReferences": {},
					"object": "608060405234801561001057600080fd5b50604051610cb8380380610cb883398101604081905261002f916100ed565b61003a600082610041565b505061011d565b6000828152602081815260408083206001600160a01b038516845290915281205460ff166100e3576000838152602081815260408083206001600160a01b03861684529091529020805460ff1916600117905561009b3390565b6001600160a01b0316826001600160a01b0316847f2f8788117e7eff1d82e926ec794901d17c78024a50270940304540a733656f0d60405160405180910390a45060016100e7565b5060005b92915050565b6000602082840312156100ff57600080fd5b81516001600160a01b038116811461011657600080fd5b9392505050565b610b8c8061012c6000396000f3fe608060405234801561001057600080fd5b50600436106100f55760003560e01c80638796ba8c11610097578063bdf1e06d11610066578063bdf1e06d1461023d578063d547741f14610250578063d8a4676f14610263578063fc2a88c31461028457600080fd5b80638796ba8c146101cc57806391d14854146101df578063a168fa89146101f2578063a217fddf1461023557600080fd5b80632f2ff15d116100d35780632f2ff15d1461017e57806336568abe1461019357806338ba4614146101a657806380c95b14146101b957600080fd5b806301ffc9a7146100fa5780630fa0804614610122578063248a9ca31461014d575b600080fd5b61010d610108366004610952565b61028d565b60405190151581526020015b60405180910390f35b600154610135906001600160a01b031681565b6040516001600160a01b039091168152602001610119565b61017061015b366004610983565b60009081526020819052604090206001015490565b604051908152602001610119565b61019161018c3660046109b8565b6102c4565b005b6101916101a13660046109b8565b6102ef565b6101916101b43660046109fa565b610327565b6101706101c7366004610ac4565b6104a4565b6101706101da366004610983565b6105d8565b61010d6101ed3660046109b8565b6105f9565b61021e610200366004610983565b60026020526000908152604090205460ff8082169161010090041682565b604080519215158352901515602083015201610119565b610170600081565b61019161024b366004610ac4565b610622565b61019161025e3660046109b8565b610692565b610276610271366004610983565b6106b7565b604051610119929190610b1a565b61017060045481565b60006001600160e01b03198216637965db0b60e01b14806102be57506301ffc9a760e01b6001600160e01b03198316145b92915050565b6000828152602081905260409020600101546102df816107ab565b6102e983836107b8565b50505050565b6001600160a01b03811633146103185760405163334bd91960e11b815260040160405180910390fd5b610322828261084a565b505050565b6103326000336105f9565b61037a5760405162461bcd60e51b81526020600482015260146024820152732932b9ba3934b1ba32b2103a379030b236b4b71760611b60448201526064015b60405180910390fd5b600082815260026020526040902054610100900460ff166103d15760405162461bcd60e51b81526020600482015260116024820152701c995c5d595cdd081b9bdd08199bdd5b99607a1b6044820152606401610371565b6000828152600260209081526040909120805460ff19166001908117825583516104029392909101918401906108f2565b50600154604051630e2e918560e21b81526001600160a01b03909116906338ba4614906104359085908590600401610b3d565b600060405180830381600087803b15801561044f57600080fd5b505af1158015610463573d6000803e3d6000fd5b505050507ffe2e2d779dba245964d4e3ef9b994be63856fd568bf7d3ca9e224755cb1bd54d8282604051610498929190610b3d565b60405180910390a15050565b6040516bffffffffffffffffffffffff19606083901b16602082015242603482015260009060540160408051808303601f19018152828252805160209182012060608401835260008085526001838601528351818152928301845290945091830191509052600082815260026020908152604091829020835181548584015115156101000261ff00199215159290921661ffff199091161717815591830151805161055592600185019201906108f2565b5050600380546001810182556000919091527fc2575a0e9e593c00f959f8c92f12db2869c3395a3b0502d05e2516446f71f85b01829055506004819055604080518281526001600160a01b03841660208201527f48b98ad7a8a8dbe21cc82bf98710ad4d2cdd949ccac393692e4d9a1722c162c7910160405180910390a1919050565b600381815481106105e857600080fd5b600091825260209091200154905081565b6000918252602082815260408084206001600160a01b0393909316845291905290205460ff1690565b61062d6000336105f9565b6106705760405162461bcd60e51b81526020600482015260146024820152732932b9ba3934b1ba32b2103a379030b236b4b71760611b6044820152606401610371565b600180546001600160a01b0319166001600160a01b0392909216919091179055565b6000828152602081905260409020600101546106ad816107ab565b6102e9838361084a565b600081815260026020526040812054606090610100900460ff166107115760405162461bcd60e51b81526020600482015260116024820152701c995c5d595cdd081b9bdd08199bdd5b99607a1b6044820152606401610371565b60008381526002602090815260408083208151606081018352815460ff808216151583526101009091041615158185015260018201805484518187028101870186528181529295939486019383018282801561078c57602002820191906000526020600020905b815481526020019060010190808311610778575b5050505050815250509050806000015181604001519250925050915091565b6107b581336108b5565b50565b60006107c483836105f9565b610842576000838152602081815260408083206001600160a01b03861684529091529020805460ff191660011790556107fa3390565b6001600160a01b0316826001600160a01b0316847f2f8788117e7eff1d82e926ec794901d17c78024a50270940304540a733656f0d60405160405180910390a45060016102be565b5060006102be565b600061085683836105f9565b15610842576000838152602081815260408083206001600160a01b0386168085529252808320805460ff1916905551339286917ff6391f5c32d9c69d2a47ea670b442974b53935d1edc7fd64eb21e047a839171b9190a45060016102be565b6108bf82826105f9565b6108ee5760405163e2517d3f60e01b81526001600160a01b038216600482015260248101839052604401610371565b5050565b82805482825590600052602060002090810192821561092d579160200282015b8281111561092d578251825591602001919060010190610912565b5061093992915061093d565b5090565b5b80821115610939576000815560010161093e565b60006020828403121561096457600080fd5b81356001600160e01b03198116811461097c57600080fd5b9392505050565b60006020828403121561099557600080fd5b5035919050565b80356001600160a01b03811681146109b357600080fd5b919050565b600080604083850312156109cb57600080fd5b823591506109db6020840161099c565b90509250929050565b634e487b7160e01b600052604160045260246000fd5b60008060408385031215610a0d57600080fd5b8235915060208084013567ffffffffffffffff80821115610a2d57600080fd5b818601915086601f830112610a4157600080fd5b813581811115610a5357610a536109e4565b8060051b604051601f19603f83011681018181108582111715610a7857610a786109e4565b604052918252848201925083810185019189831115610a9657600080fd5b938501935b82851015610ab457843584529385019392850192610a9b565b8096505050505050509250929050565b600060208284031215610ad657600080fd5b61097c8261099c565b600081518084526020808501945080840160005b83811015610b0f57815187529582019590820190600101610af3565b509495945050505050565b8215158152604060208201526000610b356040830184610adf565b949350505050565b828152604060208201526000610b356040830184610adf56fea2646970667358221220d2d787aa781b359d92b6077014d45d5e71bbc90f7ed14e7c95b9cf5dc3b48bb164736f6c63430008140033",
					"opcodes": "PUSH1 0x80 PUSH1 0x40 MSTORE CALLVALUE DUP1 ISZERO PUSH2 0x10 JUMPI PUSH1 0x0 DUP1 REVERT JUMPDEST POP PUSH1 0x40 MLOAD PUSH2 0xCB8 CODESIZE SUB DUP1 PUSH2 0xCB8 DUP4 CODECOPY DUP2 ADD PUSH1 0x40 DUP2 SWAP1 MSTORE PUSH2 0x2F SWAP2 PUSH2 0xED JUMP JUMPDEST PUSH2 0x3A PUSH1 0x0 DUP3 PUSH2 0x41 JUMP JUMPDEST POP POP PUSH2 0x11D JUMP JUMPDEST PUSH1 0x0 DUP3 DUP2 MSTORE PUSH1 0x20 DUP2 DUP2 MSTORE PUSH1 0x40 DUP1 DUP4 KECCAK256 PUSH1 0x1 PUSH1 0x1 PUSH1 0xA0 SHL SUB DUP6 AND DUP5 MSTORE SWAP1 SWAP2 MSTORE DUP2 KECCAK256 SLOAD PUSH1 0xFF AND PUSH2 0xE3 JUMPI PUSH1 0x0 DUP4 DUP2 MSTORE PUSH1 0x20 DUP2 DUP2 MSTORE PUSH1 0x40 DUP1 DUP4 KECCAK256 PUSH1 0x1 PUSH1 0x1 PUSH1 0xA0 SHL SUB DUP7 AND DUP5 MSTORE SWAP1 SWAP2 MSTORE SWAP1 KECCAK256 DUP1 SLOAD PUSH1 0xFF NOT AND PUSH1 0x1 OR SWAP1 SSTORE PUSH2 0x9B CALLER SWAP1 JUMP JUMPDEST PUSH1 0x1 PUSH1 0x1 PUSH1 0xA0 SHL SUB AND DUP3 PUSH1 0x1 PUSH1 0x1 PUSH1 0xA0 SHL SUB AND DUP5 PUSH32 0x2F8788117E7EFF1D82E926EC794901D17C78024A50270940304540A733656F0D PUSH1 0x40 MLOAD PUSH1 0x40 MLOAD DUP1 SWAP2 SUB SWAP1 LOG4 POP PUSH1 0x1 PUSH2 0xE7 JUMP JUMPDEST POP PUSH1 0x0 JUMPDEST SWAP3 SWAP2 POP POP JUMP JUMPDEST PUSH1 0x0 PUSH1 0x20 DUP3 DUP5 SUB SLT ISZERO PUSH2 0xFF JUMPI PUSH1 0x0 DUP1 REVERT JUMPDEST DUP2 MLOAD PUSH1 0x1 PUSH1 0x1 PUSH1 0xA0 SHL SUB DUP2 AND DUP2 EQ PUSH2 0x116 JUMPI PUSH1 0x0 DUP1 REVERT JUMPDEST SWAP4 SWAP3 POP POP POP JUMP JUMPDEST PUSH2 0xB8C DUP1 PUSH2 0x12C PUSH1 0x0 CODECOPY PUSH1 0x0 RETURN INVALID PUSH1 0x80 PUSH1 0x40 MSTORE CALLVALUE DUP1 ISZERO PUSH2 0x10 JUMPI PUSH1 0x0 DUP1 REVERT JUMPDEST POP PUSH1 0x4 CALLDATASIZE LT PUSH2 0xF5 JUMPI PUSH1 0x0 CALLDATALOAD PUSH1 0xE0 SHR DUP1 PUSH4 0x8796BA8C GT PUSH2 0x97 JUMPI DUP1 PUSH4 0xBDF1E06D GT PUSH2 0x66 JUMPI DUP1 PUSH4 0xBDF1E06D EQ PUSH2 0x23D JUMPI DUP1 PUSH4 0xD547741F EQ PUSH2 0x250 JUMPI DUP1 PUSH4 0xD8A4676F EQ PUSH2 0x263 JUMPI DUP1 PUSH4 0xFC2A88C3 EQ PUSH2 0x284 JUMPI PUSH1 0x0 DUP1 REVERT JUMPDEST DUP1 PUSH4 0x8796BA8C EQ PUSH2 0x1CC JUMPI DUP1 PUSH4 0x91D14854 EQ PUSH2 0x1DF JUMPI DUP1 PUSH4 0xA168FA89 EQ PUSH2 0x1F2 JUMPI DUP1 PUSH4 0xA217FDDF EQ PUSH2 0x235 JUMPI PUSH1 0x0 DUP1 REVERT JUMPDEST DUP1 PUSH4 0x2F2FF15D GT PUSH2 0xD3 JUMPI DUP1 PUSH4 0x2F2FF15D EQ PUSH2 0x17E JUMPI DUP1 PUSH4 0x36568ABE EQ PUSH2 0x193 JUMPI DUP1 PUSH4 0x38BA4614 EQ PUSH2 0x1A6 JUMPI DUP1 PUSH4 0x80C95B14 EQ PUSH2 0x1B9 JUMPI PUSH1 0x0 DUP1 REVERT JUMPDEST DUP1 PUSH4 0x1FFC9A7 EQ PUSH2 0xFA JUMPI DUP1 PUSH4 0xFA08046 EQ PUSH2 0x122 JUMPI DUP1 PUSH4 0x248A9CA3 EQ PUSH2 0x14D JUMPI JUMPDEST PUSH1 0x0 DUP1 REVERT JUMPDEST PUSH2 0x10D PUSH2 0x108 CALLDATASIZE PUSH1 0x4 PUSH2 0x952 JUMP JUMPDEST PUSH2 0x28D JUMP JUMPDEST PUSH1 0x40 MLOAD SWAP1 ISZERO ISZERO DUP2 MSTORE PUSH1 0x20 ADD JUMPDEST PUSH1 0x40 MLOAD DUP1 SWAP2 SUB SWAP1 RETURN JUMPDEST PUSH1 0x1 SLOAD PUSH2 0x135 SWAP1 PUSH1 0x1 PUSH1 0x1 PUSH1 0xA0 SHL SUB AND DUP2 JUMP JUMPDEST PUSH1 0x40 MLOAD PUSH1 0x1 PUSH1 0x1 PUSH1 0xA0 SHL SUB SWAP1 SWAP2 AND DUP2 MSTORE PUSH1 0x20 ADD PUSH2 0x119 JUMP JUMPDEST PUSH2 0x170 PUSH2 0x15B CALLDATASIZE PUSH1 0x4 PUSH2 0x983 JUMP JUMPDEST PUSH1 0x0 SWAP1 DUP2 MSTORE PUSH1 0x20 DUP2 SWAP1 MSTORE PUSH1 0x40 SWAP1 KECCAK256 PUSH1 0x1 ADD SLOAD SWAP1 JUMP JUMPDEST PUSH1 0x40 MLOAD SWAP1 DUP2 MSTORE PUSH1 0x20 ADD PUSH2 0x119 JUMP JUMPDEST PUSH2 0x191 PUSH2 0x18C CALLDATASIZE PUSH1 0x4 PUSH2 0x9B8 JUMP JUMPDEST PUSH2 0x2C4 JUMP JUMPDEST STOP JUMPDEST PUSH2 0x191 PUSH2 0x1A1 CALLDATASIZE PUSH1 0x4 PUSH2 0x9B8 JUMP JUMPDEST PUSH2 0x2EF JUMP JUMPDEST PUSH2 0x191 PUSH2 0x1B4 CALLDATASIZE PUSH1 0x4 PUSH2 0x9FA JUMP JUMPDEST PUSH2 0x327 JUMP JUMPDEST PUSH2 0x170 PUSH2 0x1C7 CALLDATASIZE PUSH1 0x4 PUSH2 0xAC4 JUMP JUMPDEST PUSH2 0x4A4 JUMP JUMPDEST PUSH2 0x170 PUSH2 0x1DA CALLDATASIZE PUSH1 0x4 PUSH2 0x983 JUMP JUMPDEST PUSH2 0x5D8 JUMP JUMPDEST PUSH2 0x10D PUSH2 0x1ED CALLDATASIZE PUSH1 0x4 PUSH2 0x9B8 JUMP JUMPDEST PUSH2 0x5F9 JUMP JUMPDEST PUSH2 0x21E PUSH2 0x200 CALLDATASIZE PUSH1 0x4 PUSH2 0x983 JUMP JUMPDEST PUSH1 0x2 PUSH1 0x20 MSTORE PUSH1 0x0 SWAP1 DUP2 MSTORE PUSH1 0x40 SWAP1 KECCAK256 SLOAD PUSH1 0xFF DUP1 DUP3 AND SWAP2 PUSH2 0x100 SWAP1 DIV AND DUP3 JUMP JUMPDEST PUSH1 0x40 DUP1 MLOAD SWAP3 ISZERO ISZERO DUP4 MSTORE SWAP1 ISZERO ISZERO PUSH1 0x20 DUP4 ADD MSTORE ADD PUSH2 0x119 JUMP JUMPDEST PUSH2 0x170 PUSH1 0x0 DUP2 JUMP JUMPDEST PUSH2 0x191 PUSH2 0x24B CALLDATASIZE PUSH1 0x4 PUSH2 0xAC4 JUMP JUMPDEST PUSH2 0x622 JUMP JUMPDEST PUSH2 0x191 PUSH2 0x25E CALLDATASIZE PUSH1 0x4 PUSH2 0x9B8 JUMP JUMPDEST PUSH2 0x692 JUMP JUMPDEST PUSH2 0x276 PUSH2 0x271 CALLDATASIZE PUSH1 0x4 PUSH2 0x983 JUMP JUMPDEST PUSH2 0x6B7 JUMP JUMPDEST PUSH1 0x40 MLOAD PUSH2 0x119 SWAP3 SWAP2 SWAP1 PUSH2 0xB1A JUMP JUMPDEST PUSH2 0x170 PUSH1 0x4 SLOAD DUP2 JUMP JUMPDEST PUSH1 0x0 PUSH1 0x1 PUSH1 0x1 PUSH1 0xE0 SHL SUB NOT DUP3 AND PUSH4 0x7965DB0B PUSH1 0xE0 SHL EQ DUP1 PUSH2 0x2BE JUMPI POP PUSH4 0x1FFC9A7 PUSH1 0xE0 SHL PUSH1 0x1 PUSH1 0x1 PUSH1 0xE0 SHL SUB NOT DUP4 AND EQ JUMPDEST SWAP3 SWAP2 POP POP JUMP JUMPDEST PUSH1 0x0 DUP3 DUP2 MSTORE PUSH1 0x20 DUP2 SWAP1 MSTORE PUSH1 0x40 SWAP1 KECCAK256 PUSH1 0x1 ADD SLOAD PUSH2 0x2DF DUP2 PUSH2 0x7AB JUMP JUMPDEST PUSH2 0x2E9 DUP4 DUP4 PUSH2 0x7B8 JUMP JUMPDEST POP POP POP POP JUMP JUMPDEST PUSH1 0x1 PUSH1 0x1 PUSH1 0xA0 SHL SUB DUP2 AND CALLER EQ PUSH2 0x318 JUMPI PUSH1 0x40 MLOAD PUSH4 0x334BD919 PUSH1 0xE1 SHL DUP2 MSTORE PUSH1 0x4 ADD PUSH1 0x40 MLOAD DUP1 SWAP2 SUB SWAP1 REVERT JUMPDEST PUSH2 0x322 DUP3 DUP3 PUSH2 0x84A JUMP JUMPDEST POP POP POP JUMP JUMPDEST PUSH2 0x332 PUSH1 0x0 CALLER PUSH2 0x5F9 JUMP JUMPDEST PUSH2 0x37A JUMPI PUSH1 0x40 MLOAD PUSH3 0x461BCD PUSH1 0xE5 SHL DUP2 MSTORE PUSH1 0x20 PUSH1 0x4 DUP3 ADD MSTORE PUSH1 0x14 PUSH1 0x24 DUP3 ADD MSTORE PUSH20 0x2932B9BA3934B1BA32B2103A379030B236B4B717 PUSH1 0x61 SHL PUSH1 0x44 DUP3 ADD MSTORE PUSH1 0x64 ADD JUMPDEST PUSH1 0x40 MLOAD DUP1 SWAP2 SUB SWAP1 REVERT JUMPDEST PUSH1 0x0 DUP3 DUP2 MSTORE PUSH1 0x2 PUSH1 0x20 MSTORE PUSH1 0x40 SWAP1 KECCAK256 SLOAD PUSH2 0x100 SWAP1 DIV PUSH1 0xFF AND PUSH2 0x3D1 JUMPI PUSH1 0x40 MLOAD PUSH3 0x461BCD PUSH1 0xE5 SHL DUP2 MSTORE PUSH1 0x20 PUSH1 0x4 DUP3 ADD MSTORE PUSH1 0x11 PUSH1 0x24 DUP3 ADD MSTORE PUSH17 0x1C995C5D595CDD081B9BDD08199BDD5B99 PUSH1 0x7A SHL PUSH1 0x44 DUP3 ADD MSTORE PUSH1 0x64 ADD PUSH2 0x371 JUMP JUMPDEST PUSH1 0x0 DUP3 DUP2 MSTORE PUSH1 0x2 PUSH1 0x20 SWAP1 DUP2 MSTORE PUSH1 0x40 SWAP1 SWAP2 KECCAK256 DUP1 SLOAD PUSH1 0xFF NOT AND PUSH1 0x1 SWAP1 DUP2 OR DUP3 SSTORE DUP4 MLOAD PUSH2 0x402 SWAP4 SWAP3 SWAP1 SWAP2 ADD SWAP2 DUP5 ADD SWAP1 PUSH2 0x8F2 JUMP JUMPDEST POP PUSH1 0x1 SLOAD PUSH1 0x40 MLOAD PUSH4 0xE2E9185 PUSH1 0xE2 SHL DUP2 MSTORE PUSH1 0x1 PUSH1 0x1 PUSH1 0xA0 SHL SUB SWAP1 SWAP2 AND SWAP1 PUSH4 0x38BA4614 SWAP1 PUSH2 0x435 SWAP1 DUP6 SWAP1 DUP6 SWAP1 PUSH1 0x4 ADD PUSH2 0xB3D JUMP JUMPDEST PUSH1 0x0 PUSH1 0x40 MLOAD DUP1 DUP4 SUB DUP2 PUSH1 0x0 DUP8 DUP1 EXTCODESIZE ISZERO DUP1 ISZERO PUSH2 0x44F JUMPI PUSH1 0x0 DUP1 REVERT JUMPDEST POP GAS CALL ISZERO DUP1 ISZERO PUSH2 0x463 JUMPI RETURNDATASIZE PUSH1 0x0 DUP1 RETURNDATACOPY RETURNDATASIZE PUSH1 0x0 REVERT JUMPDEST POP POP POP POP PUSH32 0xFE2E2D779DBA245964D4E3EF9B994BE63856FD568BF7D3CA9E224755CB1BD54D DUP3 DUP3 PUSH1 0x40 MLOAD PUSH2 0x498 SWAP3 SWAP2 SWAP1 PUSH2 0xB3D JUMP JUMPDEST PUSH1 0x40 MLOAD DUP1 SWAP2 SUB SWAP1 LOG1 POP POP JUMP JUMPDEST PUSH1 0x40 MLOAD PUSH12 0xFFFFFFFFFFFFFFFFFFFFFFFF NOT PUSH1 0x60 DUP4 SWAP1 SHL AND PUSH1 0x20 DUP3 ADD MSTORE TIMESTAMP PUSH1 0x34 DUP3 ADD MSTORE PUSH1 0x0 SWAP1 PUSH1 0x54 ADD PUSH1 0x40 DUP1 MLOAD DUP1 DUP4 SUB PUSH1 0x1F NOT ADD DUP2 MSTORE DUP3 DUP3 MSTORE DUP1 MLOAD PUSH1 0x20 SWAP2 DUP3 ADD KECCAK256 PUSH1 0x60 DUP5 ADD DUP4 MSTORE PUSH1 0x0 DUP1 DUP6 MSTORE PUSH1 0x1 DUP4 DUP7 ADD MSTORE DUP4 MLOAD DUP2 DUP2 MSTORE SWAP3 DUP4 ADD DUP5 MSTORE SWAP1 SWAP5 POP SWAP2 DUP4 ADD SWAP2 POP SWAP1 MSTORE PUSH1 0x0 DUP3 DUP2 MSTORE PUSH1 0x2 PUSH1 0x20 SWAP1 DUP2 MSTORE PUSH1 0x40 SWAP2 DUP3 SWAP1 KECCAK256 DUP4 MLOAD DUP2 SLOAD DUP6 DUP5 ADD MLOAD ISZERO ISZERO PUSH2 0x100 MUL PUSH2 0xFF00 NOT SWAP3 ISZERO ISZERO SWAP3 SWAP1 SWAP3 AND PUSH2 0xFFFF NOT SWAP1 SWAP2 AND OR OR DUP2 SSTORE SWAP2 DUP4 ADD MLOAD DUP1 MLOAD PUSH2 0x555 SWAP3 PUSH1 0x1 DUP6 ADD SWAP3 ADD SWAP1 PUSH2 0x8F2 JUMP JUMPDEST POP POP PUSH1 0x3 DUP1 SLOAD PUSH1 0x1 DUP2 ADD DUP3 SSTORE PUSH1 0x0 SWAP2 SWAP1 SWAP2 MSTORE PUSH32 0xC2575A0E9E593C00F959F8C92F12DB2869C3395A3B0502D05E2516446F71F85B ADD DUP3 SWAP1 SSTORE POP PUSH1 0x4 DUP2 SWAP1 SSTORE PUSH1 0x40 DUP1 MLOAD DUP3 DUP2 MSTORE PUSH1 0x1 PUSH1 0x1 PUSH1 0xA0 SHL SUB DUP5 AND PUSH1 0x20 DUP3 ADD MSTORE PUSH32 0x48B98AD7A8A8DBE21CC82BF98710AD4D2CDD949CCAC393692E4D9A1722C162C7 SWAP2 ADD PUSH1 0x40 MLOAD DUP1 SWAP2 SUB SWAP1 LOG1 SWAP2 SWAP1 POP JUMP JUMPDEST PUSH1 0x3 DUP2 DUP2 SLOAD DUP2 LT PUSH2 0x5E8 JUMPI PUSH1 0x0 DUP1 REVERT JUMPDEST PUSH1 0x0 SWAP2 DUP3 MSTORE PUSH1 0x20 SWAP1 SWAP2 KECCAK256 ADD SLOAD SWAP1 POP DUP2 JUMP JUMPDEST PUSH1 0x0 SWAP2 DUP3 MSTORE PUSH1 0x20 DUP3 DUP2 MSTORE PUSH1 0x40 DUP1 DUP5 KECCAK256 PUSH1 0x1 PUSH1 0x1 PUSH1 0xA0 SHL SUB SWAP4 SWAP1 SWAP4 AND DUP5 MSTORE SWAP2 SWAP1 MSTORE SWAP1 KECCAK256 SLOAD PUSH1 0xFF AND SWAP1 JUMP JUMPDEST PUSH2 0x62D PUSH1 0x0 CALLER PUSH2 0x5F9 JUMP JUMPDEST PUSH2 0x670 JUMPI PUSH1 0x40 MLOAD PUSH3 0x461BCD PUSH1 0xE5 SHL DUP2 MSTORE PUSH1 0x20 PUSH1 0x4 DUP3 ADD MSTORE PUSH1 0x14 PUSH1 0x24 DUP3 ADD MSTORE PUSH20 0x2932B9BA3934B1BA32B2103A379030B236B4B717 PUSH1 0x61 SHL PUSH1 0x44 DUP3 ADD MSTORE PUSH1 0x64 ADD PUSH2 0x371 JUMP JUMPDEST PUSH1 0x1 DUP1 SLOAD PUSH1 0x1 PUSH1 0x1 PUSH1 0xA0 SHL SUB NOT AND PUSH1 0x1 PUSH1 0x1 PUSH1 0xA0 SHL SUB SWAP3 SWAP1 SWAP3 AND SWAP2 SWAP1 SWAP2 OR SWAP1 SSTORE JUMP JUMPDEST PUSH1 0x0 DUP3 DUP2 MSTORE PUSH1 0x20 DUP2 SWAP1 MSTORE PUSH1 0x40 SWAP1 KECCAK256 PUSH1 0x1 ADD SLOAD PUSH2 0x6AD DUP2 PUSH2 0x7AB JUMP JUMPDEST PUSH2 0x2E9 DUP4 DUP4 PUSH2 0x84A JUMP JUMPDEST PUSH1 0x0 DUP2 DUP2 MSTORE PUSH1 0x2 PUSH1 0x20 MSTORE PUSH1 0x40 DUP2 KECCAK256 SLOAD PUSH1 0x60 SWAP1 PUSH2 0x100 SWAP1 DIV PUSH1 0xFF AND PUSH2 0x711 JUMPI PUSH1 0x40 MLOAD PUSH3 0x461BCD PUSH1 0xE5 SHL DUP2 MSTORE PUSH1 0x20 PUSH1 0x4 DUP3 ADD MSTORE PUSH1 0x11 PUSH1 0x24 DUP3 ADD MSTORE PUSH17 0x1C995C5D595CDD081B9BDD08199BDD5B99 PUSH1 0x7A SHL PUSH1 0x44 DUP3 ADD MSTORE PUSH1 0x64 ADD PUSH2 0x371 JUMP JUMPDEST PUSH1 0x0 DUP4 DUP2 MSTORE PUSH1 0x2 PUSH1 0x20 SWAP1 DUP2 MSTORE PUSH1 0x40 DUP1 DUP4 KECCAK256 DUP2 MLOAD PUSH1 0x60 DUP2 ADD DUP4 MSTORE DUP2 SLOAD PUSH1 0xFF DUP1 DUP3 AND ISZERO ISZERO DUP4 MSTORE PUSH2 0x100 SWAP1 SWAP2 DIV AND ISZERO ISZERO DUP2 DUP6 ADD MSTORE PUSH1 0x1 DUP3 ADD DUP1 SLOAD DUP5 MLOAD DUP2 DUP8 MUL DUP2 ADD DUP8 ADD DUP7 MSTORE DUP2 DUP2 MSTORE SWAP3 SWAP6 SWAP4 SWAP5 DUP7 ADD SWAP4 DUP4 ADD DUP3 DUP3 DUP1 ISZERO PUSH2 0x78C JUMPI PUSH1 0x20 MUL DUP3 ADD SWAP2 SWAP1 PUSH1 0x0 MSTORE PUSH1 0x20 PUSH1 0x0 KECCAK256 SWAP1 JUMPDEST DUP2 SLOAD DUP2 MSTORE PUSH1 0x20 ADD SWAP1 PUSH1 0x1 ADD SWAP1 DUP1 DUP4 GT PUSH2 0x778 JUMPI JUMPDEST POP POP POP POP POP DUP2 MSTORE POP POP SWAP1 POP DUP1 PUSH1 0x0 ADD MLOAD DUP2 PUSH1 0x40 ADD MLOAD SWAP3 POP SWAP3 POP POP SWAP2 POP SWAP2 JUMP JUMPDEST PUSH2 0x7B5 DUP2 CALLER PUSH2 0x8B5 JUMP JUMPDEST POP JUMP JUMPDEST PUSH1 0x0 PUSH2 0x7C4 DUP4 DUP4 PUSH2 0x5F9 JUMP JUMPDEST PUSH2 0x842 JUMPI PUSH1 0x0 DUP4 DUP2 MSTORE PUSH1 0x20 DUP2 DUP2 MSTORE PUSH1 0x40 DUP1 DUP4 KECCAK256 PUSH1 0x1 PUSH1 0x1 PUSH1 0xA0 SHL SUB DUP7 AND DUP5 MSTORE SWAP1 SWAP2 MSTORE SWAP1 KECCAK256 DUP1 SLOAD PUSH1 0xFF NOT AND PUSH1 0x1 OR SWAP1 SSTORE PUSH2 0x7FA CALLER SWAP1 JUMP JUMPDEST PUSH1 0x1 PUSH1 0x1 PUSH1 0xA0 SHL SUB AND DUP3 PUSH1 0x1 PUSH1 0x1 PUSH1 0xA0 SHL SUB AND DUP5 PUSH32 0x2F8788117E7EFF1D82E926EC794901D17C78024A50270940304540A733656F0D PUSH1 0x40 MLOAD PUSH1 0x40 MLOAD DUP1 SWAP2 SUB SWAP1 LOG4 POP PUSH1 0x1 PUSH2 0x2BE JUMP JUMPDEST POP PUSH1 0x0 PUSH2 0x2BE JUMP JUMPDEST PUSH1 0x0 PUSH2 0x856 DUP4 DUP4 PUSH2 0x5F9 JUMP JUMPDEST ISZERO PUSH2 0x842 JUMPI PUSH1 0x0 DUP4 DUP2 MSTORE PUSH1 0x20 DUP2 DUP2 MSTORE PUSH1 0x40 DUP1 DUP4 KECCAK256 PUSH1 0x1 PUSH1 0x1 PUSH1 0xA0 SHL SUB DUP7 AND DUP1 DUP6 MSTORE SWAP3 MSTORE DUP1 DUP4 KECCAK256 DUP1 SLOAD PUSH1 0xFF NOT AND SWAP1 SSTORE MLOAD CALLER SWAP3 DUP7 SWAP2 PUSH32 0xF6391F5C32D9C69D2A47EA670B442974B53935D1EDC7FD64EB21E047A839171B SWAP2 SWAP1 LOG4 POP PUSH1 0x1 PUSH2 0x2BE JUMP JUMPDEST PUSH2 0x8BF DUP3 DUP3 PUSH2 0x5F9 JUMP JUMPDEST PUSH2 0x8EE JUMPI PUSH1 0x40 MLOAD PUSH4 0xE2517D3F PUSH1 0xE0 SHL DUP2 MSTORE PUSH1 0x1 PUSH1 0x1 PUSH1 0xA0 SHL SUB DUP3 AND PUSH1 0x4 DUP3 ADD MSTORE PUSH1 0x24 DUP2 ADD DUP4 SWAP1 MSTORE PUSH1 0x44 ADD PUSH2 0x371 JUMP JUMPDEST POP POP JUMP JUMPDEST DUP3 DUP1 SLOAD DUP3 DUP3 SSTORE SWAP1 PUSH1 0x0 MSTORE PUSH1 0x20 PUSH1 0x0 KECCAK256 SWAP1 DUP2 ADD SWAP3 DUP3 ISZERO PUSH2 0x92D JUMPI SWAP2 PUSH1 0x20 MUL DUP3 ADD JUMPDEST DUP3 DUP2 GT ISZERO PUSH2 0x92D JUMPI DUP3 MLOAD DUP3 SSTORE SWAP2 PUSH1 0x20 ADD SWAP2 SWAP1 PUSH1 0x1 ADD SWAP1 PUSH2 0x912 JUMP JUMPDEST POP PUSH2 0x939 SWAP3 SWAP2 POP PUSH2 0x93D JUMP JUMPDEST POP SWAP1 JUMP JUMPDEST JUMPDEST DUP1 DUP3 GT ISZERO PUSH2 0x939 JUMPI PUSH1 0x0 DUP2 SSTORE PUSH1 0x1 ADD PUSH2 0x93E JUMP JUMPDEST PUSH1 0x0 PUSH1 0x20 DUP3 DUP5 SUB SLT ISZERO PUSH2 0x964 JUMPI PUSH1 0x0 DUP1 REVERT JUMPDEST DUP2 CALLDATALOAD PUSH1 0x1 PUSH1 0x1 PUSH1 0xE0 SHL SUB NOT DUP2 AND DUP2 EQ PUSH2 0x97C JUMPI PUSH1 0x0 DUP1 REVERT JUMPDEST SWAP4 SWAP3 POP POP POP JUMP JUMPDEST PUSH1 0x0 PUSH1 0x20 DUP3 DUP5 SUB SLT ISZERO PUSH2 0x995 JUMPI PUSH1 0x0 DUP1 REVERT JUMPDEST POP CALLDATALOAD SWAP2 SWAP1 POP JUMP JUMPDEST DUP1 CALLDATALOAD PUSH1 0x1 PUSH1 0x1 PUSH1 0xA0 SHL SUB DUP2 AND DUP2 EQ PUSH2 0x9B3 JUMPI PUSH1 0x0 DUP1 REVERT JUMPDEST SWAP2 SWAP1 POP JUMP JUMPDEST PUSH1 0x0 DUP1 PUSH1 0x40 DUP4 DUP6 SUB SLT ISZERO PUSH2 0x9CB JUMPI PUSH1 0x0 DUP1 REVERT JUMPDEST DUP3 CALLDATALOAD SWAP2 POP PUSH2 0x9DB PUSH1 0x20 DUP5 ADD PUSH2 0x99C JUMP JUMPDEST SWAP1 POP SWAP3 POP SWAP3 SWAP1 POP JUMP JUMPDEST PUSH4 0x4E487B71 PUSH1 0xE0 SHL PUSH1 0x0 MSTORE PUSH1 0x41 PUSH1 0x4 MSTORE PUSH1 0x24 PUSH1 0x0 REVERT JUMPDEST PUSH1 0x0 DUP1 PUSH1 0x40 DUP4 DUP6 SUB SLT ISZERO PUSH2 0xA0D JUMPI PUSH1 0x0 DUP1 REVERT JUMPDEST DUP3 CALLDATALOAD SWAP2 POP PUSH1 0x20 DUP1 DUP5 ADD CALLDATALOAD PUSH8 0xFFFFFFFFFFFFFFFF DUP1 DUP3 GT ISZERO PUSH2 0xA2D JUMPI PUSH1 0x0 DUP1 REVERT JUMPDEST DUP2 DUP7 ADD SWAP2 POP DUP7 PUSH1 0x1F DUP4 ADD SLT PUSH2 0xA41 JUMPI PUSH1 0x0 DUP1 REVERT JUMPDEST DUP2 CALLDATALOAD DUP2 DUP2 GT ISZERO PUSH2 0xA53 JUMPI PUSH2 0xA53 PUSH2 0x9E4 JUMP JUMPDEST DUP1 PUSH1 0x5 SHL PUSH1 0x40 MLOAD PUSH1 0x1F NOT PUSH1 0x3F DUP4 ADD AND DUP2 ADD DUP2 DUP2 LT DUP6 DUP3 GT OR ISZERO PUSH2 0xA78 JUMPI PUSH2 0xA78 PUSH2 0x9E4 JUMP JUMPDEST PUSH1 0x40 MSTORE SWAP2 DUP3 MSTORE DUP5 DUP3 ADD SWAP3 POP DUP4 DUP2 ADD DUP6 ADD SWAP2 DUP10 DUP4 GT ISZERO PUSH2 0xA96 JUMPI PUSH1 0x0 DUP1 REVERT JUMPDEST SWAP4 DUP6 ADD SWAP4 JUMPDEST DUP3 DUP6 LT ISZERO PUSH2 0xAB4 JUMPI DUP5 CALLDATALOAD DUP5 MSTORE SWAP4 DUP6 ADD SWAP4 SWAP3 DUP6 ADD SWAP3 PUSH2 0xA9B JUMP JUMPDEST DUP1 SWAP7 POP POP POP POP POP POP POP SWAP3 POP SWAP3 SWAP1 POP JUMP JUMPDEST PUSH1 0x0 PUSH1 0x20 DUP3 DUP5 SUB SLT ISZERO PUSH2 0xAD6 JUMPI PUSH1 0x0 DUP1 REVERT JUMPDEST PUSH2 0x97C DUP3 PUSH2 0x99C JUMP JUMPDEST PUSH1 0x0 DUP2 MLOAD DUP1 DUP5 MSTORE PUSH1 0x20 DUP1 DUP6 ADD SWAP5 POP DUP1 DUP5 ADD PUSH1 0x0 JUMPDEST DUP4 DUP2 LT ISZERO PUSH2 0xB0F JUMPI DUP2 MLOAD DUP8 MSTORE SWAP6 DUP3 ADD SWAP6 SWAP1 DUP3 ADD SWAP1 PUSH1 0x1 ADD PUSH2 0xAF3 JUMP JUMPDEST POP SWAP5 SWAP6 SWAP5 POP POP POP POP POP JUMP JUMPDEST DUP3 ISZERO ISZERO DUP2 MSTORE PUSH1 0x40 PUSH1 0x20 DUP3 ADD MSTORE PUSH1 0x0 PUSH2 0xB35 PUSH1 0x40 DUP4 ADD DUP5 PUSH2 0xADF JUMP JUMPDEST SWAP5 SWAP4 POP POP POP POP JUMP JUMPDEST DUP3 DUP2 MSTORE PUSH1 0x40 PUSH1 0x20 DUP3 ADD MSTORE PUSH1 0x0 PUSH2 0xB35 PUSH1 0x40 DUP4 ADD DUP5 PUSH2 0xADF JUMP INVALID LOG2 PUSH5 0x6970667358 0x22 SLT KECCAK256 0xD2 0xD7 DUP8 0xAA PUSH25 0x1B359D92B6077014D45D5E71BBC90F7ED14E7C95B9CF5DC3B4 DUP12 0xB1 PUSH5 0x736F6C6343 STOP ADDMOD EQ STOP CALLER "
				},
				"gasEstimates": {
					"creation": {
						"codeDepositCost": "591200",
						"executionCost": "infinite",
						"totalCost": "infinite"
					},
					"external": {
						"DEFAULT_ADMIN_ROLE()": "284",
						"drawingContract()": "2383",
						"fulfillRandomWords(uint256,uint256[])": "infinite",
						"getRequestStatus(uint256)": "infinite",
						"getRoleAdmin(bytes32)": "2515",
						"grantRole(bytes32,address)": "infinite",
						"hasRole(bytes32,address)": "2696",
						"lastRequestId()": "2383",
						"renounceRole(bytes32,address)": "29068",
						"requestIds(uint256)": "4598",
						"requestRandomWords(address)": "infinite",
						"revokeRole(bytes32,address)": "infinite",
						"s_requests(uint256)": "2564",
						"setDrawingContract(address)": "26907",
						"supportsInterface(bytes4)": "450"
					}
				},
				"methodIdentifiers": {
					"DEFAULT_ADMIN_ROLE()": "a217fddf",
					"drawingContract()": "0fa08046",
					"fulfillRandomWords(uint256,uint256[])": "38ba4614",
					"getRequestStatus(uint256)": "d8a4676f",
					"getRoleAdmin(bytes32)": "248a9ca3",
					"grantRole(bytes32,address)": "2f2ff15d",
					"hasRole(bytes32,address)": "91d14854",
					"lastRequestId()": "fc2a88c3",
					"renounceRole(bytes32,address)": "36568abe",
					"requestIds(uint256)": "8796ba8c",
					"requestRandomWords(address)": "80c95b14",
					"revokeRole(bytes32,address)": "d547741f",
					"s_requests(uint256)": "a168fa89",
					"setDrawingContract(address)": "bdf1e06d",
					"supportsInterface(bytes4)": "01ffc9a7"
				}
			},
			"storageLayout": {
				"storage": [
					{
						"astId": 26,
						"contract": "VRFTester.sol:VRFManager",
						"label": "_roles",
						"offset": 0,
						"slot": "0",
						"type": "t_mapping(t_bytes32,t_struct(RoleData)21_storage)"
					},
					{
						"astId": 845,
						"contract": "VRFTester.sol:VRFManager",
						"label": "drawingContract",
						"offset": 0,
						"slot": "1",
						"type": "t_contract(IHierarchicalDrawing)565"
					},
					{
						"astId": 858,
						"contract": "VRFTester.sol:VRFManager",
						"label": "s_requests",
						"offset": 0,
						"slot": "2",
						"type": "t_mapping(t_uint256,t_struct(RequestStatus)853_storage)"
					},
					{
						"astId": 861,
						"contract": "VRFTester.sol:VRFManager",
						"label": "requestIds",
						"offset": 0,
						"slot": "3",
						"type": "t_array(t_uint256)dyn_storage"
					},
					{
						"astId": 863,
						"contract": "VRFTester.sol:VRFManager",
						"label": "lastRequestId",
						"offset": 0,
						"slot": "4",
						"type": "t_uint256"
					}
				],
				"types": {
					"t_address": {
						"encoding": "inplace",
						"label": "address",
						"numberOfBytes": "20"
					},
					"t_array(t_uint256)dyn_storage": {
						"base": "t_uint256",
						"encoding": "dynamic_array",
						"label": "uint256[]",
						"numberOfBytes": "32"
					},
					"t_bool": {
						"encoding": "inplace",
						"label": "bool",
						"numberOfBytes": "1"
					},
					"t_bytes32": {
						"encoding": "inplace",
						"label": "bytes32",
						"numberOfBytes": "32"
					},
					"t_contract(IHierarchicalDrawing)565": {
						"encoding": "inplace",
						"label": "contract IHierarchicalDrawing",
						"numberOfBytes": "20"
					},
					"t_mapping(t_address,t_bool)": {
						"encoding": "mapping",
						"key": "t_address",
						"label": "mapping(address => bool)",
						"numberOfBytes": "32",
						"value": "t_bool"
					},
					"t_mapping(t_bytes32,t_struct(RoleData)21_storage)": {
						"encoding": "mapping",
						"key": "t_bytes32",
						"label": "mapping(bytes32 => struct AccessControl.RoleData)",
						"numberOfBytes": "32",
						"value": "t_struct(RoleData)21_storage"
					},
					"t_mapping(t_uint256,t_struct(RequestStatus)853_storage)": {
						"encoding": "mapping",
						"key": "t_uint256",
						"label": "mapping(uint256 => struct VRFManager.RequestStatus)",
						"numberOfBytes": "32",
						"value": "t_struct(RequestStatus)853_storage"
					},
					"t_struct(RequestStatus)853_storage": {
						"encoding": "inplace",
						"label": "struct VRFManager.RequestStatus",
						"members": [
							{
								"astId": 847,
								"contract": "VRFTester.sol:VRFManager",
								"label": "fulfilled",
								"offset": 0,
								"slot": "0",
								"type": "t_bool"
							},
							{
								"astId": 849,
								"contract": "VRFTester.sol:VRFManager",
								"label": "exists",
								"offset": 1,
								"slot": "0",
								"type": "t_bool"
							},
							{
								"astId": 852,
								"contract": "VRFTester.sol:VRFManager",
								"label": "randomWords",
								"offset": 0,
								"slot": "1",
								"type": "t_array(t_uint256)dyn_storage"
							}
						],
						"numberOfBytes": "64"
					},
					"t_struct(RoleData)21_storage": {
						"encoding": "inplace",
						"label": "struct AccessControl.RoleData",
						"members": [
							{
								"astId": 18,
								"contract": "VRFTester.sol:VRFManager",
								"label": "hasRole",
								"offset": 0,
								"slot": "0",
								"type": "t_mapping(t_address,t_bool)"
							},
							{
								"astId": 20,
								"contract": "VRFTester.sol:VRFManager",
								"label": "adminRole",
								"offset": 0,
								"slot": "1",
								"type": "t_bytes32"
							}
						],
						"numberOfBytes": "64"
					},
					"t_uint256": {
						"encoding": "inplace",
						"label": "uint256",
						"numberOfBytes": "32"
					}
				}
			},
			"userdoc": {
				"kind": "user",
				"methods": {},
				"version": 1
			}
		}
	}
}