{
	"MyNFT.sol": {
		"PrizeItems": {
			"abi": [
				{
					"inputs": [
						{
							"internalType": "address",
							"name": "_initialAdmin",
							"type": "address"
						},
						{
							"internalType": "string",
							"name": "baseTokenURI",
							"type": "string"
						}
					],
					"stateMutability": "nonpayable",
					"type": "constructor"
				},
				{
					"inputs": [],
					"name": "AccessControlBadConfirmation",
					"type": "error"
				},
				{
					"inputs": [
						{
							"internalType": "address",
							"name": "account",
							"type": "address"
						},
						{
							"internalType": "bytes32",
							"name": "neededRole",
							"type": "bytes32"
						}
					],
					"name": "AccessControlUnauthorizedAccount",
					"type": "error"
				},
				{
					"inputs": [
						{
							"internalType": "address",
							"name": "sender",
							"type": "address"
						},
						{
							"internalType": "uint256",
							"name": "balance",
							"type": "uint256"
						},
						{
							"internalType": "uint256",
							"name": "needed",
							"type": "uint256"
						},
						{
							"internalType": "uint256",
							"name": "tokenId",
							"type": "uint256"
						}
					],
					"name": "ERC1155InsufficientBalance",
					"type": "error"
				},
				{
					"inputs": [
						{
							"internalType": "address",
							"name": "approver",
							"type": "address"
						}
					],
					"name": "ERC1155InvalidApprover",
					"type": "error"
				},
				{
					"inputs": [
						{
							"internalType": "uint256",
							"name": "idsLength",
							"type": "uint256"
						},
						{
							"internalType": "uint256",
							"name": "valuesLength",
							"type": "uint256"
						}
					],
					"name": "ERC1155InvalidArrayLength",
					"type": "error"
				},
				{
					"inputs": [
						{
							"internalType": "address",
							"name": "operator",
							"type": "address"
						}
					],
					"name": "ERC1155InvalidOperator",
					"type": "error"
				},
				{
					"inputs": [
						{
							"internalType": "address",
							"name": "receiver",
							"type": "address"
						}
					],
					"name": "ERC1155InvalidReceiver",
					"type": "error"
				},
				{
					"inputs": [
						{
							"internalType": "address",
							"name": "sender",
							"type": "address"
						}
					],
					"name": "ERC1155InvalidSender",
					"type": "error"
				},
				{
					"inputs": [
						{
							"internalType": "address",
							"name": "operator",
							"type": "address"
						},
						{
							"internalType": "address",
							"name": "owner",
							"type": "address"
						}
					],
					"name": "ERC1155MissingApprovalForAll",
					"type": "error"
				},
				{
					"anonymous": false,
					"inputs": [
						{
							"indexed": true,
							"internalType": "address",
							"name": "account",
							"type": "address"
						},
						{
							"indexed": true,
							"internalType": "address",
							"name": "operator",
							"type": "address"
						},
						{
							"indexed": false,
							"internalType": "bool",
							"name": "approved",
							"type": "bool"
						}
					],
					"name": "ApprovalForAll",
					"type": "event"
				},
				{
					"anonymous": false,
					"inputs": [
						{
							"indexed": true,
							"internalType": "bytes32",
							"name": "role",
							"type": "bytes32"
						},
						{
							"indexed": true,
							"internalType": "bytes32",
							"name": "previousAdminRole",
							"type": "bytes32"
						},
						{
							"indexed": true,
							"internalType": "bytes32",
							"name": "newAdminRole",
							"type": "bytes32"
						}
					],
					"name": "RoleAdminChanged",
					"type": "event"
				},
				{
					"anonymous": false,
					"inputs": [
						{
							"indexed": true,
							"internalType": "bytes32",
							"name": "role",
							"type": "bytes32"
						},
						{
							"indexed": true,
							"internalType": "address",
							"name": "account",
							"type": "address"
						},
						{
							"indexed": true,
							"internalType": "address",
							"name": "sender",
							"type": "address"
						}
					],
					"name": "RoleGranted",
					"type": "event"
				},
				{
					"anonymous": false,
					"inputs": [
						{
							"indexed": true,
							"internalType": "bytes32",
							"name": "role",
							"type": "bytes32"
						},
						{
							"indexed": true,
							"internalType": "address",
							"name": "account",
							"type": "address"
						},
						{
							"indexed": true,
							"internalType": "address",
							"name": "sender",
							"type": "address"
						}
					],
					"name": "RoleRevoked",
					"type": "event"
				},
				{
					"anonymous": false,
					"inputs": [
						{
							"indexed": true,
							"internalType": "address",
							"name": "operator",
							"type": "address"
						},
						{
							"indexed": true,
							"internalType": "address",
							"name": "from",
							"type": "address"
						},
						{
							"indexed": true,
							"internalType": "address",
							"name": "to",
							"type": "address"
						},
						{
							"indexed": false,
							"internalType": "uint256[]",
							"name": "ids",
							"type": "uint256[]"
						},
						{
							"indexed": false,
							"internalType": "uint256[]",
							"name": "values",
							"type": "uint256[]"
						}
					],
					"name": "TransferBatch",
					"type": "event"
				},
				{
					"anonymous": false,
					"inputs": [
						{
							"indexed": true,
							"internalType": "address",
							"name": "operator",
							"type": "address"
						},
						{
							"indexed": true,
							"internalType": "address",
							"name": "from",
							"type": "address"
						},
						{
							"indexed": true,
							"internalType": "address",
							"name": "to",
							"type": "address"
						},
						{
							"indexed": false,
							"internalType": "uint256",
							"name": "id",
							"type": "uint256"
						},
						{
							"indexed": false,
							"internalType": "uint256",
							"name": "value",
							"type": "uint256"
						}
					],
					"name": "TransferSingle",
					"type": "event"
				},
				{
					"anonymous": false,
					"inputs": [
						{
							"indexed": false,
							"internalType": "string",
							"name": "value",
							"type": "string"
						},
						{
							"indexed": true,
							"internalType": "uint256",
							"name": "id",
							"type": "uint256"
						}
					],
					"name": "URI",
					"type": "event"
				},
				{
					"inputs": [],
					"name": "DEFAULT_ADMIN_ROLE",
					"outputs": [
						{
							"internalType": "bytes32",
							"name": "",
							"type": "bytes32"
						}
					],
					"stateMutability": "view",
					"type": "function"
				},
				{
					"inputs": [],
					"name": "MINTER_ROLE",
					"outputs": [
						{
							"internalType": "bytes32",
							"name": "",
							"type": "bytes32"
						}
					],
					"stateMutability": "view",
					"type": "function"
				},
				{
					"inputs": [
						{
							"internalType": "address",
							"name": "account",
							"type": "address"
						},
						{
							"internalType": "uint256",
							"name": "id",
							"type": "uint256"
						}
					],
					"name": "balanceOf",
					"outputs": [
						{
							"internalType": "uint256",
							"name": "",
							"type": "uint256"
						}
					],
					"stateMutability": "view",
					"type": "function"
				},
				{
					"inputs": [
						{
							"internalType": "address[]",
							"name": "accounts",
							"type": "address[]"
						},
						{
							"internalType": "uint256[]",
							"name": "ids",
							"type": "uint256[]"
						}
					],
					"name": "balanceOfBatch",
					"outputs": [
						{
							"internalType": "uint256[]",
							"name": "",
							"type": "uint256[]"
						}
					],
					"stateMutability": "view",
					"type": "function"
				},
				{
					"inputs": [
						{
							"internalType": "uint256",
							"name": "id",
							"type": "uint256"
						}
					],
					"name": "exists",
					"outputs": [
						{
							"internalType": "bool",
							"name": "",
							"type": "bool"
						}
					],
					"stateMutability": "view",
					"type": "function"
				},
				{
					"inputs": [
						{
							"internalType": "bytes32",
							"name": "role",
							"type": "bytes32"
						}
					],
					"name": "getRoleAdmin",
					"outputs": [
						{
							"internalType": "bytes32",
							"name": "",
							"type": "bytes32"
						}
					],
					"stateMutability": "view",
					"type": "function"
				},
				{
					"inputs": [
						{
							"internalType": "bytes32",
							"name": "role",
							"type": "bytes32"
						},
						{
							"internalType": "address",
							"name": "account",
							"type": "address"
						}
					],
					"name": "grantRole",
					"outputs": [],
					"stateMutability": "nonpayable",
					"type": "function"
				},
				{
					"inputs": [
						{
							"internalType": "bytes32",
							"name": "role",
							"type": "bytes32"
						},
						{
							"internalType": "address",
							"name": "account",
							"type": "address"
						}
					],
					"name": "hasRole",
					"outputs": [
						{
							"internalType": "bool",
							"name": "",
							"type": "bool"
						}
					],
					"stateMutability": "view",
					"type": "function"
				},
				{
					"inputs": [
						{
							"internalType": "address",
							"name": "account",
							"type": "address"
						},
						{
							"internalType": "address",
							"name": "operator",
							"type": "address"
						}
					],
					"name": "isApprovedForAll",
					"outputs": [
						{
							"internalType": "bool",
							"name": "",
							"type": "bool"
						}
					],
					"stateMutability": "view",
					"type": "function"
				},
				{
					"inputs": [
						{
							"internalType": "address",
							"name": "_account",
							"type": "address"
						},
						{
							"internalType": "uint256",
							"name": "_id",
							"type": "uint256"
						},
						{
							"internalType": "uint256",
							"name": "_amount",
							"type": "uint256"
						},
						{
							"internalType": "bytes",
							"name": "data",
							"type": "bytes"
						}
					],
					"name": "mint",
					"outputs": [],
					"stateMutability": "nonpayable",
					"type": "function"
				},
				{
					"inputs": [
						{
							"internalType": "address",
							"name": "_account",
							"type": "address"
						},
						{
							"internalType": "uint256[]",
							"name": "_ids",
							"type": "uint256[]"
						},
						{
							"internalType": "uint256[]",
							"name": "_amounts",
							"type": "uint256[]"
						},
						{
							"internalType": "bytes",
							"name": "data",
							"type": "bytes"
						}
					],
					"name": "mintBatch",
					"outputs": [],
					"stateMutability": "nonpayable",
					"type": "function"
				},
				{
					"inputs": [
						{
							"internalType": "bytes32",
							"name": "role",
							"type": "bytes32"
						},
						{
							"internalType": "address",
							"name": "callerConfirmation",
							"type": "address"
						}
					],
					"name": "renounceRole",
					"outputs": [],
					"stateMutability": "nonpayable",
					"type": "function"
				},
				{
					"inputs": [
						{
							"internalType": "bytes32",
							"name": "role",
							"type": "bytes32"
						},
						{
							"internalType": "address",
							"name": "account",
							"type": "address"
						}
					],
					"name": "revokeRole",
					"outputs": [],
					"stateMutability": "nonpayable",
					"type": "function"
				},
				{
					"inputs": [
						{
							"internalType": "address",
							"name": "from",
							"type": "address"
						},
						{
							"internalType": "address",
							"name": "to",
							"type": "address"
						},
						{
							"internalType": "uint256[]",
							"name": "ids",
							"type": "uint256[]"
						},
						{
							"internalType": "uint256[]",
							"name": "values",
							"type": "uint256[]"
						},
						{
							"internalType": "bytes",
							"name": "data",
							"type": "bytes"
						}
					],
					"name": "safeBatchTransferFrom",
					"outputs": [],
					"stateMutability": "nonpayable",
					"type": "function"
				},
				{
					"inputs": [
						{
							"internalType": "address",
							"name": "from",
							"type": "address"
						},
						{
							"internalType": "address",
							"name": "to",
							"type": "address"
						},
						{
							"internalType": "uint256",
							"name": "id",
							"type": "uint256"
						},
						{
							"internalType": "uint256",
							"name": "value",
							"type": "uint256"
						},
						{
							"internalType": "bytes",
							"name": "data",
							"type": "bytes"
						}
					],
					"name": "safeTransferFrom",
					"outputs": [],
					"stateMutability": "nonpayable",
					"type": "function"
				},
				{
					"inputs": [
						{
							"internalType": "address",
							"name": "operator",
							"type": "address"
						},
						{
							"internalType": "bool",
							"name": "approved",
							"type": "bool"
						}
					],
					"name": "setApprovalForAll",
					"outputs": [],
					"stateMutability": "nonpayable",
					"type": "function"
				},
				{
					"inputs": [
						{
							"internalType": "string",
							"name": "newBaseTokenURI",
							"type": "string"
						}
					],
					"name": "setBaseTokenURI",
					"outputs": [],
					"stateMutability": "nonpayable",
					"type": "function"
				},
				{
					"inputs": [
						{
							"internalType": "bytes4",
							"name": "interfaceId",
							"type": "bytes4"
						}
					],
					"name": "supportsInterface",
					"outputs": [
						{
							"internalType": "bool",
							"name": "",
							"type": "bool"
						}
					],
					"stateMutability": "view",
					"type": "function"
				},
				{
					"inputs": [],
					"name": "totalSupply",
					"outputs": [
						{
							"internalType": "uint256",
							"name": "",
							"type": "uint256"
						}
					],
					"stateMutability": "view",
					"type": "function"
				},
				{
					"inputs": [
						{
							"internalType": "uint256",
							"name": "id",
							"type": "uint256"
						}
					],
					"name": "totalSupply",
					"outputs": [
						{
							"internalType": "uint256",
							"name": "",
							"type": "uint256"
						}
					],
					"stateMutability": "view",
					"type": "function"
				},
				{
					"inputs": [
						{
							"internalType": "uint256",
							"name": "tokenId",
							"type": "uint256"
						}
					],
					"name": "uri",
					"outputs": [
						{
							"internalType": "string",
							"name": "",
							"type": "string"
						}
					],
					"stateMutability": "view",
					"type": "function"
				}
			],
			"devdoc": {
				"errors": {
					"AccessControlBadConfirmation()": [
						{
							"details": "The caller of a function is not the expected one. NOTE: Don't confuse with {AccessControlUnauthorizedAccount}."
						}
					],
					"AccessControlUnauthorizedAccount(address,bytes32)": [
						{
							"details": "The `account` is missing a role."
						}
					],
					"ERC1155InsufficientBalance(address,uint256,uint256,uint256)": [
						{
							"details": "Indicates an error related to the current `balance` of a `sender`. Used in transfers.",
							"params": {
								"balance": "Current balance for the interacting account.",
								"needed": "Minimum amount required to perform a transfer.",
								"sender": "Address whose tokens are being transferred.",
								"tokenId": "Identifier number of a token."
							}
						}
					],
					"ERC1155InvalidApprover(address)": [
						{
							"details": "Indicates a failure with the `approver` of a token to be approved. Used in approvals.",
							"params": {
								"approver": "Address initiating an approval operation."
							}
						}
					],
					"ERC1155InvalidArrayLength(uint256,uint256)": [
						{
							"details": "Indicates an array length mismatch between ids and values in a safeBatchTransferFrom operation. Used in batch transfers.",
							"params": {
								"idsLength": "Length of the array of token identifiers",
								"valuesLength": "Length of the array of token amounts"
							}
						}
					],
					"ERC1155InvalidOperator(address)": [
						{
							"details": "Indicates a failure with the `operator` to be approved. Used in approvals.",
							"params": {
								"operator": "Address that may be allowed to operate on tokens without being their owner."
							}
						}
					],
					"ERC1155InvalidReceiver(address)": [
						{
							"details": "Indicates a failure with the token `receiver`. Used in transfers.",
							"params": {
								"receiver": "Address to which tokens are being transferred."
							}
						}
					],
					"ERC1155InvalidSender(address)": [
						{
							"details": "Indicates a failure with the token `sender`. Used in transfers.",
							"params": {
								"sender": "Address whose tokens are being transferred."
							}
						}
					],
					"ERC1155MissingApprovalForAll(address,address)": [
						{
							"details": "Indicates a failure with the `operator`’s approval. Used in transfers.",
							"params": {
								"operator": "Address that may be allowed to operate on tokens without being their owner.",
								"owner": "Address of the current owner of a token."
							}
						}
					]
				},
				"events": {
					"ApprovalForAll(address,address,bool)": {
						"details": "Emitted when `account` grants or revokes permission to `operator` to transfer their tokens, according to `approved`."
					},
					"RoleAdminChanged(bytes32,bytes32,bytes32)": {
						"details": "Emitted when `newAdminRole` is set as ``role``'s admin role, replacing `previousAdminRole` `DEFAULT_ADMIN_ROLE` is the starting admin for all roles, despite {RoleAdminChanged} not being emitted signaling this."
					},
					"RoleGranted(bytes32,address,address)": {
						"details": "Emitted when `account` is granted `role`. `sender` is the account that originated the contract call, an admin role bearer except when using {AccessControl-_setupRole}."
					},
					"RoleRevoked(bytes32,address,address)": {
						"details": "Emitted when `account` is revoked `role`. `sender` is the account that originated the contract call:   - if using `revokeRole`, it is the admin role bearer   - if using `renounceRole`, it is the role bearer (i.e. `account`)"
					},
					"TransferBatch(address,address,address,uint256[],uint256[])": {
						"details": "Equivalent to multiple {TransferSingle} events, where `operator`, `from` and `to` are the same for all transfers."
					},
					"TransferSingle(address,address,address,uint256,uint256)": {
						"details": "Emitted when `value` amount of tokens of type `id` are transferred from `from` to `to` by `operator`."
					},
					"URI(string,uint256)": {
						"details": "Emitted when the URI for token type `id` changes to `value`, if it is a non-programmatic URI. If an {URI} event was emitted for `id`, the standard https://eips.ethereum.org/EIPS/eip-1155#metadata-extensions[guarantees] that `value` will equal the value returned by {IERC1155MetadataURI-uri}."
					}
				},
				"kind": "dev",
				"methods": {
					"balanceOf(address,uint256)": {
						"details": "See {IERC1155-balanceOf}."
					},
					"balanceOfBatch(address[],uint256[])": {
						"details": "See {IERC1155-balanceOfBatch}. Requirements: - `accounts` and `ids` must have the same length."
					},
					"exists(uint256)": {
						"details": "Indicates whether any token exist with a given id, or not."
					},
					"getRoleAdmin(bytes32)": {
						"details": "Returns the admin role that controls `role`. See {grantRole} and {revokeRole}. To change a role's admin, use {_setRoleAdmin}."
					},
					"grantRole(bytes32,address)": {
						"details": "Grants `role` to `account`. If `account` had not been already granted `role`, emits a {RoleGranted} event. Requirements: - the caller must have ``role``'s admin role. May emit a {RoleGranted} event."
					},
					"hasRole(bytes32,address)": {
						"details": "Returns `true` if `account` has been granted `role`."
					},
					"isApprovedForAll(address,address)": {
						"details": "See {IERC1155-isApprovedForAll}."
					},
					"renounceRole(bytes32,address)": {
						"details": "Revokes `role` from the calling account. Roles are often managed via {grantRole} and {revokeRole}: this function's purpose is to provide a mechanism for accounts to lose their privileges if they are compromised (such as when a trusted device is misplaced). If the calling account had been revoked `role`, emits a {RoleRevoked} event. Requirements: - the caller must be `callerConfirmation`. May emit a {RoleRevoked} event."
					},
					"revokeRole(bytes32,address)": {
						"details": "Revokes `role` from `account`. If `account` had been granted `role`, emits a {RoleRevoked} event. Requirements: - the caller must have ``role``'s admin role. May emit a {RoleRevoked} event."
					},
					"safeBatchTransferFrom(address,address,uint256[],uint256[],bytes)": {
						"details": "See {IERC1155-safeBatchTransferFrom}."
					},
					"safeTransferFrom(address,address,uint256,uint256,bytes)": {
						"details": "See {IERC1155-safeTransferFrom}."
					},
					"setApprovalForAll(address,bool)": {
						"details": "See {IERC1155-setApprovalForAll}."
					},
					"totalSupply()": {
						"details": "Total value of tokens."
					},
					"totalSupply(uint256)": {
						"details": "Total value of tokens in with a given id."
					}
				},
				"version": 1
			},
			"evm": {
				"assembly": "    /* \"MyNFT.sol\":283:2631  contract PrizeItems is ERC1155, ERC1155Supply, AccessControl  {... */\n  mstore(0x40, 0x80)\n    /* \"MyNFT.sol\":455:630  constructor(address _initialAdmin, string memory baseTokenURI) ERC1155(\"\") {... */\n  callvalue\n  dup1\n  iszero\n  tag_1\n  jumpi\n  0x00\n  dup1\n  revert\ntag_1:\n  pop\n  mload(0x40)\n  sub(codesize, bytecodeSize)\n  dup1\n  bytecodeSize\n  dup4\n  codecopy\n  dup2\n  add\n  0x40\n  dup2\n  swap1\n  mstore\n  tag_2\n  swap2\n  tag_3\n  jump\t// in\ntag_2:\n    /* \"@openzeppelin/contracts/token/ERC1155/ERC1155.sol\":1251:1313  constructor(string memory uri_) {... */\n  0x40\n  dup1\n  mload\n  0x20\n  dup2\n  add\n  swap1\n  swap2\n  mstore\n  0x00\n  dup2\n  mstore\n    /* \"@openzeppelin/contracts/token/ERC1155/ERC1155.sol\":1293:1306  _setURI(uri_) */\n  tag_7\n    /* \"@openzeppelin/contracts/token/ERC1155/ERC1155.sol\":1251:1313  constructor(string memory uri_) {... */\n  dup2\n    /* \"@openzeppelin/contracts/token/ERC1155/ERC1155.sol\":1293:1300  _setURI */\n  tag_8\n    /* \"@openzeppelin/contracts/token/ERC1155/ERC1155.sol\":1293:1306  _setURI(uri_) */\n  jump\t// in\ntag_7:\n  pop\n    /* \"MyNFT.sol\":540:585  _grantRole(DEFAULT_ADMIN_ROLE, _initialAdmin) */\n  tag_10\n    /* \"@openzeppelin/contracts/access/AccessControl.sol\":2232:2236  0x00 */\n  0x00\n    /* \"MyNFT.sol\":571:584  _initialAdmin */\n  dup4\n    /* \"MyNFT.sol\":540:550  _grantRole */\n  tag_11\n    /* \"MyNFT.sol\":540:585  _grantRole(DEFAULT_ADMIN_ROLE, _initialAdmin) */\n  jump\t// in\ntag_10:\n  pop\n    /* \"MyNFT.sol\":595:608  _baseTokenURI */\n  0x06\n    /* \"MyNFT.sol\":595:623  _baseTokenURI = baseTokenURI */\n  tag_12\n    /* \"MyNFT.sol\":611:623  baseTokenURI */\n  dup3\n    /* \"MyNFT.sol\":595:608  _baseTokenURI */\n  dup3\n    /* \"MyNFT.sol\":595:623  _baseTokenURI = baseTokenURI */\n  tag_13\n  jump\t// in\ntag_12:\n  pop\n    /* \"MyNFT.sol\":455:630  constructor(address _initialAdmin, string memory baseTokenURI) ERC1155(\"\") {... */\n  pop\n  pop\n    /* \"MyNFT.sol\":283:2631  contract PrizeItems is ERC1155, ERC1155Supply, AccessControl  {... */\n  jump(tag_31)\n    /* \"@openzeppelin/contracts/token/ERC1155/ERC1155.sol\":10282:10368  function _setURI(string memory newuri) internal virtual {... */\ntag_8:\n    /* \"@openzeppelin/contracts/token/ERC1155/ERC1155.sol\":10348:10352  _uri */\n  0x02\n    /* \"@openzeppelin/contracts/token/ERC1155/ERC1155.sol\":10348:10361  _uri = newuri */\n  tag_16\n    /* \"@openzeppelin/contracts/token/ERC1155/ERC1155.sol\":10355:10361  newuri */\n  dup3\n    /* \"@openzeppelin/contracts/token/ERC1155/ERC1155.sol\":10348:10352  _uri */\n  dup3\n    /* \"@openzeppelin/contracts/token/ERC1155/ERC1155.sol\":10348:10361  _uri = newuri */\n  tag_13\n  jump\t// in\ntag_16:\n  pop\n    /* \"@openzeppelin/contracts/token/ERC1155/ERC1155.sol\":10282:10368  function _setURI(string memory newuri) internal virtual {... */\n  pop\n  jump\t// out\n    /* \"@openzeppelin/contracts/access/AccessControl.sol\":6179:6495  function _grantRole(bytes32 role, address account) internal virtual returns (bool) {... */\ntag_11:\n    /* \"@openzeppelin/contracts/access/AccessControl.sol\":6256:6260  bool */\n  0x00\n    /* \"@openzeppelin/contracts/access/AccessControl.sol\":2954:2966  _roles[role] */\n  dup3\n  dup2\n  mstore\n    /* \"@openzeppelin/contracts/access/AccessControl.sol\":2954:2960  _roles */\n  0x05\n    /* \"@openzeppelin/contracts/access/AccessControl.sol\":2954:2966  _roles[role] */\n  0x20\n  swap1\n  dup2\n  mstore\n  0x40\n  dup1\n  dup4\n  keccak256\n  sub(shl(0xa0, 0x01), 0x01)\n    /* \"@openzeppelin/contracts/access/AccessControl.sol\":2954:2983  _roles[role].hasRole[account] */\n  dup6\n  and\n  dup5\n  mstore\n  swap1\n  swap2\n  mstore\n  dup2\n  keccak256\n  sload\n  0xff\n  and\n    /* \"@openzeppelin/contracts/access/AccessControl.sol\":6272:6489  if (!hasRole(role, account)) {... */\n  tag_20\n  jumpi\n    /* \"@openzeppelin/contracts/access/AccessControl.sol\":6315:6327  _roles[role] */\n  0x00\n  dup4\n  dup2\n  mstore\n    /* \"@openzeppelin/contracts/access/AccessControl.sol\":6315:6321  _roles */\n  0x05\n    /* \"@openzeppelin/contracts/access/AccessControl.sol\":6315:6327  _roles[role] */\n  0x20\n  swap1\n  dup2\n  mstore\n  0x40\n  dup1\n  dup4\n  keccak256\n  sub(shl(0xa0, 0x01), 0x01)\n    /* \"@openzeppelin/contracts/access/AccessControl.sol\":6315:6344  _roles[role].hasRole[account] */\n  dup7\n  and\n  dup5\n  mstore\n  swap1\n  swap2\n  mstore\n  swap1\n  keccak256\n    /* \"@openzeppelin/contracts/access/AccessControl.sol\":6315:6351  _roles[role].hasRole[account] = true */\n  dup1\n  sload\n  not(0xff)\n  and\n    /* \"@openzeppelin/contracts/access/AccessControl.sol\":6347:6351  true */\n  0x01\n    /* \"@openzeppelin/contracts/access/AccessControl.sol\":6315:6351  _roles[role].hasRole[account] = true */\n  or\n  swap1\n  sstore\n    /* \"@openzeppelin/contracts/access/AccessControl.sol\":6397:6409  _msgSender() */\n  tag_21\n    /* \"@openzeppelin/contracts/utils/Context.sol\":735:745  msg.sender */\n  caller\n  swap1\n    /* \"@openzeppelin/contracts/utils/Context.sol\":656:752  function _msgSender() internal view virtual returns (address) {... */\n  jump\n    /* \"@openzeppelin/contracts/access/AccessControl.sol\":6397:6409  _msgSender() */\ntag_21:\n  sub(shl(0xa0, 0x01), 0x01)\n    /* \"@openzeppelin/contracts/access/AccessControl.sol\":6370:6410  RoleGranted(role, account, _msgSender()) */\n  and\n    /* \"@openzeppelin/contracts/access/AccessControl.sol\":6388:6395  account */\n  dup3\n  sub(shl(0xa0, 0x01), 0x01)\n    /* \"@openzeppelin/contracts/access/AccessControl.sol\":6370:6410  RoleGranted(role, account, _msgSender()) */\n  and\n    /* \"@openzeppelin/contracts/access/AccessControl.sol\":6382:6386  role */\n  dup5\n    /* \"@openzeppelin/contracts/access/AccessControl.sol\":6370:6410  RoleGranted(role, account, _msgSender()) */\n  0x2f8788117e7eff1d82e926ec794901d17c78024a50270940304540a733656f0d\n  mload(0x40)\n  mload(0x40)\n  dup1\n  swap2\n  sub\n  swap1\n  log4\n  pop\n    /* \"@openzeppelin/contracts/access/AccessControl.sol\":6431:6435  true */\n  0x01\n    /* \"@openzeppelin/contracts/access/AccessControl.sol\":6424:6435  return true */\n  jump(tag_23)\n    /* \"@openzeppelin/contracts/access/AccessControl.sol\":6272:6489  if (!hasRole(role, account)) {... */\ntag_20:\n  pop\n    /* \"@openzeppelin/contracts/access/AccessControl.sol\":6473:6478  false */\n  0x00\n    /* \"@openzeppelin/contracts/access/AccessControl.sol\":6272:6489  if (!hasRole(role, account)) {... */\ntag_23:\n    /* \"@openzeppelin/contracts/access/AccessControl.sol\":6179:6495  function _grantRole(bytes32 role, address account) internal virtual returns (bool) {... */\n  swap3\n  swap2\n  pop\n  pop\n  jump\t// out\n    /* \"#utility.yul\":14:141   */\ntag_26:\n    /* \"#utility.yul\":75:85   */\n  0x4e487b71\n    /* \"#utility.yul\":70:73   */\n  0xe0\n    /* \"#utility.yul\":66:86   */\n  shl\n    /* \"#utility.yul\":63:64   */\n  0x00\n    /* \"#utility.yul\":56:87   */\n  mstore\n    /* \"#utility.yul\":106:110   */\n  0x41\n    /* \"#utility.yul\":103:104   */\n  0x04\n    /* \"#utility.yul\":96:111   */\n  mstore\n    /* \"#utility.yul\":130:134   */\n  0x24\n    /* \"#utility.yul\":127:128   */\n  0x00\n    /* \"#utility.yul\":120:135   */\n  revert\n    /* \"#utility.yul\":146:1355   */\ntag_3:\n    /* \"#utility.yul\":235:241   */\n  0x00\n    /* \"#utility.yul\":243:249   */\n  dup1\n    /* \"#utility.yul\":296:298   */\n  0x40\n    /* \"#utility.yul\":284:293   */\n  dup4\n    /* \"#utility.yul\":275:282   */\n  dup6\n    /* \"#utility.yul\":271:294   */\n  sub\n    /* \"#utility.yul\":267:299   */\n  slt\n    /* \"#utility.yul\":264:316   */\n  iszero\n  tag_34\n  jumpi\n    /* \"#utility.yul\":312:313   */\n  0x00\n    /* \"#utility.yul\":309:310   */\n  dup1\n    /* \"#utility.yul\":302:314   */\n  revert\n    /* \"#utility.yul\":264:316   */\ntag_34:\n    /* \"#utility.yul\":338:354   */\n  dup3\n  mload\n  sub(shl(0xa0, 0x01), 0x01)\n    /* \"#utility.yul\":383:414   */\n  dup2\n  and\n    /* \"#utility.yul\":373:415   */\n  dup2\n  eq\n    /* \"#utility.yul\":363:433   */\n  tag_35\n  jumpi\n    /* \"#utility.yul\":429:430   */\n  0x00\n    /* \"#utility.yul\":426:427   */\n  dup1\n    /* \"#utility.yul\":419:431   */\n  revert\n    /* \"#utility.yul\":363:433   */\ntag_35:\n    /* \"#utility.yul\":476:478   */\n  0x20\n    /* \"#utility.yul\":507:525   */\n  dup5\n  dup2\n  add\n    /* \"#utility.yul\":501:526   */\n  mload\n    /* \"#utility.yul\":452:457   */\n  swap2\n  swap4\n  pop\n    /* \"#utility.yul\":476:478   */\n  swap1\n  sub(shl(0x40, 0x01), 0x01)\n    /* \"#utility.yul\":575:589   */\n  dup1\n  dup3\n  gt\n    /* \"#utility.yul\":572:606   */\n  iszero\n  tag_36\n  jumpi\n    /* \"#utility.yul\":602:603   */\n  0x00\n    /* \"#utility.yul\":599:600   */\n  dup1\n    /* \"#utility.yul\":592:604   */\n  revert\n    /* \"#utility.yul\":572:606   */\ntag_36:\n    /* \"#utility.yul\":640:646   */\n  dup2\n    /* \"#utility.yul\":629:638   */\n  dup7\n    /* \"#utility.yul\":625:647   */\n  add\n    /* \"#utility.yul\":615:647   */\n  swap2\n  pop\n    /* \"#utility.yul\":685:692   */\n  dup7\n    /* \"#utility.yul\":678:682   */\n  0x1f\n    /* \"#utility.yul\":674:676   */\n  dup4\n    /* \"#utility.yul\":670:683   */\n  add\n    /* \"#utility.yul\":666:693   */\n  slt\n    /* \"#utility.yul\":656:711   */\n  tag_37\n  jumpi\n    /* \"#utility.yul\":707:708   */\n  0x00\n    /* \"#utility.yul\":704:705   */\n  dup1\n    /* \"#utility.yul\":697:709   */\n  revert\n    /* \"#utility.yul\":656:711   */\ntag_37:\n    /* \"#utility.yul\":736:738   */\n  dup2\n    /* \"#utility.yul\":730:739   */\n  mload\n    /* \"#utility.yul\":758:760   */\n  dup2\n    /* \"#utility.yul\":754:756   */\n  dup2\n    /* \"#utility.yul\":751:761   */\n  gt\n    /* \"#utility.yul\":748:784   */\n  iszero\n  tag_39\n  jumpi\n    /* \"#utility.yul\":764:782   */\n  tag_39\n  tag_26\n  jump\t// in\ntag_39:\n    /* \"#utility.yul\":839:841   */\n  0x40\n    /* \"#utility.yul\":833:842   */\n  mload\n    /* \"#utility.yul\":807:809   */\n  0x1f\n    /* \"#utility.yul\":893:906   */\n  dup3\n  add\n  not(0x1f)\n    /* \"#utility.yul\":889:911   */\n  swap1\n  dup2\n  and\n    /* \"#utility.yul\":913:915   */\n  0x3f\n    /* \"#utility.yul\":885:916   */\n  add\n    /* \"#utility.yul\":881:921   */\n  and\n    /* \"#utility.yul\":869:922   */\n  dup2\n  add\n  swap1\n    /* \"#utility.yul\":937:955   */\n  dup4\n  dup3\n  gt\n    /* \"#utility.yul\":957:979   */\n  dup2\n  dup4\n  lt\n    /* \"#utility.yul\":934:980   */\n  or\n    /* \"#utility.yul\":931:1003   */\n  iszero\n  tag_41\n  jumpi\n    /* \"#utility.yul\":983:1001   */\n  tag_41\n  tag_26\n  jump\t// in\ntag_41:\n    /* \"#utility.yul\":1023:1033   */\n  dup2\n    /* \"#utility.yul\":1019:1021   */\n  0x40\n    /* \"#utility.yul\":1012:1034   */\n  mstore\n    /* \"#utility.yul\":1058:1060   */\n  dup3\n    /* \"#utility.yul\":1050:1056   */\n  dup2\n    /* \"#utility.yul\":1043:1061   */\n  mstore\n    /* \"#utility.yul\":1098:1105   */\n  dup10\n    /* \"#utility.yul\":1093:1095   */\n  dup7\n    /* \"#utility.yul\":1088:1090   */\n  dup5\n    /* \"#utility.yul\":1084:1086   */\n  dup8\n    /* \"#utility.yul\":1080:1091   */\n  add\n    /* \"#utility.yul\":1076:1096   */\n  add\n    /* \"#utility.yul\":1073:1106   */\n  gt\n    /* \"#utility.yul\":1070:1123   */\n  iszero\n  tag_42\n  jumpi\n    /* \"#utility.yul\":1119:1120   */\n  0x00\n    /* \"#utility.yul\":1116:1117   */\n  dup1\n    /* \"#utility.yul\":1109:1121   */\n  revert\n    /* \"#utility.yul\":1070:1123   */\ntag_42:\n    /* \"#utility.yul\":1141:1142   */\n  0x00\n    /* \"#utility.yul\":1132:1142   */\n  swap4\n  pop\n    /* \"#utility.yul\":1151:1280   */\ntag_43:\n    /* \"#utility.yul\":1165:1167   */\n  dup3\n    /* \"#utility.yul\":1162:1163   */\n  dup5\n    /* \"#utility.yul\":1159:1168   */\n  lt\n    /* \"#utility.yul\":1151:1280   */\n  iszero\n  tag_45\n  jumpi\n    /* \"#utility.yul\":1253:1263   */\n  dup5\n  dup5\n  add\n    /* \"#utility.yul\":1249:1268   */\n  dup7\n  add\n    /* \"#utility.yul\":1243:1269   */\n  mload\n    /* \"#utility.yul\":1222:1236   */\n  dup2\n  dup6\n  add\n    /* \"#utility.yul\":1218:1241   */\n  dup8\n  add\n    /* \"#utility.yul\":1211:1270   */\n  mstore\n    /* \"#utility.yul\":1176:1186   */\n  swap3\n  dup6\n  add\n  swap3\n    /* \"#utility.yul\":1151:1280   */\n  jump(tag_43)\ntag_45:\n    /* \"#utility.yul\":1322:1323   */\n  0x00\n    /* \"#utility.yul\":1317:1319   */\n  dup7\n    /* \"#utility.yul\":1312:1314   */\n  dup5\n    /* \"#utility.yul\":1304:1310   */\n  dup4\n    /* \"#utility.yul\":1300:1315   */\n  add\n    /* \"#utility.yul\":1296:1320   */\n  add\n    /* \"#utility.yul\":1289:1324   */\n  mstore\n    /* \"#utility.yul\":1343:1349   */\n  dup1\n    /* \"#utility.yul\":1333:1349   */\n  swap7\n  pop\n  pop\n  pop\n  pop\n  pop\n  pop\n  pop\n    /* \"#utility.yul\":146:1355   */\n  swap3\n  pop\n  swap3\n  swap1\n  pop\n  jump\t// out\n    /* \"#utility.yul\":1360:1740   */\ntag_27:\n    /* \"#utility.yul\":1439:1440   */\n  0x01\n    /* \"#utility.yul\":1435:1447   */\n  dup2\n  dup2\n  shr\n  swap1\n    /* \"#utility.yul\":1482:1494   */\n  dup3\n  and\n  dup1\n    /* \"#utility.yul\":1503:1564   */\n  tag_47\n  jumpi\n    /* \"#utility.yul\":1557:1561   */\n  0x7f\n    /* \"#utility.yul\":1549:1555   */\n  dup3\n    /* \"#utility.yul\":1545:1562   */\n  and\n    /* \"#utility.yul\":1535:1562   */\n  swap2\n  pop\n    /* \"#utility.yul\":1503:1564   */\ntag_47:\n    /* \"#utility.yul\":1610:1612   */\n  0x20\n    /* \"#utility.yul\":1602:1608   */\n  dup3\n    /* \"#utility.yul\":1599:1613   */\n  lt\n    /* \"#utility.yul\":1579:1597   */\n  dup2\n    /* \"#utility.yul\":1576:1614   */\n  sub\n    /* \"#utility.yul\":1573:1734   */\n  tag_48\n  jumpi\n    /* \"#utility.yul\":1656:1666   */\n  0x4e487b71\n    /* \"#utility.yul\":1651:1654   */\n  0xe0\n    /* \"#utility.yul\":1647:1667   */\n  shl\n    /* \"#utility.yul\":1644:1645   */\n  0x00\n    /* \"#utility.yul\":1637:1668   */\n  mstore\n    /* \"#utility.yul\":1691:1695   */\n  0x22\n    /* \"#utility.yul\":1688:1689   */\n  0x04\n    /* \"#utility.yul\":1681:1696   */\n  mstore\n    /* \"#utility.yul\":1719:1723   */\n  0x24\n    /* \"#utility.yul\":1716:1717   */\n  0x00\n    /* \"#utility.yul\":1709:1724   */\n  revert\n    /* \"#utility.yul\":1573:1734   */\ntag_48:\n  pop\n    /* \"#utility.yul\":1360:1740   */\n  swap2\n  swap1\n  pop\n  jump\t// out\n    /* \"#utility.yul\":1871:2416   */\ntag_29:\n    /* \"#utility.yul\":1973:1975   */\n  0x1f\n    /* \"#utility.yul\":1968:1971   */\n  dup3\n    /* \"#utility.yul\":1965:1976   */\n  gt\n    /* \"#utility.yul\":1962:2410   */\n  iszero\n  tag_51\n  jumpi\n    /* \"#utility.yul\":2009:2010   */\n  0x00\n    /* \"#utility.yul\":2034:2039   */\n  dup2\n    /* \"#utility.yul\":2030:2032   */\n  dup2\n    /* \"#utility.yul\":2023:2040   */\n  mstore\n    /* \"#utility.yul\":2079:2083   */\n  0x20\n    /* \"#utility.yul\":2075:2077   */\n  dup2\n    /* \"#utility.yul\":2065:2084   */\n  keccak256\n    /* \"#utility.yul\":2149:2151   */\n  0x1f\n    /* \"#utility.yul\":2137:2147   */\n  dup6\n    /* \"#utility.yul\":2133:2152   */\n  add\n    /* \"#utility.yul\":2130:2131   */\n  0x05\n    /* \"#utility.yul\":2126:2153   */\n  shr\n    /* \"#utility.yul\":2120:2124   */\n  dup2\n    /* \"#utility.yul\":2116:2154   */\n  add\n    /* \"#utility.yul\":2185:2189   */\n  0x20\n    /* \"#utility.yul\":2173:2183   */\n  dup7\n    /* \"#utility.yul\":2170:2190   */\n  lt\n    /* \"#utility.yul\":2167:2214   */\n  iszero\n  tag_52\n  jumpi\n  pop\n    /* \"#utility.yul\":2208:2212   */\n  dup1\n    /* \"#utility.yul\":2167:2214   */\ntag_52:\n    /* \"#utility.yul\":2263:2265   */\n  0x1f\n    /* \"#utility.yul\":2258:2261   */\n  dup6\n    /* \"#utility.yul\":2254:2266   */\n  add\n    /* \"#utility.yul\":2251:2252   */\n  0x05\n    /* \"#utility.yul\":2247:2267   */\n  shr\n    /* \"#utility.yul\":2241:2245   */\n  dup3\n    /* \"#utility.yul\":2237:2268   */\n  add\n    /* \"#utility.yul\":2227:2268   */\n  swap2\n  pop\n    /* \"#utility.yul\":2318:2400   */\ntag_53:\n    /* \"#utility.yul\":2336:2338   */\n  dup2\n    /* \"#utility.yul\":2329:2334   */\n  dup2\n    /* \"#utility.yul\":2326:2339   */\n  lt\n    /* \"#utility.yul\":2318:2400   */\n  iszero\n  tag_55\n  jumpi\n    /* \"#utility.yul\":2381:2398   */\n  dup3\n  dup2\n  sstore\n    /* \"#utility.yul\":2362:2363   */\n  0x01\n    /* \"#utility.yul\":2351:2364   */\n  add\n    /* \"#utility.yul\":2318:2400   */\n  jump(tag_53)\ntag_55:\n    /* \"#utility.yul\":2322:2325   */\n  pop\n  pop\n  pop\n    /* \"#utility.yul\":1962:2410   */\ntag_51:\n    /* \"#utility.yul\":1871:2416   */\n  pop\n  pop\n  pop\n  jump\t// out\n    /* \"#utility.yul\":2592:3944   */\ntag_13:\n    /* \"#utility.yul\":2712:2722   */\n  dup2\n  mload\n  sub(shl(0x40, 0x01), 0x01)\n    /* \"#utility.yul\":2734:2764   */\n  dup2\n  gt\n    /* \"#utility.yul\":2731:2787   */\n  iszero\n  tag_59\n  jumpi\n    /* \"#utility.yul\":2767:2785   */\n  tag_59\n  tag_26\n  jump\t// in\ntag_59:\n    /* \"#utility.yul\":2796:2893   */\n  tag_60\n    /* \"#utility.yul\":2886:2892   */\n  dup2\n    /* \"#utility.yul\":2846:2884   */\n  tag_61\n    /* \"#utility.yul\":2878:2882   */\n  dup5\n    /* \"#utility.yul\":2872:2883   */\n  sload\n    /* \"#utility.yul\":2846:2884   */\n  tag_27\n  jump\t// in\ntag_61:\n    /* \"#utility.yul\":2840:2844   */\n  dup5\n    /* \"#utility.yul\":2796:2893   */\n  tag_29\n  jump\t// in\ntag_60:\n    /* \"#utility.yul\":2948:2952   */\n  0x20\n  dup1\n    /* \"#utility.yul\":3012:3014   */\n  0x1f\n    /* \"#utility.yul\":3001:3015   */\n  dup4\n  gt\n    /* \"#utility.yul\":3029:3030   */\n  0x01\n    /* \"#utility.yul\":3024:3687   */\n  dup2\n  eq\n  tag_63\n  jumpi\n    /* \"#utility.yul\":3731:3732   */\n  0x00\n    /* \"#utility.yul\":3748:3754   */\n  dup5\n    /* \"#utility.yul\":3745:3834   */\n  iszero\n  tag_64\n  jumpi\n  pop\n    /* \"#utility.yul\":3800:3819   */\n  dup6\n  dup4\n  add\n    /* \"#utility.yul\":3794:3820   */\n  mload\n    /* \"#utility.yul\":3745:3834   */\ntag_64:\n  not(0x00)\n    /* \"#utility.yul\":2549:2550   */\n  0x03\n    /* \"#utility.yul\":2545:2556   */\n  dup7\n  swap1\n  shl\n    /* \"#utility.yul\":2541:2565   */\n  shr\n    /* \"#utility.yul\":2537:2566   */\n  not\n    /* \"#utility.yul\":2527:2567   */\n  and\n    /* \"#utility.yul\":2573:2574   */\n  0x01\n    /* \"#utility.yul\":2569:2580   */\n  dup6\n  swap1\n  shl\n    /* \"#utility.yul\":2524:2581   */\n  or\n    /* \"#utility.yul\":3847:3928   */\n  dup6\n  sstore\n    /* \"#utility.yul\":2994:3938   */\n  jump(tag_55)\n    /* \"#utility.yul\":3024:3687   */\ntag_63:\n    /* \"#utility.yul\":1818:1819   */\n  0x00\n    /* \"#utility.yul\":1811:1825   */\n  dup6\n  dup2\n  mstore\n    /* \"#utility.yul\":1855:1859   */\n  0x20\n    /* \"#utility.yul\":1842:1860   */\n  dup2\n  keccak256\n  not(0x1f)\n    /* \"#utility.yul\":3060:3080   */\n  dup7\n  and\n  swap2\n    /* \"#utility.yul\":3178:3414   */\ntag_67:\n    /* \"#utility.yul\":3192:3199   */\n  dup3\n    /* \"#utility.yul\":3189:3190   */\n  dup2\n    /* \"#utility.yul\":3186:3200   */\n  lt\n    /* \"#utility.yul\":3178:3414   */\n  iszero\n  tag_69\n  jumpi\n    /* \"#utility.yul\":3281:3300   */\n  dup9\n  dup7\n  add\n    /* \"#utility.yul\":3275:3301   */\n  mload\n    /* \"#utility.yul\":3260:3302   */\n  dup3\n  sstore\n    /* \"#utility.yul\":3373:3400   */\n  swap5\n  dup5\n  add\n  swap5\n    /* \"#utility.yul\":3341:3342   */\n  0x01\n    /* \"#utility.yul\":3329:3343   */\n  swap1\n  swap2\n  add\n  swap1\n    /* \"#utility.yul\":3208:3227   */\n  dup5\n  add\n    /* \"#utility.yul\":3178:3414   */\n  jump(tag_67)\ntag_69:\n    /* \"#utility.yul\":3182:3185   */\n  pop\n    /* \"#utility.yul\":3442:3448   */\n  dup6\n    /* \"#utility.yul\":3433:3440   */\n  dup3\n    /* \"#utility.yul\":3430:3449   */\n  lt\n    /* \"#utility.yul\":3427:3628   */\n  iszero\n  tag_70\n  jumpi\n    /* \"#utility.yul\":3503:3522   */\n  dup8\n  dup6\n  add\n    /* \"#utility.yul\":3497:3523   */\n  mload\n  not(0x00)\n    /* \"#utility.yul\":3586:3587   */\n  0x03\n    /* \"#utility.yul\":3582:3596   */\n  dup9\n  swap1\n  shl\n    /* \"#utility.yul\":3598:3601   */\n  0xf8\n    /* \"#utility.yul\":3578:3602   */\n  and\n    /* \"#utility.yul\":3574:3611   */\n  shr\n    /* \"#utility.yul\":3570:3612   */\n  not\n    /* \"#utility.yul\":3555:3613   */\n  and\n    /* \"#utility.yul\":3540:3614   */\n  dup2\n  sstore\n    /* \"#utility.yul\":3427:3628   */\ntag_70:\n  pop\n  pop\n  pop\n  pop\n  pop\n    /* \"#utility.yul\":3674:3675   */\n  0x01\n    /* \"#utility.yul\":3658:3672   */\n  swap1\n  dup2\n  shl\n    /* \"#utility.yul\":3654:3676   */\n  add\n    /* \"#utility.yul\":3641:3677   */\n  swap1\n  sstore\n  pop\n    /* \"#utility.yul\":2592:3944   */\n  jump\t// out\ntag_31:\n    /* \"MyNFT.sol\":283:2631  contract PrizeItems is ERC1155, ERC1155Supply, AccessControl  {... */\n  dataSize(sub_0)\n  dup1\n  dataOffset(sub_0)\n  0x00\n  codecopy\n  0x00\n  return\nstop\n\nsub_0: assembly {\n        /* \"MyNFT.sol\":283:2631  contract PrizeItems is ERC1155, ERC1155Supply, AccessControl  {... */\n      mstore(0x40, 0x80)\n      callvalue\n      dup1\n      iszero\n      tag_1\n      jumpi\n      0x00\n      dup1\n      revert\n    tag_1:\n      pop\n      jumpi(tag_2, lt(calldatasize, 0x04))\n      shr(0xe0, calldataload(0x00))\n      dup1\n      0x4e1273f4\n      gt\n      tag_24\n      jumpi\n      dup1\n      0xa22cb465\n      gt\n      tag_25\n      jumpi\n      dup1\n      0xa22cb465\n      eq\n      tag_18\n      jumpi\n      dup1\n      0xbd85b039\n      eq\n      tag_19\n      jumpi\n      dup1\n      0xd5391393\n      eq\n      tag_20\n      jumpi\n      dup1\n      0xd547741f\n      eq\n      tag_21\n      jumpi\n      dup1\n      0xe985e9c5\n      eq\n      tag_22\n      jumpi\n      dup1\n      0xf242432a\n      eq\n      tag_23\n      jumpi\n      0x00\n      dup1\n      revert\n    tag_25:\n      dup1\n      0x4e1273f4\n      eq\n      tag_13\n      jumpi\n      dup1\n      0x4f558e79\n      eq\n      tag_14\n      jumpi\n      dup1\n      0x731133e9\n      eq\n      tag_15\n      jumpi\n      dup1\n      0x91d14854\n      eq\n      tag_16\n      jumpi\n      dup1\n      0xa217fddf\n      eq\n      tag_17\n      jumpi\n      0x00\n      dup1\n      revert\n    tag_24:\n      dup1\n      0x248a9ca3\n      gt\n      tag_26\n      jumpi\n      dup1\n      0x248a9ca3\n      eq\n      tag_8\n      jumpi\n      dup1\n      0x2eb2c2d6\n      eq\n      tag_9\n      jumpi\n      dup1\n      0x2f2ff15d\n      eq\n      tag_10\n      jumpi\n      dup1\n      0x30176e13\n      eq\n      tag_11\n      jumpi\n      dup1\n      0x36568abe\n      eq\n      tag_12\n      jumpi\n      0x00\n      dup1\n      revert\n    tag_26:\n      dup1\n      0xfdd58e\n      eq\n      tag_3\n      jumpi\n      dup1\n      0x01ffc9a7\n      eq\n      tag_4\n      jumpi\n      dup1\n      0x0e89341c\n      eq\n      tag_5\n      jumpi\n      dup1\n      0x18160ddd\n      eq\n      tag_6\n      jumpi\n      dup1\n      0x1f7fdffa\n      eq\n      tag_7\n      jumpi\n    tag_2:\n      0x00\n      dup1\n      revert\n        /* \"@openzeppelin/contracts/token/ERC1155/ERC1155.sol\":2247:2379  function balanceOf(address account, uint256 id) public view virtual returns (uint256) {... */\n    tag_3:\n      tag_27\n      tag_28\n      calldatasize\n      0x04\n      tag_29\n      jump\t// in\n    tag_28:\n      tag_30\n      jump\t// in\n    tag_27:\n      mload(0x40)\n        /* \"#utility.yul\":597:622   */\n      swap1\n      dup2\n      mstore\n        /* \"#utility.yul\":585:587   */\n      0x20\n        /* \"#utility.yul\":570:588   */\n      add\n        /* \"@openzeppelin/contracts/token/ERC1155/ERC1155.sol\":2247:2379  function balanceOf(address account, uint256 id) public view virtual returns (uint256) {... */\n    tag_31:\n      mload(0x40)\n      dup1\n      swap2\n      sub\n      swap1\n      return\n        /* \"MyNFT.sol\":2454:2629  function supportsInterface(bytes4 interfaceId) public view virtual override(ERC1155, AccessControl) returns (bool) {... */\n    tag_4:\n      tag_33\n      tag_34\n      calldatasize\n      0x04\n      tag_35\n      jump\t// in\n    tag_34:\n      tag_36\n      jump\t// in\n    tag_33:\n      mload(0x40)\n        /* \"#utility.yul\":1184:1198   */\n      swap1\n      iszero\n        /* \"#utility.yul\":1177:1199   */\n      iszero\n        /* \"#utility.yul\":1159:1200   */\n      dup2\n      mstore\n        /* \"#utility.yul\":1147:1149   */\n      0x20\n        /* \"#utility.yul\":1132:1150   */\n      add\n        /* \"MyNFT.sol\":2454:2629  function supportsInterface(bytes4 interfaceId) public view virtual override(ERC1155, AccessControl) returns (bool) {... */\n      tag_31\n        /* \"#utility.yul\":1019:1206   */\n      jump\n        /* \"MyNFT.sol\":1019:1255  function uri(uint256 tokenId) public view override returns (string memory) {... */\n    tag_5:\n      tag_39\n      tag_40\n      calldatasize\n      0x04\n      tag_41\n      jump\t// in\n    tag_40:\n      tag_42\n      jump\t// in\n    tag_39:\n      mload(0x40)\n      tag_31\n      swap2\n      swap1\n      tag_44\n      jump\t// in\n        /* \"@openzeppelin/contracts/token/ERC1155/extensions/ERC1155Supply.sol\":1127:1227  function totalSupply() public view virtual returns (uint256) {... */\n    tag_6:\n        /* \"@openzeppelin/contracts/token/ERC1155/extensions/ERC1155Supply.sol\":1205:1220  _totalSupplyAll */\n      sload(0x04)\n        /* \"@openzeppelin/contracts/token/ERC1155/extensions/ERC1155Supply.sol\":1127:1227  function totalSupply() public view virtual returns (uint256) {... */\n      jump(tag_27)\n        /* \"MyNFT.sol\":1984:2207  function mintBatch(... */\n    tag_7:\n      tag_48\n      tag_49\n      calldatasize\n      0x04\n      tag_50\n      jump\t// in\n    tag_49:\n      tag_51\n      jump\t// in\n    tag_48:\n      stop\n        /* \"@openzeppelin/contracts/access/AccessControl.sol\":3810:3930  function getRoleAdmin(bytes32 role) public view virtual returns (bytes32) {... */\n    tag_8:\n      tag_27\n      tag_53\n      calldatasize\n      0x04\n      tag_41\n      jump\t// in\n    tag_53:\n        /* \"@openzeppelin/contracts/access/AccessControl.sol\":3875:3882  bytes32 */\n      0x00\n        /* \"@openzeppelin/contracts/access/AccessControl.sol\":3901:3913  _roles[role] */\n      swap1\n      dup2\n      mstore\n        /* \"@openzeppelin/contracts/access/AccessControl.sol\":3901:3907  _roles */\n      0x05\n        /* \"@openzeppelin/contracts/access/AccessControl.sol\":3901:3913  _roles[role] */\n      0x20\n      mstore\n      0x40\n      swap1\n      keccak256\n        /* \"@openzeppelin/contracts/access/AccessControl.sol\":3901:3923  _roles[role].adminRole */\n      0x01\n      add\n      sload\n      swap1\n        /* \"@openzeppelin/contracts/access/AccessControl.sol\":3810:3930  function getRoleAdmin(bytes32 role) public view virtual returns (bytes32) {... */\n      jump\n        /* \"@openzeppelin/contracts/token/ERC1155/ERC1155.sol\":4014:4443  function safeBatchTransferFrom(... */\n    tag_9:\n      tag_48\n      tag_59\n      calldatasize\n      0x04\n      tag_60\n      jump\t// in\n    tag_59:\n      tag_61\n      jump\t// in\n        /* \"@openzeppelin/contracts/access/AccessControl.sol\":4226:4362  function grantRole(bytes32 role, address account) public virtual onlyRole(getRoleAdmin(role)) {... */\n    tag_10:\n      tag_48\n      tag_63\n      calldatasize\n      0x04\n      tag_64\n      jump\t// in\n    tag_63:\n      tag_65\n      jump\t// in\n        /* \"MyNFT.sol\":890:1013  function setBaseTokenURI(string memory newBaseTokenURI) external onlyOwner {... */\n    tag_11:\n      tag_48\n      tag_67\n      calldatasize\n      0x04\n      tag_68\n      jump\t// in\n    tag_67:\n      tag_69\n      jump\t// in\n        /* \"@openzeppelin/contracts/access/AccessControl.sol\":5328:5573  function renounceRole(bytes32 role, address callerConfirmation) public virtual {... */\n    tag_12:\n      tag_48\n      tag_71\n      calldatasize\n      0x04\n      tag_64\n      jump\t// in\n    tag_71:\n      tag_72\n      jump\t// in\n        /* \"@openzeppelin/contracts/token/ERC1155/ERC1155.sol\":2536:3088  function balanceOfBatch(... */\n    tag_13:\n      tag_73\n      tag_74\n      calldatasize\n      0x04\n      tag_75\n      jump\t// in\n    tag_74:\n      tag_76\n      jump\t// in\n    tag_73:\n      mload(0x40)\n      tag_31\n      swap2\n      swap1\n      tag_78\n      jump\t// in\n        /* \"@openzeppelin/contracts/token/ERC1155/extensions/ERC1155Supply.sol\":1320:1426  function exists(uint256 id) public view virtual returns (bool) {... */\n    tag_14:\n      tag_33\n      tag_80\n      calldatasize\n      0x04\n      tag_41\n      jump\t// in\n    tag_80:\n        /* \"@openzeppelin/contracts/token/ERC1155/extensions/ERC1155Supply.sol\":1377:1381  bool */\n      0x00\n        /* \"@openzeppelin/contracts/token/ERC1155/extensions/ERC1155Supply.sol\":1047:1063  _totalSupply[id] */\n      swap1\n      dup2\n      mstore\n        /* \"@openzeppelin/contracts/token/ERC1155/extensions/ERC1155Supply.sol\":1047:1059  _totalSupply */\n      0x03\n        /* \"@openzeppelin/contracts/token/ERC1155/extensions/ERC1155Supply.sol\":1047:1063  _totalSupply[id] */\n      0x20\n      mstore\n      0x40\n      swap1\n      keccak256\n      sload\n      iszero\n      iszero\n      swap1\n        /* \"@openzeppelin/contracts/token/ERC1155/extensions/ERC1155Supply.sol\":1320:1426  function exists(uint256 id) public view virtual returns (bool) {... */\n      jump\n        /* \"MyNFT.sol\":1786:1978  function mint (... */\n    tag_15:\n      tag_48\n      tag_84\n      calldatasize\n      0x04\n      tag_85\n      jump\t// in\n    tag_84:\n      tag_86\n      jump\t// in\n        /* \"@openzeppelin/contracts/access/AccessControl.sol\":2854:2990  function hasRole(bytes32 role, address account) public view virtual returns (bool) {... */\n    tag_16:\n      tag_33\n      tag_88\n      calldatasize\n      0x04\n      tag_64\n      jump\t// in\n    tag_88:\n      tag_89\n      jump\t// in\n        /* \"@openzeppelin/contracts/access/AccessControl.sol\":2187:2236  bytes32 public constant DEFAULT_ADMIN_ROLE = 0x00 */\n    tag_17:\n      tag_27\n        /* \"@openzeppelin/contracts/access/AccessControl.sol\":2232:2236  0x00 */\n      0x00\n        /* \"@openzeppelin/contracts/access/AccessControl.sol\":2187:2236  bytes32 public constant DEFAULT_ADMIN_ROLE = 0x00 */\n      dup2\n      jump\n        /* \"@openzeppelin/contracts/token/ERC1155/ERC1155.sol\":3156:3300  function setApprovalForAll(address operator, bool approved) public virtual {... */\n    tag_18:\n      tag_48\n      tag_95\n      calldatasize\n      0x04\n      tag_96\n      jump\t// in\n    tag_95:\n      tag_97\n      jump\t// in\n        /* \"@openzeppelin/contracts/token/ERC1155/extensions/ERC1155Supply.sol\":959:1070  function totalSupply(uint256 id) public view virtual returns (uint256) {... */\n    tag_19:\n      tag_27\n      tag_99\n      calldatasize\n      0x04\n      tag_41\n      jump\t// in\n    tag_99:\n        /* \"@openzeppelin/contracts/token/ERC1155/extensions/ERC1155Supply.sol\":1021:1028  uint256 */\n      0x00\n        /* \"@openzeppelin/contracts/token/ERC1155/extensions/ERC1155Supply.sol\":1047:1063  _totalSupply[id] */\n      swap1\n      dup2\n      mstore\n        /* \"@openzeppelin/contracts/token/ERC1155/extensions/ERC1155Supply.sol\":1047:1059  _totalSupply */\n      0x03\n        /* \"@openzeppelin/contracts/token/ERC1155/extensions/ERC1155Supply.sol\":1047:1063  _totalSupply[id] */\n      0x20\n      mstore\n      0x40\n      swap1\n      keccak256\n      sload\n      swap1\n        /* \"@openzeppelin/contracts/token/ERC1155/extensions/ERC1155Supply.sol\":959:1070  function totalSupply(uint256 id) public view virtual returns (uint256) {... */\n      jump\n        /* \"MyNFT.sol\":352:414  bytes32 public constant MINTER_ROLE = keccak256(\"MINTER_ROLE\") */\n    tag_20:\n      tag_27\n        /* \"MyNFT.sol\":390:414  keccak256(\"MINTER_ROLE\") */\n      0x9f2df0fed2c77648de5860a4cc508cd0818c85b8b8a1ab4ceeef8d981c8956a6\n        /* \"MyNFT.sol\":352:414  bytes32 public constant MINTER_ROLE = keccak256(\"MINTER_ROLE\") */\n      dup2\n      jump\n        /* \"@openzeppelin/contracts/access/AccessControl.sol\":4642:4780  function revokeRole(bytes32 role, address account) public virtual onlyRole(getRoleAdmin(role)) {... */\n    tag_21:\n      tag_48\n      tag_106\n      calldatasize\n      0x04\n      tag_64\n      jump\t// in\n    tag_106:\n      tag_107\n      jump\t// in\n        /* \"@openzeppelin/contracts/token/ERC1155/ERC1155.sol\":3367:3524  function isApprovedForAll(address account, address operator) public view virtual returns (bool) {... */\n    tag_22:\n      tag_33\n      tag_109\n      calldatasize\n      0x04\n      tag_110\n      jump\t// in\n    tag_109:\n      tag_111\n      jump\t// in\n        /* \"@openzeppelin/contracts/token/ERC1155/ERC1155.sol\":3591:3942  function safeTransferFrom(address from, address to, uint256 id, uint256 value, bytes memory data) public virtual {... */\n    tag_23:\n      tag_48\n      tag_114\n      calldatasize\n      0x04\n      tag_115\n      jump\t// in\n    tag_114:\n      tag_116\n      jump\t// in\n        /* \"@openzeppelin/contracts/token/ERC1155/ERC1155.sol\":2247:2379  function balanceOf(address account, uint256 id) public view virtual returns (uint256) {... */\n    tag_30:\n        /* \"@openzeppelin/contracts/token/ERC1155/ERC1155.sol\":2324:2331  uint256 */\n      0x00\n        /* \"@openzeppelin/contracts/token/ERC1155/ERC1155.sol\":2350:2363  _balances[id] */\n      dup2\n      dup2\n      mstore\n      0x20\n      dup2\n      dup2\n      mstore\n      0x40\n      dup1\n      dup4\n      keccak256\n      sub(shl(0xa0, 0x01), 0x01)\n        /* \"@openzeppelin/contracts/token/ERC1155/ERC1155.sol\":2350:2372  _balances[id][account] */\n      dup7\n      and\n      dup5\n      mstore\n      swap1\n      swap2\n      mstore\n      swap1\n      keccak256\n      sload\n        /* \"@openzeppelin/contracts/token/ERC1155/ERC1155.sol\":2247:2379  function balanceOf(address account, uint256 id) public view virtual returns (uint256) {... */\n    tag_117:\n      swap3\n      swap2\n      pop\n      pop\n      jump\t// out\n        /* \"MyNFT.sol\":2454:2629  function supportsInterface(bytes4 interfaceId) public view virtual override(ERC1155, AccessControl) returns (bool) {... */\n    tag_36:\n        /* \"MyNFT.sol\":2563:2567  bool */\n      0x00\n        /* \"MyNFT.sol\":2586:2622  super.supportsInterface(interfaceId) */\n      tag_117\n        /* \"MyNFT.sol\":2610:2621  interfaceId */\n      dup3\n        /* \"MyNFT.sol\":2586:2609  super.supportsInterface */\n      tag_120\n        /* \"MyNFT.sol\":2586:2622  super.supportsInterface(interfaceId) */\n      jump\t// in\n        /* \"MyNFT.sol\":1019:1255  function uri(uint256 tokenId) public view override returns (string memory) {... */\n    tag_42:\n        /* \"MyNFT.sol\":1079:1092  string memory */\n      0x60\n        /* \"MyNFT.sol\":1141:1142  0 */\n      0x00\n        /* \"MyNFT.sol\":1117:1130  _baseTokenURI */\n      0x06\n        /* \"MyNFT.sol\":1111:1138  bytes(_baseTokenURI).length */\n      dup1\n      sload\n      tag_122\n      swap1\n      tag_123\n      jump\t// in\n    tag_122:\n      swap1\n      pop\n        /* \"MyNFT.sol\":1111:1142  bytes(_baseTokenURI).length > 0 */\n      gt\n        /* \"MyNFT.sol\":1111:1248  bytes(_baseTokenURI).length > 0... */\n      tag_124\n      jumpi\n      mload(0x40)\n      dup1\n      0x20\n      add\n      0x40\n      mstore\n      dup1\n      0x00\n      dup2\n      mstore\n      pop\n      jump(tag_117)\n    tag_124:\n        /* \"MyNFT.sol\":1181:1194  _baseTokenURI */\n      0x06\n        /* \"MyNFT.sol\":1196:1220  tokenIdToString(tokenId) */\n      tag_126\n        /* \"MyNFT.sol\":1212:1219  tokenId */\n      dup4\n        /* \"MyNFT.sol\":1196:1211  tokenIdToString */\n      tag_127\n        /* \"MyNFT.sol\":1196:1220  tokenIdToString(tokenId) */\n      jump\t// in\n    tag_126:\n        /* \"MyNFT.sol\":1164:1230  abi.encodePacked(_baseTokenURI, tokenIdToString(tokenId), \".json\") */\n      add(0x20, mload(0x40))\n      tag_128\n      swap3\n      swap2\n      swap1\n      tag_129\n      jump\t// in\n    tag_128:\n      mload(0x40)\n      0x20\n      dup2\n      dup4\n      sub\n      sub\n      dup2\n      mstore\n      swap1\n      0x40\n      mstore\n        /* \"MyNFT.sol\":1104:1248  return bytes(_baseTokenURI).length > 0... */\n      swap3\n        /* \"MyNFT.sol\":1019:1255  function uri(uint256 tokenId) public view override returns (string memory) {... */\n      swap2\n      pop\n      pop\n      jump\t// out\n        /* \"MyNFT.sol\":1984:2207  function mintBatch(... */\n    tag_51:\n        /* \"MyNFT.sol\":803:835  hasRole(MINTER_ROLE, msg.sender) */\n      tag_132\n        /* \"MyNFT.sol\":390:414  keccak256(\"MINTER_ROLE\") */\n      0x9f2df0fed2c77648de5860a4cc508cd0818c85b8b8a1ab4ceeef8d981c8956a6\n        /* \"MyNFT.sol\":824:834  msg.sender */\n      caller\n        /* \"MyNFT.sol\":803:810  hasRole */\n      tag_89\n        /* \"MyNFT.sol\":803:835  hasRole(MINTER_ROLE, msg.sender) */\n      jump\t// in\n    tag_132:\n        /* \"MyNFT.sol\":795:862  require(hasRole(MINTER_ROLE, msg.sender), \"Restricted to minters.\") */\n      tag_133\n      jumpi\n      mload(0x40)\n      shl(0xe5, 0x461bcd)\n      dup2\n      mstore\n        /* \"#utility.yul\":12483:12485   */\n      0x20\n        /* \"MyNFT.sol\":795:862  require(hasRole(MINTER_ROLE, msg.sender), \"Restricted to minters.\") */\n      0x04\n      dup3\n      add\n        /* \"#utility.yul\":12465:12486   */\n      mstore\n        /* \"#utility.yul\":12522:12524   */\n      0x16\n        /* \"#utility.yul\":12502:12520   */\n      0x24\n      dup3\n      add\n        /* \"#utility.yul\":12495:12525   */\n      mstore\n      shl(0x51, 0x2932b9ba3934b1ba32b2103a379036b4b73a32b93997)\n        /* \"#utility.yul\":12541:12559   */\n      0x44\n      dup3\n      add\n        /* \"#utility.yul\":12534:12586   */\n      mstore\n        /* \"#utility.yul\":12603:12621   */\n      0x64\n      add\n        /* \"MyNFT.sol\":795:862  require(hasRole(MINTER_ROLE, msg.sender), \"Restricted to minters.\") */\n    tag_134:\n      mload(0x40)\n      dup1\n      swap2\n      sub\n      swap1\n      revert\n    tag_133:\n        /* \"MyNFT.sol\":2158:2200  _mintBatch(_account, _ids, _amounts, data) */\n      tag_137\n        /* \"MyNFT.sol\":2169:2177  _account */\n      dup5\n        /* \"MyNFT.sol\":2179:2183  _ids */\n      dup5\n        /* \"MyNFT.sol\":2185:2193  _amounts */\n      dup5\n        /* \"MyNFT.sol\":2195:2199  data */\n      dup5\n        /* \"MyNFT.sol\":2158:2168  _mintBatch */\n      tag_138\n        /* \"MyNFT.sol\":2158:2200  _mintBatch(_account, _ids, _amounts, data) */\n      jump\t// in\n    tag_137:\n        /* \"MyNFT.sol\":1984:2207  function mintBatch(... */\n      pop\n      pop\n      pop\n      pop\n      jump\t// out\n        /* \"@openzeppelin/contracts/token/ERC1155/ERC1155.sol\":4014:4443  function safeBatchTransferFrom(... */\n    tag_61:\n        /* \"@openzeppelin/contracts/utils/Context.sol\":735:745  msg.sender */\n      caller\n      sub(shl(0xa0, 0x01), 0x01)\n        /* \"@openzeppelin/contracts/token/ERC1155/ERC1155.sol\":4251:4265  from != sender */\n      dup7\n      and\n      dup2\n      eq\n      dup1\n      iszero\n      swap1\n        /* \"@openzeppelin/contracts/token/ERC1155/ERC1155.sol\":4251:4300  from != sender && !isApprovedForAll(from, sender) */\n      tag_143\n      jumpi\n      pop\n        /* \"@openzeppelin/contracts/token/ERC1155/ERC1155.sol\":4270:4300  isApprovedForAll(from, sender) */\n      tag_144\n        /* \"@openzeppelin/contracts/token/ERC1155/ERC1155.sol\":4287:4291  from */\n      dup7\n        /* \"@openzeppelin/contracts/token/ERC1155/ERC1155.sol\":4293:4299  sender */\n      dup3\n        /* \"@openzeppelin/contracts/token/ERC1155/ERC1155.sol\":4270:4286  isApprovedForAll */\n      tag_111\n        /* \"@openzeppelin/contracts/token/ERC1155/ERC1155.sol\":4270:4300  isApprovedForAll(from, sender) */\n      jump\t// in\n    tag_144:\n        /* \"@openzeppelin/contracts/token/ERC1155/ERC1155.sol\":4269:4300  !isApprovedForAll(from, sender) */\n      iszero\n        /* \"@openzeppelin/contracts/token/ERC1155/ERC1155.sol\":4251:4300  from != sender && !isApprovedForAll(from, sender) */\n    tag_143:\n        /* \"@openzeppelin/contracts/token/ERC1155/ERC1155.sol\":4247:4376  if (from != sender && !isApprovedForAll(from, sender)) {... */\n      iszero\n      tag_145\n      jumpi\n        /* \"@openzeppelin/contracts/token/ERC1155/ERC1155.sol\":4323:4365  ERC1155MissingApprovalForAll(sender, from) */\n      mload(0x40)\n      shl(0xe1, 0x711bec91)\n      dup2\n      mstore\n      sub(shl(0xa0, 0x01), 0x01)\n        /* \"#utility.yul\":12862:12877   */\n      dup1\n      dup4\n      and\n        /* \"@openzeppelin/contracts/token/ERC1155/ERC1155.sol\":4323:4365  ERC1155MissingApprovalForAll(sender, from) */\n      0x04\n      dup4\n      add\n        /* \"#utility.yul\":12844:12878   */\n      mstore\n        /* \"#utility.yul\":12914:12929   */\n      dup8\n      and\n        /* \"#utility.yul\":12894:12912   */\n      0x24\n      dup3\n      add\n        /* \"#utility.yul\":12887:12930   */\n      mstore\n        /* \"#utility.yul\":12779:12797   */\n      0x44\n      add\n        /* \"@openzeppelin/contracts/token/ERC1155/ERC1155.sol\":4323:4365  ERC1155MissingApprovalForAll(sender, from) */\n      tag_134\n        /* \"#utility.yul\":12632:12936   */\n      jump\n        /* \"@openzeppelin/contracts/token/ERC1155/ERC1155.sol\":4247:4376  if (from != sender && !isApprovedForAll(from, sender)) {... */\n    tag_145:\n        /* \"@openzeppelin/contracts/token/ERC1155/ERC1155.sol\":4385:4436  _safeBatchTransferFrom(from, to, ids, values, data) */\n      tag_148\n        /* \"@openzeppelin/contracts/token/ERC1155/ERC1155.sol\":4408:4412  from */\n      dup7\n        /* \"@openzeppelin/contracts/token/ERC1155/ERC1155.sol\":4414:4416  to */\n      dup7\n        /* \"@openzeppelin/contracts/token/ERC1155/ERC1155.sol\":4418:4421  ids */\n      dup7\n        /* \"@openzeppelin/contracts/token/ERC1155/ERC1155.sol\":4423:4429  values */\n      dup7\n        /* \"@openzeppelin/contracts/token/ERC1155/ERC1155.sol\":4431:4435  data */\n      dup7\n        /* \"@openzeppelin/contracts/token/ERC1155/ERC1155.sol\":4385:4407  _safeBatchTransferFrom */\n      tag_149\n        /* \"@openzeppelin/contracts/token/ERC1155/ERC1155.sol\":4385:4436  _safeBatchTransferFrom(from, to, ids, values, data) */\n      jump\t// in\n    tag_148:\n        /* \"@openzeppelin/contracts/token/ERC1155/ERC1155.sol\":4198:4443  {... */\n      pop\n        /* \"@openzeppelin/contracts/token/ERC1155/ERC1155.sol\":4014:4443  function safeBatchTransferFrom(... */\n      pop\n      pop\n      pop\n      pop\n      pop\n      jump\t// out\n        /* \"@openzeppelin/contracts/access/AccessControl.sol\":4226:4362  function grantRole(bytes32 role, address account) public virtual onlyRole(getRoleAdmin(role)) {... */\n    tag_65:\n        /* \"@openzeppelin/contracts/access/AccessControl.sol\":3875:3882  bytes32 */\n      0x00\n        /* \"@openzeppelin/contracts/access/AccessControl.sol\":3901:3913  _roles[role] */\n      dup3\n      dup2\n      mstore\n        /* \"@openzeppelin/contracts/access/AccessControl.sol\":3901:3907  _roles */\n      0x05\n        /* \"@openzeppelin/contracts/access/AccessControl.sol\":3901:3913  _roles[role] */\n      0x20\n      mstore\n      0x40\n      swap1\n      keccak256\n        /* \"@openzeppelin/contracts/access/AccessControl.sol\":3901:3923  _roles[role].adminRole */\n      0x01\n      add\n      sload\n        /* \"@openzeppelin/contracts/access/AccessControl.sol\":2464:2480  _checkRole(role) */\n      tag_152\n        /* \"@openzeppelin/contracts/access/AccessControl.sol\":2475:2479  role */\n      dup2\n        /* \"@openzeppelin/contracts/access/AccessControl.sol\":2464:2474  _checkRole */\n      tag_153\n        /* \"@openzeppelin/contracts/access/AccessControl.sol\":2464:2480  _checkRole(role) */\n      jump\t// in\n    tag_152:\n        /* \"@openzeppelin/contracts/access/AccessControl.sol\":4330:4355  _grantRole(role, account) */\n      tag_137\n        /* \"@openzeppelin/contracts/access/AccessControl.sol\":4341:4345  role */\n      dup4\n        /* \"@openzeppelin/contracts/access/AccessControl.sol\":4347:4354  account */\n      dup4\n        /* \"@openzeppelin/contracts/access/AccessControl.sol\":4330:4340  _grantRole */\n      tag_156\n        /* \"@openzeppelin/contracts/access/AccessControl.sol\":4330:4355  _grantRole(role, account) */\n      jump\t// in\n        /* \"MyNFT.sol\":890:1013  function setBaseTokenURI(string memory newBaseTokenURI) external onlyOwner {... */\n    tag_69:\n        /* \"MyNFT.sol\":677:716  hasRole(DEFAULT_ADMIN_ROLE, msg.sender) */\n      tag_158\n        /* \"@openzeppelin/contracts/access/AccessControl.sol\":2232:2236  0x00 */\n      0x00\n        /* \"MyNFT.sol\":705:715  msg.sender */\n      caller\n        /* \"MyNFT.sol\":677:684  hasRole */\n      tag_89\n        /* \"MyNFT.sol\":677:716  hasRole(DEFAULT_ADMIN_ROLE, msg.sender) */\n      jump\t// in\n    tag_158:\n        /* \"MyNFT.sol\":669:741  require(hasRole(DEFAULT_ADMIN_ROLE, msg.sender), \"Restricted to owner.\") */\n      tag_159\n      jumpi\n      mload(0x40)\n      shl(0xe5, 0x461bcd)\n      dup2\n      mstore\n        /* \"#utility.yul\":13143:13145   */\n      0x20\n        /* \"MyNFT.sol\":669:741  require(hasRole(DEFAULT_ADMIN_ROLE, msg.sender), \"Restricted to owner.\") */\n      0x04\n      dup3\n      add\n        /* \"#utility.yul\":13125:13146   */\n      mstore\n        /* \"#utility.yul\":13182:13184   */\n      0x14\n        /* \"#utility.yul\":13162:13180   */\n      0x24\n      dup3\n      add\n        /* \"#utility.yul\":13155:13185   */\n      mstore\n      shl(0x61, 0x2932b9ba3934b1ba32b2103a379037bbb732b917)\n        /* \"#utility.yul\":13201:13219   */\n      0x44\n      dup3\n      add\n        /* \"#utility.yul\":13194:13244   */\n      mstore\n        /* \"#utility.yul\":13261:13279   */\n      0x64\n      add\n        /* \"MyNFT.sol\":669:741  require(hasRole(DEFAULT_ADMIN_ROLE, msg.sender), \"Restricted to owner.\") */\n      tag_134\n        /* \"#utility.yul\":12941:13285   */\n      jump\n        /* \"MyNFT.sol\":669:741  require(hasRole(DEFAULT_ADMIN_ROLE, msg.sender), \"Restricted to owner.\") */\n    tag_159:\n        /* \"MyNFT.sol\":975:988  _baseTokenURI */\n      0x06\n        /* \"MyNFT.sol\":975:1006  _baseTokenURI = newBaseTokenURI */\n      tag_163\n        /* \"MyNFT.sol\":991:1006  newBaseTokenURI */\n      dup3\n        /* \"MyNFT.sol\":975:988  _baseTokenURI */\n      dup3\n        /* \"MyNFT.sol\":975:1006  _baseTokenURI = newBaseTokenURI */\n      tag_164\n      jump\t// in\n    tag_163:\n      pop\n        /* \"MyNFT.sol\":890:1013  function setBaseTokenURI(string memory newBaseTokenURI) external onlyOwner {... */\n      pop\n      jump\t// out\n        /* \"@openzeppelin/contracts/access/AccessControl.sol\":5328:5573  function renounceRole(bytes32 role, address callerConfirmation) public virtual {... */\n    tag_72:\n      sub(shl(0xa0, 0x01), 0x01)\n        /* \"@openzeppelin/contracts/access/AccessControl.sol\":5421:5455  callerConfirmation != _msgSender() */\n      dup2\n      and\n        /* \"@openzeppelin/contracts/utils/Context.sol\":735:745  msg.sender */\n      caller\n        /* \"@openzeppelin/contracts/access/AccessControl.sol\":5421:5455  callerConfirmation != _msgSender() */\n      eq\n        /* \"@openzeppelin/contracts/access/AccessControl.sol\":5417:5519  if (callerConfirmation != _msgSender()) {... */\n      tag_167\n      jumpi\n        /* \"@openzeppelin/contracts/access/AccessControl.sol\":5478:5508  AccessControlBadConfirmation() */\n      mload(0x40)\n      shl(0xe1, 0x334bd919)\n      dup2\n      mstore\n      0x04\n      add\n      mload(0x40)\n      dup1\n      swap2\n      sub\n      swap1\n      revert\n        /* \"@openzeppelin/contracts/access/AccessControl.sol\":5417:5519  if (callerConfirmation != _msgSender()) {... */\n    tag_167:\n        /* \"@openzeppelin/contracts/access/AccessControl.sol\":5529:5566  _revokeRole(role, callerConfirmation) */\n      tag_168\n        /* \"@openzeppelin/contracts/access/AccessControl.sol\":5541:5545  role */\n      dup3\n        /* \"@openzeppelin/contracts/access/AccessControl.sol\":5547:5565  callerConfirmation */\n      dup3\n        /* \"@openzeppelin/contracts/access/AccessControl.sol\":5529:5540  _revokeRole */\n      tag_169\n        /* \"@openzeppelin/contracts/access/AccessControl.sol\":5529:5566  _revokeRole(role, callerConfirmation) */\n      jump\t// in\n    tag_168:\n      pop\n        /* \"@openzeppelin/contracts/access/AccessControl.sol\":5328:5573  function renounceRole(bytes32 role, address callerConfirmation) public virtual {... */\n      pop\n      pop\n      jump\t// out\n        /* \"@openzeppelin/contracts/token/ERC1155/ERC1155.sol\":2536:3088  function balanceOfBatch(... */\n    tag_76:\n        /* \"@openzeppelin/contracts/token/ERC1155/ERC1155.sol\":2660:2676  uint256[] memory */\n      0x60\n        /* \"@openzeppelin/contracts/token/ERC1155/ERC1155.sol\":2711:2714  ids */\n      dup2\n        /* \"@openzeppelin/contracts/token/ERC1155/ERC1155.sol\":2711:2721  ids.length */\n      mload\n        /* \"@openzeppelin/contracts/token/ERC1155/ERC1155.sol\":2692:2700  accounts */\n      dup4\n        /* \"@openzeppelin/contracts/token/ERC1155/ERC1155.sol\":2692:2707  accounts.length */\n      mload\n        /* \"@openzeppelin/contracts/token/ERC1155/ERC1155.sol\":2692:2721  accounts.length != ids.length */\n      eq\n        /* \"@openzeppelin/contracts/token/ERC1155/ERC1155.sol\":2688:2809  if (accounts.length != ids.length) {... */\n      tag_171\n      jumpi\n        /* \"@openzeppelin/contracts/token/ERC1155/ERC1155.sol\":2770:2780  ids.length */\n      dup2\n      mload\n        /* \"@openzeppelin/contracts/token/ERC1155/ERC1155.sol\":2782:2797  accounts.length */\n      dup4\n      mload\n        /* \"@openzeppelin/contracts/token/ERC1155/ERC1155.sol\":2744:2798  ERC1155InvalidArrayLength(ids.length, accounts.length) */\n      mload(0x40)\n      shl(0xe0, 0x5b059991)\n      dup2\n      mstore\n      0x04\n      dup2\n      add\n        /* \"#utility.yul\":15542:15567   */\n      swap3\n      swap1\n      swap3\n      mstore\n        /* \"#utility.yul\":15583:15601   */\n      0x24\n      dup3\n      add\n        /* \"#utility.yul\":15576:15610   */\n      mstore\n        /* \"#utility.yul\":15515:15533   */\n      0x44\n      add\n        /* \"@openzeppelin/contracts/token/ERC1155/ERC1155.sol\":2744:2798  ERC1155InvalidArrayLength(ids.length, accounts.length) */\n      tag_134\n        /* \"#utility.yul\":15368:15616   */\n      jump\n        /* \"@openzeppelin/contracts/token/ERC1155/ERC1155.sol\":2688:2809  if (accounts.length != ids.length) {... */\n    tag_171:\n        /* \"@openzeppelin/contracts/token/ERC1155/ERC1155.sol\":2819:2849  uint256[] memory batchBalances */\n      0x00\n        /* \"@openzeppelin/contracts/token/ERC1155/ERC1155.sol\":2866:2874  accounts */\n      dup4\n        /* \"@openzeppelin/contracts/token/ERC1155/ERC1155.sol\":2866:2881  accounts.length */\n      mload\n        /* \"@openzeppelin/contracts/token/ERC1155/ERC1155.sol\":2852:2882  new uint256[](accounts.length) */\n      0xffffffffffffffff\n      dup2\n      gt\n      iszero\n      tag_175\n      jumpi\n      tag_175\n      tag_176\n      jump\t// in\n    tag_175:\n      mload(0x40)\n      swap1\n      dup1\n      dup3\n      mstore\n      dup1\n      0x20\n      mul\n      0x20\n      add\n      dup3\n      add\n      0x40\n      mstore\n      dup1\n      iszero\n      tag_177\n      jumpi\n      dup2\n      0x20\n      add\n      0x20\n      dup3\n      mul\n      dup1\n      calldatasize\n      dup4\n      calldatacopy\n      add\n      swap1\n      pop\n    tag_177:\n      pop\n        /* \"@openzeppelin/contracts/token/ERC1155/ERC1155.sol\":2819:2882  uint256[] memory batchBalances = new uint256[](accounts.length) */\n      swap1\n      pop\n        /* \"@openzeppelin/contracts/token/ERC1155/ERC1155.sol\":2898:2907  uint256 i */\n      0x00\n        /* \"@openzeppelin/contracts/token/ERC1155/ERC1155.sol\":2893:3051  for (uint256 i = 0; i < accounts.length; ++i) {... */\n    tag_178:\n        /* \"@openzeppelin/contracts/token/ERC1155/ERC1155.sol\":2917:2925  accounts */\n      dup5\n        /* \"@openzeppelin/contracts/token/ERC1155/ERC1155.sol\":2917:2932  accounts.length */\n      mload\n        /* \"@openzeppelin/contracts/token/ERC1155/ERC1155.sol\":2913:2914  i */\n      dup2\n        /* \"@openzeppelin/contracts/token/ERC1155/ERC1155.sol\":2913:2932  i < accounts.length */\n      lt\n        /* \"@openzeppelin/contracts/token/ERC1155/ERC1155.sol\":2893:3051  for (uint256 i = 0; i < accounts.length; ++i) {... */\n      iszero\n      tag_179\n      jumpi\n        /* \"@openzeppelin/contracts/utils/Arrays.sol\":4777:4781  0x20 */\n      0x20\n        /* \"@openzeppelin/contracts/utils/Arrays.sol\":4768:4782  mul(pos, 0x20) */\n      dup1\n      dup3\n      mul\n        /* \"@openzeppelin/contracts/utils/Arrays.sol\":4748:4783  add(add(arr, 0x20), mul(pos, 0x20)) */\n      dup7\n      add\n      add\n        /* \"@openzeppelin/contracts/utils/Arrays.sol\":4742:4784  mload(add(add(arr, 0x20), mul(pos, 0x20))) */\n      mload\n        /* \"@openzeppelin/contracts/token/ERC1155/ERC1155.sol\":2972:3040  balanceOf(accounts.unsafeMemoryAccess(i), ids.unsafeMemoryAccess(i)) */\n      tag_181\n      swap1\n        /* \"@openzeppelin/contracts/utils/Arrays.sol\":4777:4781  0x20 */\n      0x20\n        /* \"@openzeppelin/contracts/utils/Arrays.sol\":4768:4782  mul(pos, 0x20) */\n      dup1\n      dup5\n      mul\n        /* \"@openzeppelin/contracts/utils/Arrays.sol\":4748:4783  add(add(arr, 0x20), mul(pos, 0x20)) */\n      dup8\n      add\n      add\n        /* \"@openzeppelin/contracts/utils/Arrays.sol\":4742:4784  mload(add(add(arr, 0x20), mul(pos, 0x20))) */\n      mload\n        /* \"@openzeppelin/contracts/token/ERC1155/ERC1155.sol\":2247:2379  function balanceOf(address account, uint256 id) public view virtual returns (uint256) {... */\n      tag_30\n      jump\t// in\n        /* \"@openzeppelin/contracts/token/ERC1155/ERC1155.sol\":2972:3040  balanceOf(accounts.unsafeMemoryAccess(i), ids.unsafeMemoryAccess(i)) */\n    tag_181:\n        /* \"@openzeppelin/contracts/token/ERC1155/ERC1155.sol\":2953:2966  batchBalances */\n      dup3\n        /* \"@openzeppelin/contracts/token/ERC1155/ERC1155.sol\":2967:2968  i */\n      dup3\n        /* \"@openzeppelin/contracts/token/ERC1155/ERC1155.sol\":2953:2969  batchBalances[i] */\n      dup2\n      mload\n      dup2\n      lt\n      tag_187\n      jumpi\n      tag_187\n      tag_188\n      jump\t// in\n    tag_187:\n      0x20\n      swap1\n      dup2\n      mul\n      swap2\n      swap1\n      swap2\n      add\n      add\n        /* \"@openzeppelin/contracts/token/ERC1155/ERC1155.sol\":2953:3040  batchBalances[i] = balanceOf(accounts.unsafeMemoryAccess(i), ids.unsafeMemoryAccess(i)) */\n      mstore\n        /* \"@openzeppelin/contracts/token/ERC1155/ERC1155.sol\":2934:2937  ++i */\n      tag_189\n      dup2\n      tag_190\n      jump\t// in\n    tag_189:\n      swap1\n      pop\n        /* \"@openzeppelin/contracts/token/ERC1155/ERC1155.sol\":2893:3051  for (uint256 i = 0; i < accounts.length; ++i) {... */\n      jump(tag_178)\n    tag_179:\n      pop\n        /* \"@openzeppelin/contracts/token/ERC1155/ERC1155.sol\":3068:3081  batchBalances */\n      swap4\n        /* \"@openzeppelin/contracts/token/ERC1155/ERC1155.sol\":2536:3088  function balanceOfBatch(... */\n      swap3\n      pop\n      pop\n      pop\n      jump\t// out\n        /* \"MyNFT.sol\":1786:1978  function mint (... */\n    tag_86:\n        /* \"MyNFT.sol\":803:835  hasRole(MINTER_ROLE, msg.sender) */\n      tag_194\n        /* \"MyNFT.sol\":390:414  keccak256(\"MINTER_ROLE\") */\n      0x9f2df0fed2c77648de5860a4cc508cd0818c85b8b8a1ab4ceeef8d981c8956a6\n        /* \"MyNFT.sol\":824:834  msg.sender */\n      caller\n        /* \"MyNFT.sol\":803:810  hasRole */\n      tag_89\n        /* \"MyNFT.sol\":803:835  hasRole(MINTER_ROLE, msg.sender) */\n      jump\t// in\n    tag_194:\n        /* \"MyNFT.sol\":795:862  require(hasRole(MINTER_ROLE, msg.sender), \"Restricted to minters.\") */\n      tag_195\n      jumpi\n      mload(0x40)\n      shl(0xe5, 0x461bcd)\n      dup2\n      mstore\n        /* \"#utility.yul\":12483:12485   */\n      0x20\n        /* \"MyNFT.sol\":795:862  require(hasRole(MINTER_ROLE, msg.sender), \"Restricted to minters.\") */\n      0x04\n      dup3\n      add\n        /* \"#utility.yul\":12465:12486   */\n      mstore\n        /* \"#utility.yul\":12522:12524   */\n      0x16\n        /* \"#utility.yul\":12502:12520   */\n      0x24\n      dup3\n      add\n        /* \"#utility.yul\":12495:12525   */\n      mstore\n      shl(0x51, 0x2932b9ba3934b1ba32b2103a379036b4b73a32b93997)\n        /* \"#utility.yul\":12541:12559   */\n      0x44\n      dup3\n      add\n        /* \"#utility.yul\":12534:12586   */\n      mstore\n        /* \"#utility.yul\":12603:12621   */\n      0x64\n      add\n        /* \"MyNFT.sol\":795:862  require(hasRole(MINTER_ROLE, msg.sender), \"Restricted to minters.\") */\n      tag_134\n        /* \"#utility.yul\":12281:12627   */\n      jump\n        /* \"MyNFT.sol\":795:862  require(hasRole(MINTER_ROLE, msg.sender), \"Restricted to minters.\") */\n    tag_195:\n        /* \"MyNFT.sol\":1936:1971  _mint(_account, _id, _amount, data) */\n      tag_137\n        /* \"MyNFT.sol\":1942:1950  _account */\n      dup5\n        /* \"MyNFT.sol\":1952:1955  _id */\n      dup5\n        /* \"MyNFT.sol\":1957:1964  _amount */\n      dup5\n        /* \"MyNFT.sol\":1966:1970  data */\n      dup5\n        /* \"MyNFT.sol\":1936:1941  _mint */\n      tag_199\n        /* \"MyNFT.sol\":1936:1971  _mint(_account, _id, _amount, data) */\n      jump\t// in\n        /* \"@openzeppelin/contracts/access/AccessControl.sol\":2854:2990  function hasRole(bytes32 role, address account) public view virtual returns (bool) {... */\n    tag_89:\n        /* \"@openzeppelin/contracts/access/AccessControl.sol\":2931:2935  bool */\n      0x00\n        /* \"@openzeppelin/contracts/access/AccessControl.sol\":2954:2966  _roles[role] */\n      swap2\n      dup3\n      mstore\n        /* \"@openzeppelin/contracts/access/AccessControl.sol\":2954:2960  _roles */\n      0x05\n        /* \"@openzeppelin/contracts/access/AccessControl.sol\":2954:2966  _roles[role] */\n      0x20\n      swap1\n      dup2\n      mstore\n      0x40\n      dup1\n      dup5\n      keccak256\n      sub(shl(0xa0, 0x01), 0x01)\n        /* \"@openzeppelin/contracts/access/AccessControl.sol\":2954:2983  _roles[role].hasRole[account] */\n      swap4\n      swap1\n      swap4\n      and\n      dup5\n      mstore\n      swap2\n      swap1\n      mstore\n      swap1\n      keccak256\n      sload\n      0xff\n      and\n      swap1\n        /* \"@openzeppelin/contracts/access/AccessControl.sol\":2854:2990  function hasRole(bytes32 role, address account) public view virtual returns (bool) {... */\n      jump\t// out\n        /* \"@openzeppelin/contracts/token/ERC1155/ERC1155.sol\":3156:3300  function setApprovalForAll(address operator, bool approved) public virtual {... */\n    tag_97:\n        /* \"@openzeppelin/contracts/token/ERC1155/ERC1155.sol\":3241:3293  _setApprovalForAll(_msgSender(), operator, approved) */\n      tag_163\n        /* \"@openzeppelin/contracts/utils/Context.sol\":735:745  msg.sender */\n      caller\n        /* \"@openzeppelin/contracts/token/ERC1155/ERC1155.sol\":3274:3282  operator */\n      dup4\n        /* \"@openzeppelin/contracts/token/ERC1155/ERC1155.sol\":3284:3292  approved */\n      dup4\n        /* \"@openzeppelin/contracts/token/ERC1155/ERC1155.sol\":3241:3259  _setApprovalForAll */\n      tag_204\n        /* \"@openzeppelin/contracts/token/ERC1155/ERC1155.sol\":3241:3293  _setApprovalForAll(_msgSender(), operator, approved) */\n      jump\t// in\n        /* \"@openzeppelin/contracts/access/AccessControl.sol\":4642:4780  function revokeRole(bytes32 role, address account) public virtual onlyRole(getRoleAdmin(role)) {... */\n    tag_107:\n        /* \"@openzeppelin/contracts/access/AccessControl.sol\":3875:3882  bytes32 */\n      0x00\n        /* \"@openzeppelin/contracts/access/AccessControl.sol\":3901:3913  _roles[role] */\n      dup3\n      dup2\n      mstore\n        /* \"@openzeppelin/contracts/access/AccessControl.sol\":3901:3907  _roles */\n      0x05\n        /* \"@openzeppelin/contracts/access/AccessControl.sol\":3901:3913  _roles[role] */\n      0x20\n      mstore\n      0x40\n      swap1\n      keccak256\n        /* \"@openzeppelin/contracts/access/AccessControl.sol\":3901:3923  _roles[role].adminRole */\n      0x01\n      add\n      sload\n        /* \"@openzeppelin/contracts/access/AccessControl.sol\":2464:2480  _checkRole(role) */\n      tag_208\n        /* \"@openzeppelin/contracts/access/AccessControl.sol\":2475:2479  role */\n      dup2\n        /* \"@openzeppelin/contracts/access/AccessControl.sol\":2464:2474  _checkRole */\n      tag_153\n        /* \"@openzeppelin/contracts/access/AccessControl.sol\":2464:2480  _checkRole(role) */\n      jump\t// in\n    tag_208:\n        /* \"@openzeppelin/contracts/access/AccessControl.sol\":4747:4773  _revokeRole(role, account) */\n      tag_137\n        /* \"@openzeppelin/contracts/access/AccessControl.sol\":4759:4763  role */\n      dup4\n        /* \"@openzeppelin/contracts/access/AccessControl.sol\":4765:4772  account */\n      dup4\n        /* \"@openzeppelin/contracts/access/AccessControl.sol\":4747:4758  _revokeRole */\n      tag_169\n        /* \"@openzeppelin/contracts/access/AccessControl.sol\":4747:4773  _revokeRole(role, account) */\n      jump\t// in\n        /* \"@openzeppelin/contracts/token/ERC1155/ERC1155.sol\":3367:3524  function isApprovedForAll(address account, address operator) public view virtual returns (bool) {... */\n    tag_111:\n      sub(shl(0xa0, 0x01), 0x01)\n        /* \"@openzeppelin/contracts/token/ERC1155/ERC1155.sol\":3480:3507  _operatorApprovals[account] */\n      swap2\n      dup3\n      and\n        /* \"@openzeppelin/contracts/token/ERC1155/ERC1155.sol\":3457:3461  bool */\n      0x00\n        /* \"@openzeppelin/contracts/token/ERC1155/ERC1155.sol\":3480:3507  _operatorApprovals[account] */\n      swap1\n      dup2\n      mstore\n        /* \"@openzeppelin/contracts/token/ERC1155/ERC1155.sol\":3480:3498  _operatorApprovals */\n      0x01\n        /* \"@openzeppelin/contracts/token/ERC1155/ERC1155.sol\":3480:3507  _operatorApprovals[account] */\n      0x20\n      swap1\n      dup2\n      mstore\n      0x40\n      dup1\n      dup4\n      keccak256\n        /* \"@openzeppelin/contracts/token/ERC1155/ERC1155.sol\":3480:3517  _operatorApprovals[account][operator] */\n      swap4\n      swap1\n      swap5\n      and\n      dup3\n      mstore\n      swap2\n      swap1\n      swap2\n      mstore\n      keccak256\n      sload\n      0xff\n      and\n      swap1\n        /* \"@openzeppelin/contracts/token/ERC1155/ERC1155.sol\":3367:3524  function isApprovedForAll(address account, address operator) public view virtual returns (bool) {... */\n      jump\t// out\n        /* \"@openzeppelin/contracts/token/ERC1155/ERC1155.sol\":3591:3942  function safeTransferFrom(address from, address to, uint256 id, uint256 value, bytes memory data) public virtual {... */\n    tag_116:\n        /* \"@openzeppelin/contracts/utils/Context.sol\":735:745  msg.sender */\n      caller\n      sub(shl(0xa0, 0x01), 0x01)\n        /* \"@openzeppelin/contracts/token/ERC1155/ERC1155.sol\":3757:3771  from != sender */\n      dup7\n      and\n      dup2\n      eq\n      dup1\n      iszero\n      swap1\n        /* \"@openzeppelin/contracts/token/ERC1155/ERC1155.sol\":3757:3806  from != sender && !isApprovedForAll(from, sender) */\n      tag_214\n      jumpi\n      pop\n        /* \"@openzeppelin/contracts/token/ERC1155/ERC1155.sol\":3776:3806  isApprovedForAll(from, sender) */\n      tag_215\n        /* \"@openzeppelin/contracts/token/ERC1155/ERC1155.sol\":3793:3797  from */\n      dup7\n        /* \"@openzeppelin/contracts/token/ERC1155/ERC1155.sol\":3799:3805  sender */\n      dup3\n        /* \"@openzeppelin/contracts/token/ERC1155/ERC1155.sol\":3776:3792  isApprovedForAll */\n      tag_111\n        /* \"@openzeppelin/contracts/token/ERC1155/ERC1155.sol\":3776:3806  isApprovedForAll(from, sender) */\n      jump\t// in\n    tag_215:\n        /* \"@openzeppelin/contracts/token/ERC1155/ERC1155.sol\":3775:3806  !isApprovedForAll(from, sender) */\n      iszero\n        /* \"@openzeppelin/contracts/token/ERC1155/ERC1155.sol\":3757:3806  from != sender && !isApprovedForAll(from, sender) */\n    tag_214:\n        /* \"@openzeppelin/contracts/token/ERC1155/ERC1155.sol\":3753:3882  if (from != sender && !isApprovedForAll(from, sender)) {... */\n      iszero\n      tag_216\n      jumpi\n        /* \"@openzeppelin/contracts/token/ERC1155/ERC1155.sol\":3829:3871  ERC1155MissingApprovalForAll(sender, from) */\n      mload(0x40)\n      shl(0xe1, 0x711bec91)\n      dup2\n      mstore\n      sub(shl(0xa0, 0x01), 0x01)\n        /* \"#utility.yul\":12862:12877   */\n      dup1\n      dup4\n      and\n        /* \"@openzeppelin/contracts/token/ERC1155/ERC1155.sol\":3829:3871  ERC1155MissingApprovalForAll(sender, from) */\n      0x04\n      dup4\n      add\n        /* \"#utility.yul\":12844:12878   */\n      mstore\n        /* \"#utility.yul\":12914:12929   */\n      dup8\n      and\n        /* \"#utility.yul\":12894:12912   */\n      0x24\n      dup3\n      add\n        /* \"#utility.yul\":12887:12930   */\n      mstore\n        /* \"#utility.yul\":12779:12797   */\n      0x44\n      add\n        /* \"@openzeppelin/contracts/token/ERC1155/ERC1155.sol\":3829:3871  ERC1155MissingApprovalForAll(sender, from) */\n      tag_134\n        /* \"#utility.yul\":12632:12936   */\n      jump\n        /* \"@openzeppelin/contracts/token/ERC1155/ERC1155.sol\":3753:3882  if (from != sender && !isApprovedForAll(from, sender)) {... */\n    tag_216:\n        /* \"@openzeppelin/contracts/token/ERC1155/ERC1155.sol\":3891:3935  _safeTransferFrom(from, to, id, value, data) */\n      tag_148\n        /* \"@openzeppelin/contracts/token/ERC1155/ERC1155.sol\":3909:3913  from */\n      dup7\n        /* \"@openzeppelin/contracts/token/ERC1155/ERC1155.sol\":3915:3917  to */\n      dup7\n        /* \"@openzeppelin/contracts/token/ERC1155/ERC1155.sol\":3919:3921  id */\n      dup7\n        /* \"@openzeppelin/contracts/token/ERC1155/ERC1155.sol\":3923:3928  value */\n      dup7\n        /* \"@openzeppelin/contracts/token/ERC1155/ERC1155.sol\":3930:3934  data */\n      dup7\n        /* \"@openzeppelin/contracts/token/ERC1155/ERC1155.sol\":3891:3908  _safeTransferFrom */\n      tag_219\n        /* \"@openzeppelin/contracts/token/ERC1155/ERC1155.sol\":3891:3935  _safeTransferFrom(from, to, id, value, data) */\n      jump\t// in\n        /* \"@openzeppelin/contracts/access/AccessControl.sol\":2565:2767  function supportsInterface(bytes4 interfaceId) public view virtual override returns (bool) {... */\n    tag_120:\n        /* \"@openzeppelin/contracts/access/AccessControl.sol\":2650:2654  bool */\n      0x00\n      not(sub(shl(0xe0, 0x01), 0x01))\n        /* \"@openzeppelin/contracts/access/AccessControl.sol\":2673:2720  interfaceId == type(IAccessControl).interfaceId */\n      dup3\n      and\n      shl(0xe0, 0x7965db0b)\n      eq\n      dup1\n        /* \"@openzeppelin/contracts/access/AccessControl.sol\":2673:2760  interfaceId == type(IAccessControl).interfaceId || super.supportsInterface(interfaceId) */\n      tag_117\n      jumpi\n      pop\n        /* \"@openzeppelin/contracts/access/AccessControl.sol\":2724:2760  super.supportsInterface(interfaceId) */\n      tag_117\n        /* \"@openzeppelin/contracts/access/AccessControl.sol\":2748:2759  interfaceId */\n      dup3\n        /* \"@openzeppelin/contracts/access/AccessControl.sol\":2724:2747  super.supportsInterface */\n      tag_223\n        /* \"@openzeppelin/contracts/access/AccessControl.sol\":2724:2760  super.supportsInterface(interfaceId) */\n      jump\t// in\n        /* \"MyNFT.sol\":1261:1780  function tokenIdToString(uint256 tokenId) internal pure returns (string memory) {... */\n    tag_127:\n        /* \"MyNFT.sol\":1326:1339  string memory */\n      0x60\n        /* \"MyNFT.sol\":1355:1362  tokenId */\n      dup2\n        /* \"MyNFT.sol\":1366:1367  0 */\n      0x00\n        /* \"MyNFT.sol\":1355:1367  tokenId == 0 */\n      sub\n        /* \"MyNFT.sol\":1351:1404  if (tokenId == 0) {... */\n      tag_225\n      jumpi\n      pop\n      pop\n        /* \"MyNFT.sol\":1383:1393  return \"0\" */\n      0x40\n      dup1\n      mload\n      dup1\n      dup3\n      add\n      swap1\n      swap2\n      mstore\n      0x01\n      dup2\n      mstore\n      shl(0xfc, 0x03)\n      0x20\n      dup3\n      add\n      mstore\n      swap1\n        /* \"MyNFT.sol\":1261:1780  function tokenIdToString(uint256 tokenId) internal pure returns (string memory) {... */\n      jump\t// out\n        /* \"MyNFT.sol\":1351:1404  if (tokenId == 0) {... */\n    tag_225:\n        /* \"MyNFT.sol\":1414:1428  uint256 length */\n      0x00\n        /* \"MyNFT.sol\":1453:1460  tokenId */\n      dup3\n        /* \"MyNFT.sol\":1471:1545  while (temp > 0) {... */\n    tag_226:\n        /* \"MyNFT.sol\":1478:1486  temp > 0 */\n      dup1\n      iszero\n        /* \"MyNFT.sol\":1471:1545  while (temp > 0) {... */\n      tag_227\n      jumpi\n        /* \"MyNFT.sol\":1502:1512  temp /= 10 */\n      tag_228\n        /* \"MyNFT.sol\":1510:1512  10 */\n      0x0a\n        /* \"MyNFT.sol\":1502:1512  temp /= 10 */\n      dup3\n      tag_229\n      jump\t// in\n    tag_228:\n      swap1\n      pop\n        /* \"MyNFT.sol\":1526:1534  length++ */\n      dup2\n      tag_230\n      dup2\n      tag_190\n      jump\t// in\n    tag_230:\n      swap3\n      pop\n      pop\n        /* \"MyNFT.sol\":1471:1545  while (temp > 0) {... */\n      jump(tag_226)\n    tag_227:\n        /* \"MyNFT.sol\":1555:1574  bytes memory result */\n      0x00\n        /* \"MyNFT.sol\":1587:1593  length */\n      dup3\n        /* \"MyNFT.sol\":1577:1594  new bytes(length) */\n      0xffffffffffffffff\n      dup2\n      gt\n      iszero\n      tag_232\n      jumpi\n      tag_232\n      tag_176\n      jump\t// in\n    tag_232:\n      mload(0x40)\n      swap1\n      dup1\n      dup3\n      mstore\n      dup1\n      0x1f\n      add\n      not(0x1f)\n      and\n      0x20\n      add\n      dup3\n      add\n      0x40\n      mstore\n      dup1\n      iszero\n      tag_233\n      jumpi\n      0x20\n      dup3\n      add\n      dup2\n      dup1\n      calldatasize\n      dup4\n      calldatacopy\n      add\n      swap1\n      pop\n    tag_233:\n      pop\n        /* \"MyNFT.sol\":1555:1594  bytes memory result = new bytes(length) */\n      swap1\n      pop\n        /* \"MyNFT.sol\":1622:1628  length */\n      dup3\n        /* \"MyNFT.sol\":1605:1742  for (uint256 i = length; i > 0; i--) {... */\n    tag_234:\n        /* \"MyNFT.sol\":1630:1635  i > 0 */\n      dup1\n      iszero\n        /* \"MyNFT.sol\":1605:1742  for (uint256 i = length; i > 0; i--) {... */\n      tag_235\n      jumpi\n        /* \"MyNFT.sol\":1690:1702  tokenId % 10 */\n      tag_237\n        /* \"MyNFT.sol\":1700:1702  10 */\n      0x0a\n        /* \"MyNFT.sol\":1690:1697  tokenId */\n      dup8\n        /* \"MyNFT.sol\":1690:1702  tokenId % 10 */\n      tag_238\n      jump\t// in\n    tag_237:\n        /* \"MyNFT.sol\":1685:1702  48 + tokenId % 10 */\n      tag_239\n      swap1\n        /* \"MyNFT.sol\":1685:1687  48 */\n      0x30\n        /* \"MyNFT.sol\":1685:1702  48 + tokenId % 10 */\n      tag_240\n      jump\t// in\n    tag_239:\n        /* \"MyNFT.sol\":1672:1704  bytes1(uint8(48 + tokenId % 10)) */\n      0xf8\n      shl\n        /* \"MyNFT.sol\":1656:1662  result */\n      dup3\n        /* \"MyNFT.sol\":1663:1668  i - 1 */\n      tag_241\n        /* \"MyNFT.sol\":1667:1668  1 */\n      0x01\n        /* \"MyNFT.sol\":1663:1664  i */\n      dup5\n        /* \"MyNFT.sol\":1663:1668  i - 1 */\n      tag_242\n      jump\t// in\n    tag_241:\n        /* \"MyNFT.sol\":1656:1669  result[i - 1] */\n      dup2\n      mload\n      dup2\n      lt\n      tag_244\n      jumpi\n      tag_244\n      tag_188\n      jump\t// in\n    tag_244:\n      0x20\n      add\n      add\n        /* \"MyNFT.sol\":1656:1704  result[i - 1] = bytes1(uint8(48 + tokenId % 10)) */\n      swap1\n      not(sub(shl(0xf8, 0x01), 0x01))\n      and\n      swap1\n      dup2\n      0x00\n      byte\n      swap1\n      mstore8\n      pop\n        /* \"MyNFT.sol\":1718:1731  tokenId /= 10 */\n      tag_245\n        /* \"MyNFT.sol\":1729:1731  10 */\n      0x0a\n        /* \"MyNFT.sol\":1718:1731  tokenId /= 10 */\n      dup8\n      tag_229\n      jump\t// in\n    tag_245:\n      swap6\n      pop\n        /* \"MyNFT.sol\":1637:1640  i-- */\n      dup1\n      tag_246\n      dup2\n      tag_247\n      jump\t// in\n    tag_246:\n      swap2\n      pop\n      pop\n        /* \"MyNFT.sol\":1605:1742  for (uint256 i = length; i > 0; i--) {... */\n      jump(tag_234)\n    tag_235:\n      pop\n        /* \"MyNFT.sol\":1766:1772  result */\n      swap5\n        /* \"MyNFT.sol\":1261:1780  function tokenIdToString(uint256 tokenId) internal pure returns (string memory) {... */\n      swap4\n      pop\n      pop\n      pop\n      pop\n      jump\t// out\n        /* \"@openzeppelin/contracts/token/ERC1155/ERC1155.sol\":11523:11805  function _mintBatch(address to, uint256[] memory ids, uint256[] memory values, bytes memory data) internal {... */\n    tag_138:\n      sub(shl(0xa0, 0x01), 0x01)\n        /* \"@openzeppelin/contracts/token/ERC1155/ERC1155.sol\":11644:11660  to == address(0) */\n      dup5\n      and\n        /* \"@openzeppelin/contracts/token/ERC1155/ERC1155.sol\":11640:11728  if (to == address(0)) {... */\n      tag_249\n      jumpi\n        /* \"@openzeppelin/contracts/token/ERC1155/ERC1155.sol\":11683:11717  ERC1155InvalidReceiver(address(0)) */\n      mload(0x40)\n      shl(0xe1, 0x2bfa23e7)\n      dup2\n      mstore\n        /* \"@openzeppelin/contracts/token/ERC1155/ERC1155.sol\":11714:11715  0 */\n      0x00\n        /* \"@openzeppelin/contracts/token/ERC1155/ERC1155.sol\":11683:11717  ERC1155InvalidReceiver(address(0)) */\n      0x04\n      dup3\n      add\n        /* \"#utility.yul\":16949:17000   */\n      mstore\n        /* \"#utility.yul\":16922:16940   */\n      0x24\n      add\n        /* \"@openzeppelin/contracts/token/ERC1155/ERC1155.sol\":11683:11717  ERC1155InvalidReceiver(address(0)) */\n      tag_134\n        /* \"#utility.yul\":16803:17006   */\n      jump\n        /* \"@openzeppelin/contracts/token/ERC1155/ERC1155.sol\":11640:11728  if (to == address(0)) {... */\n    tag_249:\n        /* \"@openzeppelin/contracts/token/ERC1155/ERC1155.sol\":11737:11798  _updateWithAcceptanceCheck(address(0), to, ids, values, data) */\n      tag_137\n        /* \"@openzeppelin/contracts/token/ERC1155/ERC1155.sol\":11772:11773  0 */\n      0x00\n        /* \"@openzeppelin/contracts/token/ERC1155/ERC1155.sol\":11776:11778  to */\n      dup6\n        /* \"@openzeppelin/contracts/token/ERC1155/ERC1155.sol\":11780:11783  ids */\n      dup6\n        /* \"@openzeppelin/contracts/token/ERC1155/ERC1155.sol\":11785:11791  values */\n      dup6\n        /* \"@openzeppelin/contracts/token/ERC1155/ERC1155.sol\":11793:11797  data */\n      dup6\n        /* \"@openzeppelin/contracts/token/ERC1155/ERC1155.sol\":11737:11763  _updateWithAcceptanceCheck */\n      tag_253\n        /* \"@openzeppelin/contracts/token/ERC1155/ERC1155.sol\":11737:11798  _updateWithAcceptanceCheck(address(0), to, ids, values, data) */\n      jump\t// in\n        /* \"@openzeppelin/contracts/token/ERC1155/ERC1155.sol\":9015:9460  function _safeBatchTransferFrom(... */\n    tag_149:\n      sub(shl(0xa0, 0x01), 0x01)\n        /* \"@openzeppelin/contracts/token/ERC1155/ERC1155.sol\":9208:9224  to == address(0) */\n      dup5\n      and\n        /* \"@openzeppelin/contracts/token/ERC1155/ERC1155.sol\":9204:9292  if (to == address(0)) {... */\n      tag_256\n      jumpi\n        /* \"@openzeppelin/contracts/token/ERC1155/ERC1155.sol\":9247:9281  ERC1155InvalidReceiver(address(0)) */\n      mload(0x40)\n      shl(0xe1, 0x2bfa23e7)\n      dup2\n      mstore\n        /* \"@openzeppelin/contracts/token/ERC1155/ERC1155.sol\":9278:9279  0 */\n      0x00\n        /* \"@openzeppelin/contracts/token/ERC1155/ERC1155.sol\":9247:9281  ERC1155InvalidReceiver(address(0)) */\n      0x04\n      dup3\n      add\n        /* \"#utility.yul\":16949:17000   */\n      mstore\n        /* \"#utility.yul\":16922:16940   */\n      0x24\n      add\n        /* \"@openzeppelin/contracts/token/ERC1155/ERC1155.sol\":9247:9281  ERC1155InvalidReceiver(address(0)) */\n      tag_134\n        /* \"#utility.yul\":16803:17006   */\n      jump\n        /* \"@openzeppelin/contracts/token/ERC1155/ERC1155.sol\":9204:9292  if (to == address(0)) {... */\n    tag_256:\n      sub(shl(0xa0, 0x01), 0x01)\n        /* \"@openzeppelin/contracts/token/ERC1155/ERC1155.sol\":9305:9323  from == address(0) */\n      dup6\n      and\n        /* \"@openzeppelin/contracts/token/ERC1155/ERC1155.sol\":9301:9389  if (from == address(0)) {... */\n      tag_258\n      jumpi\n        /* \"@openzeppelin/contracts/token/ERC1155/ERC1155.sol\":9346:9378  ERC1155InvalidSender(address(0)) */\n      mload(0x40)\n      shl(0xe2, 0x6a0d45)\n      dup2\n      mstore\n        /* \"@openzeppelin/contracts/token/ERC1155/ERC1155.sol\":9375:9376  0 */\n      0x00\n        /* \"@openzeppelin/contracts/token/ERC1155/ERC1155.sol\":9346:9378  ERC1155InvalidSender(address(0)) */\n      0x04\n      dup3\n      add\n        /* \"#utility.yul\":16949:17000   */\n      mstore\n        /* \"#utility.yul\":16922:16940   */\n      0x24\n      add\n        /* \"@openzeppelin/contracts/token/ERC1155/ERC1155.sol\":9346:9378  ERC1155InvalidSender(address(0)) */\n      tag_134\n        /* \"#utility.yul\":16803:17006   */\n      jump\n        /* \"@openzeppelin/contracts/token/ERC1155/ERC1155.sol\":9301:9389  if (from == address(0)) {... */\n    tag_258:\n        /* \"@openzeppelin/contracts/token/ERC1155/ERC1155.sol\":9398:9453  _updateWithAcceptanceCheck(from, to, ids, values, data) */\n      tag_260\n        /* \"@openzeppelin/contracts/token/ERC1155/ERC1155.sol\":9425:9429  from */\n      dup6\n        /* \"@openzeppelin/contracts/token/ERC1155/ERC1155.sol\":9431:9433  to */\n      dup6\n        /* \"@openzeppelin/contracts/token/ERC1155/ERC1155.sol\":9435:9438  ids */\n      dup6\n        /* \"@openzeppelin/contracts/token/ERC1155/ERC1155.sol\":9440:9446  values */\n      dup6\n        /* \"@openzeppelin/contracts/token/ERC1155/ERC1155.sol\":9448:9452  data */\n      dup6\n        /* \"@openzeppelin/contracts/token/ERC1155/ERC1155.sol\":9398:9424  _updateWithAcceptanceCheck */\n      tag_253\n        /* \"@openzeppelin/contracts/token/ERC1155/ERC1155.sol\":9398:9453  _updateWithAcceptanceCheck(from, to, ids, values, data) */\n      jump\t// in\n    tag_260:\n        /* \"@openzeppelin/contracts/token/ERC1155/ERC1155.sol\":9015:9460  function _safeBatchTransferFrom(... */\n      pop\n      pop\n      pop\n      pop\n      pop\n      jump\t// out\n        /* \"@openzeppelin/contracts/access/AccessControl.sol\":3199:3302  function _checkRole(bytes32 role) internal view virtual {... */\n    tag_153:\n        /* \"@openzeppelin/contracts/access/AccessControl.sol\":3265:3295  _checkRole(role, _msgSender()) */\n      tag_262\n        /* \"@openzeppelin/contracts/access/AccessControl.sol\":3276:3280  role */\n      dup2\n        /* \"@openzeppelin/contracts/utils/Context.sol\":735:745  msg.sender */\n      caller\n        /* \"@openzeppelin/contracts/access/AccessControl.sol\":3265:3275  _checkRole */\n      tag_264\n        /* \"@openzeppelin/contracts/access/AccessControl.sol\":3265:3295  _checkRole(role, _msgSender()) */\n      jump\t// in\n    tag_262:\n        /* \"@openzeppelin/contracts/access/AccessControl.sol\":3199:3302  function _checkRole(bytes32 role) internal view virtual {... */\n      pop\n      jump\t// out\n        /* \"@openzeppelin/contracts/access/AccessControl.sol\":6179:6495  function _grantRole(bytes32 role, address account) internal virtual returns (bool) {... */\n    tag_156:\n        /* \"@openzeppelin/contracts/access/AccessControl.sol\":6256:6260  bool */\n      0x00\n        /* \"@openzeppelin/contracts/access/AccessControl.sol\":6277:6299  hasRole(role, account) */\n      tag_266\n        /* \"@openzeppelin/contracts/access/AccessControl.sol\":6285:6289  role */\n      dup4\n        /* \"@openzeppelin/contracts/access/AccessControl.sol\":6291:6298  account */\n      dup4\n        /* \"@openzeppelin/contracts/access/AccessControl.sol\":6277:6284  hasRole */\n      tag_89\n        /* \"@openzeppelin/contracts/access/AccessControl.sol\":6277:6299  hasRole(role, account) */\n      jump\t// in\n    tag_266:\n        /* \"@openzeppelin/contracts/access/AccessControl.sol\":6272:6489  if (!hasRole(role, account)) {... */\n      tag_267\n      jumpi\n        /* \"@openzeppelin/contracts/access/AccessControl.sol\":6315:6327  _roles[role] */\n      0x00\n      dup4\n      dup2\n      mstore\n        /* \"@openzeppelin/contracts/access/AccessControl.sol\":6315:6321  _roles */\n      0x05\n        /* \"@openzeppelin/contracts/access/AccessControl.sol\":6315:6327  _roles[role] */\n      0x20\n      swap1\n      dup2\n      mstore\n      0x40\n      dup1\n      dup4\n      keccak256\n      sub(shl(0xa0, 0x01), 0x01)\n        /* \"@openzeppelin/contracts/access/AccessControl.sol\":6315:6344  _roles[role].hasRole[account] */\n      dup7\n      and\n      dup5\n      mstore\n      swap1\n      swap2\n      mstore\n      swap1\n      keccak256\n        /* \"@openzeppelin/contracts/access/AccessControl.sol\":6315:6351  _roles[role].hasRole[account] = true */\n      dup1\n      sload\n      not(0xff)\n      and\n        /* \"@openzeppelin/contracts/access/AccessControl.sol\":6347:6351  true */\n      0x01\n        /* \"@openzeppelin/contracts/access/AccessControl.sol\":6315:6351  _roles[role].hasRole[account] = true */\n      or\n      swap1\n      sstore\n        /* \"@openzeppelin/contracts/access/AccessControl.sol\":6397:6409  _msgSender() */\n      tag_268\n        /* \"@openzeppelin/contracts/utils/Context.sol\":735:745  msg.sender */\n      caller\n      swap1\n        /* \"@openzeppelin/contracts/utils/Context.sol\":656:752  function _msgSender() internal view virtual returns (address) {... */\n      jump\n        /* \"@openzeppelin/contracts/access/AccessControl.sol\":6397:6409  _msgSender() */\n    tag_268:\n      sub(shl(0xa0, 0x01), 0x01)\n        /* \"@openzeppelin/contracts/access/AccessControl.sol\":6370:6410  RoleGranted(role, account, _msgSender()) */\n      and\n        /* \"@openzeppelin/contracts/access/AccessControl.sol\":6388:6395  account */\n      dup3\n      sub(shl(0xa0, 0x01), 0x01)\n        /* \"@openzeppelin/contracts/access/AccessControl.sol\":6370:6410  RoleGranted(role, account, _msgSender()) */\n      and\n        /* \"@openzeppelin/contracts/access/AccessControl.sol\":6382:6386  role */\n      dup5\n        /* \"@openzeppelin/contracts/access/AccessControl.sol\":6370:6410  RoleGranted(role, account, _msgSender()) */\n      0x2f8788117e7eff1d82e926ec794901d17c78024a50270940304540a733656f0d\n      mload(0x40)\n      mload(0x40)\n      dup1\n      swap2\n      sub\n      swap1\n      log4\n      pop\n        /* \"@openzeppelin/contracts/access/AccessControl.sol\":6431:6435  true */\n      0x01\n        /* \"@openzeppelin/contracts/access/AccessControl.sol\":6424:6435  return true */\n      jump(tag_117)\n        /* \"@openzeppelin/contracts/access/AccessControl.sol\":6272:6489  if (!hasRole(role, account)) {... */\n    tag_267:\n      pop\n        /* \"@openzeppelin/contracts/access/AccessControl.sol\":6473:6478  false */\n      0x00\n        /* \"@openzeppelin/contracts/access/AccessControl.sol\":6466:6478  return false */\n      jump(tag_117)\n        /* \"@openzeppelin/contracts/access/AccessControl.sol\":6730:7047  function _revokeRole(bytes32 role, address account) internal virtual returns (bool) {... */\n    tag_169:\n        /* \"@openzeppelin/contracts/access/AccessControl.sol\":6808:6812  bool */\n      0x00\n        /* \"@openzeppelin/contracts/access/AccessControl.sol\":6828:6850  hasRole(role, account) */\n      tag_271\n        /* \"@openzeppelin/contracts/access/AccessControl.sol\":6836:6840  role */\n      dup4\n        /* \"@openzeppelin/contracts/access/AccessControl.sol\":6842:6849  account */\n      dup4\n        /* \"@openzeppelin/contracts/access/AccessControl.sol\":6828:6835  hasRole */\n      tag_89\n        /* \"@openzeppelin/contracts/access/AccessControl.sol\":6828:6850  hasRole(role, account) */\n      jump\t// in\n    tag_271:\n        /* \"@openzeppelin/contracts/access/AccessControl.sol\":6824:7041  if (hasRole(role, account)) {... */\n      iszero\n      tag_267\n      jumpi\n        /* \"@openzeppelin/contracts/access/AccessControl.sol\":6898:6903  false */\n      0x00\n        /* \"@openzeppelin/contracts/access/AccessControl.sol\":6866:6878  _roles[role] */\n      dup4\n      dup2\n      mstore\n        /* \"@openzeppelin/contracts/access/AccessControl.sol\":6866:6872  _roles */\n      0x05\n        /* \"@openzeppelin/contracts/access/AccessControl.sol\":6866:6878  _roles[role] */\n      0x20\n      swap1\n      dup2\n      mstore\n      0x40\n      dup1\n      dup4\n      keccak256\n      sub(shl(0xa0, 0x01), 0x01)\n        /* \"@openzeppelin/contracts/access/AccessControl.sol\":6866:6895  _roles[role].hasRole[account] */\n      dup7\n      and\n      dup1\n      dup6\n      mstore\n      swap3\n      mstore\n      dup1\n      dup4\n      keccak256\n        /* \"@openzeppelin/contracts/access/AccessControl.sol\":6866:6903  _roles[role].hasRole[account] = false */\n      dup1\n      sload\n      not(0xff)\n      and\n      swap1\n      sstore\n        /* \"@openzeppelin/contracts/access/AccessControl.sol\":6922:6962  RoleRevoked(role, account, _msgSender()) */\n      mload\n        /* \"@openzeppelin/contracts/utils/Context.sol\":735:745  msg.sender */\n      caller\n      swap3\n        /* \"@openzeppelin/contracts/access/AccessControl.sol\":6866:6878  _roles[role] */\n      dup7\n      swap2\n        /* \"@openzeppelin/contracts/access/AccessControl.sol\":6922:6962  RoleRevoked(role, account, _msgSender()) */\n      0xf6391f5c32d9c69d2a47ea670b442974b53935d1edc7fd64eb21e047a839171b\n      swap2\n        /* \"@openzeppelin/contracts/access/AccessControl.sol\":6898:6903  false */\n      swap1\n        /* \"@openzeppelin/contracts/access/AccessControl.sol\":6922:6962  RoleRevoked(role, account, _msgSender()) */\n      log4\n      pop\n        /* \"@openzeppelin/contracts/access/AccessControl.sol\":6983:6987  true */\n      0x01\n        /* \"@openzeppelin/contracts/access/AccessControl.sol\":6976:6987  return true */\n      jump(tag_117)\n        /* \"@openzeppelin/contracts/token/ERC1155/ERC1155.sol\":10746:11092  function _mint(address to, uint256 id, uint256 value, bytes memory data) internal {... */\n    tag_199:\n      sub(shl(0xa0, 0x01), 0x01)\n        /* \"@openzeppelin/contracts/token/ERC1155/ERC1155.sol\":10842:10858  to == address(0) */\n      dup5\n      and\n        /* \"@openzeppelin/contracts/token/ERC1155/ERC1155.sol\":10838:10926  if (to == address(0)) {... */\n      tag_278\n      jumpi\n        /* \"@openzeppelin/contracts/token/ERC1155/ERC1155.sol\":10881:10915  ERC1155InvalidReceiver(address(0)) */\n      mload(0x40)\n      shl(0xe1, 0x2bfa23e7)\n      dup2\n      mstore\n        /* \"@openzeppelin/contracts/token/ERC1155/ERC1155.sol\":10912:10913  0 */\n      0x00\n        /* \"@openzeppelin/contracts/token/ERC1155/ERC1155.sol\":10881:10915  ERC1155InvalidReceiver(address(0)) */\n      0x04\n      dup3\n      add\n        /* \"#utility.yul\":16949:17000   */\n      mstore\n        /* \"#utility.yul\":16922:16940   */\n      0x24\n      add\n        /* \"@openzeppelin/contracts/token/ERC1155/ERC1155.sol\":10881:10915  ERC1155InvalidReceiver(address(0)) */\n      tag_134\n        /* \"#utility.yul\":16803:17006   */\n      jump\n        /* \"@openzeppelin/contracts/token/ERC1155/ERC1155.sol\":10838:10926  if (to == address(0)) {... */\n    tag_278:\n        /* \"@openzeppelin/contracts/token/ERC1155/ERC1155.sol\":16374:16378  0x40 */\n      0x40\n        /* \"@openzeppelin/contracts/token/ERC1155/ERC1155.sol\":16368:16379  mload(0x40) */\n      dup1\n      mload\n        /* \"@openzeppelin/contracts/token/ERC1155/ERC1155.sol\":16444:16445  1 */\n      0x01\n        /* \"@openzeppelin/contracts/token/ERC1155/ERC1155.sol\":16429:16446  mstore(array1, 1) */\n      dup1\n      dup3\n      mstore\n        /* \"@openzeppelin/contracts/token/ERC1155/ERC1155.sol\":16575:16579  0x20 */\n      0x20\n        /* \"@openzeppelin/contracts/token/ERC1155/ERC1155.sol\":16563:16580  add(array1, 0x20) */\n      dup3\n      add\n        /* \"@openzeppelin/contracts/token/ERC1155/ERC1155.sol\":16556:16591  mstore(add(array1, 0x20), element1) */\n      dup7\n      swap1\n      mstore\n        /* \"@openzeppelin/contracts/token/ERC1155/ERC1155.sol\":16692:16709  add(array1, 0x40) */\n      dup2\n      dup4\n      add\n        /* \"@openzeppelin/contracts/token/ERC1155/ERC1155.sol\":16722:16739  mstore(array2, 1) */\n      swap1\n      dup2\n      mstore\n        /* \"@openzeppelin/contracts/token/ERC1155/ERC1155.sol\":16188:16211  uint256[] memory array1 */\n      0x60\n        /* \"@openzeppelin/contracts/token/ERC1155/ERC1155.sol\":16759:16776  add(array2, 0x20) */\n      dup3\n      add\n        /* \"@openzeppelin/contracts/token/ERC1155/ERC1155.sol\":16752:16787  mstore(add(array2, 0x20), element2) */\n      dup6\n      swap1\n      mstore\n        /* \"@openzeppelin/contracts/token/ERC1155/ERC1155.sol\":16895:16912  add(array2, 0x40) */\n      0x80\n      dup3\n      add\n        /* \"@openzeppelin/contracts/token/ERC1155/ERC1155.sol\":16882:16913  mstore(0x40, add(array2, 0x40)) */\n      swap1\n      swap3\n      mstore\n        /* \"@openzeppelin/contracts/token/ERC1155/ERC1155.sol\":16368:16379  mload(0x40) */\n      swap1\n        /* \"@openzeppelin/contracts/token/ERC1155/ERC1155.sol\":11024:11085  _updateWithAcceptanceCheck(address(0), to, ids, values, data) */\n      tag_148\n      0x00\n        /* \"@openzeppelin/contracts/token/ERC1155/ERC1155.sol\":11063:11065  to */\n      dup8\n        /* \"@openzeppelin/contracts/token/ERC1155/ERC1155.sol\":16368:16379  mload(0x40) */\n      dup5\n        /* \"@openzeppelin/contracts/token/ERC1155/ERC1155.sol\":16692:16709  add(array1, 0x40) */\n      dup5\n        /* \"@openzeppelin/contracts/token/ERC1155/ERC1155.sol\":11080:11084  data */\n      dup8\n        /* \"@openzeppelin/contracts/token/ERC1155/ERC1155.sol\":11024:11050  _updateWithAcceptanceCheck */\n      tag_253\n        /* \"@openzeppelin/contracts/token/ERC1155/ERC1155.sol\":11024:11085  _updateWithAcceptanceCheck(address(0), to, ids, values, data) */\n      jump\t// in\n        /* \"@openzeppelin/contracts/token/ERC1155/ERC1155.sol\":13268:13583  function _setApprovalForAll(address owner, address operator, bool approved) internal virtual {... */\n    tag_204:\n      sub(shl(0xa0, 0x01), 0x01)\n        /* \"@openzeppelin/contracts/token/ERC1155/ERC1155.sol\":13375:13397  operator == address(0) */\n      dup3\n      and\n        /* \"@openzeppelin/contracts/token/ERC1155/ERC1155.sol\":13371:13465  if (operator == address(0)) {... */\n      tag_284\n      jumpi\n        /* \"@openzeppelin/contracts/token/ERC1155/ERC1155.sol\":13420:13454  ERC1155InvalidOperator(address(0)) */\n      mload(0x40)\n      shl(0xe8, 0xced3e1)\n      dup2\n      mstore\n        /* \"@openzeppelin/contracts/token/ERC1155/ERC1155.sol\":13451:13452  0 */\n      0x00\n        /* \"@openzeppelin/contracts/token/ERC1155/ERC1155.sol\":13420:13454  ERC1155InvalidOperator(address(0)) */\n      0x04\n      dup3\n      add\n        /* \"#utility.yul\":16949:17000   */\n      mstore\n        /* \"#utility.yul\":16922:16940   */\n      0x24\n      add\n        /* \"@openzeppelin/contracts/token/ERC1155/ERC1155.sol\":13420:13454  ERC1155InvalidOperator(address(0)) */\n      tag_134\n        /* \"#utility.yul\":16803:17006   */\n      jump\n        /* \"@openzeppelin/contracts/token/ERC1155/ERC1155.sol\":13371:13465  if (operator == address(0)) {... */\n    tag_284:\n      sub(shl(0xa0, 0x01), 0x01)\n        /* \"@openzeppelin/contracts/token/ERC1155/ERC1155.sol\":13474:13499  _operatorApprovals[owner] */\n      dup4\n      dup2\n      and\n      0x00\n      dup2\n      dup2\n      mstore\n        /* \"@openzeppelin/contracts/token/ERC1155/ERC1155.sol\":13474:13492  _operatorApprovals */\n      0x01\n        /* \"@openzeppelin/contracts/token/ERC1155/ERC1155.sol\":13474:13499  _operatorApprovals[owner] */\n      0x20\n      swap1\n      dup2\n      mstore\n      0x40\n      dup1\n      dup4\n      keccak256\n        /* \"@openzeppelin/contracts/token/ERC1155/ERC1155.sol\":13474:13509  _operatorApprovals[owner][operator] */\n      swap5\n      dup8\n      and\n      dup1\n      dup5\n      mstore\n      swap5\n      dup3\n      mstore\n      swap2\n      dup3\n      swap1\n      keccak256\n        /* \"@openzeppelin/contracts/token/ERC1155/ERC1155.sol\":13474:13520  _operatorApprovals[owner][operator] = approved */\n      dup1\n      sload\n      not(0xff)\n      and\n      dup7\n      iszero\n      iszero\n      swap1\n      dup2\n      or\n      swap1\n      swap2\n      sstore\n        /* \"@openzeppelin/contracts/token/ERC1155/ERC1155.sol\":13535:13576  ApprovalForAll(owner, operator, approved) */\n      swap2\n      mload\n        /* \"#utility.yul\":1159:1200   */\n      swap2\n      dup3\n      mstore\n        /* \"@openzeppelin/contracts/token/ERC1155/ERC1155.sol\":13535:13576  ApprovalForAll(owner, operator, approved) */\n      0x17307eab39ab6107e8899845ad3d59bd9653f200f220920489ca2b5937696c31\n      swap2\n        /* \"#utility.yul\":1132:1150   */\n      add\n        /* \"@openzeppelin/contracts/token/ERC1155/ERC1155.sol\":13535:13576  ApprovalForAll(owner, operator, approved) */\n      mload(0x40)\n      dup1\n      swap2\n      sub\n      swap1\n      log3\n        /* \"@openzeppelin/contracts/token/ERC1155/ERC1155.sol\":13268:13583  function _setApprovalForAll(address owner, address operator, bool approved) internal virtual {... */\n      pop\n      pop\n      pop\n      jump\t// out\n        /* \"@openzeppelin/contracts/token/ERC1155/ERC1155.sol\":8151:8614  function _safeTransferFrom(address from, address to, uint256 id, uint256 value, bytes memory data) internal {... */\n    tag_219:\n      sub(shl(0xa0, 0x01), 0x01)\n        /* \"@openzeppelin/contracts/token/ERC1155/ERC1155.sol\":8273:8289  to == address(0) */\n      dup5\n      and\n        /* \"@openzeppelin/contracts/token/ERC1155/ERC1155.sol\":8269:8357  if (to == address(0)) {... */\n      tag_288\n      jumpi\n        /* \"@openzeppelin/contracts/token/ERC1155/ERC1155.sol\":8312:8346  ERC1155InvalidReceiver(address(0)) */\n      mload(0x40)\n      shl(0xe1, 0x2bfa23e7)\n      dup2\n      mstore\n        /* \"@openzeppelin/contracts/token/ERC1155/ERC1155.sol\":8343:8344  0 */\n      0x00\n        /* \"@openzeppelin/contracts/token/ERC1155/ERC1155.sol\":8312:8346  ERC1155InvalidReceiver(address(0)) */\n      0x04\n      dup3\n      add\n        /* \"#utility.yul\":16949:17000   */\n      mstore\n        /* \"#utility.yul\":16922:16940   */\n      0x24\n      add\n        /* \"@openzeppelin/contracts/token/ERC1155/ERC1155.sol\":8312:8346  ERC1155InvalidReceiver(address(0)) */\n      tag_134\n        /* \"#utility.yul\":16803:17006   */\n      jump\n        /* \"@openzeppelin/contracts/token/ERC1155/ERC1155.sol\":8269:8357  if (to == address(0)) {... */\n    tag_288:\n      sub(shl(0xa0, 0x01), 0x01)\n        /* \"@openzeppelin/contracts/token/ERC1155/ERC1155.sol\":8370:8388  from == address(0) */\n      dup6\n      and\n        /* \"@openzeppelin/contracts/token/ERC1155/ERC1155.sol\":8366:8454  if (from == address(0)) {... */\n      tag_290\n      jumpi\n        /* \"@openzeppelin/contracts/token/ERC1155/ERC1155.sol\":8411:8443  ERC1155InvalidSender(address(0)) */\n      mload(0x40)\n      shl(0xe2, 0x6a0d45)\n      dup2\n      mstore\n        /* \"@openzeppelin/contracts/token/ERC1155/ERC1155.sol\":8440:8441  0 */\n      0x00\n        /* \"@openzeppelin/contracts/token/ERC1155/ERC1155.sol\":8411:8443  ERC1155InvalidSender(address(0)) */\n      0x04\n      dup3\n      add\n        /* \"#utility.yul\":16949:17000   */\n      mstore\n        /* \"#utility.yul\":16922:16940   */\n      0x24\n      add\n        /* \"@openzeppelin/contracts/token/ERC1155/ERC1155.sol\":8411:8443  ERC1155InvalidSender(address(0)) */\n      tag_134\n        /* \"#utility.yul\":16803:17006   */\n      jump\n        /* \"@openzeppelin/contracts/token/ERC1155/ERC1155.sol\":8366:8454  if (from == address(0)) {... */\n    tag_290:\n        /* \"@openzeppelin/contracts/token/ERC1155/ERC1155.sol\":16374:16378  0x40 */\n      0x40\n        /* \"@openzeppelin/contracts/token/ERC1155/ERC1155.sol\":16368:16379  mload(0x40) */\n      dup1\n      mload\n        /* \"@openzeppelin/contracts/token/ERC1155/ERC1155.sol\":16444:16445  1 */\n      0x01\n        /* \"@openzeppelin/contracts/token/ERC1155/ERC1155.sol\":16429:16446  mstore(array1, 1) */\n      dup1\n      dup3\n      mstore\n        /* \"@openzeppelin/contracts/token/ERC1155/ERC1155.sol\":16575:16579  0x20 */\n      0x20\n        /* \"@openzeppelin/contracts/token/ERC1155/ERC1155.sol\":16563:16580  add(array1, 0x20) */\n      dup3\n      add\n        /* \"@openzeppelin/contracts/token/ERC1155/ERC1155.sol\":16556:16591  mstore(add(array1, 0x20), element1) */\n      dup7\n      swap1\n      mstore\n        /* \"@openzeppelin/contracts/token/ERC1155/ERC1155.sol\":16692:16709  add(array1, 0x40) */\n      dup2\n      dup4\n      add\n        /* \"@openzeppelin/contracts/token/ERC1155/ERC1155.sol\":16722:16739  mstore(array2, 1) */\n      swap1\n      dup2\n      mstore\n        /* \"@openzeppelin/contracts/token/ERC1155/ERC1155.sol\":16188:16211  uint256[] memory array1 */\n      0x60\n        /* \"@openzeppelin/contracts/token/ERC1155/ERC1155.sol\":16759:16776  add(array2, 0x20) */\n      dup3\n      add\n        /* \"@openzeppelin/contracts/token/ERC1155/ERC1155.sol\":16752:16787  mstore(add(array2, 0x20), element2) */\n      dup6\n      swap1\n      mstore\n        /* \"@openzeppelin/contracts/token/ERC1155/ERC1155.sol\":16895:16912  add(array2, 0x40) */\n      0x80\n      dup3\n      add\n        /* \"@openzeppelin/contracts/token/ERC1155/ERC1155.sol\":16882:16913  mstore(0x40, add(array2, 0x40)) */\n      swap1\n      swap3\n      mstore\n        /* \"@openzeppelin/contracts/token/ERC1155/ERC1155.sol\":16368:16379  mload(0x40) */\n      swap1\n        /* \"@openzeppelin/contracts/token/ERC1155/ERC1155.sol\":8552:8607  _updateWithAcceptanceCheck(from, to, ids, values, data) */\n      tag_293\n        /* \"@openzeppelin/contracts/token/ERC1155/ERC1155.sol\":8579:8583  from */\n      dup8\n        /* \"@openzeppelin/contracts/token/ERC1155/ERC1155.sol\":8585:8587  to */\n      dup8\n        /* \"@openzeppelin/contracts/token/ERC1155/ERC1155.sol\":16368:16379  mload(0x40) */\n      dup5\n        /* \"@openzeppelin/contracts/token/ERC1155/ERC1155.sol\":16692:16709  add(array1, 0x40) */\n      dup5\n        /* \"@openzeppelin/contracts/token/ERC1155/ERC1155.sol\":8602:8606  data */\n      dup8\n        /* \"@openzeppelin/contracts/token/ERC1155/ERC1155.sol\":8552:8578  _updateWithAcceptanceCheck */\n      tag_253\n        /* \"@openzeppelin/contracts/token/ERC1155/ERC1155.sol\":8552:8607  _updateWithAcceptanceCheck(from, to, ids, values, data) */\n      jump\t// in\n    tag_293:\n        /* \"@openzeppelin/contracts/token/ERC1155/ERC1155.sol\":8259:8614  {... */\n      pop\n      pop\n        /* \"@openzeppelin/contracts/token/ERC1155/ERC1155.sol\":8151:8614  function _safeTransferFrom(address from, address to, uint256 id, uint256 value, bytes memory data) internal {... */\n      pop\n      pop\n      pop\n      pop\n      pop\n      jump\t// out\n        /* \"@openzeppelin/contracts/token/ERC1155/ERC1155.sol\":1380:1685  function supportsInterface(bytes4 interfaceId) public view virtual override(ERC165, IERC165) returns (bool) {... */\n    tag_223:\n        /* \"@openzeppelin/contracts/token/ERC1155/ERC1155.sol\":1482:1486  bool */\n      0x00\n      not(sub(shl(0xe0, 0x01), 0x01))\n        /* \"@openzeppelin/contracts/token/ERC1155/ERC1155.sol\":1517:1558  interfaceId == type(IERC1155).interfaceId */\n      dup3\n      and\n      shl(0xe1, 0x6cdb3d13)\n      eq\n      dup1\n        /* \"@openzeppelin/contracts/token/ERC1155/ERC1155.sol\":1517:1626  interfaceId == type(IERC1155).interfaceId ||... */\n      tag_295\n      jumpi\n      pop\n      not(sub(shl(0xe0, 0x01), 0x01))\n        /* \"@openzeppelin/contracts/token/ERC1155/ERC1155.sol\":1574:1626  interfaceId == type(IERC1155MetadataURI).interfaceId */\n      dup3\n      and\n      shl(0xe2, 0x03a24d07)\n      eq\n        /* \"@openzeppelin/contracts/token/ERC1155/ERC1155.sol\":1517:1626  interfaceId == type(IERC1155).interfaceId ||... */\n    tag_295:\n        /* \"@openzeppelin/contracts/token/ERC1155/ERC1155.sol\":1517:1678  interfaceId == type(IERC1155).interfaceId ||... */\n      dup1\n      tag_117\n      jumpi\n      pop\n      shl(0xe0, 0x01ffc9a7)\n      not(sub(shl(0xe0, 0x01), 0x01))\n        /* \"@openzeppelin/contracts/utils/introspection/ERC165.sol\":861:901  interfaceId == type(IERC165).interfaceId */\n      dup4\n      and\n      eq\n        /* \"@openzeppelin/contracts/token/ERC1155/ERC1155.sol\":1642:1678  super.supportsInterface(interfaceId) */\n      tag_117\n        /* \"@openzeppelin/contracts/utils/introspection/ERC165.sol\":762:908  function supportsInterface(bytes4 interfaceId) public view virtual returns (bool) {... */\n      jump\n        /* \"@openzeppelin/contracts/token/ERC1155/ERC1155.sol\":7004:7694  function _updateWithAcceptanceCheck(... */\n    tag_253:\n        /* \"@openzeppelin/contracts/token/ERC1155/ERC1155.sol\":7205:7235  _update(from, to, ids, values) */\n      tag_300\n        /* \"@openzeppelin/contracts/token/ERC1155/ERC1155.sol\":7213:7217  from */\n      dup6\n        /* \"@openzeppelin/contracts/token/ERC1155/ERC1155.sol\":7219:7221  to */\n      dup6\n        /* \"@openzeppelin/contracts/token/ERC1155/ERC1155.sol\":7223:7226  ids */\n      dup6\n        /* \"@openzeppelin/contracts/token/ERC1155/ERC1155.sol\":7228:7234  values */\n      dup6\n        /* \"@openzeppelin/contracts/token/ERC1155/ERC1155.sol\":7205:7212  _update */\n      tag_301\n        /* \"@openzeppelin/contracts/token/ERC1155/ERC1155.sol\":7205:7235  _update(from, to, ids, values) */\n      jump\t// in\n    tag_300:\n      sub(shl(0xa0, 0x01), 0x01)\n        /* \"@openzeppelin/contracts/token/ERC1155/ERC1155.sol\":7249:7265  to != address(0) */\n      dup5\n      and\n      iszero\n        /* \"@openzeppelin/contracts/token/ERC1155/ERC1155.sol\":7245:7688  if (to != address(0)) {... */\n      tag_260\n      jumpi\n        /* \"@openzeppelin/contracts/token/ERC1155/ERC1155.sol\":7330:7340  ids.length */\n      dup3\n      mload\n        /* \"@openzeppelin/contracts/utils/Context.sol\":735:745  msg.sender */\n      caller\n      swap1\n        /* \"@openzeppelin/contracts/token/ERC1155/ERC1155.sol\":7344:7345  1 */\n      0x01\n        /* \"@openzeppelin/contracts/token/ERC1155/ERC1155.sol\":7330:7345  ids.length == 1 */\n      sub\n        /* \"@openzeppelin/contracts/token/ERC1155/ERC1155.sol\":7326:7678  if (ids.length == 1) {... */\n      tag_304\n      jumpi\n        /* \"@openzeppelin/contracts/utils/Arrays.sol\":4777:4781  0x20 */\n      0x20\n        /* \"@openzeppelin/contracts/utils/Arrays.sol\":4748:4783  add(add(arr, 0x20), mul(pos, 0x20)) */\n      dup5\n      dup2\n      add\n        /* \"@openzeppelin/contracts/utils/Arrays.sol\":4742:4784  mload(add(add(arr, 0x20), mul(pos, 0x20))) */\n      mload\n        /* \"@openzeppelin/contracts/utils/Arrays.sol\":4748:4783  add(add(arr, 0x20), mul(pos, 0x20)) */\n      swap1\n      dup5\n      add\n        /* \"@openzeppelin/contracts/utils/Arrays.sol\":4742:4784  mload(add(add(arr, 0x20), mul(pos, 0x20))) */\n      mload\n        /* \"@openzeppelin/contracts/token/ERC1155/ERC1155.sol\":7483:7550  _doSafeTransferAcceptanceCheck(operator, from, to, id, value, data) */\n      tag_307\n        /* \"@openzeppelin/contracts/token/ERC1155/ERC1155.sol\":7514:7522  operator */\n      dup4\n        /* \"@openzeppelin/contracts/token/ERC1155/ERC1155.sol\":7524:7528  from */\n      dup10\n        /* \"@openzeppelin/contracts/token/ERC1155/ERC1155.sol\":7530:7532  to */\n      dup10\n        /* \"@openzeppelin/contracts/utils/Arrays.sol\":4742:4784  mload(add(add(arr, 0x20), mul(pos, 0x20))) */\n      dup6\n      dup6\n        /* \"@openzeppelin/contracts/token/ERC1155/ERC1155.sol\":7545:7549  data */\n      dup10\n        /* \"@openzeppelin/contracts/token/ERC1155/ERC1155.sol\":7483:7513  _doSafeTransferAcceptanceCheck */\n      tag_308\n        /* \"@openzeppelin/contracts/token/ERC1155/ERC1155.sol\":7483:7550  _doSafeTransferAcceptanceCheck(operator, from, to, id, value, data) */\n      jump\t// in\n    tag_307:\n        /* \"@openzeppelin/contracts/token/ERC1155/ERC1155.sol\":7347:7565  {... */\n      pop\n      pop\n        /* \"@openzeppelin/contracts/token/ERC1155/ERC1155.sol\":7326:7678  if (ids.length == 1) {... */\n      jump(tag_148)\n    tag_304:\n        /* \"@openzeppelin/contracts/token/ERC1155/ERC1155.sol\":7589:7663  _doSafeBatchTransferAcceptanceCheck(operator, from, to, ids, values, data) */\n      tag_148\n        /* \"@openzeppelin/contracts/token/ERC1155/ERC1155.sol\":7625:7633  operator */\n      dup2\n        /* \"@openzeppelin/contracts/token/ERC1155/ERC1155.sol\":7635:7639  from */\n      dup8\n        /* \"@openzeppelin/contracts/token/ERC1155/ERC1155.sol\":7641:7643  to */\n      dup8\n        /* \"@openzeppelin/contracts/token/ERC1155/ERC1155.sol\":7645:7648  ids */\n      dup8\n        /* \"@openzeppelin/contracts/token/ERC1155/ERC1155.sol\":7650:7656  values */\n      dup8\n        /* \"@openzeppelin/contracts/token/ERC1155/ERC1155.sol\":7658:7662  data */\n      dup8\n        /* \"@openzeppelin/contracts/token/ERC1155/ERC1155.sol\":7589:7624  _doSafeBatchTransferAcceptanceCheck */\n      tag_311\n        /* \"@openzeppelin/contracts/token/ERC1155/ERC1155.sol\":7589:7663  _doSafeBatchTransferAcceptanceCheck(operator, from, to, ids, values, data) */\n      jump\t// in\n        /* \"@openzeppelin/contracts/access/AccessControl.sol\":3432:3629  function _checkRole(bytes32 role, address account) internal view virtual {... */\n    tag_264:\n        /* \"@openzeppelin/contracts/access/AccessControl.sol\":3520:3542  hasRole(role, account) */\n      tag_313\n        /* \"@openzeppelin/contracts/access/AccessControl.sol\":3528:3532  role */\n      dup3\n        /* \"@openzeppelin/contracts/access/AccessControl.sol\":3534:3541  account */\n      dup3\n        /* \"@openzeppelin/contracts/access/AccessControl.sol\":3520:3527  hasRole */\n      tag_89\n        /* \"@openzeppelin/contracts/access/AccessControl.sol\":3520:3542  hasRole(role, account) */\n      jump\t// in\n    tag_313:\n        /* \"@openzeppelin/contracts/access/AccessControl.sol\":3515:3623  if (!hasRole(role, account)) {... */\n      tag_163\n      jumpi\n        /* \"@openzeppelin/contracts/access/AccessControl.sol\":3565:3612  AccessControlUnauthorizedAccount(account, role) */\n      mload(0x40)\n      shl(0xe0, 0xe2517d3f)\n      dup2\n      mstore\n      sub(shl(0xa0, 0x01), 0x01)\n        /* \"#utility.yul\":17203:17235   */\n      dup3\n      and\n        /* \"@openzeppelin/contracts/access/AccessControl.sol\":3565:3612  AccessControlUnauthorizedAccount(account, role) */\n      0x04\n      dup3\n      add\n        /* \"#utility.yul\":17185:17236   */\n      mstore\n        /* \"#utility.yul\":17252:17270   */\n      0x24\n      dup2\n      add\n        /* \"#utility.yul\":17245:17279   */\n      dup4\n      swap1\n      mstore\n        /* \"#utility.yul\":17158:17176   */\n      0x44\n      add\n        /* \"@openzeppelin/contracts/access/AccessControl.sol\":3565:3612  AccessControlUnauthorizedAccount(account, role) */\n      tag_134\n        /* \"#utility.yul\":17011:17285   */\n      jump\n        /* \"MyNFT.sol\":2213:2444  function _update(... */\n    tag_301:\n        /* \"MyNFT.sol\":2401:2437  super._update(from, to, ids, values) */\n      tag_137\n        /* \"MyNFT.sol\":2415:2419  from */\n      dup5\n        /* \"MyNFT.sol\":2421:2423  to */\n      dup5\n        /* \"MyNFT.sol\":2425:2428  ids */\n      dup5\n        /* \"MyNFT.sol\":2430:2436  values */\n      dup5\n        /* \"MyNFT.sol\":2401:2414  super._update */\n      tag_321\n        /* \"MyNFT.sol\":2401:2437  super._update(from, to, ids, values) */\n      jump\t// in\n        /* \"@openzeppelin/contracts/token/ERC1155/ERC1155.sol\":13761:14735  function _doSafeTransferAcceptanceCheck(... */\n    tag_308:\n      sub(shl(0xa0, 0x01), 0x01)\n        /* \"@openzeppelin/contracts/token/ERC1155/ERC1155.sol\":13967:13981  to.code.length */\n      dup5\n      and\n      extcodesize\n        /* \"@openzeppelin/contracts/token/ERC1155/ERC1155.sol\":13967:13985  to.code.length > 0 */\n      iszero\n        /* \"@openzeppelin/contracts/token/ERC1155/ERC1155.sol\":13963:14729  if (to.code.length > 0) {... */\n      tag_148\n      jumpi\n        /* \"@openzeppelin/contracts/token/ERC1155/ERC1155.sol\":14005:14076  IERC1155Receiver(to).onERC1155Received(operator, from, id, value, data) */\n      mload(0x40)\n      shl(0xe0, 0xf23a6e61)\n      dup2\n      mstore\n      sub(shl(0xa0, 0x01), 0x01)\n        /* \"@openzeppelin/contracts/token/ERC1155/ERC1155.sol\":14005:14043  IERC1155Receiver(to).onERC1155Received */\n      dup6\n      and\n      swap1\n      0xf23a6e61\n      swap1\n        /* \"@openzeppelin/contracts/token/ERC1155/ERC1155.sol\":14005:14076  IERC1155Receiver(to).onERC1155Received(operator, from, id, value, data) */\n      tag_324\n      swap1\n        /* \"@openzeppelin/contracts/token/ERC1155/ERC1155.sol\":14044:14052  operator */\n      dup10\n      swap1\n        /* \"@openzeppelin/contracts/token/ERC1155/ERC1155.sol\":14054:14058  from */\n      dup10\n      swap1\n        /* \"@openzeppelin/contracts/token/ERC1155/ERC1155.sol\":14060:14062  id */\n      dup9\n      swap1\n        /* \"@openzeppelin/contracts/token/ERC1155/ERC1155.sol\":14064:14069  value */\n      dup9\n      swap1\n        /* \"@openzeppelin/contracts/token/ERC1155/ERC1155.sol\":14071:14075  data */\n      dup9\n      swap1\n        /* \"@openzeppelin/contracts/token/ERC1155/ERC1155.sol\":14005:14076  IERC1155Receiver(to).onERC1155Received(operator, from, id, value, data) */\n      0x04\n      add\n      tag_325\n      jump\t// in\n    tag_324:\n      0x20\n      mload(0x40)\n      dup1\n      dup4\n      sub\n      dup2\n      0x00\n      dup8\n      gas\n      call\n      swap3\n      pop\n      pop\n      pop\n      dup1\n      iszero\n      tag_326\n      jumpi\n      pop\n      0x40\n      dup1\n      mload\n      0x1f\n      returndatasize\n      swap1\n      dup2\n      add\n      not(0x1f)\n      and\n      dup3\n      add\n      swap1\n      swap3\n      mstore\n      tag_327\n      swap2\n      dup2\n      add\n      swap1\n      tag_328\n      jump\t// in\n    tag_327:\n      0x01\n    tag_326:\n        /* \"@openzeppelin/contracts/token/ERC1155/ERC1155.sol\":14001:14719  try IERC1155Receiver(to).onERC1155Received(operator, from, id, value, data) returns (bytes4 response) {... */\n      tag_329\n      jumpi\n      returndatasize\n      dup1\n      dup1\n      iszero\n      tag_334\n      jumpi\n      mload(0x40)\n      swap2\n      pop\n      and(add(returndatasize, 0x3f), not(0x1f))\n      dup3\n      add\n      0x40\n      mstore\n      returndatasize\n      dup3\n      mstore\n      returndatasize\n      0x00\n      0x20\n      dup5\n      add\n      returndatacopy\n      jump(tag_333)\n    tag_334:\n      0x60\n      swap2\n      pop\n    tag_333:\n      pop\n        /* \"@openzeppelin/contracts/token/ERC1155/ERC1155.sol\":14360:14366  reason */\n      dup1\n        /* \"@openzeppelin/contracts/token/ERC1155/ERC1155.sol\":14360:14373  reason.length */\n      mload\n        /* \"@openzeppelin/contracts/token/ERC1155/ERC1155.sol\":14377:14378  0 */\n      0x00\n        /* \"@openzeppelin/contracts/token/ERC1155/ERC1155.sol\":14360:14378  reason.length == 0 */\n      sub\n        /* \"@openzeppelin/contracts/token/ERC1155/ERC1155.sol\":14356:14705  if (reason.length == 0) {... */\n      tag_335\n      jumpi\n        /* \"@openzeppelin/contracts/token/ERC1155/ERC1155.sol\":14464:14490  ERC1155InvalidReceiver(to) */\n      mload(0x40)\n      shl(0xe1, 0x2bfa23e7)\n      dup2\n      mstore\n      sub(shl(0xa0, 0x01), 0x01)\n        /* \"#utility.yul\":16967:16999   */\n      dup7\n      and\n        /* \"@openzeppelin/contracts/token/ERC1155/ERC1155.sol\":14464:14490  ERC1155InvalidReceiver(to) */\n      0x04\n      dup3\n      add\n        /* \"#utility.yul\":16949:17000   */\n      mstore\n        /* \"#utility.yul\":16922:16940   */\n      0x24\n      add\n        /* \"@openzeppelin/contracts/token/ERC1155/ERC1155.sol\":14464:14490  ERC1155InvalidReceiver(to) */\n      tag_134\n        /* \"#utility.yul\":16803:17006   */\n      jump\n        /* \"@openzeppelin/contracts/token/ERC1155/ERC1155.sol\":14356:14705  if (reason.length == 0) {... */\n    tag_335:\n        /* \"@openzeppelin/contracts/token/ERC1155/ERC1155.sol\":14657:14663  reason */\n      dup1\n        /* \"@openzeppelin/contracts/token/ERC1155/ERC1155.sol\":14651:14664  mload(reason) */\n      mload\n        /* \"@openzeppelin/contracts/token/ERC1155/ERC1155.sol\":14642:14648  reason */\n      dup2\n        /* \"@openzeppelin/contracts/token/ERC1155/ERC1155.sol\":14638:14640  32 */\n      0x20\n        /* \"@openzeppelin/contracts/token/ERC1155/ERC1155.sol\":14634:14649  add(32, reason) */\n      add\n        /* \"@openzeppelin/contracts/token/ERC1155/ERC1155.sol\":14627:14665  revert(add(32, reason), mload(reason)) */\n      revert\n        /* \"@openzeppelin/contracts/token/ERC1155/ERC1155.sol\":14001:14719  try IERC1155Receiver(to).onERC1155Received(operator, from, id, value, data) returns (bytes4 response) {... */\n    tag_329:\n      not(sub(shl(0xe0, 0x01), 0x01))\n        /* \"@openzeppelin/contracts/token/ERC1155/ERC1155.sol\":14125:14180  response != IERC1155Receiver.onERC1155Received.selector */\n      dup2\n      and\n      shl(0xe0, 0xf23a6e61)\n      eq\n        /* \"@openzeppelin/contracts/token/ERC1155/ERC1155.sol\":14121:14295  if (response != IERC1155Receiver.onERC1155Received.selector) {... */\n      tag_293\n      jumpi\n        /* \"@openzeppelin/contracts/token/ERC1155/ERC1155.sol\":14250:14276  ERC1155InvalidReceiver(to) */\n      mload(0x40)\n      shl(0xe1, 0x2bfa23e7)\n      dup2\n      mstore\n      sub(shl(0xa0, 0x01), 0x01)\n        /* \"#utility.yul\":16967:16999   */\n      dup7\n      and\n        /* \"@openzeppelin/contracts/token/ERC1155/ERC1155.sol\":14250:14276  ERC1155InvalidReceiver(to) */\n      0x04\n      dup3\n      add\n        /* \"#utility.yul\":16949:17000   */\n      mstore\n        /* \"#utility.yul\":16922:16940   */\n      0x24\n      add\n        /* \"@openzeppelin/contracts/token/ERC1155/ERC1155.sol\":14250:14276  ERC1155InvalidReceiver(to) */\n      tag_134\n        /* \"#utility.yul\":16803:17006   */\n      jump\n        /* \"@openzeppelin/contracts/token/ERC1155/ERC1155.sol\":14923:15964  function _doSafeBatchTransferAcceptanceCheck(... */\n    tag_311:\n      sub(shl(0xa0, 0x01), 0x01)\n        /* \"@openzeppelin/contracts/token/ERC1155/ERC1155.sol\":15154:15168  to.code.length */\n      dup5\n      and\n      extcodesize\n        /* \"@openzeppelin/contracts/token/ERC1155/ERC1155.sol\":15154:15172  to.code.length > 0 */\n      iszero\n        /* \"@openzeppelin/contracts/token/ERC1155/ERC1155.sol\":15150:15958  if (to.code.length > 0) {... */\n      tag_148\n      jumpi\n        /* \"@openzeppelin/contracts/token/ERC1155/ERC1155.sol\":15192:15270  IERC1155Receiver(to).onERC1155BatchReceived(operator, from, ids, values, data) */\n      mload(0x40)\n      shl(0xe0, 0xbc197c81)\n      dup2\n      mstore\n      sub(shl(0xa0, 0x01), 0x01)\n        /* \"@openzeppelin/contracts/token/ERC1155/ERC1155.sol\":15192:15235  IERC1155Receiver(to).onERC1155BatchReceived */\n      dup6\n      and\n      swap1\n      0xbc197c81\n      swap1\n        /* \"@openzeppelin/contracts/token/ERC1155/ERC1155.sol\":15192:15270  IERC1155Receiver(to).onERC1155BatchReceived(operator, from, ids, values, data) */\n      tag_343\n      swap1\n        /* \"@openzeppelin/contracts/token/ERC1155/ERC1155.sol\":15236:15244  operator */\n      dup10\n      swap1\n        /* \"@openzeppelin/contracts/token/ERC1155/ERC1155.sol\":15246:15250  from */\n      dup10\n      swap1\n        /* \"@openzeppelin/contracts/token/ERC1155/ERC1155.sol\":15252:15255  ids */\n      dup9\n      swap1\n        /* \"@openzeppelin/contracts/token/ERC1155/ERC1155.sol\":15257:15263  values */\n      dup9\n      swap1\n        /* \"@openzeppelin/contracts/token/ERC1155/ERC1155.sol\":15265:15269  data */\n      dup9\n      swap1\n        /* \"@openzeppelin/contracts/token/ERC1155/ERC1155.sol\":15192:15270  IERC1155Receiver(to).onERC1155BatchReceived(operator, from, ids, values, data) */\n      0x04\n      add\n      tag_344\n      jump\t// in\n    tag_343:\n      0x20\n      mload(0x40)\n      dup1\n      dup4\n      sub\n      dup2\n      0x00\n      dup8\n      gas\n      call\n      swap3\n      pop\n      pop\n      pop\n      dup1\n      iszero\n      tag_345\n      jumpi\n      pop\n      0x40\n      dup1\n      mload\n      0x1f\n      returndatasize\n      swap1\n      dup2\n      add\n      not(0x1f)\n      and\n      dup3\n      add\n      swap1\n      swap3\n      mstore\n      tag_346\n      swap2\n      dup2\n      add\n      swap1\n      tag_328\n      jump\t// in\n    tag_346:\n      0x01\n    tag_345:\n        /* \"@openzeppelin/contracts/token/ERC1155/ERC1155.sol\":15188:15948  try IERC1155Receiver(to).onERC1155BatchReceived(operator, from, ids, values, data) returns (... */\n      tag_347\n      jumpi\n      returndatasize\n      dup1\n      dup1\n      iszero\n      tag_334\n      jumpi\n      mload(0x40)\n      swap2\n      pop\n      and(add(returndatasize, 0x3f), not(0x1f))\n      dup3\n      add\n      0x40\n      mstore\n      returndatasize\n      dup3\n      mstore\n      returndatasize\n      0x00\n      0x20\n      dup5\n      add\n      returndatacopy\n      jump(tag_333)\n    tag_347:\n      not(sub(shl(0xe0, 0x01), 0x01))\n        /* \"@openzeppelin/contracts/token/ERC1155/ERC1155.sol\":15349:15409  response != IERC1155Receiver.onERC1155BatchReceived.selector */\n      dup2\n      and\n      shl(0xe0, 0xbc197c81)\n      eq\n        /* \"@openzeppelin/contracts/token/ERC1155/ERC1155.sol\":15345:15524  if (response != IERC1155Receiver.onERC1155BatchReceived.selector) {... */\n      tag_293\n      jumpi\n        /* \"@openzeppelin/contracts/token/ERC1155/ERC1155.sol\":15479:15505  ERC1155InvalidReceiver(to) */\n      mload(0x40)\n      shl(0xe1, 0x2bfa23e7)\n      dup2\n      mstore\n      sub(shl(0xa0, 0x01), 0x01)\n        /* \"#utility.yul\":16967:16999   */\n      dup7\n      and\n        /* \"@openzeppelin/contracts/token/ERC1155/ERC1155.sol\":15479:15505  ERC1155InvalidReceiver(to) */\n      0x04\n      dup3\n      add\n        /* \"#utility.yul\":16949:17000   */\n      mstore\n        /* \"#utility.yul\":16922:16940   */\n      0x24\n      add\n        /* \"@openzeppelin/contracts/token/ERC1155/ERC1155.sol\":15479:15505  ERC1155InvalidReceiver(to) */\n      tag_134\n        /* \"#utility.yul\":16803:17006   */\n      jump\n        /* \"@openzeppelin/contracts/token/ERC1155/extensions/ERC1155Supply.sol\":1483:3001  function _update(... */\n    tag_321:\n        /* \"@openzeppelin/contracts/token/ERC1155/extensions/ERC1155Supply.sol\":1647:1683  super._update(from, to, ids, values) */\n      tag_360\n        /* \"@openzeppelin/contracts/token/ERC1155/extensions/ERC1155Supply.sol\":1661:1665  from */\n      dup5\n        /* \"@openzeppelin/contracts/token/ERC1155/extensions/ERC1155Supply.sol\":1667:1669  to */\n      dup5\n        /* \"@openzeppelin/contracts/token/ERC1155/extensions/ERC1155Supply.sol\":1671:1674  ids */\n      dup5\n        /* \"@openzeppelin/contracts/token/ERC1155/extensions/ERC1155Supply.sol\":1676:1682  values */\n      dup5\n        /* \"@openzeppelin/contracts/token/ERC1155/extensions/ERC1155Supply.sol\":1647:1660  super._update */\n      tag_361\n        /* \"@openzeppelin/contracts/token/ERC1155/extensions/ERC1155Supply.sol\":1647:1683  super._update(from, to, ids, values) */\n      jump\t// in\n    tag_360:\n      sub(shl(0xa0, 0x01), 0x01)\n        /* \"@openzeppelin/contracts/token/ERC1155/extensions/ERC1155Supply.sol\":1698:1716  from == address(0) */\n      dup5\n      and\n        /* \"@openzeppelin/contracts/token/ERC1155/extensions/ERC1155Supply.sol\":1694:2227  if (from == address(0)) {... */\n      tag_362\n      jumpi\n        /* \"@openzeppelin/contracts/token/ERC1155/extensions/ERC1155Supply.sol\":1732:1754  uint256 totalMintValue */\n      0x00\n        /* \"@openzeppelin/contracts/token/ERC1155/extensions/ERC1155Supply.sol\":1777:1786  uint256 i */\n      dup1\n        /* \"@openzeppelin/contracts/token/ERC1155/extensions/ERC1155Supply.sol\":1772:2065  for (uint256 i = 0; i < ids.length; ++i) {... */\n    tag_363:\n        /* \"@openzeppelin/contracts/token/ERC1155/extensions/ERC1155Supply.sol\":1796:1799  ids */\n      dup4\n        /* \"@openzeppelin/contracts/token/ERC1155/extensions/ERC1155Supply.sol\":1796:1806  ids.length */\n      mload\n        /* \"@openzeppelin/contracts/token/ERC1155/extensions/ERC1155Supply.sol\":1792:1793  i */\n      dup2\n        /* \"@openzeppelin/contracts/token/ERC1155/extensions/ERC1155Supply.sol\":1792:1806  i < ids.length */\n      lt\n        /* \"@openzeppelin/contracts/token/ERC1155/extensions/ERC1155Supply.sol\":1772:2065  for (uint256 i = 0; i < ids.length; ++i) {... */\n      iszero\n      tag_364\n      jumpi\n        /* \"@openzeppelin/contracts/token/ERC1155/extensions/ERC1155Supply.sol\":1831:1844  uint256 value */\n      0x00\n        /* \"@openzeppelin/contracts/token/ERC1155/extensions/ERC1155Supply.sol\":1847:1853  values */\n      dup4\n        /* \"@openzeppelin/contracts/token/ERC1155/extensions/ERC1155Supply.sol\":1854:1855  i */\n      dup3\n        /* \"@openzeppelin/contracts/token/ERC1155/extensions/ERC1155Supply.sol\":1847:1856  values[i] */\n      dup2\n      mload\n      dup2\n      lt\n      tag_367\n      jumpi\n      tag_367\n      tag_188\n      jump\t// in\n    tag_367:\n      0x20\n      mul\n      0x20\n      add\n      add\n      mload\n        /* \"@openzeppelin/contracts/token/ERC1155/extensions/ERC1155Supply.sol\":1831:1856  uint256 value = values[i] */\n      swap1\n      pop\n        /* \"@openzeppelin/contracts/token/ERC1155/extensions/ERC1155Supply.sol\":2004:2009  value */\n      dup1\n        /* \"@openzeppelin/contracts/token/ERC1155/extensions/ERC1155Supply.sol\":1980:1992  _totalSupply */\n      0x03\n        /* \"@openzeppelin/contracts/token/ERC1155/extensions/ERC1155Supply.sol\":1980:2000  _totalSupply[ids[i]] */\n      0x00\n        /* \"@openzeppelin/contracts/token/ERC1155/extensions/ERC1155Supply.sol\":1993:1996  ids */\n      dup8\n        /* \"@openzeppelin/contracts/token/ERC1155/extensions/ERC1155Supply.sol\":1997:1998  i */\n      dup6\n        /* \"@openzeppelin/contracts/token/ERC1155/extensions/ERC1155Supply.sol\":1993:1999  ids[i] */\n      dup2\n      mload\n      dup2\n      lt\n      tag_369\n      jumpi\n      tag_369\n      tag_188\n      jump\t// in\n    tag_369:\n      0x20\n      mul\n      0x20\n      add\n      add\n      mload\n        /* \"@openzeppelin/contracts/token/ERC1155/extensions/ERC1155Supply.sol\":1980:2000  _totalSupply[ids[i]] */\n      dup2\n      mstore\n      0x20\n      add\n      swap1\n      dup2\n      mstore\n      0x20\n      add\n      0x00\n      keccak256\n      0x00\n        /* \"@openzeppelin/contracts/token/ERC1155/extensions/ERC1155Supply.sol\":1980:2009  _totalSupply[ids[i]] += value */\n      dup3\n      dup3\n      sload\n      tag_370\n      swap2\n      swap1\n      tag_240\n      jump\t// in\n    tag_370:\n      swap1\n      swap2\n      sstore\n      pop\n        /* \"@openzeppelin/contracts/token/ERC1155/extensions/ERC1155Supply.sol\":2027:2050  totalMintValue += value */\n      tag_371\n      swap1\n      pop\n        /* \"@openzeppelin/contracts/token/ERC1155/extensions/ERC1155Supply.sol\":2045:2050  value */\n      dup2\n        /* \"@openzeppelin/contracts/token/ERC1155/extensions/ERC1155Supply.sol\":2027:2050  totalMintValue += value */\n      dup5\n      tag_240\n      jump\t// in\n    tag_371:\n      swap3\n      pop\n        /* \"@openzeppelin/contracts/token/ERC1155/extensions/ERC1155Supply.sol\":1813:2065  {... */\n      pop\n        /* \"@openzeppelin/contracts/token/ERC1155/extensions/ERC1155Supply.sol\":1808:1811  ++i */\n      dup1\n      tag_372\n      swap1\n      tag_190\n      jump\t// in\n    tag_372:\n      swap1\n      pop\n        /* \"@openzeppelin/contracts/token/ERC1155/extensions/ERC1155Supply.sol\":1772:2065  for (uint256 i = 0; i < ids.length; ++i) {... */\n      jump(tag_363)\n    tag_364:\n      pop\n        /* \"@openzeppelin/contracts/token/ERC1155/extensions/ERC1155Supply.sol\":2202:2216  totalMintValue */\n      dup1\n        /* \"@openzeppelin/contracts/token/ERC1155/extensions/ERC1155Supply.sol\":2183:2198  _totalSupplyAll */\n      0x04\n      0x00\n        /* \"@openzeppelin/contracts/token/ERC1155/extensions/ERC1155Supply.sol\":2183:2216  _totalSupplyAll += totalMintValue */\n      dup3\n      dup3\n      sload\n      tag_373\n      swap2\n      swap1\n      tag_240\n      jump\t// in\n    tag_373:\n      swap1\n      swap2\n      sstore\n      pop\n      pop\n      pop\n        /* \"@openzeppelin/contracts/token/ERC1155/extensions/ERC1155Supply.sol\":1694:2227  if (from == address(0)) {... */\n    tag_362:\n      sub(shl(0xa0, 0x01), 0x01)\n        /* \"@openzeppelin/contracts/token/ERC1155/extensions/ERC1155Supply.sol\":2241:2257  to == address(0) */\n      dup4\n      and\n        /* \"@openzeppelin/contracts/token/ERC1155/extensions/ERC1155Supply.sol\":2237:2995  if (to == address(0)) {... */\n      tag_137\n      jumpi\n        /* \"@openzeppelin/contracts/token/ERC1155/extensions/ERC1155Supply.sol\":2273:2295  uint256 totalBurnValue */\n      0x00\n        /* \"@openzeppelin/contracts/token/ERC1155/extensions/ERC1155Supply.sol\":2318:2327  uint256 i */\n      dup1\n        /* \"@openzeppelin/contracts/token/ERC1155/extensions/ERC1155Supply.sol\":2313:2772  for (uint256 i = 0; i < ids.length; ++i) {... */\n    tag_375:\n        /* \"@openzeppelin/contracts/token/ERC1155/extensions/ERC1155Supply.sol\":2337:2340  ids */\n      dup4\n        /* \"@openzeppelin/contracts/token/ERC1155/extensions/ERC1155Supply.sol\":2337:2347  ids.length */\n      mload\n        /* \"@openzeppelin/contracts/token/ERC1155/extensions/ERC1155Supply.sol\":2333:2334  i */\n      dup2\n        /* \"@openzeppelin/contracts/token/ERC1155/extensions/ERC1155Supply.sol\":2333:2347  i < ids.length */\n      lt\n        /* \"@openzeppelin/contracts/token/ERC1155/extensions/ERC1155Supply.sol\":2313:2772  for (uint256 i = 0; i < ids.length; ++i) {... */\n      iszero\n      tag_376\n      jumpi\n        /* \"@openzeppelin/contracts/token/ERC1155/extensions/ERC1155Supply.sol\":2372:2385  uint256 value */\n      0x00\n        /* \"@openzeppelin/contracts/token/ERC1155/extensions/ERC1155Supply.sol\":2388:2394  values */\n      dup4\n        /* \"@openzeppelin/contracts/token/ERC1155/extensions/ERC1155Supply.sol\":2395:2396  i */\n      dup3\n        /* \"@openzeppelin/contracts/token/ERC1155/extensions/ERC1155Supply.sol\":2388:2397  values[i] */\n      dup2\n      mload\n      dup2\n      lt\n      tag_379\n      jumpi\n      tag_379\n      tag_188\n      jump\t// in\n    tag_379:\n      0x20\n      mul\n      0x20\n      add\n      add\n      mload\n        /* \"@openzeppelin/contracts/token/ERC1155/extensions/ERC1155Supply.sol\":2372:2397  uint256 value = values[i] */\n      swap1\n      pop\n        /* \"@openzeppelin/contracts/token/ERC1155/extensions/ERC1155Supply.sol\":2578:2583  value */\n      dup1\n        /* \"@openzeppelin/contracts/token/ERC1155/extensions/ERC1155Supply.sol\":2554:2566  _totalSupply */\n      0x03\n        /* \"@openzeppelin/contracts/token/ERC1155/extensions/ERC1155Supply.sol\":2554:2574  _totalSupply[ids[i]] */\n      0x00\n        /* \"@openzeppelin/contracts/token/ERC1155/extensions/ERC1155Supply.sol\":2567:2570  ids */\n      dup8\n        /* \"@openzeppelin/contracts/token/ERC1155/extensions/ERC1155Supply.sol\":2571:2572  i */\n      dup6\n        /* \"@openzeppelin/contracts/token/ERC1155/extensions/ERC1155Supply.sol\":2567:2573  ids[i] */\n      dup2\n      mload\n      dup2\n      lt\n      tag_381\n      jumpi\n      tag_381\n      tag_188\n      jump\t// in\n    tag_381:\n      0x20\n      mul\n      0x20\n      add\n      add\n      mload\n        /* \"@openzeppelin/contracts/token/ERC1155/extensions/ERC1155Supply.sol\":2554:2574  _totalSupply[ids[i]] */\n      dup2\n      mstore\n      0x20\n      add\n      swap1\n      dup2\n      mstore\n      0x20\n      add\n      0x00\n      keccak256\n      0x00\n        /* \"@openzeppelin/contracts/token/ERC1155/extensions/ERC1155Supply.sol\":2554:2583  _totalSupply[ids[i]] -= value */\n      dup3\n      dup3\n      sload\n      sub\n      swap3\n      pop\n      pop\n      dup2\n      swap1\n      sstore\n      pop\n        /* \"@openzeppelin/contracts/token/ERC1155/extensions/ERC1155Supply.sol\":2734:2739  value */\n      dup1\n        /* \"@openzeppelin/contracts/token/ERC1155/extensions/ERC1155Supply.sol\":2716:2739  totalBurnValue += value */\n      dup4\n      add\n      swap3\n      pop\n        /* \"@openzeppelin/contracts/token/ERC1155/extensions/ERC1155Supply.sol\":2354:2772  {... */\n      pop\n        /* \"@openzeppelin/contracts/token/ERC1155/extensions/ERC1155Supply.sol\":2349:2352  ++i */\n      dup1\n      tag_382\n      swap1\n      tag_190\n      jump\t// in\n    tag_382:\n      swap1\n      pop\n        /* \"@openzeppelin/contracts/token/ERC1155/extensions/ERC1155Supply.sol\":2313:2772  for (uint256 i = 0; i < ids.length; ++i) {... */\n      jump(tag_375)\n    tag_376:\n      pop\n        /* \"@openzeppelin/contracts/token/ERC1155/extensions/ERC1155Supply.sol\":2937:2952  _totalSupplyAll */\n      0x04\n        /* \"@openzeppelin/contracts/token/ERC1155/extensions/ERC1155Supply.sol\":2937:2970  _totalSupplyAll -= totalBurnValue */\n      dup1\n      sload\n      swap2\n      swap1\n      swap2\n      sub\n      swap1\n      sstore\n        /* \"@openzeppelin/contracts/token/ERC1155/extensions/ERC1155Supply.sol\":1483:3001  function _update(... */\n      pop\n      pop\n      pop\n      pop\n      jump\t// out\n        /* \"@openzeppelin/contracts/token/ERC1155/ERC1155.sol\":5144:6425  function _update(address from, address to, uint256[] memory ids, uint256[] memory values) internal virtual {... */\n    tag_361:\n        /* \"@openzeppelin/contracts/token/ERC1155/ERC1155.sol\":5279:5285  values */\n      dup1\n        /* \"@openzeppelin/contracts/token/ERC1155/ERC1155.sol\":5279:5292  values.length */\n      mload\n        /* \"@openzeppelin/contracts/token/ERC1155/ERC1155.sol\":5265:5268  ids */\n      dup3\n        /* \"@openzeppelin/contracts/token/ERC1155/ERC1155.sol\":5265:5275  ids.length */\n      mload\n        /* \"@openzeppelin/contracts/token/ERC1155/ERC1155.sol\":5265:5292  ids.length != values.length */\n      eq\n        /* \"@openzeppelin/contracts/token/ERC1155/ERC1155.sol\":5261:5378  if (ids.length != values.length) {... */\n      tag_384\n      jumpi\n        /* \"@openzeppelin/contracts/token/ERC1155/ERC1155.sol\":5341:5351  ids.length */\n      dup2\n      mload\n        /* \"@openzeppelin/contracts/token/ERC1155/ERC1155.sol\":5353:5366  values.length */\n      dup2\n      mload\n        /* \"@openzeppelin/contracts/token/ERC1155/ERC1155.sol\":5315:5367  ERC1155InvalidArrayLength(ids.length, values.length) */\n      mload(0x40)\n      shl(0xe0, 0x5b059991)\n      dup2\n      mstore\n      0x04\n      dup2\n      add\n        /* \"#utility.yul\":15542:15567   */\n      swap3\n      swap1\n      swap3\n      mstore\n        /* \"#utility.yul\":15583:15601   */\n      0x24\n      dup3\n      add\n        /* \"#utility.yul\":15576:15610   */\n      mstore\n        /* \"#utility.yul\":15515:15533   */\n      0x44\n      add\n        /* \"@openzeppelin/contracts/token/ERC1155/ERC1155.sol\":5315:5367  ERC1155InvalidArrayLength(ids.length, values.length) */\n      tag_134\n        /* \"#utility.yul\":15368:15616   */\n      jump\n        /* \"@openzeppelin/contracts/token/ERC1155/ERC1155.sol\":5261:5378  if (ids.length != values.length) {... */\n    tag_384:\n        /* \"@openzeppelin/contracts/utils/Context.sol\":735:745  msg.sender */\n      caller\n        /* \"@openzeppelin/contracts/token/ERC1155/ERC1155.sol\":5388:5404  address operator */\n      0x00\n        /* \"@openzeppelin/contracts/token/ERC1155/ERC1155.sol\":5430:6121  for (uint256 i = 0; i < ids.length; ++i) {... */\n    tag_387:\n        /* \"@openzeppelin/contracts/token/ERC1155/ERC1155.sol\":5454:5457  ids */\n      dup4\n        /* \"@openzeppelin/contracts/token/ERC1155/ERC1155.sol\":5454:5464  ids.length */\n      mload\n        /* \"@openzeppelin/contracts/token/ERC1155/ERC1155.sol\":5450:5451  i */\n      dup2\n        /* \"@openzeppelin/contracts/token/ERC1155/ERC1155.sol\":5450:5464  i < ids.length */\n      lt\n        /* \"@openzeppelin/contracts/token/ERC1155/ERC1155.sol\":5430:6121  for (uint256 i = 0; i < ids.length; ++i) {... */\n      iszero\n      tag_388\n      jumpi\n        /* \"@openzeppelin/contracts/utils/Arrays.sol\":4777:4781  0x20 */\n      0x20\n        /* \"@openzeppelin/contracts/utils/Arrays.sol\":4768:4782  mul(pos, 0x20) */\n      dup2\n      dup2\n      mul\n        /* \"@openzeppelin/contracts/utils/Arrays.sol\":4748:4783  add(add(arr, 0x20), mul(pos, 0x20)) */\n      dup6\n      dup2\n      add\n      dup3\n      add\n        /* \"@openzeppelin/contracts/utils/Arrays.sol\":4742:4784  mload(add(add(arr, 0x20), mul(pos, 0x20))) */\n      mload\n        /* \"@openzeppelin/contracts/utils/Arrays.sol\":4748:4783  add(add(arr, 0x20), mul(pos, 0x20)) */\n      swap1\n      dup6\n      add\n      swap1\n      swap2\n      add\n        /* \"@openzeppelin/contracts/utils/Arrays.sol\":4742:4784  mload(add(add(arr, 0x20), mul(pos, 0x20))) */\n      mload\n      sub(shl(0xa0, 0x01), 0x01)\n        /* \"@openzeppelin/contracts/token/ERC1155/ERC1155.sol\":5600:5618  from != address(0) */\n      dup9\n      and\n      iszero\n        /* \"@openzeppelin/contracts/token/ERC1155/ERC1155.sol\":5596:6016  if (from != address(0)) {... */\n      tag_392\n      jumpi\n        /* \"@openzeppelin/contracts/token/ERC1155/ERC1155.sol\":5638:5657  uint256 fromBalance */\n      0x00\n        /* \"@openzeppelin/contracts/token/ERC1155/ERC1155.sol\":5660:5673  _balances[id] */\n      dup3\n      dup2\n      mstore\n      0x20\n      dup2\n      dup2\n      mstore\n      0x40\n      dup1\n      dup4\n      keccak256\n      sub(shl(0xa0, 0x01), 0x01)\n        /* \"@openzeppelin/contracts/token/ERC1155/ERC1155.sol\":5660:5679  _balances[id][from] */\n      dup13\n      and\n      dup5\n      mstore\n      swap1\n      swap2\n      mstore\n      swap1\n      keccak256\n      sload\n        /* \"@openzeppelin/contracts/token/ERC1155/ERC1155.sol\":5701:5720  fromBalance < value */\n      dup2\n      dup2\n      lt\n        /* \"@openzeppelin/contracts/token/ERC1155/ERC1155.sol\":5697:5826  if (fromBalance < value) {... */\n      iszero\n      tag_393\n      jumpi\n        /* \"@openzeppelin/contracts/token/ERC1155/ERC1155.sol\":5751:5807  ERC1155InsufficientBalance(from, fromBalance, value, id) */\n      mload(0x40)\n      shl(0xe0, 0x03dee4c5)\n      dup2\n      mstore\n      sub(shl(0xa0, 0x01), 0x01)\n        /* \"#utility.yul\":19191:19223   */\n      dup11\n      and\n        /* \"@openzeppelin/contracts/token/ERC1155/ERC1155.sol\":5751:5807  ERC1155InsufficientBalance(from, fromBalance, value, id) */\n      0x04\n      dup3\n      add\n        /* \"#utility.yul\":19173:19224   */\n      mstore\n        /* \"#utility.yul\":19240:19258   */\n      0x24\n      dup2\n      add\n        /* \"#utility.yul\":19233:19267   */\n      dup3\n      swap1\n      mstore\n        /* \"#utility.yul\":19283:19301   */\n      0x44\n      dup2\n      add\n        /* \"#utility.yul\":19276:19310   */\n      dup4\n      swap1\n      mstore\n        /* \"#utility.yul\":19326:19344   */\n      0x64\n      dup2\n      add\n        /* \"#utility.yul\":19319:19353   */\n      dup5\n      swap1\n      mstore\n        /* \"#utility.yul\":19145:19164   */\n      0x84\n      add\n        /* \"@openzeppelin/contracts/token/ERC1155/ERC1155.sol\":5751:5807  ERC1155InsufficientBalance(from, fromBalance, value, id) */\n      tag_134\n        /* \"#utility.yul\":18942:19359   */\n      jump\n        /* \"@openzeppelin/contracts/token/ERC1155/ERC1155.sol\":5697:5826  if (fromBalance < value) {... */\n    tag_393:\n        /* \"@openzeppelin/contracts/token/ERC1155/ERC1155.sol\":5942:5951  _balances */\n      0x00\n        /* \"@openzeppelin/contracts/token/ERC1155/ERC1155.sol\":5942:5955  _balances[id] */\n      dup4\n      dup2\n      mstore\n      0x20\n      dup2\n      dup2\n      mstore\n      0x40\n      dup1\n      dup4\n      keccak256\n      sub(shl(0xa0, 0x01), 0x01)\n        /* \"@openzeppelin/contracts/token/ERC1155/ERC1155.sol\":5942:5961  _balances[id][from] */\n      dup14\n      and\n      dup5\n      mstore\n      swap1\n      swap2\n      mstore\n      swap1\n      keccak256\n        /* \"@openzeppelin/contracts/token/ERC1155/ERC1155.sol\":5964:5983  fromBalance - value */\n      swap1\n      dup3\n      swap1\n      sub\n        /* \"@openzeppelin/contracts/token/ERC1155/ERC1155.sol\":5942:5983  _balances[id][from] = fromBalance - value */\n      swap1\n      sstore\n        /* \"@openzeppelin/contracts/token/ERC1155/ERC1155.sol\":5596:6016  if (from != address(0)) {... */\n    tag_392:\n      sub(shl(0xa0, 0x01), 0x01)\n        /* \"@openzeppelin/contracts/token/ERC1155/ERC1155.sol\":6034:6050  to != address(0) */\n      dup8\n      and\n      iszero\n        /* \"@openzeppelin/contracts/token/ERC1155/ERC1155.sol\":6030:6111  if (to != address(0)) {... */\n      tag_396\n      jumpi\n        /* \"@openzeppelin/contracts/token/ERC1155/ERC1155.sol\":6070:6079  _balances */\n      0x00\n        /* \"@openzeppelin/contracts/token/ERC1155/ERC1155.sol\":6070:6083  _balances[id] */\n      dup3\n      dup2\n      mstore\n      0x20\n      dup2\n      dup2\n      mstore\n      0x40\n      dup1\n      dup4\n      keccak256\n      sub(shl(0xa0, 0x01), 0x01)\n        /* \"@openzeppelin/contracts/token/ERC1155/ERC1155.sol\":6070:6087  _balances[id][to] */\n      dup12\n      and\n      dup5\n      mstore\n      swap1\n      swap2\n      mstore\n      dup2\n      keccak256\n        /* \"@openzeppelin/contracts/token/ERC1155/ERC1155.sol\":6070:6096  _balances[id][to] += value */\n      dup1\n      sload\n        /* \"@openzeppelin/contracts/token/ERC1155/ERC1155.sol\":6091:6096  value */\n      dup4\n      swap3\n        /* \"@openzeppelin/contracts/token/ERC1155/ERC1155.sol\":6070:6079  _balances */\n      swap1\n        /* \"@openzeppelin/contracts/token/ERC1155/ERC1155.sol\":6070:6096  _balances[id][to] += value */\n      tag_397\n      swap1\n        /* \"@openzeppelin/contracts/token/ERC1155/ERC1155.sol\":6091:6096  value */\n      dup5\n      swap1\n        /* \"@openzeppelin/contracts/token/ERC1155/ERC1155.sol\":6070:6096  _balances[id][to] += value */\n      tag_240\n      jump\t// in\n    tag_397:\n      swap1\n      swap2\n      sstore\n      pop\n      pop\n        /* \"@openzeppelin/contracts/token/ERC1155/ERC1155.sol\":6030:6111  if (to != address(0)) {... */\n    tag_396:\n        /* \"@openzeppelin/contracts/token/ERC1155/ERC1155.sol\":5471:6121  {... */\n      pop\n      pop\n        /* \"@openzeppelin/contracts/token/ERC1155/ERC1155.sol\":5466:5469  ++i */\n      dup1\n      tag_398\n      swap1\n      tag_190\n      jump\t// in\n    tag_398:\n      swap1\n      pop\n        /* \"@openzeppelin/contracts/token/ERC1155/ERC1155.sol\":5430:6121  for (uint256 i = 0; i < ids.length; ++i) {... */\n      jump(tag_387)\n    tag_388:\n      pop\n        /* \"@openzeppelin/contracts/token/ERC1155/ERC1155.sol\":6135:6138  ids */\n      dup3\n        /* \"@openzeppelin/contracts/token/ERC1155/ERC1155.sol\":6135:6145  ids.length */\n      mload\n        /* \"@openzeppelin/contracts/token/ERC1155/ERC1155.sol\":6149:6150  1 */\n      0x01\n        /* \"@openzeppelin/contracts/token/ERC1155/ERC1155.sol\":6135:6150  ids.length == 1 */\n      sub\n        /* \"@openzeppelin/contracts/token/ERC1155/ERC1155.sol\":6131:6419  if (ids.length == 1) {... */\n      tag_399\n      jumpi\n        /* \"@openzeppelin/contracts/utils/Arrays.sol\":4777:4781  0x20 */\n      0x20\n        /* \"@openzeppelin/contracts/utils/Arrays.sol\":4748:4783  add(add(arr, 0x20), mul(pos, 0x20)) */\n      dup4\n      add\n        /* \"@openzeppelin/contracts/utils/Arrays.sol\":4742:4784  mload(add(add(arr, 0x20), mul(pos, 0x20))) */\n      mload\n        /* \"@openzeppelin/contracts/token/ERC1155/ERC1155.sol\":6166:6176  uint256 id */\n      0x00\n      swap1\n        /* \"@openzeppelin/contracts/utils/Arrays.sol\":4777:4781  0x20 */\n      0x20\n        /* \"@openzeppelin/contracts/utils/Arrays.sol\":4748:4783  add(add(arr, 0x20), mul(pos, 0x20)) */\n      dup5\n      add\n        /* \"@openzeppelin/contracts/utils/Arrays.sol\":4742:4784  mload(add(add(arr, 0x20), mul(pos, 0x20))) */\n      mload\n        /* \"@openzeppelin/contracts/token/ERC1155/ERC1155.sol\":6166:6204  uint256 id = ids.unsafeMemoryAccess(0) */\n      swap1\n      swap2\n      pop\n        /* \"@openzeppelin/contracts/token/ERC1155/ERC1155.sol\":6312:6314  to */\n      dup6\n      sub(shl(0xa0, 0x01), 0x01)\n        /* \"@openzeppelin/contracts/token/ERC1155/ERC1155.sol\":6281:6326  TransferSingle(operator, from, to, id, value) */\n      and\n        /* \"@openzeppelin/contracts/token/ERC1155/ERC1155.sol\":6306:6310  from */\n      dup8\n      sub(shl(0xa0, 0x01), 0x01)\n        /* \"@openzeppelin/contracts/token/ERC1155/ERC1155.sol\":6281:6326  TransferSingle(operator, from, to, id, value) */\n      and\n        /* \"@openzeppelin/contracts/token/ERC1155/ERC1155.sol\":6296:6304  operator */\n      dup5\n      sub(shl(0xa0, 0x01), 0x01)\n        /* \"@openzeppelin/contracts/token/ERC1155/ERC1155.sol\":6281:6326  TransferSingle(operator, from, to, id, value) */\n      and\n      0xc3d58168c5ae7397731d063d5bbf3d657854427343f4c083240f7aacaa2d0f62\n        /* \"@openzeppelin/contracts/token/ERC1155/ERC1155.sol\":6316:6318  id */\n      dup6\n        /* \"@openzeppelin/contracts/token/ERC1155/ERC1155.sol\":6320:6325  value */\n      dup6\n        /* \"@openzeppelin/contracts/token/ERC1155/ERC1155.sol\":6281:6326  TransferSingle(operator, from, to, id, value) */\n      mload(0x40)\n      tag_402\n      swap3\n      swap2\n      swap1\n        /* \"#utility.yul\":15542:15567   */\n      swap2\n      dup3\n      mstore\n        /* \"#utility.yul\":15598:15600   */\n      0x20\n        /* \"#utility.yul\":15583:15601   */\n      dup3\n      add\n        /* \"#utility.yul\":15576:15610   */\n      mstore\n        /* \"#utility.yul\":15530:15532   */\n      0x40\n        /* \"#utility.yul\":15515:15533   */\n      add\n      swap1\n        /* \"#utility.yul\":15368:15616   */\n      jump\n        /* \"@openzeppelin/contracts/token/ERC1155/ERC1155.sol\":6281:6326  TransferSingle(operator, from, to, id, value) */\n    tag_402:\n      mload(0x40)\n      dup1\n      swap2\n      sub\n      swap1\n      log4\n        /* \"@openzeppelin/contracts/token/ERC1155/ERC1155.sol\":6152:6337  {... */\n      pop\n      pop\n        /* \"@openzeppelin/contracts/token/ERC1155/ERC1155.sol\":6131:6419  if (ids.length == 1) {... */\n      jump(tag_260)\n    tag_399:\n        /* \"@openzeppelin/contracts/token/ERC1155/ERC1155.sol\":6392:6394  to */\n      dup4\n      sub(shl(0xa0, 0x01), 0x01)\n        /* \"@openzeppelin/contracts/token/ERC1155/ERC1155.sol\":6362:6408  TransferBatch(operator, from, to, ids, values) */\n      and\n        /* \"@openzeppelin/contracts/token/ERC1155/ERC1155.sol\":6386:6390  from */\n      dup6\n      sub(shl(0xa0, 0x01), 0x01)\n        /* \"@openzeppelin/contracts/token/ERC1155/ERC1155.sol\":6362:6408  TransferBatch(operator, from, to, ids, values) */\n      and\n        /* \"@openzeppelin/contracts/token/ERC1155/ERC1155.sol\":6376:6384  operator */\n      dup3\n      sub(shl(0xa0, 0x01), 0x01)\n        /* \"@openzeppelin/contracts/token/ERC1155/ERC1155.sol\":6362:6408  TransferBatch(operator, from, to, ids, values) */\n      and\n      0x4a39dc06d4c0dbc64b70af90fd698a233a518aa5d07e595d983b8c0526c8f7fb\n        /* \"@openzeppelin/contracts/token/ERC1155/ERC1155.sol\":6396:6399  ids */\n      dup7\n        /* \"@openzeppelin/contracts/token/ERC1155/ERC1155.sol\":6401:6407  values */\n      dup7\n        /* \"@openzeppelin/contracts/token/ERC1155/ERC1155.sol\":6362:6408  TransferBatch(operator, from, to, ids, values) */\n      mload(0x40)\n      tag_404\n      swap3\n      swap2\n      swap1\n      tag_405\n      jump\t// in\n    tag_404:\n      mload(0x40)\n      dup1\n      swap2\n      sub\n      swap1\n      log4\n        /* \"@openzeppelin/contracts/token/ERC1155/ERC1155.sol\":5251:6425  {... */\n      pop\n        /* \"@openzeppelin/contracts/token/ERC1155/ERC1155.sol\":5144:6425  function _update(address from, address to, uint256[] memory ids, uint256[] memory values) internal virtual {... */\n      pop\n      pop\n      pop\n      pop\n      jump\t// out\n        /* \"#utility.yul\":14:187   */\n    tag_406:\n        /* \"#utility.yul\":82:102   */\n      dup1\n      calldataload\n      sub(shl(0xa0, 0x01), 0x01)\n        /* \"#utility.yul\":131:162   */\n      dup2\n      and\n        /* \"#utility.yul\":121:163   */\n      dup2\n      eq\n        /* \"#utility.yul\":111:181   */\n      tag_423\n      jumpi\n        /* \"#utility.yul\":177:178   */\n      0x00\n        /* \"#utility.yul\":174:175   */\n      dup1\n        /* \"#utility.yul\":167:179   */\n      revert\n        /* \"#utility.yul\":111:181   */\n    tag_423:\n        /* \"#utility.yul\":14:187   */\n      swap2\n      swap1\n      pop\n      jump\t// out\n        /* \"#utility.yul\":192:446   */\n    tag_29:\n        /* \"#utility.yul\":260:266   */\n      0x00\n        /* \"#utility.yul\":268:274   */\n      dup1\n        /* \"#utility.yul\":321:323   */\n      0x40\n        /* \"#utility.yul\":309:318   */\n      dup4\n        /* \"#utility.yul\":300:307   */\n      dup6\n        /* \"#utility.yul\":296:319   */\n      sub\n        /* \"#utility.yul\":292:324   */\n      slt\n        /* \"#utility.yul\":289:341   */\n      iszero\n      tag_425\n      jumpi\n        /* \"#utility.yul\":337:338   */\n      0x00\n        /* \"#utility.yul\":334:335   */\n      dup1\n        /* \"#utility.yul\":327:339   */\n      revert\n        /* \"#utility.yul\":289:341   */\n    tag_425:\n        /* \"#utility.yul\":360:389   */\n      tag_426\n        /* \"#utility.yul\":379:388   */\n      dup4\n        /* \"#utility.yul\":360:389   */\n      tag_406\n      jump\t// in\n    tag_426:\n        /* \"#utility.yul\":350:389   */\n      swap5\n        /* \"#utility.yul\":436:438   */\n      0x20\n        /* \"#utility.yul\":421:439   */\n      swap4\n      swap1\n      swap4\n      add\n        /* \"#utility.yul\":408:440   */\n      calldataload\n      swap4\n      pop\n      pop\n      pop\n        /* \"#utility.yul\":192:446   */\n      jump\t// out\n        /* \"#utility.yul\":633:764   */\n    tag_407:\n      not(sub(shl(0xe0, 0x01), 0x01))\n        /* \"#utility.yul\":707:739   */\n      dup2\n      and\n        /* \"#utility.yul\":697:740   */\n      dup2\n      eq\n        /* \"#utility.yul\":687:758   */\n      tag_262\n      jumpi\n        /* \"#utility.yul\":754:755   */\n      0x00\n        /* \"#utility.yul\":751:752   */\n      dup1\n        /* \"#utility.yul\":744:756   */\n      revert\n        /* \"#utility.yul\":769:1014   */\n    tag_35:\n        /* \"#utility.yul\":827:833   */\n      0x00\n        /* \"#utility.yul\":880:882   */\n      0x20\n        /* \"#utility.yul\":868:877   */\n      dup3\n        /* \"#utility.yul\":859:866   */\n      dup5\n        /* \"#utility.yul\":855:878   */\n      sub\n        /* \"#utility.yul\":851:883   */\n      slt\n        /* \"#utility.yul\":848:900   */\n      iszero\n      tag_431\n      jumpi\n        /* \"#utility.yul\":896:897   */\n      0x00\n        /* \"#utility.yul\":893:894   */\n      dup1\n        /* \"#utility.yul\":886:898   */\n      revert\n        /* \"#utility.yul\":848:900   */\n    tag_431:\n        /* \"#utility.yul\":935:944   */\n      dup2\n        /* \"#utility.yul\":922:945   */\n      calldataload\n        /* \"#utility.yul\":954:984   */\n      tag_432\n        /* \"#utility.yul\":978:983   */\n      dup2\n        /* \"#utility.yul\":954:984   */\n      tag_407\n      jump\t// in\n    tag_432:\n        /* \"#utility.yul\":1003:1008   */\n      swap4\n        /* \"#utility.yul\":769:1014   */\n      swap3\n      pop\n      pop\n      pop\n      jump\t// out\n        /* \"#utility.yul\":1211:1391   */\n    tag_41:\n        /* \"#utility.yul\":1270:1276   */\n      0x00\n        /* \"#utility.yul\":1323:1325   */\n      0x20\n        /* \"#utility.yul\":1311:1320   */\n      dup3\n        /* \"#utility.yul\":1302:1309   */\n      dup5\n        /* \"#utility.yul\":1298:1321   */\n      sub\n        /* \"#utility.yul\":1294:1326   */\n      slt\n        /* \"#utility.yul\":1291:1343   */\n      iszero\n      tag_435\n      jumpi\n        /* \"#utility.yul\":1339:1340   */\n      0x00\n        /* \"#utility.yul\":1336:1337   */\n      dup1\n        /* \"#utility.yul\":1329:1341   */\n      revert\n        /* \"#utility.yul\":1291:1343   */\n    tag_435:\n      pop\n        /* \"#utility.yul\":1362:1385   */\n      calldataload\n      swap2\n        /* \"#utility.yul\":1211:1391   */\n      swap1\n      pop\n      jump\t// out\n        /* \"#utility.yul\":1396:1646   */\n    tag_408:\n        /* \"#utility.yul\":1481:1482   */\n      0x00\n        /* \"#utility.yul\":1491:1604   */\n    tag_437:\n        /* \"#utility.yul\":1505:1511   */\n      dup4\n        /* \"#utility.yul\":1502:1503   */\n      dup2\n        /* \"#utility.yul\":1499:1512   */\n      lt\n        /* \"#utility.yul\":1491:1604   */\n      iszero\n      tag_439\n      jumpi\n        /* \"#utility.yul\":1581:1592   */\n      dup2\n      dup2\n      add\n        /* \"#utility.yul\":1575:1593   */\n      mload\n        /* \"#utility.yul\":1562:1573   */\n      dup4\n      dup3\n      add\n        /* \"#utility.yul\":1555:1594   */\n      mstore\n        /* \"#utility.yul\":1527:1529   */\n      0x20\n        /* \"#utility.yul\":1520:1530   */\n      add\n        /* \"#utility.yul\":1491:1604   */\n      jump(tag_437)\n    tag_439:\n      pop\n      pop\n        /* \"#utility.yul\":1638:1639   */\n      0x00\n        /* \"#utility.yul\":1620:1636   */\n      swap2\n      add\n        /* \"#utility.yul\":1613:1640   */\n      mstore\n        /* \"#utility.yul\":1396:1646   */\n      jump\t// out\n        /* \"#utility.yul\":1651:1922   */\n    tag_409:\n        /* \"#utility.yul\":1693:1696   */\n      0x00\n        /* \"#utility.yul\":1731:1736   */\n      dup2\n        /* \"#utility.yul\":1725:1737   */\n      mload\n        /* \"#utility.yul\":1758:1764   */\n      dup1\n        /* \"#utility.yul\":1753:1756   */\n      dup5\n        /* \"#utility.yul\":1746:1765   */\n      mstore\n        /* \"#utility.yul\":1774:1850   */\n      tag_441\n        /* \"#utility.yul\":1843:1849   */\n      dup2\n        /* \"#utility.yul\":1836:1840   */\n      0x20\n        /* \"#utility.yul\":1831:1834   */\n      dup7\n        /* \"#utility.yul\":1827:1841   */\n      add\n        /* \"#utility.yul\":1820:1824   */\n      0x20\n        /* \"#utility.yul\":1813:1818   */\n      dup7\n        /* \"#utility.yul\":1809:1825   */\n      add\n        /* \"#utility.yul\":1774:1850   */\n      tag_408\n      jump\t// in\n    tag_441:\n        /* \"#utility.yul\":1904:1906   */\n      0x1f\n        /* \"#utility.yul\":1883:1898   */\n      add\n      not(0x1f)\n        /* \"#utility.yul\":1879:1908   */\n      and\n        /* \"#utility.yul\":1870:1909   */\n      swap3\n      swap1\n      swap3\n      add\n        /* \"#utility.yul\":1911:1915   */\n      0x20\n        /* \"#utility.yul\":1866:1916   */\n      add\n      swap3\n        /* \"#utility.yul\":1651:1922   */\n      swap2\n      pop\n      pop\n      jump\t// out\n        /* \"#utility.yul\":1927:2147   */\n    tag_44:\n        /* \"#utility.yul\":2076:2078   */\n      0x20\n        /* \"#utility.yul\":2065:2074   */\n      dup2\n        /* \"#utility.yul\":2058:2079   */\n      mstore\n        /* \"#utility.yul\":2039:2043   */\n      0x00\n        /* \"#utility.yul\":2096:2141   */\n      tag_432\n        /* \"#utility.yul\":2137:2139   */\n      0x20\n        /* \"#utility.yul\":2126:2135   */\n      dup4\n        /* \"#utility.yul\":2122:2140   */\n      add\n        /* \"#utility.yul\":2114:2120   */\n      dup5\n        /* \"#utility.yul\":2096:2141   */\n      tag_409\n      jump\t// in\n        /* \"#utility.yul\":2152:2279   */\n    tag_176:\n        /* \"#utility.yul\":2213:2223   */\n      0x4e487b71\n        /* \"#utility.yul\":2208:2211   */\n      0xe0\n        /* \"#utility.yul\":2204:2224   */\n      shl\n        /* \"#utility.yul\":2201:2202   */\n      0x00\n        /* \"#utility.yul\":2194:2225   */\n      mstore\n        /* \"#utility.yul\":2244:2248   */\n      0x41\n        /* \"#utility.yul\":2241:2242   */\n      0x04\n        /* \"#utility.yul\":2234:2249   */\n      mstore\n        /* \"#utility.yul\":2268:2272   */\n      0x24\n        /* \"#utility.yul\":2265:2266   */\n      0x00\n        /* \"#utility.yul\":2258:2273   */\n      revert\n        /* \"#utility.yul\":2284:2559   */\n    tag_410:\n        /* \"#utility.yul\":2355:2357   */\n      0x40\n        /* \"#utility.yul\":2349:2358   */\n      mload\n        /* \"#utility.yul\":2420:2422   */\n      0x1f\n        /* \"#utility.yul\":2401:2414   */\n      dup3\n      add\n      not(0x1f)\n        /* \"#utility.yul\":2397:2424   */\n      and\n        /* \"#utility.yul\":2385:2425   */\n      dup2\n      add\n        /* \"#utility.yul\":2455:2473   */\n      0xffffffffffffffff\n        /* \"#utility.yul\":2440:2474   */\n      dup2\n      gt\n        /* \"#utility.yul\":2476:2498   */\n      dup3\n      dup3\n      lt\n        /* \"#utility.yul\":2437:2499   */\n      or\n        /* \"#utility.yul\":2434:2522   */\n      iszero\n      tag_447\n      jumpi\n        /* \"#utility.yul\":2502:2520   */\n      tag_447\n      tag_176\n      jump\t// in\n    tag_447:\n        /* \"#utility.yul\":2538:2540   */\n      0x40\n        /* \"#utility.yul\":2531:2553   */\n      mstore\n        /* \"#utility.yul\":2284:2559   */\n      swap2\n      swap1\n      pop\n      jump\t// out\n        /* \"#utility.yul\":2564:2747   */\n    tag_411:\n        /* \"#utility.yul\":2624:2628   */\n      0x00\n        /* \"#utility.yul\":2657:2675   */\n      0xffffffffffffffff\n        /* \"#utility.yul\":2649:2655   */\n      dup3\n        /* \"#utility.yul\":2646:2676   */\n      gt\n        /* \"#utility.yul\":2643:2699   */\n      iszero\n      tag_450\n      jumpi\n        /* \"#utility.yul\":2679:2697   */\n      tag_450\n      tag_176\n      jump\t// in\n    tag_450:\n      pop\n        /* \"#utility.yul\":2724:2725   */\n      0x05\n        /* \"#utility.yul\":2720:2734   */\n      shl\n        /* \"#utility.yul\":2736:2740   */\n      0x20\n        /* \"#utility.yul\":2716:2741   */\n      add\n      swap1\n        /* \"#utility.yul\":2564:2747   */\n      jump\t// out\n        /* \"#utility.yul\":2752:3414   */\n    tag_412:\n        /* \"#utility.yul\":2806:2811   */\n      0x00\n        /* \"#utility.yul\":2859:2862   */\n      dup3\n        /* \"#utility.yul\":2852:2856   */\n      0x1f\n        /* \"#utility.yul\":2844:2850   */\n      dup4\n        /* \"#utility.yul\":2840:2857   */\n      add\n        /* \"#utility.yul\":2836:2863   */\n      slt\n        /* \"#utility.yul\":2826:2881   */\n      tag_452\n      jumpi\n        /* \"#utility.yul\":2877:2878   */\n      0x00\n        /* \"#utility.yul\":2874:2875   */\n      dup1\n        /* \"#utility.yul\":2867:2879   */\n      revert\n        /* \"#utility.yul\":2826:2881   */\n    tag_452:\n        /* \"#utility.yul\":2913:2919   */\n      dup2\n        /* \"#utility.yul\":2900:2920   */\n      calldataload\n        /* \"#utility.yul\":2939:2943   */\n      0x20\n        /* \"#utility.yul\":2963:3023   */\n      tag_453\n        /* \"#utility.yul\":2979:3022   */\n      tag_454\n        /* \"#utility.yul\":3019:3021   */\n      dup4\n        /* \"#utility.yul\":2979:3022   */\n      tag_411\n      jump\t// in\n    tag_454:\n        /* \"#utility.yul\":2963:3023   */\n      tag_410\n      jump\t// in\n    tag_453:\n        /* \"#utility.yul\":3057:3072   */\n      dup3\n      dup2\n      mstore\n        /* \"#utility.yul\":3143:3144   */\n      0x05\n        /* \"#utility.yul\":3139:3149   */\n      swap3\n      swap1\n      swap3\n      shl\n        /* \"#utility.yul\":3127:3150   */\n      dup5\n      add\n        /* \"#utility.yul\":3123:3155   */\n      dup2\n      add\n      swap2\n        /* \"#utility.yul\":3088:3100   */\n      dup2\n      dup2\n      add\n      swap1\n        /* \"#utility.yul\":3167:3182   */\n      dup7\n      dup5\n      gt\n        /* \"#utility.yul\":3164:3199   */\n      iszero\n      tag_455\n      jumpi\n        /* \"#utility.yul\":3195:3196   */\n      0x00\n        /* \"#utility.yul\":3192:3193   */\n      dup1\n        /* \"#utility.yul\":3185:3197   */\n      revert\n        /* \"#utility.yul\":3164:3199   */\n    tag_455:\n        /* \"#utility.yul\":3231:3233   */\n      dup3\n        /* \"#utility.yul\":3223:3229   */\n      dup7\n        /* \"#utility.yul\":3219:3234   */\n      add\n        /* \"#utility.yul\":3243:3385   */\n    tag_456:\n        /* \"#utility.yul\":3259:3265   */\n      dup5\n        /* \"#utility.yul\":3254:3257   */\n      dup2\n        /* \"#utility.yul\":3251:3266   */\n      lt\n        /* \"#utility.yul\":3243:3385   */\n      iszero\n      tag_458\n      jumpi\n        /* \"#utility.yul\":3325:3342   */\n      dup1\n      calldataload\n        /* \"#utility.yul\":3313:3343   */\n      dup4\n      mstore\n        /* \"#utility.yul\":3363:3375   */\n      swap2\n      dup4\n      add\n      swap2\n        /* \"#utility.yul\":3276:3288   */\n      dup4\n      add\n        /* \"#utility.yul\":3243:3385   */\n      jump(tag_456)\n    tag_458:\n      pop\n        /* \"#utility.yul\":3403:3408   */\n      swap7\n        /* \"#utility.yul\":2752:3414   */\n      swap6\n      pop\n      pop\n      pop\n      pop\n      pop\n      pop\n      jump\t// out\n        /* \"#utility.yul\":3419:3825   */\n    tag_413:\n        /* \"#utility.yul\":3483:3488   */\n      0x00\n        /* \"#utility.yul\":3517:3535   */\n      0xffffffffffffffff\n        /* \"#utility.yul\":3509:3515   */\n      dup4\n        /* \"#utility.yul\":3506:3536   */\n      gt\n        /* \"#utility.yul\":3503:3559   */\n      iszero\n      tag_461\n      jumpi\n        /* \"#utility.yul\":3539:3557   */\n      tag_461\n      tag_176\n      jump\t// in\n    tag_461:\n        /* \"#utility.yul\":3577:3634   */\n      tag_462\n        /* \"#utility.yul\":3622:3624   */\n      0x1f\n        /* \"#utility.yul\":3601:3616   */\n      dup5\n      add\n      not(0x1f)\n        /* \"#utility.yul\":3597:3626   */\n      and\n        /* \"#utility.yul\":3628:3632   */\n      0x20\n        /* \"#utility.yul\":3593:3633   */\n      add\n        /* \"#utility.yul\":3577:3634   */\n      tag_410\n      jump\t// in\n    tag_462:\n        /* \"#utility.yul\":3568:3634   */\n      swap1\n      pop\n        /* \"#utility.yul\":3657:3663   */\n      dup3\n        /* \"#utility.yul\":3650:3655   */\n      dup2\n        /* \"#utility.yul\":3643:3664   */\n      mstore\n        /* \"#utility.yul\":3697:3700   */\n      dup4\n        /* \"#utility.yul\":3688:3694   */\n      dup4\n        /* \"#utility.yul\":3683:3686   */\n      dup4\n        /* \"#utility.yul\":3679:3695   */\n      add\n        /* \"#utility.yul\":3676:3701   */\n      gt\n        /* \"#utility.yul\":3673:3718   */\n      iszero\n      tag_463\n      jumpi\n        /* \"#utility.yul\":3714:3715   */\n      0x00\n        /* \"#utility.yul\":3711:3712   */\n      dup1\n        /* \"#utility.yul\":3704:3716   */\n      revert\n        /* \"#utility.yul\":3673:3718   */\n    tag_463:\n        /* \"#utility.yul\":3763:3769   */\n      dup3\n        /* \"#utility.yul\":3758:3761   */\n      dup3\n        /* \"#utility.yul\":3751:3755   */\n      0x20\n        /* \"#utility.yul\":3744:3749   */\n      dup4\n        /* \"#utility.yul\":3740:3756   */\n      add\n        /* \"#utility.yul\":3727:3770   */\n      calldatacopy\n        /* \"#utility.yul\":3817:3818   */\n      0x00\n        /* \"#utility.yul\":3810:3814   */\n      0x20\n        /* \"#utility.yul\":3801:3807   */\n      dup5\n        /* \"#utility.yul\":3794:3799   */\n      dup4\n        /* \"#utility.yul\":3790:3808   */\n      add\n        /* \"#utility.yul\":3786:3815   */\n      add\n        /* \"#utility.yul\":3779:3819   */\n      mstore\n        /* \"#utility.yul\":3419:3825   */\n      swap4\n      swap3\n      pop\n      pop\n      pop\n      jump\t// out\n        /* \"#utility.yul\":3830:4050   */\n    tag_414:\n        /* \"#utility.yul\":3872:3877   */\n      0x00\n        /* \"#utility.yul\":3925:3928   */\n      dup3\n        /* \"#utility.yul\":3918:3922   */\n      0x1f\n        /* \"#utility.yul\":3910:3916   */\n      dup4\n        /* \"#utility.yul\":3906:3923   */\n      add\n        /* \"#utility.yul\":3902:3929   */\n      slt\n        /* \"#utility.yul\":3892:3947   */\n      tag_465\n      jumpi\n        /* \"#utility.yul\":3943:3944   */\n      0x00\n        /* \"#utility.yul\":3940:3941   */\n      dup1\n        /* \"#utility.yul\":3933:3945   */\n      revert\n        /* \"#utility.yul\":3892:3947   */\n    tag_465:\n        /* \"#utility.yul\":3965:4044   */\n      tag_432\n        /* \"#utility.yul\":4040:4043   */\n      dup4\n        /* \"#utility.yul\":4031:4037   */\n      dup4\n        /* \"#utility.yul\":4018:4038   */\n      calldataload\n        /* \"#utility.yul\":4011:4015   */\n      0x20\n        /* \"#utility.yul\":4003:4009   */\n      dup6\n        /* \"#utility.yul\":3999:4016   */\n      add\n        /* \"#utility.yul\":3965:4044   */\n      tag_413\n      jump\t// in\n        /* \"#utility.yul\":4055:4923   */\n    tag_50:\n        /* \"#utility.yul\":4200:4206   */\n      0x00\n        /* \"#utility.yul\":4208:4214   */\n      dup1\n        /* \"#utility.yul\":4216:4222   */\n      0x00\n        /* \"#utility.yul\":4224:4230   */\n      dup1\n        /* \"#utility.yul\":4277:4280   */\n      0x80\n        /* \"#utility.yul\":4265:4274   */\n      dup6\n        /* \"#utility.yul\":4256:4263   */\n      dup8\n        /* \"#utility.yul\":4252:4275   */\n      sub\n        /* \"#utility.yul\":4248:4281   */\n      slt\n        /* \"#utility.yul\":4245:4298   */\n      iszero\n      tag_468\n      jumpi\n        /* \"#utility.yul\":4294:4295   */\n      0x00\n        /* \"#utility.yul\":4291:4292   */\n      dup1\n        /* \"#utility.yul\":4284:4296   */\n      revert\n        /* \"#utility.yul\":4245:4298   */\n    tag_468:\n        /* \"#utility.yul\":4317:4346   */\n      tag_469\n        /* \"#utility.yul\":4336:4345   */\n      dup6\n        /* \"#utility.yul\":4317:4346   */\n      tag_406\n      jump\t// in\n    tag_469:\n        /* \"#utility.yul\":4307:4346   */\n      swap4\n      pop\n        /* \"#utility.yul\":4397:4399   */\n      0x20\n        /* \"#utility.yul\":4386:4395   */\n      dup6\n        /* \"#utility.yul\":4382:4400   */\n      add\n        /* \"#utility.yul\":4369:4401   */\n      calldataload\n        /* \"#utility.yul\":4420:4438   */\n      0xffffffffffffffff\n        /* \"#utility.yul\":4461:4463   */\n      dup1\n        /* \"#utility.yul\":4453:4459   */\n      dup3\n        /* \"#utility.yul\":4450:4464   */\n      gt\n        /* \"#utility.yul\":4447:4481   */\n      iszero\n      tag_470\n      jumpi\n        /* \"#utility.yul\":4477:4478   */\n      0x00\n        /* \"#utility.yul\":4474:4475   */\n      dup1\n        /* \"#utility.yul\":4467:4479   */\n      revert\n        /* \"#utility.yul\":4447:4481   */\n    tag_470:\n        /* \"#utility.yul\":4500:4561   */\n      tag_471\n        /* \"#utility.yul\":4553:4560   */\n      dup9\n        /* \"#utility.yul\":4544:4550   */\n      dup4\n        /* \"#utility.yul\":4533:4542   */\n      dup10\n        /* \"#utility.yul\":4529:4551   */\n      add\n        /* \"#utility.yul\":4500:4561   */\n      tag_412\n      jump\t// in\n    tag_471:\n        /* \"#utility.yul\":4490:4561   */\n      swap5\n      pop\n        /* \"#utility.yul\":4614:4616   */\n      0x40\n        /* \"#utility.yul\":4603:4612   */\n      dup8\n        /* \"#utility.yul\":4599:4617   */\n      add\n        /* \"#utility.yul\":4586:4618   */\n      calldataload\n        /* \"#utility.yul\":4570:4618   */\n      swap2\n      pop\n        /* \"#utility.yul\":4643:4645   */\n      dup1\n        /* \"#utility.yul\":4633:4641   */\n      dup3\n        /* \"#utility.yul\":4630:4646   */\n      gt\n        /* \"#utility.yul\":4627:4663   */\n      iszero\n      tag_472\n      jumpi\n        /* \"#utility.yul\":4659:4660   */\n      0x00\n        /* \"#utility.yul\":4656:4657   */\n      dup1\n        /* \"#utility.yul\":4649:4661   */\n      revert\n        /* \"#utility.yul\":4627:4663   */\n    tag_472:\n        /* \"#utility.yul\":4682:4745   */\n      tag_473\n        /* \"#utility.yul\":4737:4744   */\n      dup9\n        /* \"#utility.yul\":4726:4734   */\n      dup4\n        /* \"#utility.yul\":4715:4724   */\n      dup10\n        /* \"#utility.yul\":4711:4735   */\n      add\n        /* \"#utility.yul\":4682:4745   */\n      tag_412\n      jump\t// in\n    tag_473:\n        /* \"#utility.yul\":4672:4745   */\n      swap4\n      pop\n        /* \"#utility.yul\":4798:4800   */\n      0x60\n        /* \"#utility.yul\":4787:4796   */\n      dup8\n        /* \"#utility.yul\":4783:4801   */\n      add\n        /* \"#utility.yul\":4770:4802   */\n      calldataload\n        /* \"#utility.yul\":4754:4802   */\n      swap2\n      pop\n        /* \"#utility.yul\":4827:4829   */\n      dup1\n        /* \"#utility.yul\":4817:4825   */\n      dup3\n        /* \"#utility.yul\":4814:4830   */\n      gt\n        /* \"#utility.yul\":4811:4847   */\n      iszero\n      tag_474\n      jumpi\n        /* \"#utility.yul\":4843:4844   */\n      0x00\n        /* \"#utility.yul\":4840:4841   */\n      dup1\n        /* \"#utility.yul\":4833:4845   */\n      revert\n        /* \"#utility.yul\":4811:4847   */\n    tag_474:\n      pop\n        /* \"#utility.yul\":4866:4917   */\n      tag_475\n        /* \"#utility.yul\":4909:4916   */\n      dup8\n        /* \"#utility.yul\":4898:4906   */\n      dup3\n        /* \"#utility.yul\":4887:4896   */\n      dup9\n        /* \"#utility.yul\":4883:4907   */\n      add\n        /* \"#utility.yul\":4866:4917   */\n      tag_414\n      jump\t// in\n    tag_475:\n        /* \"#utility.yul\":4856:4917   */\n      swap2\n      pop\n      pop\n        /* \"#utility.yul\":4055:4923   */\n      swap3\n      swap6\n      swap2\n      swap5\n      pop\n      swap3\n      pop\n      jump\t// out\n        /* \"#utility.yul\":5295:6238   */\n    tag_60:\n        /* \"#utility.yul\":5449:5455   */\n      0x00\n        /* \"#utility.yul\":5457:5463   */\n      dup1\n        /* \"#utility.yul\":5465:5471   */\n      0x00\n        /* \"#utility.yul\":5473:5479   */\n      dup1\n        /* \"#utility.yul\":5481:5487   */\n      0x00\n        /* \"#utility.yul\":5534:5537   */\n      0xa0\n        /* \"#utility.yul\":5522:5531   */\n      dup7\n        /* \"#utility.yul\":5513:5520   */\n      dup9\n        /* \"#utility.yul\":5509:5532   */\n      sub\n        /* \"#utility.yul\":5505:5538   */\n      slt\n        /* \"#utility.yul\":5502:5555   */\n      iszero\n      tag_480\n      jumpi\n        /* \"#utility.yul\":5551:5552   */\n      0x00\n        /* \"#utility.yul\":5548:5549   */\n      dup1\n        /* \"#utility.yul\":5541:5553   */\n      revert\n        /* \"#utility.yul\":5502:5555   */\n    tag_480:\n        /* \"#utility.yul\":5574:5603   */\n      tag_481\n        /* \"#utility.yul\":5593:5602   */\n      dup7\n        /* \"#utility.yul\":5574:5603   */\n      tag_406\n      jump\t// in\n    tag_481:\n        /* \"#utility.yul\":5564:5603   */\n      swap5\n      pop\n        /* \"#utility.yul\":5622:5660   */\n      tag_482\n        /* \"#utility.yul\":5656:5658   */\n      0x20\n        /* \"#utility.yul\":5645:5654   */\n      dup8\n        /* \"#utility.yul\":5641:5659   */\n      add\n        /* \"#utility.yul\":5622:5660   */\n      tag_406\n      jump\t// in\n    tag_482:\n        /* \"#utility.yul\":5612:5660   */\n      swap4\n      pop\n        /* \"#utility.yul\":5711:5713   */\n      0x40\n        /* \"#utility.yul\":5700:5709   */\n      dup7\n        /* \"#utility.yul\":5696:5714   */\n      add\n        /* \"#utility.yul\":5683:5715   */\n      calldataload\n        /* \"#utility.yul\":5734:5752   */\n      0xffffffffffffffff\n        /* \"#utility.yul\":5775:5777   */\n      dup1\n        /* \"#utility.yul\":5767:5773   */\n      dup3\n        /* \"#utility.yul\":5764:5778   */\n      gt\n        /* \"#utility.yul\":5761:5795   */\n      iszero\n      tag_483\n      jumpi\n        /* \"#utility.yul\":5791:5792   */\n      0x00\n        /* \"#utility.yul\":5788:5789   */\n      dup1\n        /* \"#utility.yul\":5781:5793   */\n      revert\n        /* \"#utility.yul\":5761:5795   */\n    tag_483:\n        /* \"#utility.yul\":5814:5875   */\n      tag_484\n        /* \"#utility.yul\":5867:5874   */\n      dup10\n        /* \"#utility.yul\":5858:5864   */\n      dup4\n        /* \"#utility.yul\":5847:5856   */\n      dup11\n        /* \"#utility.yul\":5843:5865   */\n      add\n        /* \"#utility.yul\":5814:5875   */\n      tag_412\n      jump\t// in\n    tag_484:\n        /* \"#utility.yul\":5804:5875   */\n      swap5\n      pop\n        /* \"#utility.yul\":5928:5930   */\n      0x60\n        /* \"#utility.yul\":5917:5926   */\n      dup9\n        /* \"#utility.yul\":5913:5931   */\n      add\n        /* \"#utility.yul\":5900:5932   */\n      calldataload\n        /* \"#utility.yul\":5884:5932   */\n      swap2\n      pop\n        /* \"#utility.yul\":5957:5959   */\n      dup1\n        /* \"#utility.yul\":5947:5955   */\n      dup3\n        /* \"#utility.yul\":5944:5960   */\n      gt\n        /* \"#utility.yul\":5941:5977   */\n      iszero\n      tag_485\n      jumpi\n        /* \"#utility.yul\":5973:5974   */\n      0x00\n        /* \"#utility.yul\":5970:5971   */\n      dup1\n        /* \"#utility.yul\":5963:5975   */\n      revert\n        /* \"#utility.yul\":5941:5977   */\n    tag_485:\n        /* \"#utility.yul\":5996:6059   */\n      tag_486\n        /* \"#utility.yul\":6051:6058   */\n      dup10\n        /* \"#utility.yul\":6040:6048   */\n      dup4\n        /* \"#utility.yul\":6029:6038   */\n      dup11\n        /* \"#utility.yul\":6025:6049   */\n      add\n        /* \"#utility.yul\":5996:6059   */\n      tag_412\n      jump\t// in\n    tag_486:\n        /* \"#utility.yul\":5986:6059   */\n      swap4\n      pop\n        /* \"#utility.yul\":6112:6115   */\n      0x80\n        /* \"#utility.yul\":6101:6110   */\n      dup9\n        /* \"#utility.yul\":6097:6116   */\n      add\n        /* \"#utility.yul\":6084:6117   */\n      calldataload\n        /* \"#utility.yul\":6068:6117   */\n      swap2\n      pop\n        /* \"#utility.yul\":6142:6144   */\n      dup1\n        /* \"#utility.yul\":6132:6140   */\n      dup3\n        /* \"#utility.yul\":6129:6145   */\n      gt\n        /* \"#utility.yul\":6126:6162   */\n      iszero\n      tag_487\n      jumpi\n        /* \"#utility.yul\":6158:6159   */\n      0x00\n        /* \"#utility.yul\":6155:6156   */\n      dup1\n        /* \"#utility.yul\":6148:6160   */\n      revert\n        /* \"#utility.yul\":6126:6162   */\n    tag_487:\n      pop\n        /* \"#utility.yul\":6181:6232   */\n      tag_488\n        /* \"#utility.yul\":6224:6231   */\n      dup9\n        /* \"#utility.yul\":6213:6221   */\n      dup3\n        /* \"#utility.yul\":6202:6211   */\n      dup10\n        /* \"#utility.yul\":6198:6222   */\n      add\n        /* \"#utility.yul\":6181:6232   */\n      tag_414\n      jump\t// in\n    tag_488:\n        /* \"#utility.yul\":6171:6232   */\n      swap2\n      pop\n      pop\n        /* \"#utility.yul\":5295:6238   */\n      swap3\n      swap6\n      pop\n      swap3\n      swap6\n      swap1\n      swap4\n      pop\n      jump\t// out\n        /* \"#utility.yul\":6243:6497   */\n    tag_64:\n        /* \"#utility.yul\":6311:6317   */\n      0x00\n        /* \"#utility.yul\":6319:6325   */\n      dup1\n        /* \"#utility.yul\":6372:6374   */\n      0x40\n        /* \"#utility.yul\":6360:6369   */\n      dup4\n        /* \"#utility.yul\":6351:6358   */\n      dup6\n        /* \"#utility.yul\":6347:6370   */\n      sub\n        /* \"#utility.yul\":6343:6375   */\n      slt\n        /* \"#utility.yul\":6340:6392   */\n      iszero\n      tag_490\n      jumpi\n        /* \"#utility.yul\":6388:6389   */\n      0x00\n        /* \"#utility.yul\":6385:6386   */\n      dup1\n        /* \"#utility.yul\":6378:6390   */\n      revert\n        /* \"#utility.yul\":6340:6392   */\n    tag_490:\n        /* \"#utility.yul\":6424:6433   */\n      dup3\n        /* \"#utility.yul\":6411:6434   */\n      calldataload\n        /* \"#utility.yul\":6401:6434   */\n      swap2\n      pop\n        /* \"#utility.yul\":6453:6491   */\n      tag_491\n        /* \"#utility.yul\":6487:6489   */\n      0x20\n        /* \"#utility.yul\":6476:6485   */\n      dup5\n        /* \"#utility.yul\":6472:6490   */\n      add\n        /* \"#utility.yul\":6453:6491   */\n      tag_406\n      jump\t// in\n    tag_491:\n        /* \"#utility.yul\":6443:6491   */\n      swap1\n      pop\n        /* \"#utility.yul\":6243:6497   */\n      swap3\n      pop\n      swap3\n      swap1\n      pop\n      jump\t// out\n        /* \"#utility.yul\":6502:6952   */\n    tag_68:\n        /* \"#utility.yul\":6571:6577   */\n      0x00\n        /* \"#utility.yul\":6624:6626   */\n      0x20\n        /* \"#utility.yul\":6612:6621   */\n      dup3\n        /* \"#utility.yul\":6603:6610   */\n      dup5\n        /* \"#utility.yul\":6599:6622   */\n      sub\n        /* \"#utility.yul\":6595:6627   */\n      slt\n        /* \"#utility.yul\":6592:6644   */\n      iszero\n      tag_493\n      jumpi\n        /* \"#utility.yul\":6640:6641   */\n      0x00\n        /* \"#utility.yul\":6637:6638   */\n      dup1\n        /* \"#utility.yul\":6630:6642   */\n      revert\n        /* \"#utility.yul\":6592:6644   */\n    tag_493:\n        /* \"#utility.yul\":6680:6689   */\n      dup2\n        /* \"#utility.yul\":6667:6690   */\n      calldataload\n        /* \"#utility.yul\":6713:6731   */\n      0xffffffffffffffff\n        /* \"#utility.yul\":6705:6711   */\n      dup2\n        /* \"#utility.yul\":6702:6732   */\n      gt\n        /* \"#utility.yul\":6699:6749   */\n      iszero\n      tag_494\n      jumpi\n        /* \"#utility.yul\":6745:6746   */\n      0x00\n        /* \"#utility.yul\":6742:6743   */\n      dup1\n        /* \"#utility.yul\":6735:6747   */\n      revert\n        /* \"#utility.yul\":6699:6749   */\n    tag_494:\n        /* \"#utility.yul\":6768:6790   */\n      dup3\n      add\n        /* \"#utility.yul\":6821:6825   */\n      0x1f\n        /* \"#utility.yul\":6813:6826   */\n      dup2\n      add\n        /* \"#utility.yul\":6809:6836   */\n      dup5\n      sgt\n        /* \"#utility.yul\":6799:6854   */\n      tag_495\n      jumpi\n        /* \"#utility.yul\":6850:6851   */\n      0x00\n        /* \"#utility.yul\":6847:6848   */\n      dup1\n        /* \"#utility.yul\":6840:6852   */\n      revert\n        /* \"#utility.yul\":6799:6854   */\n    tag_495:\n        /* \"#utility.yul\":6873:6946   */\n      tag_496\n        /* \"#utility.yul\":6938:6945   */\n      dup5\n        /* \"#utility.yul\":6933:6935   */\n      dup3\n        /* \"#utility.yul\":6920:6936   */\n      calldataload\n        /* \"#utility.yul\":6915:6917   */\n      0x20\n        /* \"#utility.yul\":6911:6913   */\n      dup5\n        /* \"#utility.yul\":6907:6918   */\n      add\n        /* \"#utility.yul\":6873:6946   */\n      tag_413\n      jump\t// in\n    tag_496:\n        /* \"#utility.yul\":6863:6946   */\n      swap5\n        /* \"#utility.yul\":6502:6952   */\n      swap4\n      pop\n      pop\n      pop\n      pop\n      jump\t// out\n        /* \"#utility.yul\":6957:8103   */\n    tag_75:\n        /* \"#utility.yul\":7075:7081   */\n      0x00\n        /* \"#utility.yul\":7083:7089   */\n      dup1\n        /* \"#utility.yul\":7136:7138   */\n      0x40\n        /* \"#utility.yul\":7124:7133   */\n      dup4\n        /* \"#utility.yul\":7115:7122   */\n      dup6\n        /* \"#utility.yul\":7111:7134   */\n      sub\n        /* \"#utility.yul\":7107:7139   */\n      slt\n        /* \"#utility.yul\":7104:7156   */\n      iszero\n      tag_498\n      jumpi\n        /* \"#utility.yul\":7152:7153   */\n      0x00\n        /* \"#utility.yul\":7149:7150   */\n      dup1\n        /* \"#utility.yul\":7142:7154   */\n      revert\n        /* \"#utility.yul\":7104:7156   */\n    tag_498:\n        /* \"#utility.yul\":7192:7201   */\n      dup3\n        /* \"#utility.yul\":7179:7202   */\n      calldataload\n        /* \"#utility.yul\":7221:7239   */\n      0xffffffffffffffff\n        /* \"#utility.yul\":7262:7264   */\n      dup1\n        /* \"#utility.yul\":7254:7260   */\n      dup3\n        /* \"#utility.yul\":7251:7265   */\n      gt\n        /* \"#utility.yul\":7248:7282   */\n      iszero\n      tag_499\n      jumpi\n        /* \"#utility.yul\":7278:7279   */\n      0x00\n        /* \"#utility.yul\":7275:7276   */\n      dup1\n        /* \"#utility.yul\":7268:7280   */\n      revert\n        /* \"#utility.yul\":7248:7282   */\n    tag_499:\n        /* \"#utility.yul\":7316:7322   */\n      dup2\n        /* \"#utility.yul\":7305:7314   */\n      dup6\n        /* \"#utility.yul\":7301:7323   */\n      add\n        /* \"#utility.yul\":7291:7323   */\n      swap2\n      pop\n        /* \"#utility.yul\":7361:7368   */\n      dup6\n        /* \"#utility.yul\":7354:7358   */\n      0x1f\n        /* \"#utility.yul\":7350:7352   */\n      dup4\n        /* \"#utility.yul\":7346:7359   */\n      add\n        /* \"#utility.yul\":7342:7369   */\n      slt\n        /* \"#utility.yul\":7332:7387   */\n      tag_500\n      jumpi\n        /* \"#utility.yul\":7383:7384   */\n      0x00\n        /* \"#utility.yul\":7380:7381   */\n      dup1\n        /* \"#utility.yul\":7373:7385   */\n      revert\n        /* \"#utility.yul\":7332:7387   */\n    tag_500:\n        /* \"#utility.yul\":7419:7421   */\n      dup2\n        /* \"#utility.yul\":7406:7422   */\n      calldataload\n        /* \"#utility.yul\":7441:7445   */\n      0x20\n        /* \"#utility.yul\":7465:7525   */\n      tag_501\n        /* \"#utility.yul\":7481:7524   */\n      tag_454\n        /* \"#utility.yul\":7521:7523   */\n      dup4\n        /* \"#utility.yul\":7481:7524   */\n      tag_411\n      jump\t// in\n        /* \"#utility.yul\":7465:7525   */\n    tag_501:\n        /* \"#utility.yul\":7559:7574   */\n      dup3\n      dup2\n      mstore\n        /* \"#utility.yul\":7641:7642   */\n      0x05\n        /* \"#utility.yul\":7637:7647   */\n      swap3\n      swap1\n      swap3\n      shl\n        /* \"#utility.yul\":7629:7648   */\n      dup5\n      add\n        /* \"#utility.yul\":7625:7653   */\n      dup2\n      add\n      swap2\n        /* \"#utility.yul\":7590:7602   */\n      dup2\n      dup2\n      add\n      swap1\n        /* \"#utility.yul\":7665:7684   */\n      dup10\n      dup5\n      gt\n        /* \"#utility.yul\":7662:7701   */\n      iszero\n      tag_503\n      jumpi\n        /* \"#utility.yul\":7697:7698   */\n      0x00\n        /* \"#utility.yul\":7694:7695   */\n      dup1\n        /* \"#utility.yul\":7687:7699   */\n      revert\n        /* \"#utility.yul\":7662:7701   */\n    tag_503:\n        /* \"#utility.yul\":7721:7732   */\n      swap5\n      dup3\n      add\n      swap5\n        /* \"#utility.yul\":7741:7889   */\n    tag_504:\n        /* \"#utility.yul\":7757:7763   */\n      dup4\n        /* \"#utility.yul\":7752:7755   */\n      dup7\n        /* \"#utility.yul\":7749:7764   */\n      lt\n        /* \"#utility.yul\":7741:7889   */\n      iszero\n      tag_506\n      jumpi\n        /* \"#utility.yul\":7823:7846   */\n      tag_507\n        /* \"#utility.yul\":7842:7845   */\n      dup7\n        /* \"#utility.yul\":7823:7846   */\n      tag_406\n      jump\t// in\n    tag_507:\n        /* \"#utility.yul\":7811:7847   */\n      dup3\n      mstore\n        /* \"#utility.yul\":7774:7786   */\n      swap5\n      dup3\n      add\n      swap5\n        /* \"#utility.yul\":7867:7879   */\n      swap1\n      dup3\n      add\n      swap1\n        /* \"#utility.yul\":7741:7889   */\n      jump(tag_504)\n    tag_506:\n        /* \"#utility.yul\":7908:7913   */\n      swap7\n      pop\n      pop\n        /* \"#utility.yul\":7951:7969   */\n      dup7\n      add\n        /* \"#utility.yul\":7938:7970   */\n      calldataload\n      swap3\n      pop\n      pop\n        /* \"#utility.yul\":7982:7998   */\n      dup1\n      dup3\n      gt\n        /* \"#utility.yul\":7979:8015   */\n      iszero\n      tag_508\n      jumpi\n        /* \"#utility.yul\":8011:8012   */\n      0x00\n        /* \"#utility.yul\":8008:8009   */\n      dup1\n        /* \"#utility.yul\":8001:8013   */\n      revert\n        /* \"#utility.yul\":7979:8015   */\n    tag_508:\n      pop\n        /* \"#utility.yul\":8034:8097   */\n      tag_509\n        /* \"#utility.yul\":8089:8096   */\n      dup6\n        /* \"#utility.yul\":8078:8086   */\n      dup3\n        /* \"#utility.yul\":8067:8076   */\n      dup7\n        /* \"#utility.yul\":8063:8087   */\n      add\n        /* \"#utility.yul\":8034:8097   */\n      tag_412\n      jump\t// in\n    tag_509:\n        /* \"#utility.yul\":8024:8097   */\n      swap2\n      pop\n      pop\n        /* \"#utility.yul\":6957:8103   */\n      swap3\n      pop\n      swap3\n      swap1\n      pop\n      jump\t// out\n        /* \"#utility.yul\":8108:8543   */\n    tag_415:\n        /* \"#utility.yul\":8161:8164   */\n      0x00\n        /* \"#utility.yul\":8199:8204   */\n      dup2\n        /* \"#utility.yul\":8193:8205   */\n      mload\n        /* \"#utility.yul\":8226:8232   */\n      dup1\n        /* \"#utility.yul\":8221:8224   */\n      dup5\n        /* \"#utility.yul\":8214:8233   */\n      mstore\n        /* \"#utility.yul\":8252:8256   */\n      0x20\n        /* \"#utility.yul\":8281:8283   */\n      dup1\n        /* \"#utility.yul\":8276:8279   */\n      dup6\n        /* \"#utility.yul\":8272:8284   */\n      add\n        /* \"#utility.yul\":8265:8284   */\n      swap5\n      pop\n        /* \"#utility.yul\":8318:8320   */\n      dup1\n        /* \"#utility.yul\":8311:8316   */\n      dup5\n        /* \"#utility.yul\":8307:8321   */\n      add\n        /* \"#utility.yul\":8339:8340   */\n      0x00\n        /* \"#utility.yul\":8349:8518   */\n    tag_511:\n        /* \"#utility.yul\":8363:8369   */\n      dup4\n        /* \"#utility.yul\":8360:8361   */\n      dup2\n        /* \"#utility.yul\":8357:8370   */\n      lt\n        /* \"#utility.yul\":8349:8518   */\n      iszero\n      tag_513\n      jumpi\n        /* \"#utility.yul\":8424:8437   */\n      dup2\n      mload\n        /* \"#utility.yul\":8412:8438   */\n      dup8\n      mstore\n        /* \"#utility.yul\":8458:8470   */\n      swap6\n      dup3\n      add\n      swap6\n        /* \"#utility.yul\":8493:8508   */\n      swap1\n      dup3\n      add\n      swap1\n        /* \"#utility.yul\":8385:8386   */\n      0x01\n        /* \"#utility.yul\":8378:8387   */\n      add\n        /* \"#utility.yul\":8349:8518   */\n      jump(tag_511)\n    tag_513:\n      pop\n        /* \"#utility.yul\":8534:8537   */\n      swap5\n      swap6\n        /* \"#utility.yul\":8108:8543   */\n      swap5\n      pop\n      pop\n      pop\n      pop\n      pop\n      jump\t// out\n        /* \"#utility.yul\":8548:8809   */\n    tag_78:\n        /* \"#utility.yul\":8727:8729   */\n      0x20\n        /* \"#utility.yul\":8716:8725   */\n      dup2\n        /* \"#utility.yul\":8709:8730   */\n      mstore\n        /* \"#utility.yul\":8690:8694   */\n      0x00\n        /* \"#utility.yul\":8747:8803   */\n      tag_432\n        /* \"#utility.yul\":8799:8801   */\n      0x20\n        /* \"#utility.yul\":8788:8797   */\n      dup4\n        /* \"#utility.yul\":8784:8802   */\n      add\n        /* \"#utility.yul\":8776:8782   */\n      dup5\n        /* \"#utility.yul\":8747:8803   */\n      tag_415\n      jump\t// in\n        /* \"#utility.yul\":8814:9345   */\n    tag_85:\n        /* \"#utility.yul\":8909:8915   */\n      0x00\n        /* \"#utility.yul\":8917:8923   */\n      dup1\n        /* \"#utility.yul\":8925:8931   */\n      0x00\n        /* \"#utility.yul\":8933:8939   */\n      dup1\n        /* \"#utility.yul\":8986:8989   */\n      0x80\n        /* \"#utility.yul\":8974:8983   */\n      dup6\n        /* \"#utility.yul\":8965:8972   */\n      dup8\n        /* \"#utility.yul\":8961:8984   */\n      sub\n        /* \"#utility.yul\":8957:8990   */\n      slt\n        /* \"#utility.yul\":8954:9007   */\n      iszero\n      tag_517\n      jumpi\n        /* \"#utility.yul\":9003:9004   */\n      0x00\n        /* \"#utility.yul\":9000:9001   */\n      dup1\n        /* \"#utility.yul\":8993:9005   */\n      revert\n        /* \"#utility.yul\":8954:9007   */\n    tag_517:\n        /* \"#utility.yul\":9026:9055   */\n      tag_518\n        /* \"#utility.yul\":9045:9054   */\n      dup6\n        /* \"#utility.yul\":9026:9055   */\n      tag_406\n      jump\t// in\n    tag_518:\n        /* \"#utility.yul\":9016:9055   */\n      swap4\n      pop\n        /* \"#utility.yul\":9102:9104   */\n      0x20\n        /* \"#utility.yul\":9091:9100   */\n      dup6\n        /* \"#utility.yul\":9087:9105   */\n      add\n        /* \"#utility.yul\":9074:9106   */\n      calldataload\n        /* \"#utility.yul\":9064:9106   */\n      swap3\n      pop\n        /* \"#utility.yul\":9153:9155   */\n      0x40\n        /* \"#utility.yul\":9142:9151   */\n      dup6\n        /* \"#utility.yul\":9138:9156   */\n      add\n        /* \"#utility.yul\":9125:9157   */\n      calldataload\n        /* \"#utility.yul\":9115:9157   */\n      swap2\n      pop\n        /* \"#utility.yul\":9208:9210   */\n      0x60\n        /* \"#utility.yul\":9197:9206   */\n      dup6\n        /* \"#utility.yul\":9193:9211   */\n      add\n        /* \"#utility.yul\":9180:9212   */\n      calldataload\n        /* \"#utility.yul\":9235:9253   */\n      0xffffffffffffffff\n        /* \"#utility.yul\":9227:9233   */\n      dup2\n        /* \"#utility.yul\":9224:9254   */\n      gt\n        /* \"#utility.yul\":9221:9271   */\n      iszero\n      tag_519\n      jumpi\n        /* \"#utility.yul\":9267:9268   */\n      0x00\n        /* \"#utility.yul\":9264:9265   */\n      dup1\n        /* \"#utility.yul\":9257:9269   */\n      revert\n        /* \"#utility.yul\":9221:9271   */\n    tag_519:\n        /* \"#utility.yul\":9290:9339   */\n      tag_475\n        /* \"#utility.yul\":9331:9338   */\n      dup8\n        /* \"#utility.yul\":9322:9328   */\n      dup3\n        /* \"#utility.yul\":9311:9320   */\n      dup9\n        /* \"#utility.yul\":9307:9329   */\n      add\n        /* \"#utility.yul\":9290:9339   */\n      tag_414\n      jump\t// in\n        /* \"#utility.yul\":9350:9697   */\n    tag_96:\n        /* \"#utility.yul\":9415:9421   */\n      0x00\n        /* \"#utility.yul\":9423:9429   */\n      dup1\n        /* \"#utility.yul\":9476:9478   */\n      0x40\n        /* \"#utility.yul\":9464:9473   */\n      dup4\n        /* \"#utility.yul\":9455:9462   */\n      dup6\n        /* \"#utility.yul\":9451:9474   */\n      sub\n        /* \"#utility.yul\":9447:9479   */\n      slt\n        /* \"#utility.yul\":9444:9496   */\n      iszero\n      tag_522\n      jumpi\n        /* \"#utility.yul\":9492:9493   */\n      0x00\n        /* \"#utility.yul\":9489:9490   */\n      dup1\n        /* \"#utility.yul\":9482:9494   */\n      revert\n        /* \"#utility.yul\":9444:9496   */\n    tag_522:\n        /* \"#utility.yul\":9515:9544   */\n      tag_523\n        /* \"#utility.yul\":9534:9543   */\n      dup4\n        /* \"#utility.yul\":9515:9544   */\n      tag_406\n      jump\t// in\n    tag_523:\n        /* \"#utility.yul\":9505:9544   */\n      swap2\n      pop\n        /* \"#utility.yul\":9594:9596   */\n      0x20\n        /* \"#utility.yul\":9583:9592   */\n      dup4\n        /* \"#utility.yul\":9579:9597   */\n      add\n        /* \"#utility.yul\":9566:9598   */\n      calldataload\n        /* \"#utility.yul\":9641:9646   */\n      dup1\n        /* \"#utility.yul\":9634:9647   */\n      iszero\n        /* \"#utility.yul\":9627:9648   */\n      iszero\n        /* \"#utility.yul\":9620:9625   */\n      dup2\n        /* \"#utility.yul\":9617:9649   */\n      eq\n        /* \"#utility.yul\":9607:9667   */\n      tag_524\n      jumpi\n        /* \"#utility.yul\":9663:9664   */\n      0x00\n        /* \"#utility.yul\":9660:9661   */\n      dup1\n        /* \"#utility.yul\":9653:9665   */\n      revert\n        /* \"#utility.yul\":9607:9667   */\n    tag_524:\n        /* \"#utility.yul\":9686:9691   */\n      dup1\n        /* \"#utility.yul\":9676:9691   */\n      swap2\n      pop\n      pop\n        /* \"#utility.yul\":9350:9697   */\n      swap3\n      pop\n      swap3\n      swap1\n      pop\n      jump\t// out\n        /* \"#utility.yul\":9702:9962   */\n    tag_110:\n        /* \"#utility.yul\":9770:9776   */\n      0x00\n        /* \"#utility.yul\":9778:9784   */\n      dup1\n        /* \"#utility.yul\":9831:9833   */\n      0x40\n        /* \"#utility.yul\":9819:9828   */\n      dup4\n        /* \"#utility.yul\":9810:9817   */\n      dup6\n        /* \"#utility.yul\":9806:9829   */\n      sub\n        /* \"#utility.yul\":9802:9834   */\n      slt\n        /* \"#utility.yul\":9799:9851   */\n      iszero\n      tag_526\n      jumpi\n        /* \"#utility.yul\":9847:9848   */\n      0x00\n        /* \"#utility.yul\":9844:9845   */\n      dup1\n        /* \"#utility.yul\":9837:9849   */\n      revert\n        /* \"#utility.yul\":9799:9851   */\n    tag_526:\n        /* \"#utility.yul\":9870:9899   */\n      tag_527\n        /* \"#utility.yul\":9889:9898   */\n      dup4\n        /* \"#utility.yul\":9870:9899   */\n      tag_406\n      jump\t// in\n    tag_527:\n        /* \"#utility.yul\":9860:9899   */\n      swap2\n      pop\n        /* \"#utility.yul\":9918:9956   */\n      tag_491\n        /* \"#utility.yul\":9952:9954   */\n      0x20\n        /* \"#utility.yul\":9941:9950   */\n      dup5\n        /* \"#utility.yul\":9937:9955   */\n      add\n        /* \"#utility.yul\":9918:9956   */\n      tag_406\n      jump\t// in\n        /* \"#utility.yul\":9967:10573   */\n    tag_115:\n        /* \"#utility.yul\":10071:10077   */\n      0x00\n        /* \"#utility.yul\":10079:10085   */\n      dup1\n        /* \"#utility.yul\":10087:10093   */\n      0x00\n        /* \"#utility.yul\":10095:10101   */\n      dup1\n        /* \"#utility.yul\":10103:10109   */\n      0x00\n        /* \"#utility.yul\":10156:10159   */\n      0xa0\n        /* \"#utility.yul\":10144:10153   */\n      dup7\n        /* \"#utility.yul\":10135:10142   */\n      dup9\n        /* \"#utility.yul\":10131:10154   */\n      sub\n        /* \"#utility.yul\":10127:10160   */\n      slt\n        /* \"#utility.yul\":10124:10177   */\n      iszero\n      tag_530\n      jumpi\n        /* \"#utility.yul\":10173:10174   */\n      0x00\n        /* \"#utility.yul\":10170:10171   */\n      dup1\n        /* \"#utility.yul\":10163:10175   */\n      revert\n        /* \"#utility.yul\":10124:10177   */\n    tag_530:\n        /* \"#utility.yul\":10196:10225   */\n      tag_531\n        /* \"#utility.yul\":10215:10224   */\n      dup7\n        /* \"#utility.yul\":10196:10225   */\n      tag_406\n      jump\t// in\n    tag_531:\n        /* \"#utility.yul\":10186:10225   */\n      swap5\n      pop\n        /* \"#utility.yul\":10244:10282   */\n      tag_532\n        /* \"#utility.yul\":10278:10280   */\n      0x20\n        /* \"#utility.yul\":10267:10276   */\n      dup8\n        /* \"#utility.yul\":10263:10281   */\n      add\n        /* \"#utility.yul\":10244:10282   */\n      tag_406\n      jump\t// in\n    tag_532:\n        /* \"#utility.yul\":10234:10282   */\n      swap4\n      pop\n        /* \"#utility.yul\":10329:10331   */\n      0x40\n        /* \"#utility.yul\":10318:10327   */\n      dup7\n        /* \"#utility.yul\":10314:10332   */\n      add\n        /* \"#utility.yul\":10301:10333   */\n      calldataload\n        /* \"#utility.yul\":10291:10333   */\n      swap3\n      pop\n        /* \"#utility.yul\":10380:10382   */\n      0x60\n        /* \"#utility.yul\":10369:10378   */\n      dup7\n        /* \"#utility.yul\":10365:10383   */\n      add\n        /* \"#utility.yul\":10352:10384   */\n      calldataload\n        /* \"#utility.yul\":10342:10384   */\n      swap2\n      pop\n        /* \"#utility.yul\":10435:10438   */\n      0x80\n        /* \"#utility.yul\":10424:10433   */\n      dup7\n        /* \"#utility.yul\":10420:10439   */\n      add\n        /* \"#utility.yul\":10407:10440   */\n      calldataload\n        /* \"#utility.yul\":10463:10481   */\n      0xffffffffffffffff\n        /* \"#utility.yul\":10455:10461   */\n      dup2\n        /* \"#utility.yul\":10452:10482   */\n      gt\n        /* \"#utility.yul\":10449:10499   */\n      iszero\n      tag_533\n      jumpi\n        /* \"#utility.yul\":10495:10496   */\n      0x00\n        /* \"#utility.yul\":10492:10493   */\n      dup1\n        /* \"#utility.yul\":10485:10497   */\n      revert\n        /* \"#utility.yul\":10449:10499   */\n    tag_533:\n        /* \"#utility.yul\":10518:10567   */\n      tag_488\n        /* \"#utility.yul\":10559:10566   */\n      dup9\n        /* \"#utility.yul\":10550:10556   */\n      dup3\n        /* \"#utility.yul\":10539:10548   */\n      dup10\n        /* \"#utility.yul\":10535:10557   */\n      add\n        /* \"#utility.yul\":10518:10567   */\n      tag_414\n      jump\t// in\n        /* \"#utility.yul\":10578:10958   */\n    tag_123:\n        /* \"#utility.yul\":10657:10658   */\n      0x01\n        /* \"#utility.yul\":10653:10665   */\n      dup2\n      dup2\n      shr\n      swap1\n        /* \"#utility.yul\":10700:10712   */\n      dup3\n      and\n      dup1\n        /* \"#utility.yul\":10721:10782   */\n      tag_536\n      jumpi\n        /* \"#utility.yul\":10775:10779   */\n      0x7f\n        /* \"#utility.yul\":10767:10773   */\n      dup3\n        /* \"#utility.yul\":10763:10780   */\n      and\n        /* \"#utility.yul\":10753:10780   */\n      swap2\n      pop\n        /* \"#utility.yul\":10721:10782   */\n    tag_536:\n        /* \"#utility.yul\":10828:10830   */\n      0x20\n        /* \"#utility.yul\":10820:10826   */\n      dup3\n        /* \"#utility.yul\":10817:10831   */\n      lt\n        /* \"#utility.yul\":10797:10815   */\n      dup2\n        /* \"#utility.yul\":10794:10832   */\n      sub\n        /* \"#utility.yul\":10791:10952   */\n      tag_537\n      jumpi\n        /* \"#utility.yul\":10874:10884   */\n      0x4e487b71\n        /* \"#utility.yul\":10869:10872   */\n      0xe0\n        /* \"#utility.yul\":10865:10885   */\n      shl\n        /* \"#utility.yul\":10862:10863   */\n      0x00\n        /* \"#utility.yul\":10855:10886   */\n      mstore\n        /* \"#utility.yul\":10909:10913   */\n      0x22\n        /* \"#utility.yul\":10906:10907   */\n      0x04\n        /* \"#utility.yul\":10899:10914   */\n      mstore\n        /* \"#utility.yul\":10937:10941   */\n      0x24\n        /* \"#utility.yul\":10934:10935   */\n      0x00\n        /* \"#utility.yul\":10927:10942   */\n      revert\n        /* \"#utility.yul\":10791:10952   */\n    tag_537:\n      pop\n        /* \"#utility.yul\":10578:10958   */\n      swap2\n      swap1\n      pop\n      jump\t// out\n        /* \"#utility.yul\":11089:12276   */\n    tag_129:\n        /* \"#utility.yul\":11366:11369   */\n      0x00\n        /* \"#utility.yul\":11395:11396   */\n      dup1\n        /* \"#utility.yul\":11428:11434   */\n      dup5\n        /* \"#utility.yul\":11422:11435   */\n      sload\n        /* \"#utility.yul\":11458:11494   */\n      tag_540\n        /* \"#utility.yul\":11484:11493   */\n      dup2\n        /* \"#utility.yul\":11458:11494   */\n      tag_123\n      jump\t// in\n    tag_540:\n        /* \"#utility.yul\":11513:11514   */\n      0x01\n        /* \"#utility.yul\":11530:11548   */\n      dup3\n      dup2\n      and\n        /* \"#utility.yul\":11557:11690   */\n      dup1\n      iszero\n      tag_542\n      jumpi\n        /* \"#utility.yul\":11704:11705   */\n      0x01\n        /* \"#utility.yul\":11699:12055   */\n      dup2\n      eq\n      tag_543\n      jumpi\n        /* \"#utility.yul\":11523:12055   */\n      jump(tag_541)\n        /* \"#utility.yul\":11557:11690   */\n    tag_542:\n      not(0xff)\n        /* \"#utility.yul\":11590:11614   */\n      dup5\n      and\n        /* \"#utility.yul\":11578:11615   */\n      dup8\n      mstore\n        /* \"#utility.yul\":11663:11677   */\n      dup3\n      iszero\n        /* \"#utility.yul\":11656:11678   */\n      iszero\n        /* \"#utility.yul\":11644:11679   */\n      dup4\n      mul\n        /* \"#utility.yul\":11635:11680   */\n      dup8\n      add\n      swap5\n      pop\n        /* \"#utility.yul\":11557:11690   */\n      jump(tag_541)\n        /* \"#utility.yul\":11699:12055   */\n    tag_543:\n        /* \"#utility.yul\":11730:11736   */\n      dup9\n        /* \"#utility.yul\":11727:11728   */\n      0x00\n        /* \"#utility.yul\":11720:11737   */\n      mstore\n        /* \"#utility.yul\":11760:11764   */\n      0x20\n        /* \"#utility.yul\":11805:11807   */\n      dup1\n        /* \"#utility.yul\":11802:11803   */\n      0x00\n        /* \"#utility.yul\":11792:11808   */\n      keccak256\n        /* \"#utility.yul\":11830:11831   */\n      0x00\n        /* \"#utility.yul\":11844:12009   */\n    tag_544:\n        /* \"#utility.yul\":11858:11864   */\n      dup6\n        /* \"#utility.yul\":11855:11856   */\n      dup2\n        /* \"#utility.yul\":11852:11865   */\n      lt\n        /* \"#utility.yul\":11844:12009   */\n      iszero\n      tag_546\n      jumpi\n        /* \"#utility.yul\":11936:11950   */\n      dup2\n      sload\n        /* \"#utility.yul\":11923:11934   */\n      dup11\n      dup3\n      add\n        /* \"#utility.yul\":11916:11951   */\n      mstore\n        /* \"#utility.yul\":11979:11995   */\n      swap1\n      dup5\n      add\n      swap1\n        /* \"#utility.yul\":11873:11883   */\n      dup3\n      add\n        /* \"#utility.yul\":11844:12009   */\n      jump(tag_544)\n    tag_546:\n        /* \"#utility.yul\":11848:11851   */\n      pop\n      pop\n      pop\n        /* \"#utility.yul\":12038:12044   */\n      dup3\n        /* \"#utility.yul\":12033:12036   */\n      dup8\n        /* \"#utility.yul\":12029:12045   */\n      add\n        /* \"#utility.yul\":12022:12045   */\n      swap5\n      pop\n        /* \"#utility.yul\":11523:12055   */\n    tag_541:\n      pop\n      pop\n      pop\n      pop\n        /* \"#utility.yul\":12086:12092   */\n      dup4\n        /* \"#utility.yul\":12080:12093   */\n      mload\n        /* \"#utility.yul\":12102:12170   */\n      tag_547\n        /* \"#utility.yul\":12161:12169   */\n      dup2\n        /* \"#utility.yul\":12156:12159   */\n      dup4\n        /* \"#utility.yul\":12149:12153   */\n      0x20\n        /* \"#utility.yul\":12141:12147   */\n      dup9\n        /* \"#utility.yul\":12137:12154   */\n      add\n        /* \"#utility.yul\":12102:12170   */\n      tag_408\n      jump\t// in\n    tag_547:\n      shl(0xd9, 0x173539b7b7)\n        /* \"#utility.yul\":12192:12210   */\n      swap2\n      add\n        /* \"#utility.yul\":12219:12241   */\n      swap1\n      dup2\n      mstore\n        /* \"#utility.yul\":12268:12269   */\n      0x05\n        /* \"#utility.yul\":12257:12270   */\n      add\n      swap5\n        /* \"#utility.yul\":11089:12276   */\n      swap4\n      pop\n      pop\n      pop\n      pop\n      jump\t// out\n        /* \"#utility.yul\":13290:13835   */\n    tag_417:\n        /* \"#utility.yul\":13392:13394   */\n      0x1f\n        /* \"#utility.yul\":13387:13390   */\n      dup3\n        /* \"#utility.yul\":13384:13395   */\n      gt\n        /* \"#utility.yul\":13381:13829   */\n      iszero\n      tag_168\n      jumpi\n        /* \"#utility.yul\":13428:13429   */\n      0x00\n        /* \"#utility.yul\":13453:13458   */\n      dup2\n        /* \"#utility.yul\":13449:13451   */\n      dup2\n        /* \"#utility.yul\":13442:13459   */\n      mstore\n        /* \"#utility.yul\":13498:13502   */\n      0x20\n        /* \"#utility.yul\":13494:13496   */\n      dup2\n        /* \"#utility.yul\":13484:13503   */\n      keccak256\n        /* \"#utility.yul\":13568:13570   */\n      0x1f\n        /* \"#utility.yul\":13556:13566   */\n      dup6\n        /* \"#utility.yul\":13552:13571   */\n      add\n        /* \"#utility.yul\":13549:13550   */\n      0x05\n        /* \"#utility.yul\":13545:13572   */\n      shr\n        /* \"#utility.yul\":13539:13543   */\n      dup2\n        /* \"#utility.yul\":13535:13573   */\n      add\n        /* \"#utility.yul\":13604:13608   */\n      0x20\n        /* \"#utility.yul\":13592:13602   */\n      dup7\n        /* \"#utility.yul\":13589:13609   */\n      lt\n        /* \"#utility.yul\":13586:13633   */\n      iszero\n      tag_553\n      jumpi\n      pop\n        /* \"#utility.yul\":13627:13631   */\n      dup1\n        /* \"#utility.yul\":13586:13633   */\n    tag_553:\n        /* \"#utility.yul\":13682:13684   */\n      0x1f\n        /* \"#utility.yul\":13677:13680   */\n      dup6\n        /* \"#utility.yul\":13673:13685   */\n      add\n        /* \"#utility.yul\":13670:13671   */\n      0x05\n        /* \"#utility.yul\":13666:13686   */\n      shr\n        /* \"#utility.yul\":13660:13664   */\n      dup3\n        /* \"#utility.yul\":13656:13687   */\n      add\n        /* \"#utility.yul\":13646:13687   */\n      swap2\n      pop\n        /* \"#utility.yul\":13737:13819   */\n    tag_554:\n        /* \"#utility.yul\":13755:13757   */\n      dup2\n        /* \"#utility.yul\":13748:13753   */\n      dup2\n        /* \"#utility.yul\":13745:13758   */\n      lt\n        /* \"#utility.yul\":13737:13819   */\n      iszero\n      tag_148\n      jumpi\n        /* \"#utility.yul\":13800:13817   */\n      dup3\n      dup2\n      sstore\n        /* \"#utility.yul\":13781:13782   */\n      0x01\n        /* \"#utility.yul\":13770:13783   */\n      add\n        /* \"#utility.yul\":13737:13819   */\n      jump(tag_554)\n        /* \"#utility.yul\":14011:15363   */\n    tag_164:\n        /* \"#utility.yul\":14137:14140   */\n      dup2\n        /* \"#utility.yul\":14131:14141   */\n      mload\n        /* \"#utility.yul\":14164:14182   */\n      0xffffffffffffffff\n        /* \"#utility.yul\":14156:14162   */\n      dup2\n        /* \"#utility.yul\":14153:14183   */\n      gt\n        /* \"#utility.yul\":14150:14206   */\n      iszero\n      tag_560\n      jumpi\n        /* \"#utility.yul\":14186:14204   */\n      tag_560\n      tag_176\n      jump\t// in\n    tag_560:\n        /* \"#utility.yul\":14215:14312   */\n      tag_561\n        /* \"#utility.yul\":14305:14311   */\n      dup2\n        /* \"#utility.yul\":14265:14303   */\n      tag_562\n        /* \"#utility.yul\":14297:14301   */\n      dup5\n        /* \"#utility.yul\":14291:14302   */\n      sload\n        /* \"#utility.yul\":14265:14303   */\n      tag_123\n      jump\t// in\n    tag_562:\n        /* \"#utility.yul\":14259:14263   */\n      dup5\n        /* \"#utility.yul\":14215:14312   */\n      tag_417\n      jump\t// in\n    tag_561:\n        /* \"#utility.yul\":14367:14371   */\n      0x20\n      dup1\n        /* \"#utility.yul\":14431:14433   */\n      0x1f\n        /* \"#utility.yul\":14420:14434   */\n      dup4\n      gt\n        /* \"#utility.yul\":14448:14449   */\n      0x01\n        /* \"#utility.yul\":14443:15106   */\n      dup2\n      eq\n      tag_564\n      jumpi\n        /* \"#utility.yul\":15150:15151   */\n      0x00\n        /* \"#utility.yul\":15167:15173   */\n      dup5\n        /* \"#utility.yul\":15164:15253   */\n      iszero\n      tag_565\n      jumpi\n      pop\n        /* \"#utility.yul\":15219:15238   */\n      dup6\n      dup4\n      add\n        /* \"#utility.yul\":15213:15239   */\n      mload\n        /* \"#utility.yul\":15164:15253   */\n    tag_565:\n      not(0x00)\n        /* \"#utility.yul\":13968:13969   */\n      0x03\n        /* \"#utility.yul\":13964:13975   */\n      dup7\n      swap1\n      shl\n        /* \"#utility.yul\":13960:13984   */\n      shr\n        /* \"#utility.yul\":13956:13985   */\n      not\n        /* \"#utility.yul\":13946:13986   */\n      and\n        /* \"#utility.yul\":13992:13993   */\n      0x01\n        /* \"#utility.yul\":13988:13999   */\n      dup6\n      swap1\n      shl\n        /* \"#utility.yul\":13943:14000   */\n      or\n        /* \"#utility.yul\":15266:15347   */\n      dup6\n      sstore\n        /* \"#utility.yul\":14413:15357   */\n      jump(tag_148)\n        /* \"#utility.yul\":14443:15106   */\n    tag_564:\n        /* \"#utility.yul\":11036:11037   */\n      0x00\n        /* \"#utility.yul\":11029:11043   */\n      dup6\n      dup2\n      mstore\n        /* \"#utility.yul\":11073:11077   */\n      0x20\n        /* \"#utility.yul\":11060:11078   */\n      dup2\n      keccak256\n      not(0x1f)\n        /* \"#utility.yul\":14479:14499   */\n      dup7\n      and\n      swap2\n        /* \"#utility.yul\":14597:14833   */\n    tag_568:\n        /* \"#utility.yul\":14611:14618   */\n      dup3\n        /* \"#utility.yul\":14608:14609   */\n      dup2\n        /* \"#utility.yul\":14605:14619   */\n      lt\n        /* \"#utility.yul\":14597:14833   */\n      iszero\n      tag_570\n      jumpi\n        /* \"#utility.yul\":14700:14719   */\n      dup9\n      dup7\n      add\n        /* \"#utility.yul\":14694:14720   */\n      mload\n        /* \"#utility.yul\":14679:14721   */\n      dup3\n      sstore\n        /* \"#utility.yul\":14792:14819   */\n      swap5\n      dup5\n      add\n      swap5\n        /* \"#utility.yul\":14760:14761   */\n      0x01\n        /* \"#utility.yul\":14748:14762   */\n      swap1\n      swap2\n      add\n      swap1\n        /* \"#utility.yul\":14627:14646   */\n      dup5\n      add\n        /* \"#utility.yul\":14597:14833   */\n      jump(tag_568)\n    tag_570:\n        /* \"#utility.yul\":14601:14604   */\n      pop\n        /* \"#utility.yul\":14861:14867   */\n      dup6\n        /* \"#utility.yul\":14852:14859   */\n      dup3\n        /* \"#utility.yul\":14849:14868   */\n      lt\n        /* \"#utility.yul\":14846:15047   */\n      iszero\n      tag_571\n      jumpi\n        /* \"#utility.yul\":14922:14941   */\n      dup8\n      dup6\n      add\n        /* \"#utility.yul\":14916:14942   */\n      mload\n      not(0x00)\n        /* \"#utility.yul\":15005:15006   */\n      0x03\n        /* \"#utility.yul\":15001:15015   */\n      dup9\n      swap1\n      shl\n        /* \"#utility.yul\":15017:15020   */\n      0xf8\n        /* \"#utility.yul\":14997:15021   */\n      and\n        /* \"#utility.yul\":14993:15030   */\n      shr\n        /* \"#utility.yul\":14989:15031   */\n      not\n        /* \"#utility.yul\":14974:15032   */\n      and\n        /* \"#utility.yul\":14959:15033   */\n      dup2\n      sstore\n        /* \"#utility.yul\":14846:15047   */\n    tag_571:\n      pop\n      pop\n      pop\n      pop\n      pop\n        /* \"#utility.yul\":15093:15094   */\n      0x01\n        /* \"#utility.yul\":15077:15091   */\n      swap1\n      dup2\n      shl\n        /* \"#utility.yul\":15073:15095   */\n      add\n        /* \"#utility.yul\":15060:15096   */\n      swap1\n      sstore\n      pop\n        /* \"#utility.yul\":14011:15363   */\n      jump\t// out\n        /* \"#utility.yul\":15621:15748   */\n    tag_188:\n        /* \"#utility.yul\":15682:15692   */\n      0x4e487b71\n        /* \"#utility.yul\":15677:15680   */\n      0xe0\n        /* \"#utility.yul\":15673:15693   */\n      shl\n        /* \"#utility.yul\":15670:15671   */\n      0x00\n        /* \"#utility.yul\":15663:15694   */\n      mstore\n        /* \"#utility.yul\":15713:15717   */\n      0x32\n        /* \"#utility.yul\":15710:15711   */\n      0x04\n        /* \"#utility.yul\":15703:15718   */\n      mstore\n        /* \"#utility.yul\":15737:15741   */\n      0x24\n        /* \"#utility.yul\":15734:15735   */\n      0x00\n        /* \"#utility.yul\":15727:15742   */\n      revert\n        /* \"#utility.yul\":15753:15880   */\n    tag_419:\n        /* \"#utility.yul\":15814:15824   */\n      0x4e487b71\n        /* \"#utility.yul\":15809:15812   */\n      0xe0\n        /* \"#utility.yul\":15805:15825   */\n      shl\n        /* \"#utility.yul\":15802:15803   */\n      0x00\n        /* \"#utility.yul\":15795:15826   */\n      mstore\n        /* \"#utility.yul\":15845:15849   */\n      0x11\n        /* \"#utility.yul\":15842:15843   */\n      0x04\n        /* \"#utility.yul\":15835:15850   */\n      mstore\n        /* \"#utility.yul\":15869:15873   */\n      0x24\n        /* \"#utility.yul\":15866:15867   */\n      0x00\n        /* \"#utility.yul\":15859:15874   */\n      revert\n        /* \"#utility.yul\":15885:16020   */\n    tag_190:\n        /* \"#utility.yul\":15924:15927   */\n      0x00\n        /* \"#utility.yul\":15945:15962   */\n      0x01\n      dup3\n      add\n        /* \"#utility.yul\":15942:15985   */\n      tag_577\n      jumpi\n        /* \"#utility.yul\":15965:15983   */\n      tag_577\n      tag_419\n      jump\t// in\n    tag_577:\n      pop\n        /* \"#utility.yul\":16012:16013   */\n      0x01\n        /* \"#utility.yul\":16001:16014   */\n      add\n      swap1\n        /* \"#utility.yul\":15885:16020   */\n      jump\t// out\n        /* \"#utility.yul\":16025:16152   */\n    tag_420:\n        /* \"#utility.yul\":16086:16096   */\n      0x4e487b71\n        /* \"#utility.yul\":16081:16084   */\n      0xe0\n        /* \"#utility.yul\":16077:16097   */\n      shl\n        /* \"#utility.yul\":16074:16075   */\n      0x00\n        /* \"#utility.yul\":16067:16098   */\n      mstore\n        /* \"#utility.yul\":16117:16121   */\n      0x12\n        /* \"#utility.yul\":16114:16115   */\n      0x04\n        /* \"#utility.yul\":16107:16122   */\n      mstore\n        /* \"#utility.yul\":16141:16145   */\n      0x24\n        /* \"#utility.yul\":16138:16139   */\n      0x00\n        /* \"#utility.yul\":16131:16146   */\n      revert\n        /* \"#utility.yul\":16157:16277   */\n    tag_229:\n        /* \"#utility.yul\":16197:16198   */\n      0x00\n        /* \"#utility.yul\":16223:16224   */\n      dup3\n        /* \"#utility.yul\":16213:16248   */\n      tag_581\n      jumpi\n        /* \"#utility.yul\":16228:16246   */\n      tag_581\n      tag_420\n      jump\t// in\n    tag_581:\n      pop\n        /* \"#utility.yul\":16262:16271   */\n      div\n      swap1\n        /* \"#utility.yul\":16157:16277   */\n      jump\t// out\n        /* \"#utility.yul\":16282:16394   */\n    tag_238:\n        /* \"#utility.yul\":16314:16315   */\n      0x00\n        /* \"#utility.yul\":16340:16341   */\n      dup3\n        /* \"#utility.yul\":16330:16365   */\n      tag_584\n      jumpi\n        /* \"#utility.yul\":16345:16363   */\n      tag_584\n      tag_420\n      jump\t// in\n    tag_584:\n      pop\n        /* \"#utility.yul\":16379:16388   */\n      mod\n      swap1\n        /* \"#utility.yul\":16282:16394   */\n      jump\t// out\n        /* \"#utility.yul\":16399:16524   */\n    tag_240:\n        /* \"#utility.yul\":16464:16473   */\n      dup1\n      dup3\n      add\n        /* \"#utility.yul\":16485:16495   */\n      dup1\n      dup3\n      gt\n        /* \"#utility.yul\":16482:16518   */\n      iszero\n      tag_117\n      jumpi\n        /* \"#utility.yul\":16498:16516   */\n      tag_117\n      tag_419\n      jump\t// in\n        /* \"#utility.yul\":16529:16657   */\n    tag_242:\n        /* \"#utility.yul\":16596:16605   */\n      dup2\n      dup2\n      sub\n        /* \"#utility.yul\":16617:16628   */\n      dup2\n      dup2\n      gt\n        /* \"#utility.yul\":16614:16651   */\n      iszero\n      tag_117\n      jumpi\n        /* \"#utility.yul\":16631:16649   */\n      tag_117\n      tag_419\n      jump\t// in\n        /* \"#utility.yul\":16662:16798   */\n    tag_247:\n        /* \"#utility.yul\":16701:16704   */\n      0x00\n        /* \"#utility.yul\":16729:16734   */\n      dup2\n        /* \"#utility.yul\":16719:16758   */\n      tag_593\n      jumpi\n        /* \"#utility.yul\":16738:16756   */\n      tag_593\n      tag_419\n      jump\t// in\n    tag_593:\n      pop\n      not(0x00)\n        /* \"#utility.yul\":16774:16792   */\n      add\n      swap1\n        /* \"#utility.yul\":16662:16798   */\n      jump\t// out\n        /* \"#utility.yul\":17290:17851   */\n    tag_325:\n      sub(shl(0xa0, 0x01), 0x01)\n        /* \"#utility.yul\":17587:17602   */\n      dup7\n      dup2\n      and\n        /* \"#utility.yul\":17569:17603   */\n      dup3\n      mstore\n        /* \"#utility.yul\":17639:17654   */\n      dup6\n      and\n        /* \"#utility.yul\":17634:17636   */\n      0x20\n        /* \"#utility.yul\":17619:17637   */\n      dup3\n      add\n        /* \"#utility.yul\":17612:17655   */\n      mstore\n        /* \"#utility.yul\":17686:17688   */\n      0x40\n        /* \"#utility.yul\":17671:17689   */\n      dup2\n      add\n        /* \"#utility.yul\":17664:17698   */\n      dup5\n      swap1\n      mstore\n        /* \"#utility.yul\":17729:17731   */\n      0x60\n        /* \"#utility.yul\":17714:17732   */\n      dup2\n      add\n        /* \"#utility.yul\":17707:17741   */\n      dup4\n      swap1\n      mstore\n        /* \"#utility.yul\":17549:17552   */\n      0xa0\n        /* \"#utility.yul\":17772:17775   */\n      0x80\n        /* \"#utility.yul\":17757:17776   */\n      dup3\n      add\n        /* \"#utility.yul\":17750:17782   */\n      dup2\n      swap1\n      mstore\n        /* \"#utility.yul\":17512:17516   */\n      0x00\n      swap1\n        /* \"#utility.yul\":17799:17845   */\n      tag_597\n      swap1\n        /* \"#utility.yul\":17825:17844   */\n      dup4\n      add\n        /* \"#utility.yul\":17817:17823   */\n      dup5\n        /* \"#utility.yul\":17799:17845   */\n      tag_409\n      jump\t// in\n    tag_597:\n        /* \"#utility.yul\":17791:17845   */\n      swap8\n        /* \"#utility.yul\":17290:17851   */\n      swap7\n      pop\n      pop\n      pop\n      pop\n      pop\n      pop\n      pop\n      jump\t// out\n        /* \"#utility.yul\":17856:18105   */\n    tag_328:\n        /* \"#utility.yul\":17925:17931   */\n      0x00\n        /* \"#utility.yul\":17978:17980   */\n      0x20\n        /* \"#utility.yul\":17966:17975   */\n      dup3\n        /* \"#utility.yul\":17957:17964   */\n      dup5\n        /* \"#utility.yul\":17953:17976   */\n      sub\n        /* \"#utility.yul\":17949:17981   */\n      slt\n        /* \"#utility.yul\":17946:17998   */\n      iszero\n      tag_599\n      jumpi\n        /* \"#utility.yul\":17994:17995   */\n      0x00\n        /* \"#utility.yul\":17991:17992   */\n      dup1\n        /* \"#utility.yul\":17984:17996   */\n      revert\n        /* \"#utility.yul\":17946:17998   */\n    tag_599:\n        /* \"#utility.yul\":18026:18035   */\n      dup2\n        /* \"#utility.yul\":18020:18036   */\n      mload\n        /* \"#utility.yul\":18045:18075   */\n      tag_432\n        /* \"#utility.yul\":18069:18074   */\n      dup2\n        /* \"#utility.yul\":18045:18075   */\n      tag_407\n      jump\t// in\n        /* \"#utility.yul\":18110:18937   */\n    tag_344:\n      sub(shl(0xa0, 0x01), 0x01)\n        /* \"#utility.yul\":18507:18522   */\n      dup7\n      dup2\n      and\n        /* \"#utility.yul\":18489:18523   */\n      dup3\n      mstore\n        /* \"#utility.yul\":18559:18574   */\n      dup6\n      and\n        /* \"#utility.yul\":18554:18556   */\n      0x20\n        /* \"#utility.yul\":18539:18557   */\n      dup3\n      add\n        /* \"#utility.yul\":18532:18575   */\n      mstore\n        /* \"#utility.yul\":18469:18472   */\n      0xa0\n        /* \"#utility.yul\":18606:18608   */\n      0x40\n        /* \"#utility.yul\":18591:18609   */\n      dup3\n      add\n        /* \"#utility.yul\":18584:18615   */\n      dup2\n      swap1\n      mstore\n        /* \"#utility.yul\":18432:18436   */\n      0x00\n      swap1\n        /* \"#utility.yul\":18638:18695   */\n      tag_602\n      swap1\n        /* \"#utility.yul\":18675:18694   */\n      dup4\n      add\n        /* \"#utility.yul\":18667:18673   */\n      dup7\n        /* \"#utility.yul\":18638:18695   */\n      tag_415\n      jump\t// in\n    tag_602:\n        /* \"#utility.yul\":18743:18752   */\n      dup3\n        /* \"#utility.yul\":18735:18741   */\n      dup2\n        /* \"#utility.yul\":18731:18753   */\n      sub\n        /* \"#utility.yul\":18726:18728   */\n      0x60\n        /* \"#utility.yul\":18715:18724   */\n      dup5\n        /* \"#utility.yul\":18711:18729   */\n      add\n        /* \"#utility.yul\":18704:18754   */\n      mstore\n        /* \"#utility.yul\":18777:18821   */\n      tag_603\n        /* \"#utility.yul\":18814:18820   */\n      dup2\n        /* \"#utility.yul\":18806:18812   */\n      dup7\n        /* \"#utility.yul\":18777:18821   */\n      tag_415\n      jump\t// in\n    tag_603:\n        /* \"#utility.yul\":18763:18821   */\n      swap1\n      pop\n        /* \"#utility.yul\":18870:18879   */\n      dup3\n        /* \"#utility.yul\":18862:18868   */\n      dup2\n        /* \"#utility.yul\":18858:18880   */\n      sub\n        /* \"#utility.yul\":18852:18855   */\n      0x80\n        /* \"#utility.yul\":18841:18850   */\n      dup5\n        /* \"#utility.yul\":18837:18856   */\n      add\n        /* \"#utility.yul\":18830:18881   */\n      mstore\n        /* \"#utility.yul\":18898:18931   */\n      tag_604\n        /* \"#utility.yul\":18924:18930   */\n      dup2\n        /* \"#utility.yul\":18916:18922   */\n      dup6\n        /* \"#utility.yul\":18898:18931   */\n      tag_409\n      jump\t// in\n    tag_604:\n        /* \"#utility.yul\":18890:18931   */\n      swap9\n        /* \"#utility.yul\":18110:18937   */\n      swap8\n      pop\n      pop\n      pop\n      pop\n      pop\n      pop\n      pop\n      pop\n      jump\t// out\n        /* \"#utility.yul\":19364:19829   */\n    tag_405:\n        /* \"#utility.yul\":19621:19623   */\n      0x40\n        /* \"#utility.yul\":19610:19619   */\n      dup2\n        /* \"#utility.yul\":19603:19624   */\n      mstore\n        /* \"#utility.yul\":19584:19588   */\n      0x00\n        /* \"#utility.yul\":19647:19703   */\n      tag_607\n        /* \"#utility.yul\":19699:19701   */\n      0x40\n        /* \"#utility.yul\":19688:19697   */\n      dup4\n        /* \"#utility.yul\":19684:19702   */\n      add\n        /* \"#utility.yul\":19676:19682   */\n      dup6\n        /* \"#utility.yul\":19647:19703   */\n      tag_415\n      jump\t// in\n    tag_607:\n        /* \"#utility.yul\":19751:19760   */\n      dup3\n        /* \"#utility.yul\":19743:19749   */\n      dup2\n        /* \"#utility.yul\":19739:19761   */\n      sub\n        /* \"#utility.yul\":19734:19736   */\n      0x20\n        /* \"#utility.yul\":19723:19732   */\n      dup5\n        /* \"#utility.yul\":19719:19737   */\n      add\n        /* \"#utility.yul\":19712:19762   */\n      mstore\n        /* \"#utility.yul\":19779:19823   */\n      tag_608\n        /* \"#utility.yul\":19816:19822   */\n      dup2\n        /* \"#utility.yul\":19808:19814   */\n      dup6\n        /* \"#utility.yul\":19779:19823   */\n      tag_415\n      jump\t// in\n    tag_608:\n        /* \"#utility.yul\":19771:19823   */\n      swap6\n        /* \"#utility.yul\":19364:19829   */\n      swap5\n      pop\n      pop\n      pop\n      pop\n      pop\n      jump\t// out\n\n    auxdata: 0xa26469706673582212201acc9de6e0acca93df23e966692fccf87e520b873558538617cb4cd7d3cab4db64736f6c63430008140033\n}\n",
				"bytecode": {
					"linkReferences": {},
					"object": "60806040523480156200001157600080fd5b506040516200201a3803806200201a83398101604081905262000034916200014f565b6040805160208101909152600081526200004e8162000074565b506200005c60008362000086565b5060066200006b8282620002d4565b505050620003a0565b6002620000828282620002d4565b5050565b60008281526005602090815260408083206001600160a01b038516845290915281205460ff166200012f5760008381526005602090815260408083206001600160a01b03861684529091529020805460ff19166001179055620000e63390565b6001600160a01b0316826001600160a01b0316847f2f8788117e7eff1d82e926ec794901d17c78024a50270940304540a733656f0d60405160405180910390a450600162000133565b5060005b92915050565b634e487b7160e01b600052604160045260246000fd5b600080604083850312156200016357600080fd5b82516001600160a01b03811681146200017b57600080fd5b602084810151919350906001600160401b03808211156200019b57600080fd5b818601915086601f830112620001b057600080fd5b815181811115620001c557620001c562000139565b604051601f8201601f19908116603f01168101908382118183101715620001f057620001f062000139565b8160405282815289868487010111156200020957600080fd5b600093505b828410156200022d57848401860151818501870152928501926200020e565b60008684830101528096505050505050509250929050565b600181811c908216806200025a57607f821691505b6020821081036200027b57634e487b7160e01b600052602260045260246000fd5b50919050565b601f821115620002cf57600081815260208120601f850160051c81016020861015620002aa5750805b601f850160051c820191505b81811015620002cb57828155600101620002b6565b5050505b505050565b81516001600160401b03811115620002f057620002f062000139565b620003088162000301845462000245565b8462000281565b602080601f831160018114620003405760008415620003275750858301515b600019600386901b1c1916600185901b178555620002cb565b600085815260208120601f198616915b82811015620003715788860151825594840194600190910190840162000350565b5085821015620003905787850151600019600388901b60f8161c191681555b5050505050600190811b01905550565b611c6a80620003b06000396000f3fe608060405234801561001057600080fd5b50600436106101365760003560e01c80634e1273f4116100b8578063a22cb4651161007c578063a22cb465146102a0578063bd85b039146102b3578063d5391393146102d3578063d547741f146102fa578063e985e9c51461030d578063f242432a1461032057600080fd5b80634e1273f4146102305780634f558e7914610250578063731133e91461027257806391d1485414610285578063a217fddf1461029857600080fd5b8063248a9ca3116100ff578063248a9ca3146101c15780632eb2c2d6146101e45780632f2ff15d146101f757806330176e131461020a57806336568abe1461021d57600080fd5b8062fdd58e1461013b57806301ffc9a7146101615780630e89341c1461018457806318160ddd146101a45780631f7fdffa146101ac575b600080fd5b61014e610149366004611293565b610333565b6040519081526020015b60405180910390f35b61017461016f3660046112d3565b61035b565b6040519015158152602001610158565b6101976101923660046112f7565b610366565b6040516101589190611360565b60045461014e565b6101bf6101ba3660046114c1565b6103c4565b005b61014e6101cf3660046112f7565b60009081526005602052604090206001015490565b6101bf6101f236600461155a565b61044a565b6101bf610205366004611604565b6104b1565b6101bf610218366004611630565b6104d6565b6101bf61022b366004611604565b610534565b61024361023e366004611681565b61056c565b604051610158919061177c565b61017461025e3660046112f7565b600090815260036020526040902054151590565b6101bf61028036600461178f565b610641565b610174610293366004611604565b6106bc565b61014e600081565b6101bf6102ae3660046117e4565b6106e7565b61014e6102c13660046112f7565b60009081526003602052604090205490565b61014e7f9f2df0fed2c77648de5860a4cc508cd0818c85b8b8a1ab4ceeef8d981c8956a681565b6101bf610308366004611604565b6106f2565b61017461031b366004611820565b610717565b6101bf61032e36600461184a565b610745565b6000818152602081815260408083206001600160a01b03861684529091529020545b92915050565b6000610355826107a4565b6060600060068054610377906118af565b9050116103935760405180602001604052806000815250610355565b600661039e836107c9565b6040516020016103af9291906118e9565b60405160208183030381529060405292915050565b6103ee7f9f2df0fed2c77648de5860a4cc508cd0818c85b8b8a1ab4ceeef8d981c8956a6336106bc565b6104385760405162461bcd60e51b81526020600482015260166024820152752932b9ba3934b1ba32b2103a379036b4b73a32b9399760511b60448201526064015b60405180910390fd5b610444848484846108dd565b50505050565b336001600160a01b038616811480159061046b57506104698682610717565b155b1561049c5760405163711bec9160e11b81526001600160a01b0380831660048301528716602482015260440161042f565b6104a98686868686610915565b505050505050565b6000828152600560205260409020600101546104cc8161097c565b6104448383610989565b6104e16000336106bc565b6105245760405162461bcd60e51b81526020600482015260146024820152732932b9ba3934b1ba32b2103a379037bbb732b91760611b604482015260640161042f565b600661053082826119c6565b5050565b6001600160a01b038116331461055d5760405163334bd91960e11b815260040160405180910390fd5b6105678282610a1d565b505050565b6060815183511461059d5781518351604051635b05999160e01b81526004810192909252602482015260440161042f565b6000835167ffffffffffffffff8111156105b9576105b9611373565b6040519080825280602002602001820160405280156105e2578160200160208202803683370190505b50905060005b84518110156106395760208082028601015161060c90602080840287010151610333565b82828151811061061e5761061e611a86565b602090810291909101015261063281611ab2565b90506105e8565b509392505050565b61066b7f9f2df0fed2c77648de5860a4cc508cd0818c85b8b8a1ab4ceeef8d981c8956a6336106bc565b6106b05760405162461bcd60e51b81526020600482015260166024820152752932b9ba3934b1ba32b2103a379036b4b73a32b9399760511b604482015260640161042f565b61044484848484610a8a565b60009182526005602090815260408084206001600160a01b0393909316845291905290205460ff1690565b610530338383610ae7565b60008281526005602052604090206001015461070d8161097c565b6104448383610a1d565b6001600160a01b03918216600090815260016020908152604080832093909416825291909152205460ff1690565b336001600160a01b038616811480159061076657506107648682610717565b155b156107975760405163711bec9160e11b81526001600160a01b0380831660048301528716602482015260440161042f565b6104a98686868686610b7d565b60006001600160e01b03198216637965db0b60e01b1480610355575061035582610c0b565b6060816000036107f05750506040805180820190915260018152600360fc1b602082015290565b6000825b801561081957610805600a82611ae1565b90508161081181611ab2565b9250506107f4565b60008267ffffffffffffffff81111561083457610834611373565b6040519080825280601f01601f19166020018201604052801561085e576020820181803683370190505b509050825b80156108d457610874600a87611af5565b61087f906030611b09565b60f81b8261088e600184611b1c565b8151811061089e5761089e611a86565b60200101906001600160f81b031916908160001a9053506108c0600a87611ae1565b9550806108cc81611b2f565b915050610863565b50949350505050565b6001600160a01b03841661090757604051632bfa23e760e11b81526000600482015260240161042f565b610444600085858585610c5b565b6001600160a01b03841661093f57604051632bfa23e760e11b81526000600482015260240161042f565b6001600160a01b03851661096857604051626a0d4560e21b81526000600482015260240161042f565b6109758585858585610c5b565b5050505050565b6109868133610cae565b50565b600061099583836106bc565b610a155760008381526005602090815260408083206001600160a01b03861684529091529020805460ff191660011790556109cd3390565b6001600160a01b0316826001600160a01b0316847f2f8788117e7eff1d82e926ec794901d17c78024a50270940304540a733656f0d60405160405180910390a4506001610355565b506000610355565b6000610a2983836106bc565b15610a155760008381526005602090815260408083206001600160a01b0386168085529252808320805460ff1916905551339286917ff6391f5c32d9c69d2a47ea670b442974b53935d1edc7fd64eb21e047a839171b9190a4506001610355565b6001600160a01b038416610ab457604051632bfa23e760e11b81526000600482015260240161042f565b604080516001808252602082018690528183019081526060820185905260808201909252906104a9600087848487610c5b565b6001600160a01b038216610b105760405162ced3e160e81b81526000600482015260240161042f565b6001600160a01b03838116600081815260016020908152604080832094871680845294825291829020805460ff191686151590811790915591519182527f17307eab39ab6107e8899845ad3d59bd9653f200f220920489ca2b5937696c31910160405180910390a3505050565b6001600160a01b038416610ba757604051632bfa23e760e11b81526000600482015260240161042f565b6001600160a01b038516610bd057604051626a0d4560e21b81526000600482015260240161042f565b60408051600180825260208201869052818301908152606082018590526080820190925290610c028787848487610c5b565b50505050505050565b60006001600160e01b03198216636cdb3d1360e11b1480610c3c57506001600160e01b031982166303a24d0760e21b145b8061035557506301ffc9a760e01b6001600160e01b0319831614610355565b610c6785858585610ce7565b6001600160a01b038416156109755782513390600103610ca05760208481015190840151610c99838989858589610cf3565b50506104a9565b6104a9818787878787610e17565b610cb882826106bc565b6105305760405163e2517d3f60e01b81526001600160a01b03821660048201526024810183905260440161042f565b61044484848484610f00565b6001600160a01b0384163b156104a95760405163f23a6e6160e01b81526001600160a01b0385169063f23a6e6190610d379089908990889088908890600401611b46565b6020604051808303816000875af1925050508015610d72575060408051601f3d908101601f19168201909252610d6f91810190611b8b565b60015b610ddb573d808015610da0576040519150601f19603f3d011682016040523d82523d6000602084013e610da5565b606091505b508051600003610dd357604051632bfa23e760e11b81526001600160a01b038616600482015260240161042f565b805181602001fd5b6001600160e01b0319811663f23a6e6160e01b14610c0257604051632bfa23e760e11b81526001600160a01b038616600482015260240161042f565b6001600160a01b0384163b156104a95760405163bc197c8160e01b81526001600160a01b0385169063bc197c8190610e5b9089908990889088908890600401611ba8565b6020604051808303816000875af1925050508015610e96575060408051601f3d908101601f19168201909252610e9391810190611b8b565b60015b610ec4573d808015610da0576040519150601f19603f3d011682016040523d82523d6000602084013e610da5565b6001600160e01b0319811663bc197c8160e01b14610c0257604051632bfa23e760e11b81526001600160a01b038616600482015260240161042f565b610f0c8484848461105a565b6001600160a01b038416610fbf576000805b8351811015610fa5576000838281518110610f3b57610f3b611a86565b602002602001015190508060036000878581518110610f5c57610f5c611a86565b602002602001015181526020019081526020016000206000828254610f819190611b09565b90915550610f9190508184611b09565b92505080610f9e90611ab2565b9050610f1e565b508060046000828254610fb89190611b09565b9091555050505b6001600160a01b038316610444576000805b8351811015611049576000838281518110610fee57610fee611a86565b60200260200101519050806003600087858151811061100f5761100f611a86565b60200260200101518152602001908152602001600020600082825403925050819055508083019250508061104290611ab2565b9050610fd1565b506004805491909103905550505050565b80518251146110895781518151604051635b05999160e01b81526004810192909252602482015260440161042f565b3360005b8351811015611198576020818102858101820151908501909101516001600160a01b03881615611140576000828152602081815260408083206001600160a01b038c16845290915290205481811015611119576040516303dee4c560e01b81526001600160a01b038a16600482015260248101829052604481018390526064810184905260840161042f565b6000838152602081815260408083206001600160a01b038d16845290915290209082900390555b6001600160a01b03871615611185576000828152602081815260408083206001600160a01b038b1684529091528120805483929061117f908490611b09565b90915550505b50508061119190611ab2565b905061108d565b5082516001036112195760208301516000906020840151909150856001600160a01b0316876001600160a01b0316846001600160a01b03167fc3d58168c5ae7397731d063d5bbf3d657854427343f4c083240f7aacaa2d0f62858560405161120a929190918252602082015260400190565b60405180910390a45050610975565b836001600160a01b0316856001600160a01b0316826001600160a01b03167f4a39dc06d4c0dbc64b70af90fd698a233a518aa5d07e595d983b8c0526c8f7fb8686604051611268929190611c06565b60405180910390a45050505050565b80356001600160a01b038116811461128e57600080fd5b919050565b600080604083850312156112a657600080fd5b6112af83611277565b946020939093013593505050565b6001600160e01b03198116811461098657600080fd5b6000602082840312156112e557600080fd5b81356112f0816112bd565b9392505050565b60006020828403121561130957600080fd5b5035919050565b60005b8381101561132b578181015183820152602001611313565b50506000910152565b6000815180845261134c816020860160208601611310565b601f01601f19169290920160200192915050565b6020815260006112f06020830184611334565b634e487b7160e01b600052604160045260246000fd5b604051601f8201601f1916810167ffffffffffffffff811182821017156113b2576113b2611373565b604052919050565b600067ffffffffffffffff8211156113d4576113d4611373565b5060051b60200190565b600082601f8301126113ef57600080fd5b813560206114046113ff836113ba565b611389565b82815260059290921b8401810191818101908684111561142357600080fd5b8286015b8481101561143e5780358352918301918301611427565b509695505050505050565b600067ffffffffffffffff83111561146357611463611373565b611476601f8401601f1916602001611389565b905082815283838301111561148a57600080fd5b828260208301376000602084830101529392505050565b600082601f8301126114b257600080fd5b6112f083833560208501611449565b600080600080608085870312156114d757600080fd5b6114e085611277565b9350602085013567ffffffffffffffff808211156114fd57600080fd5b611509888389016113de565b9450604087013591508082111561151f57600080fd5b61152b888389016113de565b9350606087013591508082111561154157600080fd5b5061154e878288016114a1565b91505092959194509250565b600080600080600060a0868803121561157257600080fd5b61157b86611277565b945061158960208701611277565b9350604086013567ffffffffffffffff808211156115a657600080fd5b6115b289838a016113de565b945060608801359150808211156115c857600080fd5b6115d489838a016113de565b935060808801359150808211156115ea57600080fd5b506115f7888289016114a1565b9150509295509295909350565b6000806040838503121561161757600080fd5b8235915061162760208401611277565b90509250929050565b60006020828403121561164257600080fd5b813567ffffffffffffffff81111561165957600080fd5b8201601f8101841361166a57600080fd5b61167984823560208401611449565b949350505050565b6000806040838503121561169457600080fd5b823567ffffffffffffffff808211156116ac57600080fd5b818501915085601f8301126116c057600080fd5b813560206116d06113ff836113ba565b82815260059290921b840181019181810190898411156116ef57600080fd5b948201945b838610156117145761170586611277565b825294820194908201906116f4565b9650508601359250508082111561172a57600080fd5b50611737858286016113de565b9150509250929050565b600081518084526020808501945080840160005b8381101561177157815187529582019590820190600101611755565b509495945050505050565b6020815260006112f06020830184611741565b600080600080608085870312156117a557600080fd5b6117ae85611277565b93506020850135925060408501359150606085013567ffffffffffffffff8111156117d857600080fd5b61154e878288016114a1565b600080604083850312156117f757600080fd5b61180083611277565b91506020830135801515811461181557600080fd5b809150509250929050565b6000806040838503121561183357600080fd5b61183c83611277565b915061162760208401611277565b600080600080600060a0868803121561186257600080fd5b61186b86611277565b945061187960208701611277565b93506040860135925060608601359150608086013567ffffffffffffffff8111156118a357600080fd5b6115f7888289016114a1565b600181811c908216806118c357607f821691505b6020821081036118e357634e487b7160e01b600052602260045260246000fd5b50919050565b60008084546118f7816118af565b6001828116801561190f576001811461192457611953565b60ff1984168752821515830287019450611953565b8860005260208060002060005b8581101561194a5781548a820152908401908201611931565b50505082870194505b505050508351611967818360208801611310565b64173539b7b760d91b9101908152600501949350505050565b601f82111561056757600081815260208120601f850160051c810160208610156119a75750805b601f850160051c820191505b818110156104a9578281556001016119b3565b815167ffffffffffffffff8111156119e0576119e0611373565b6119f4816119ee84546118af565b84611980565b602080601f831160018114611a295760008415611a115750858301515b600019600386901b1c1916600185901b1785556104a9565b600085815260208120601f198616915b82811015611a5857888601518255948401946001909101908401611a39565b5085821015611a765787850151600019600388901b60f8161c191681555b5050505050600190811b01905550565b634e487b7160e01b600052603260045260246000fd5b634e487b7160e01b600052601160045260246000fd5b600060018201611ac457611ac4611a9c565b5060010190565b634e487b7160e01b600052601260045260246000fd5b600082611af057611af0611acb565b500490565b600082611b0457611b04611acb565b500690565b8082018082111561035557610355611a9c565b8181038181111561035557610355611a9c565b600081611b3e57611b3e611a9c565b506000190190565b6001600160a01b03868116825285166020820152604081018490526060810183905260a060808201819052600090611b8090830184611334565b979650505050505050565b600060208284031215611b9d57600080fd5b81516112f0816112bd565b6001600160a01b0386811682528516602082015260a060408201819052600090611bd490830186611741565b8281036060840152611be68186611741565b90508281036080840152611bfa8185611334565b98975050505050505050565b604081526000611c196040830185611741565b8281036020840152611c2b8185611741565b9594505050505056fea26469706673582212201acc9de6e0acca93df23e966692fccf87e520b873558538617cb4cd7d3cab4db64736f6c63430008140033",
					"opcodes": "PUSH1 0x80 PUSH1 0x40 MSTORE CALLVALUE DUP1 ISZERO PUSH3 0x11 JUMPI PUSH1 0x0 DUP1 REVERT JUMPDEST POP PUSH1 0x40 MLOAD PUSH3 0x201A CODESIZE SUB DUP1 PUSH3 0x201A DUP4 CODECOPY DUP2 ADD PUSH1 0x40 DUP2 SWAP1 MSTORE PUSH3 0x34 SWAP2 PUSH3 0x14F JUMP JUMPDEST PUSH1 0x40 DUP1 MLOAD PUSH1 0x20 DUP2 ADD SWAP1 SWAP2 MSTORE PUSH1 0x0 DUP2 MSTORE PUSH3 0x4E DUP2 PUSH3 0x74 JUMP JUMPDEST POP PUSH3 0x5C PUSH1 0x0 DUP4 PUSH3 0x86 JUMP JUMPDEST POP PUSH1 0x6 PUSH3 0x6B DUP3 DUP3 PUSH3 0x2D4 JUMP JUMPDEST POP POP POP PUSH3 0x3A0 JUMP JUMPDEST PUSH1 0x2 PUSH3 0x82 DUP3 DUP3 PUSH3 0x2D4 JUMP JUMPDEST POP POP JUMP JUMPDEST PUSH1 0x0 DUP3 DUP2 MSTORE PUSH1 0x5 PUSH1 0x20 SWAP1 DUP2 MSTORE PUSH1 0x40 DUP1 DUP4 KECCAK256 PUSH1 0x1 PUSH1 0x1 PUSH1 0xA0 SHL SUB DUP6 AND DUP5 MSTORE SWAP1 SWAP2 MSTORE DUP2 KECCAK256 SLOAD PUSH1 0xFF AND PUSH3 0x12F JUMPI PUSH1 0x0 DUP4 DUP2 MSTORE PUSH1 0x5 PUSH1 0x20 SWAP1 DUP2 MSTORE PUSH1 0x40 DUP1 DUP4 KECCAK256 PUSH1 0x1 PUSH1 0x1 PUSH1 0xA0 SHL SUB DUP7 AND DUP5 MSTORE SWAP1 SWAP2 MSTORE SWAP1 KECCAK256 DUP1 SLOAD PUSH1 0xFF NOT AND PUSH1 0x1 OR SWAP1 SSTORE PUSH3 0xE6 CALLER SWAP1 JUMP JUMPDEST PUSH1 0x1 PUSH1 0x1 PUSH1 0xA0 SHL SUB AND DUP3 PUSH1 0x1 PUSH1 0x1 PUSH1 0xA0 SHL SUB AND DUP5 PUSH32 0x2F8788117E7EFF1D82E926EC794901D17C78024A50270940304540A733656F0D PUSH1 0x40 MLOAD PUSH1 0x40 MLOAD DUP1 SWAP2 SUB SWAP1 LOG4 POP PUSH1 0x1 PUSH3 0x133 JUMP JUMPDEST POP PUSH1 0x0 JUMPDEST SWAP3 SWAP2 POP POP JUMP JUMPDEST PUSH4 0x4E487B71 PUSH1 0xE0 SHL PUSH1 0x0 MSTORE PUSH1 0x41 PUSH1 0x4 MSTORE PUSH1 0x24 PUSH1 0x0 REVERT JUMPDEST PUSH1 0x0 DUP1 PUSH1 0x40 DUP4 DUP6 SUB SLT ISZERO PUSH3 0x163 JUMPI PUSH1 0x0 DUP1 REVERT JUMPDEST DUP3 MLOAD PUSH1 0x1 PUSH1 0x1 PUSH1 0xA0 SHL SUB DUP2 AND DUP2 EQ PUSH3 0x17B JUMPI PUSH1 0x0 DUP1 REVERT JUMPDEST PUSH1 0x20 DUP5 DUP2 ADD MLOAD SWAP2 SWAP4 POP SWAP1 PUSH1 0x1 PUSH1 0x1 PUSH1 0x40 SHL SUB DUP1 DUP3 GT ISZERO PUSH3 0x19B JUMPI PUSH1 0x0 DUP1 REVERT JUMPDEST DUP2 DUP7 ADD SWAP2 POP DUP7 PUSH1 0x1F DUP4 ADD SLT PUSH3 0x1B0 JUMPI PUSH1 0x0 DUP1 REVERT JUMPDEST DUP2 MLOAD DUP2 DUP2 GT ISZERO PUSH3 0x1C5 JUMPI PUSH3 0x1C5 PUSH3 0x139 JUMP JUMPDEST PUSH1 0x40 MLOAD PUSH1 0x1F DUP3 ADD PUSH1 0x1F NOT SWAP1 DUP2 AND PUSH1 0x3F ADD AND DUP2 ADD SWAP1 DUP4 DUP3 GT DUP2 DUP4 LT OR ISZERO PUSH3 0x1F0 JUMPI PUSH3 0x1F0 PUSH3 0x139 JUMP JUMPDEST DUP2 PUSH1 0x40 MSTORE DUP3 DUP2 MSTORE DUP10 DUP7 DUP5 DUP8 ADD ADD GT ISZERO PUSH3 0x209 JUMPI PUSH1 0x0 DUP1 REVERT JUMPDEST PUSH1 0x0 SWAP4 POP JUMPDEST DUP3 DUP5 LT ISZERO PUSH3 0x22D JUMPI DUP5 DUP5 ADD DUP7 ADD MLOAD DUP2 DUP6 ADD DUP8 ADD MSTORE SWAP3 DUP6 ADD SWAP3 PUSH3 0x20E JUMP JUMPDEST PUSH1 0x0 DUP7 DUP5 DUP4 ADD ADD MSTORE DUP1 SWAP7 POP POP POP POP POP POP POP SWAP3 POP SWAP3 SWAP1 POP JUMP JUMPDEST PUSH1 0x1 DUP2 DUP2 SHR SWAP1 DUP3 AND DUP1 PUSH3 0x25A JUMPI PUSH1 0x7F DUP3 AND SWAP2 POP JUMPDEST PUSH1 0x20 DUP3 LT DUP2 SUB PUSH3 0x27B JUMPI PUSH4 0x4E487B71 PUSH1 0xE0 SHL PUSH1 0x0 MSTORE PUSH1 0x22 PUSH1 0x4 MSTORE PUSH1 0x24 PUSH1 0x0 REVERT JUMPDEST POP SWAP2 SWAP1 POP JUMP JUMPDEST PUSH1 0x1F DUP3 GT ISZERO PUSH3 0x2CF JUMPI PUSH1 0x0 DUP2 DUP2 MSTORE PUSH1 0x20 DUP2 KECCAK256 PUSH1 0x1F DUP6 ADD PUSH1 0x5 SHR DUP2 ADD PUSH1 0x20 DUP7 LT ISZERO PUSH3 0x2AA JUMPI POP DUP1 JUMPDEST PUSH1 0x1F DUP6 ADD PUSH1 0x5 SHR DUP3 ADD SWAP2 POP JUMPDEST DUP2 DUP2 LT ISZERO PUSH3 0x2CB JUMPI DUP3 DUP2 SSTORE PUSH1 0x1 ADD PUSH3 0x2B6 JUMP JUMPDEST POP POP POP JUMPDEST POP POP POP JUMP JUMPDEST DUP2 MLOAD PUSH1 0x1 PUSH1 0x1 PUSH1 0x40 SHL SUB DUP2 GT ISZERO PUSH3 0x2F0 JUMPI PUSH3 0x2F0 PUSH3 0x139 JUMP JUMPDEST PUSH3 0x308 DUP2 PUSH3 0x301 DUP5 SLOAD PUSH3 0x245 JUMP JUMPDEST DUP5 PUSH3 0x281 JUMP JUMPDEST PUSH1 0x20 DUP1 PUSH1 0x1F DUP4 GT PUSH1 0x1 DUP2 EQ PUSH3 0x340 JUMPI PUSH1 0x0 DUP5 ISZERO PUSH3 0x327 JUMPI POP DUP6 DUP4 ADD MLOAD JUMPDEST PUSH1 0x0 NOT PUSH1 0x3 DUP7 SWAP1 SHL SHR NOT AND PUSH1 0x1 DUP6 SWAP1 SHL OR DUP6 SSTORE PUSH3 0x2CB JUMP JUMPDEST PUSH1 0x0 DUP6 DUP2 MSTORE PUSH1 0x20 DUP2 KECCAK256 PUSH1 0x1F NOT DUP7 AND SWAP2 JUMPDEST DUP3 DUP2 LT ISZERO PUSH3 0x371 JUMPI DUP9 DUP7 ADD MLOAD DUP3 SSTORE SWAP5 DUP5 ADD SWAP5 PUSH1 0x1 SWAP1 SWAP2 ADD SWAP1 DUP5 ADD PUSH3 0x350 JUMP JUMPDEST POP DUP6 DUP3 LT ISZERO PUSH3 0x390 JUMPI DUP8 DUP6 ADD MLOAD PUSH1 0x0 NOT PUSH1 0x3 DUP9 SWAP1 SHL PUSH1 0xF8 AND SHR NOT AND DUP2 SSTORE JUMPDEST POP POP POP POP POP PUSH1 0x1 SWAP1 DUP2 SHL ADD SWAP1 SSTORE POP JUMP JUMPDEST PUSH2 0x1C6A DUP1 PUSH3 0x3B0 PUSH1 0x0 CODECOPY PUSH1 0x0 RETURN INVALID PUSH1 0x80 PUSH1 0x40 MSTORE CALLVALUE DUP1 ISZERO PUSH2 0x10 JUMPI PUSH1 0x0 DUP1 REVERT JUMPDEST POP PUSH1 0x4 CALLDATASIZE LT PUSH2 0x136 JUMPI PUSH1 0x0 CALLDATALOAD PUSH1 0xE0 SHR DUP1 PUSH4 0x4E1273F4 GT PUSH2 0xB8 JUMPI DUP1 PUSH4 0xA22CB465 GT PUSH2 0x7C JUMPI DUP1 PUSH4 0xA22CB465 EQ PUSH2 0x2A0 JUMPI DUP1 PUSH4 0xBD85B039 EQ PUSH2 0x2B3 JUMPI DUP1 PUSH4 0xD5391393 EQ PUSH2 0x2D3 JUMPI DUP1 PUSH4 0xD547741F EQ PUSH2 0x2FA JUMPI DUP1 PUSH4 0xE985E9C5 EQ PUSH2 0x30D JUMPI DUP1 PUSH4 0xF242432A EQ PUSH2 0x320 JUMPI PUSH1 0x0 DUP1 REVERT JUMPDEST DUP1 PUSH4 0x4E1273F4 EQ PUSH2 0x230 JUMPI DUP1 PUSH4 0x4F558E79 EQ PUSH2 0x250 JUMPI DUP1 PUSH4 0x731133E9 EQ PUSH2 0x272 JUMPI DUP1 PUSH4 0x91D14854 EQ PUSH2 0x285 JUMPI DUP1 PUSH4 0xA217FDDF EQ PUSH2 0x298 JUMPI PUSH1 0x0 DUP1 REVERT JUMPDEST DUP1 PUSH4 0x248A9CA3 GT PUSH2 0xFF JUMPI DUP1 PUSH4 0x248A9CA3 EQ PUSH2 0x1C1 JUMPI DUP1 PUSH4 0x2EB2C2D6 EQ PUSH2 0x1E4 JUMPI DUP1 PUSH4 0x2F2FF15D EQ PUSH2 0x1F7 JUMPI DUP1 PUSH4 0x30176E13 EQ PUSH2 0x20A JUMPI DUP1 PUSH4 0x36568ABE EQ PUSH2 0x21D JUMPI PUSH1 0x0 DUP1 REVERT JUMPDEST DUP1 PUSH3 0xFDD58E EQ PUSH2 0x13B JUMPI DUP1 PUSH4 0x1FFC9A7 EQ PUSH2 0x161 JUMPI DUP1 PUSH4 0xE89341C EQ PUSH2 0x184 JUMPI DUP1 PUSH4 0x18160DDD EQ PUSH2 0x1A4 JUMPI DUP1 PUSH4 0x1F7FDFFA EQ PUSH2 0x1AC JUMPI JUMPDEST PUSH1 0x0 DUP1 REVERT JUMPDEST PUSH2 0x14E PUSH2 0x149 CALLDATASIZE PUSH1 0x4 PUSH2 0x1293 JUMP JUMPDEST PUSH2 0x333 JUMP JUMPDEST PUSH1 0x40 MLOAD SWAP1 DUP2 MSTORE PUSH1 0x20 ADD JUMPDEST PUSH1 0x40 MLOAD DUP1 SWAP2 SUB SWAP1 RETURN JUMPDEST PUSH2 0x174 PUSH2 0x16F CALLDATASIZE PUSH1 0x4 PUSH2 0x12D3 JUMP JUMPDEST PUSH2 0x35B JUMP JUMPDEST PUSH1 0x40 MLOAD SWAP1 ISZERO ISZERO DUP2 MSTORE PUSH1 0x20 ADD PUSH2 0x158 JUMP JUMPDEST PUSH2 0x197 PUSH2 0x192 CALLDATASIZE PUSH1 0x4 PUSH2 0x12F7 JUMP JUMPDEST PUSH2 0x366 JUMP JUMPDEST PUSH1 0x40 MLOAD PUSH2 0x158 SWAP2 SWAP1 PUSH2 0x1360 JUMP JUMPDEST PUSH1 0x4 SLOAD PUSH2 0x14E JUMP JUMPDEST PUSH2 0x1BF PUSH2 0x1BA CALLDATASIZE PUSH1 0x4 PUSH2 0x14C1 JUMP JUMPDEST PUSH2 0x3C4 JUMP JUMPDEST STOP JUMPDEST PUSH2 0x14E PUSH2 0x1CF CALLDATASIZE PUSH1 0x4 PUSH2 0x12F7 JUMP JUMPDEST PUSH1 0x0 SWAP1 DUP2 MSTORE PUSH1 0x5 PUSH1 0x20 MSTORE PUSH1 0x40 SWAP1 KECCAK256 PUSH1 0x1 ADD SLOAD SWAP1 JUMP JUMPDEST PUSH2 0x1BF PUSH2 0x1F2 CALLDATASIZE PUSH1 0x4 PUSH2 0x155A JUMP JUMPDEST PUSH2 0x44A JUMP JUMPDEST PUSH2 0x1BF PUSH2 0x205 CALLDATASIZE PUSH1 0x4 PUSH2 0x1604 JUMP JUMPDEST PUSH2 0x4B1 JUMP JUMPDEST PUSH2 0x1BF PUSH2 0x218 CALLDATASIZE PUSH1 0x4 PUSH2 0x1630 JUMP JUMPDEST PUSH2 0x4D6 JUMP JUMPDEST PUSH2 0x1BF PUSH2 0x22B CALLDATASIZE PUSH1 0x4 PUSH2 0x1604 JUMP JUMPDEST PUSH2 0x534 JUMP JUMPDEST PUSH2 0x243 PUSH2 0x23E CALLDATASIZE PUSH1 0x4 PUSH2 0x1681 JUMP JUMPDEST PUSH2 0x56C JUMP JUMPDEST PUSH1 0x40 MLOAD PUSH2 0x158 SWAP2 SWAP1 PUSH2 0x177C JUMP JUMPDEST PUSH2 0x174 PUSH2 0x25E CALLDATASIZE PUSH1 0x4 PUSH2 0x12F7 JUMP JUMPDEST PUSH1 0x0 SWAP1 DUP2 MSTORE PUSH1 0x3 PUSH1 0x20 MSTORE PUSH1 0x40 SWAP1 KECCAK256 SLOAD ISZERO ISZERO SWAP1 JUMP JUMPDEST PUSH2 0x1BF PUSH2 0x280 CALLDATASIZE PUSH1 0x4 PUSH2 0x178F JUMP JUMPDEST PUSH2 0x641 JUMP JUMPDEST PUSH2 0x174 PUSH2 0x293 CALLDATASIZE PUSH1 0x4 PUSH2 0x1604 JUMP JUMPDEST PUSH2 0x6BC JUMP JUMPDEST PUSH2 0x14E PUSH1 0x0 DUP2 JUMP JUMPDEST PUSH2 0x1BF PUSH2 0x2AE CALLDATASIZE PUSH1 0x4 PUSH2 0x17E4 JUMP JUMPDEST PUSH2 0x6E7 JUMP JUMPDEST PUSH2 0x14E PUSH2 0x2C1 CALLDATASIZE PUSH1 0x4 PUSH2 0x12F7 JUMP JUMPDEST PUSH1 0x0 SWAP1 DUP2 MSTORE PUSH1 0x3 PUSH1 0x20 MSTORE PUSH1 0x40 SWAP1 KECCAK256 SLOAD SWAP1 JUMP JUMPDEST PUSH2 0x14E PUSH32 0x9F2DF0FED2C77648DE5860A4CC508CD0818C85B8B8A1AB4CEEEF8D981C8956A6 DUP2 JUMP JUMPDEST PUSH2 0x1BF PUSH2 0x308 CALLDATASIZE PUSH1 0x4 PUSH2 0x1604 JUMP JUMPDEST PUSH2 0x6F2 JUMP JUMPDEST PUSH2 0x174 PUSH2 0x31B CALLDATASIZE PUSH1 0x4 PUSH2 0x1820 JUMP JUMPDEST PUSH2 0x717 JUMP JUMPDEST PUSH2 0x1BF PUSH2 0x32E CALLDATASIZE PUSH1 0x4 PUSH2 0x184A JUMP JUMPDEST PUSH2 0x745 JUMP JUMPDEST PUSH1 0x0 DUP2 DUP2 MSTORE PUSH1 0x20 DUP2 DUP2 MSTORE PUSH1 0x40 DUP1 DUP4 KECCAK256 PUSH1 0x1 PUSH1 0x1 PUSH1 0xA0 SHL SUB DUP7 AND DUP5 MSTORE SWAP1 SWAP2 MSTORE SWAP1 KECCAK256 SLOAD JUMPDEST SWAP3 SWAP2 POP POP JUMP JUMPDEST PUSH1 0x0 PUSH2 0x355 DUP3 PUSH2 0x7A4 JUMP JUMPDEST PUSH1 0x60 PUSH1 0x0 PUSH1 0x6 DUP1 SLOAD PUSH2 0x377 SWAP1 PUSH2 0x18AF JUMP JUMPDEST SWAP1 POP GT PUSH2 0x393 JUMPI PUSH1 0x40 MLOAD DUP1 PUSH1 0x20 ADD PUSH1 0x40 MSTORE DUP1 PUSH1 0x0 DUP2 MSTORE POP PUSH2 0x355 JUMP JUMPDEST PUSH1 0x6 PUSH2 0x39E DUP4 PUSH2 0x7C9 JUMP JUMPDEST PUSH1 0x40 MLOAD PUSH1 0x20 ADD PUSH2 0x3AF SWAP3 SWAP2 SWAP1 PUSH2 0x18E9 JUMP JUMPDEST PUSH1 0x40 MLOAD PUSH1 0x20 DUP2 DUP4 SUB SUB DUP2 MSTORE SWAP1 PUSH1 0x40 MSTORE SWAP3 SWAP2 POP POP JUMP JUMPDEST PUSH2 0x3EE PUSH32 0x9F2DF0FED2C77648DE5860A4CC508CD0818C85B8B8A1AB4CEEEF8D981C8956A6 CALLER PUSH2 0x6BC JUMP JUMPDEST PUSH2 0x438 JUMPI PUSH1 0x40 MLOAD PUSH3 0x461BCD PUSH1 0xE5 SHL DUP2 MSTORE PUSH1 0x20 PUSH1 0x4 DUP3 ADD MSTORE PUSH1 0x16 PUSH1 0x24 DUP3 ADD MSTORE PUSH22 0x2932B9BA3934B1BA32B2103A379036B4B73A32B93997 PUSH1 0x51 SHL PUSH1 0x44 DUP3 ADD MSTORE PUSH1 0x64 ADD JUMPDEST PUSH1 0x40 MLOAD DUP1 SWAP2 SUB SWAP1 REVERT JUMPDEST PUSH2 0x444 DUP5 DUP5 DUP5 DUP5 PUSH2 0x8DD JUMP JUMPDEST POP POP POP POP JUMP JUMPDEST CALLER PUSH1 0x1 PUSH1 0x1 PUSH1 0xA0 SHL SUB DUP7 AND DUP2 EQ DUP1 ISZERO SWAP1 PUSH2 0x46B JUMPI POP PUSH2 0x469 DUP7 DUP3 PUSH2 0x717 JUMP JUMPDEST ISZERO JUMPDEST ISZERO PUSH2 0x49C JUMPI PUSH1 0x40 MLOAD PUSH4 0x711BEC91 PUSH1 0xE1 SHL DUP2 MSTORE PUSH1 0x1 PUSH1 0x1 PUSH1 0xA0 SHL SUB DUP1 DUP4 AND PUSH1 0x4 DUP4 ADD MSTORE DUP8 AND PUSH1 0x24 DUP3 ADD MSTORE PUSH1 0x44 ADD PUSH2 0x42F JUMP JUMPDEST PUSH2 0x4A9 DUP7 DUP7 DUP7 DUP7 DUP7 PUSH2 0x915 JUMP JUMPDEST POP POP POP POP POP POP JUMP JUMPDEST PUSH1 0x0 DUP3 DUP2 MSTORE PUSH1 0x5 PUSH1 0x20 MSTORE PUSH1 0x40 SWAP1 KECCAK256 PUSH1 0x1 ADD SLOAD PUSH2 0x4CC DUP2 PUSH2 0x97C JUMP JUMPDEST PUSH2 0x444 DUP4 DUP4 PUSH2 0x989 JUMP JUMPDEST PUSH2 0x4E1 PUSH1 0x0 CALLER PUSH2 0x6BC JUMP JUMPDEST PUSH2 0x524 JUMPI PUSH1 0x40 MLOAD PUSH3 0x461BCD PUSH1 0xE5 SHL DUP2 MSTORE PUSH1 0x20 PUSH1 0x4 DUP3 ADD MSTORE PUSH1 0x14 PUSH1 0x24 DUP3 ADD MSTORE PUSH20 0x2932B9BA3934B1BA32B2103A379037BBB732B917 PUSH1 0x61 SHL PUSH1 0x44 DUP3 ADD MSTORE PUSH1 0x64 ADD PUSH2 0x42F JUMP JUMPDEST PUSH1 0x6 PUSH2 0x530 DUP3 DUP3 PUSH2 0x19C6 JUMP JUMPDEST POP POP JUMP JUMPDEST PUSH1 0x1 PUSH1 0x1 PUSH1 0xA0 SHL SUB DUP2 AND CALLER EQ PUSH2 0x55D JUMPI PUSH1 0x40 MLOAD PUSH4 0x334BD919 PUSH1 0xE1 SHL DUP2 MSTORE PUSH1 0x4 ADD PUSH1 0x40 MLOAD DUP1 SWAP2 SUB SWAP1 REVERT JUMPDEST PUSH2 0x567 DUP3 DUP3 PUSH2 0xA1D JUMP JUMPDEST POP POP POP JUMP JUMPDEST PUSH1 0x60 DUP2 MLOAD DUP4 MLOAD EQ PUSH2 0x59D JUMPI DUP2 MLOAD DUP4 MLOAD PUSH1 0x40 MLOAD PUSH4 0x5B059991 PUSH1 0xE0 SHL DUP2 MSTORE PUSH1 0x4 DUP2 ADD SWAP3 SWAP1 SWAP3 MSTORE PUSH1 0x24 DUP3 ADD MSTORE PUSH1 0x44 ADD PUSH2 0x42F JUMP JUMPDEST PUSH1 0x0 DUP4 MLOAD PUSH8 0xFFFFFFFFFFFFFFFF DUP2 GT ISZERO PUSH2 0x5B9 JUMPI PUSH2 0x5B9 PUSH2 0x1373 JUMP JUMPDEST PUSH1 0x40 MLOAD SWAP1 DUP1 DUP3 MSTORE DUP1 PUSH1 0x20 MUL PUSH1 0x20 ADD DUP3 ADD PUSH1 0x40 MSTORE DUP1 ISZERO PUSH2 0x5E2 JUMPI DUP2 PUSH1 0x20 ADD PUSH1 0x20 DUP3 MUL DUP1 CALLDATASIZE DUP4 CALLDATACOPY ADD SWAP1 POP JUMPDEST POP SWAP1 POP PUSH1 0x0 JUMPDEST DUP5 MLOAD DUP2 LT ISZERO PUSH2 0x639 JUMPI PUSH1 0x20 DUP1 DUP3 MUL DUP7 ADD ADD MLOAD PUSH2 0x60C SWAP1 PUSH1 0x20 DUP1 DUP5 MUL DUP8 ADD ADD MLOAD PUSH2 0x333 JUMP JUMPDEST DUP3 DUP3 DUP2 MLOAD DUP2 LT PUSH2 0x61E JUMPI PUSH2 0x61E PUSH2 0x1A86 JUMP JUMPDEST PUSH1 0x20 SWAP1 DUP2 MUL SWAP2 SWAP1 SWAP2 ADD ADD MSTORE PUSH2 0x632 DUP2 PUSH2 0x1AB2 JUMP JUMPDEST SWAP1 POP PUSH2 0x5E8 JUMP JUMPDEST POP SWAP4 SWAP3 POP POP POP JUMP JUMPDEST PUSH2 0x66B PUSH32 0x9F2DF0FED2C77648DE5860A4CC508CD0818C85B8B8A1AB4CEEEF8D981C8956A6 CALLER PUSH2 0x6BC JUMP JUMPDEST PUSH2 0x6B0 JUMPI PUSH1 0x40 MLOAD PUSH3 0x461BCD PUSH1 0xE5 SHL DUP2 MSTORE PUSH1 0x20 PUSH1 0x4 DUP3 ADD MSTORE PUSH1 0x16 PUSH1 0x24 DUP3 ADD MSTORE PUSH22 0x2932B9BA3934B1BA32B2103A379036B4B73A32B93997 PUSH1 0x51 SHL PUSH1 0x44 DUP3 ADD MSTORE PUSH1 0x64 ADD PUSH2 0x42F JUMP JUMPDEST PUSH2 0x444 DUP5 DUP5 DUP5 DUP5 PUSH2 0xA8A JUMP JUMPDEST PUSH1 0x0 SWAP2 DUP3 MSTORE PUSH1 0x5 PUSH1 0x20 SWAP1 DUP2 MSTORE PUSH1 0x40 DUP1 DUP5 KECCAK256 PUSH1 0x1 PUSH1 0x1 PUSH1 0xA0 SHL SUB SWAP4 SWAP1 SWAP4 AND DUP5 MSTORE SWAP2 SWAP1 MSTORE SWAP1 KECCAK256 SLOAD PUSH1 0xFF AND SWAP1 JUMP JUMPDEST PUSH2 0x530 CALLER DUP4 DUP4 PUSH2 0xAE7 JUMP JUMPDEST PUSH1 0x0 DUP3 DUP2 MSTORE PUSH1 0x5 PUSH1 0x20 MSTORE PUSH1 0x40 SWAP1 KECCAK256 PUSH1 0x1 ADD SLOAD PUSH2 0x70D DUP2 PUSH2 0x97C JUMP JUMPDEST PUSH2 0x444 DUP4 DUP4 PUSH2 0xA1D JUMP JUMPDEST PUSH1 0x1 PUSH1 0x1 PUSH1 0xA0 SHL SUB SWAP2 DUP3 AND PUSH1 0x0 SWAP1 DUP2 MSTORE PUSH1 0x1 PUSH1 0x20 SWAP1 DUP2 MSTORE PUSH1 0x40 DUP1 DUP4 KECCAK256 SWAP4 SWAP1 SWAP5 AND DUP3 MSTORE SWAP2 SWAP1 SWAP2 MSTORE KECCAK256 SLOAD PUSH1 0xFF AND SWAP1 JUMP JUMPDEST CALLER PUSH1 0x1 PUSH1 0x1 PUSH1 0xA0 SHL SUB DUP7 AND DUP2 EQ DUP1 ISZERO SWAP1 PUSH2 0x766 JUMPI POP PUSH2 0x764 DUP7 DUP3 PUSH2 0x717 JUMP JUMPDEST ISZERO JUMPDEST ISZERO PUSH2 0x797 JUMPI PUSH1 0x40 MLOAD PUSH4 0x711BEC91 PUSH1 0xE1 SHL DUP2 MSTORE PUSH1 0x1 PUSH1 0x1 PUSH1 0xA0 SHL SUB DUP1 DUP4 AND PUSH1 0x4 DUP4 ADD MSTORE DUP8 AND PUSH1 0x24 DUP3 ADD MSTORE PUSH1 0x44 ADD PUSH2 0x42F JUMP JUMPDEST PUSH2 0x4A9 DUP7 DUP7 DUP7 DUP7 DUP7 PUSH2 0xB7D JUMP JUMPDEST PUSH1 0x0 PUSH1 0x1 PUSH1 0x1 PUSH1 0xE0 SHL SUB NOT DUP3 AND PUSH4 0x7965DB0B PUSH1 0xE0 SHL EQ DUP1 PUSH2 0x355 JUMPI POP PUSH2 0x355 DUP3 PUSH2 0xC0B JUMP JUMPDEST PUSH1 0x60 DUP2 PUSH1 0x0 SUB PUSH2 0x7F0 JUMPI POP POP PUSH1 0x40 DUP1 MLOAD DUP1 DUP3 ADD SWAP1 SWAP2 MSTORE PUSH1 0x1 DUP2 MSTORE PUSH1 0x3 PUSH1 0xFC SHL PUSH1 0x20 DUP3 ADD MSTORE SWAP1 JUMP JUMPDEST PUSH1 0x0 DUP3 JUMPDEST DUP1 ISZERO PUSH2 0x819 JUMPI PUSH2 0x805 PUSH1 0xA DUP3 PUSH2 0x1AE1 JUMP JUMPDEST SWAP1 POP DUP2 PUSH2 0x811 DUP2 PUSH2 0x1AB2 JUMP JUMPDEST SWAP3 POP POP PUSH2 0x7F4 JUMP JUMPDEST PUSH1 0x0 DUP3 PUSH8 0xFFFFFFFFFFFFFFFF DUP2 GT ISZERO PUSH2 0x834 JUMPI PUSH2 0x834 PUSH2 0x1373 JUMP JUMPDEST PUSH1 0x40 MLOAD SWAP1 DUP1 DUP3 MSTORE DUP1 PUSH1 0x1F ADD PUSH1 0x1F NOT AND PUSH1 0x20 ADD DUP3 ADD PUSH1 0x40 MSTORE DUP1 ISZERO PUSH2 0x85E JUMPI PUSH1 0x20 DUP3 ADD DUP2 DUP1 CALLDATASIZE DUP4 CALLDATACOPY ADD SWAP1 POP JUMPDEST POP SWAP1 POP DUP3 JUMPDEST DUP1 ISZERO PUSH2 0x8D4 JUMPI PUSH2 0x874 PUSH1 0xA DUP8 PUSH2 0x1AF5 JUMP JUMPDEST PUSH2 0x87F SWAP1 PUSH1 0x30 PUSH2 0x1B09 JUMP JUMPDEST PUSH1 0xF8 SHL DUP3 PUSH2 0x88E PUSH1 0x1 DUP5 PUSH2 0x1B1C JUMP JUMPDEST DUP2 MLOAD DUP2 LT PUSH2 0x89E JUMPI PUSH2 0x89E PUSH2 0x1A86 JUMP JUMPDEST PUSH1 0x20 ADD ADD SWAP1 PUSH1 0x1 PUSH1 0x1 PUSH1 0xF8 SHL SUB NOT AND SWAP1 DUP2 PUSH1 0x0 BYTE SWAP1 MSTORE8 POP PUSH2 0x8C0 PUSH1 0xA DUP8 PUSH2 0x1AE1 JUMP JUMPDEST SWAP6 POP DUP1 PUSH2 0x8CC DUP2 PUSH2 0x1B2F JUMP JUMPDEST SWAP2 POP POP PUSH2 0x863 JUMP JUMPDEST POP SWAP5 SWAP4 POP POP POP POP JUMP JUMPDEST PUSH1 0x1 PUSH1 0x1 PUSH1 0xA0 SHL SUB DUP5 AND PUSH2 0x907 JUMPI PUSH1 0x40 MLOAD PUSH4 0x2BFA23E7 PUSH1 0xE1 SHL DUP2 MSTORE PUSH1 0x0 PUSH1 0x4 DUP3 ADD MSTORE PUSH1 0x24 ADD PUSH2 0x42F JUMP JUMPDEST PUSH2 0x444 PUSH1 0x0 DUP6 DUP6 DUP6 DUP6 PUSH2 0xC5B JUMP JUMPDEST PUSH1 0x1 PUSH1 0x1 PUSH1 0xA0 SHL SUB DUP5 AND PUSH2 0x93F JUMPI PUSH1 0x40 MLOAD PUSH4 0x2BFA23E7 PUSH1 0xE1 SHL DUP2 MSTORE PUSH1 0x0 PUSH1 0x4 DUP3 ADD MSTORE PUSH1 0x24 ADD PUSH2 0x42F JUMP JUMPDEST PUSH1 0x1 PUSH1 0x1 PUSH1 0xA0 SHL SUB DUP6 AND PUSH2 0x968 JUMPI PUSH1 0x40 MLOAD PUSH3 0x6A0D45 PUSH1 0xE2 SHL DUP2 MSTORE PUSH1 0x0 PUSH1 0x4 DUP3 ADD MSTORE PUSH1 0x24 ADD PUSH2 0x42F JUMP JUMPDEST PUSH2 0x975 DUP6 DUP6 DUP6 DUP6 DUP6 PUSH2 0xC5B JUMP JUMPDEST POP POP POP POP POP JUMP JUMPDEST PUSH2 0x986 DUP2 CALLER PUSH2 0xCAE JUMP JUMPDEST POP JUMP JUMPDEST PUSH1 0x0 PUSH2 0x995 DUP4 DUP4 PUSH2 0x6BC JUMP JUMPDEST PUSH2 0xA15 JUMPI PUSH1 0x0 DUP4 DUP2 MSTORE PUSH1 0x5 PUSH1 0x20 SWAP1 DUP2 MSTORE PUSH1 0x40 DUP1 DUP4 KECCAK256 PUSH1 0x1 PUSH1 0x1 PUSH1 0xA0 SHL SUB DUP7 AND DUP5 MSTORE SWAP1 SWAP2 MSTORE SWAP1 KECCAK256 DUP1 SLOAD PUSH1 0xFF NOT AND PUSH1 0x1 OR SWAP1 SSTORE PUSH2 0x9CD CALLER SWAP1 JUMP JUMPDEST PUSH1 0x1 PUSH1 0x1 PUSH1 0xA0 SHL SUB AND DUP3 PUSH1 0x1 PUSH1 0x1 PUSH1 0xA0 SHL SUB AND DUP5 PUSH32 0x2F8788117E7EFF1D82E926EC794901D17C78024A50270940304540A733656F0D PUSH1 0x40 MLOAD PUSH1 0x40 MLOAD DUP1 SWAP2 SUB SWAP1 LOG4 POP PUSH1 0x1 PUSH2 0x355 JUMP JUMPDEST POP PUSH1 0x0 PUSH2 0x355 JUMP JUMPDEST PUSH1 0x0 PUSH2 0xA29 DUP4 DUP4 PUSH2 0x6BC JUMP JUMPDEST ISZERO PUSH2 0xA15 JUMPI PUSH1 0x0 DUP4 DUP2 MSTORE PUSH1 0x5 PUSH1 0x20 SWAP1 DUP2 MSTORE PUSH1 0x40 DUP1 DUP4 KECCAK256 PUSH1 0x1 PUSH1 0x1 PUSH1 0xA0 SHL SUB DUP7 AND DUP1 DUP6 MSTORE SWAP3 MSTORE DUP1 DUP4 KECCAK256 DUP1 SLOAD PUSH1 0xFF NOT AND SWAP1 SSTORE MLOAD CALLER SWAP3 DUP7 SWAP2 PUSH32 0xF6391F5C32D9C69D2A47EA670B442974B53935D1EDC7FD64EB21E047A839171B SWAP2 SWAP1 LOG4 POP PUSH1 0x1 PUSH2 0x355 JUMP JUMPDEST PUSH1 0x1 PUSH1 0x1 PUSH1 0xA0 SHL SUB DUP5 AND PUSH2 0xAB4 JUMPI PUSH1 0x40 MLOAD PUSH4 0x2BFA23E7 PUSH1 0xE1 SHL DUP2 MSTORE PUSH1 0x0 PUSH1 0x4 DUP3 ADD MSTORE PUSH1 0x24 ADD PUSH2 0x42F JUMP JUMPDEST PUSH1 0x40 DUP1 MLOAD PUSH1 0x1 DUP1 DUP3 MSTORE PUSH1 0x20 DUP3 ADD DUP7 SWAP1 MSTORE DUP2 DUP4 ADD SWAP1 DUP2 MSTORE PUSH1 0x60 DUP3 ADD DUP6 SWAP1 MSTORE PUSH1 0x80 DUP3 ADD SWAP1 SWAP3 MSTORE SWAP1 PUSH2 0x4A9 PUSH1 0x0 DUP8 DUP5 DUP5 DUP8 PUSH2 0xC5B JUMP JUMPDEST PUSH1 0x1 PUSH1 0x1 PUSH1 0xA0 SHL SUB DUP3 AND PUSH2 0xB10 JUMPI PUSH1 0x40 MLOAD PUSH3 0xCED3E1 PUSH1 0xE8 SHL DUP2 MSTORE PUSH1 0x0 PUSH1 0x4 DUP3 ADD MSTORE PUSH1 0x24 ADD PUSH2 0x42F JUMP JUMPDEST PUSH1 0x1 PUSH1 0x1 PUSH1 0xA0 SHL SUB DUP4 DUP2 AND PUSH1 0x0 DUP2 DUP2 MSTORE PUSH1 0x1 PUSH1 0x20 SWAP1 DUP2 MSTORE PUSH1 0x40 DUP1 DUP4 KECCAK256 SWAP5 DUP8 AND DUP1 DUP5 MSTORE SWAP5 DUP3 MSTORE SWAP2 DUP3 SWAP1 KECCAK256 DUP1 SLOAD PUSH1 0xFF NOT AND DUP7 ISZERO ISZERO SWAP1 DUP2 OR SWAP1 SWAP2 SSTORE SWAP2 MLOAD SWAP2 DUP3 MSTORE PUSH32 0x17307EAB39AB6107E8899845AD3D59BD9653F200F220920489CA2B5937696C31 SWAP2 ADD PUSH1 0x40 MLOAD DUP1 SWAP2 SUB SWAP1 LOG3 POP POP POP JUMP JUMPDEST PUSH1 0x1 PUSH1 0x1 PUSH1 0xA0 SHL SUB DUP5 AND PUSH2 0xBA7 JUMPI PUSH1 0x40 MLOAD PUSH4 0x2BFA23E7 PUSH1 0xE1 SHL DUP2 MSTORE PUSH1 0x0 PUSH1 0x4 DUP3 ADD MSTORE PUSH1 0x24 ADD PUSH2 0x42F JUMP JUMPDEST PUSH1 0x1 PUSH1 0x1 PUSH1 0xA0 SHL SUB DUP6 AND PUSH2 0xBD0 JUMPI PUSH1 0x40 MLOAD PUSH3 0x6A0D45 PUSH1 0xE2 SHL DUP2 MSTORE PUSH1 0x0 PUSH1 0x4 DUP3 ADD MSTORE PUSH1 0x24 ADD PUSH2 0x42F JUMP JUMPDEST PUSH1 0x40 DUP1 MLOAD PUSH1 0x1 DUP1 DUP3 MSTORE PUSH1 0x20 DUP3 ADD DUP7 SWAP1 MSTORE DUP2 DUP4 ADD SWAP1 DUP2 MSTORE PUSH1 0x60 DUP3 ADD DUP6 SWAP1 MSTORE PUSH1 0x80 DUP3 ADD SWAP1 SWAP3 MSTORE SWAP1 PUSH2 0xC02 DUP8 DUP8 DUP5 DUP5 DUP8 PUSH2 0xC5B JUMP JUMPDEST POP POP POP POP POP POP POP JUMP JUMPDEST PUSH1 0x0 PUSH1 0x1 PUSH1 0x1 PUSH1 0xE0 SHL SUB NOT DUP3 AND PUSH4 0x6CDB3D13 PUSH1 0xE1 SHL EQ DUP1 PUSH2 0xC3C JUMPI POP PUSH1 0x1 PUSH1 0x1 PUSH1 0xE0 SHL SUB NOT DUP3 AND PUSH4 0x3A24D07 PUSH1 0xE2 SHL EQ JUMPDEST DUP1 PUSH2 0x355 JUMPI POP PUSH4 0x1FFC9A7 PUSH1 0xE0 SHL PUSH1 0x1 PUSH1 0x1 PUSH1 0xE0 SHL SUB NOT DUP4 AND EQ PUSH2 0x355 JUMP JUMPDEST PUSH2 0xC67 DUP6 DUP6 DUP6 DUP6 PUSH2 0xCE7 JUMP JUMPDEST PUSH1 0x1 PUSH1 0x1 PUSH1 0xA0 SHL SUB DUP5 AND ISZERO PUSH2 0x975 JUMPI DUP3 MLOAD CALLER SWAP1 PUSH1 0x1 SUB PUSH2 0xCA0 JUMPI PUSH1 0x20 DUP5 DUP2 ADD MLOAD SWAP1 DUP5 ADD MLOAD PUSH2 0xC99 DUP4 DUP10 DUP10 DUP6 DUP6 DUP10 PUSH2 0xCF3 JUMP JUMPDEST POP POP PUSH2 0x4A9 JUMP JUMPDEST PUSH2 0x4A9 DUP2 DUP8 DUP8 DUP8 DUP8 DUP8 PUSH2 0xE17 JUMP JUMPDEST PUSH2 0xCB8 DUP3 DUP3 PUSH2 0x6BC JUMP JUMPDEST PUSH2 0x530 JUMPI PUSH1 0x40 MLOAD PUSH4 0xE2517D3F PUSH1 0xE0 SHL DUP2 MSTORE PUSH1 0x1 PUSH1 0x1 PUSH1 0xA0 SHL SUB DUP3 AND PUSH1 0x4 DUP3 ADD MSTORE PUSH1 0x24 DUP2 ADD DUP4 SWAP1 MSTORE PUSH1 0x44 ADD PUSH2 0x42F JUMP JUMPDEST PUSH2 0x444 DUP5 DUP5 DUP5 DUP5 PUSH2 0xF00 JUMP JUMPDEST PUSH1 0x1 PUSH1 0x1 PUSH1 0xA0 SHL SUB DUP5 AND EXTCODESIZE ISZERO PUSH2 0x4A9 JUMPI PUSH1 0x40 MLOAD PUSH4 0xF23A6E61 PUSH1 0xE0 SHL DUP2 MSTORE PUSH1 0x1 PUSH1 0x1 PUSH1 0xA0 SHL SUB DUP6 AND SWAP1 PUSH4 0xF23A6E61 SWAP1 PUSH2 0xD37 SWAP1 DUP10 SWAP1 DUP10 SWAP1 DUP9 SWAP1 DUP9 SWAP1 DUP9 SWAP1 PUSH1 0x4 ADD PUSH2 0x1B46 JUMP JUMPDEST PUSH1 0x20 PUSH1 0x40 MLOAD DUP1 DUP4 SUB DUP2 PUSH1 0x0 DUP8 GAS CALL SWAP3 POP POP POP DUP1 ISZERO PUSH2 0xD72 JUMPI POP PUSH1 0x40 DUP1 MLOAD PUSH1 0x1F RETURNDATASIZE SWAP1 DUP2 ADD PUSH1 0x1F NOT AND DUP3 ADD SWAP1 SWAP3 MSTORE PUSH2 0xD6F SWAP2 DUP2 ADD SWAP1 PUSH2 0x1B8B JUMP JUMPDEST PUSH1 0x1 JUMPDEST PUSH2 0xDDB JUMPI RETURNDATASIZE DUP1 DUP1 ISZERO PUSH2 0xDA0 JUMPI PUSH1 0x40 MLOAD SWAP2 POP PUSH1 0x1F NOT PUSH1 0x3F RETURNDATASIZE ADD AND DUP3 ADD PUSH1 0x40 MSTORE RETURNDATASIZE DUP3 MSTORE RETURNDATASIZE PUSH1 0x0 PUSH1 0x20 DUP5 ADD RETURNDATACOPY PUSH2 0xDA5 JUMP JUMPDEST PUSH1 0x60 SWAP2 POP JUMPDEST POP DUP1 MLOAD PUSH1 0x0 SUB PUSH2 0xDD3 JUMPI PUSH1 0x40 MLOAD PUSH4 0x2BFA23E7 PUSH1 0xE1 SHL DUP2 MSTORE PUSH1 0x1 PUSH1 0x1 PUSH1 0xA0 SHL SUB DUP7 AND PUSH1 0x4 DUP3 ADD MSTORE PUSH1 0x24 ADD PUSH2 0x42F JUMP JUMPDEST DUP1 MLOAD DUP2 PUSH1 0x20 ADD REVERT JUMPDEST PUSH1 0x1 PUSH1 0x1 PUSH1 0xE0 SHL SUB NOT DUP2 AND PUSH4 0xF23A6E61 PUSH1 0xE0 SHL EQ PUSH2 0xC02 JUMPI PUSH1 0x40 MLOAD PUSH4 0x2BFA23E7 PUSH1 0xE1 SHL DUP2 MSTORE PUSH1 0x1 PUSH1 0x1 PUSH1 0xA0 SHL SUB DUP7 AND PUSH1 0x4 DUP3 ADD MSTORE PUSH1 0x24 ADD PUSH2 0x42F JUMP JUMPDEST PUSH1 0x1 PUSH1 0x1 PUSH1 0xA0 SHL SUB DUP5 AND EXTCODESIZE ISZERO PUSH2 0x4A9 JUMPI PUSH1 0x40 MLOAD PUSH4 0xBC197C81 PUSH1 0xE0 SHL DUP2 MSTORE PUSH1 0x1 PUSH1 0x1 PUSH1 0xA0 SHL SUB DUP6 AND SWAP1 PUSH4 0xBC197C81 SWAP1 PUSH2 0xE5B SWAP1 DUP10 SWAP1 DUP10 SWAP1 DUP9 SWAP1 DUP9 SWAP1 DUP9 SWAP1 PUSH1 0x4 ADD PUSH2 0x1BA8 JUMP JUMPDEST PUSH1 0x20 PUSH1 0x40 MLOAD DUP1 DUP4 SUB DUP2 PUSH1 0x0 DUP8 GAS CALL SWAP3 POP POP POP DUP1 ISZERO PUSH2 0xE96 JUMPI POP PUSH1 0x40 DUP1 MLOAD PUSH1 0x1F RETURNDATASIZE SWAP1 DUP2 ADD PUSH1 0x1F NOT AND DUP3 ADD SWAP1 SWAP3 MSTORE PUSH2 0xE93 SWAP2 DUP2 ADD SWAP1 PUSH2 0x1B8B JUMP JUMPDEST PUSH1 0x1 JUMPDEST PUSH2 0xEC4 JUMPI RETURNDATASIZE DUP1 DUP1 ISZERO PUSH2 0xDA0 JUMPI PUSH1 0x40 MLOAD SWAP2 POP PUSH1 0x1F NOT PUSH1 0x3F RETURNDATASIZE ADD AND DUP3 ADD PUSH1 0x40 MSTORE RETURNDATASIZE DUP3 MSTORE RETURNDATASIZE PUSH1 0x0 PUSH1 0x20 DUP5 ADD RETURNDATACOPY PUSH2 0xDA5 JUMP JUMPDEST PUSH1 0x1 PUSH1 0x1 PUSH1 0xE0 SHL SUB NOT DUP2 AND PUSH4 0xBC197C81 PUSH1 0xE0 SHL EQ PUSH2 0xC02 JUMPI PUSH1 0x40 MLOAD PUSH4 0x2BFA23E7 PUSH1 0xE1 SHL DUP2 MSTORE PUSH1 0x1 PUSH1 0x1 PUSH1 0xA0 SHL SUB DUP7 AND PUSH1 0x4 DUP3 ADD MSTORE PUSH1 0x24 ADD PUSH2 0x42F JUMP JUMPDEST PUSH2 0xF0C DUP5 DUP5 DUP5 DUP5 PUSH2 0x105A JUMP JUMPDEST PUSH1 0x1 PUSH1 0x1 PUSH1 0xA0 SHL SUB DUP5 AND PUSH2 0xFBF JUMPI PUSH1 0x0 DUP1 JUMPDEST DUP4 MLOAD DUP2 LT ISZERO PUSH2 0xFA5 JUMPI PUSH1 0x0 DUP4 DUP3 DUP2 MLOAD DUP2 LT PUSH2 0xF3B JUMPI PUSH2 0xF3B PUSH2 0x1A86 JUMP JUMPDEST PUSH1 0x20 MUL PUSH1 0x20 ADD ADD MLOAD SWAP1 POP DUP1 PUSH1 0x3 PUSH1 0x0 DUP8 DUP6 DUP2 MLOAD DUP2 LT PUSH2 0xF5C JUMPI PUSH2 0xF5C PUSH2 0x1A86 JUMP JUMPDEST PUSH1 0x20 MUL PUSH1 0x20 ADD ADD MLOAD DUP2 MSTORE PUSH1 0x20 ADD SWAP1 DUP2 MSTORE PUSH1 0x20 ADD PUSH1 0x0 KECCAK256 PUSH1 0x0 DUP3 DUP3 SLOAD PUSH2 0xF81 SWAP2 SWAP1 PUSH2 0x1B09 JUMP JUMPDEST SWAP1 SWAP2 SSTORE POP PUSH2 0xF91 SWAP1 POP DUP2 DUP5 PUSH2 0x1B09 JUMP JUMPDEST SWAP3 POP POP DUP1 PUSH2 0xF9E SWAP1 PUSH2 0x1AB2 JUMP JUMPDEST SWAP1 POP PUSH2 0xF1E JUMP JUMPDEST POP DUP1 PUSH1 0x4 PUSH1 0x0 DUP3 DUP3 SLOAD PUSH2 0xFB8 SWAP2 SWAP1 PUSH2 0x1B09 JUMP JUMPDEST SWAP1 SWAP2 SSTORE POP POP POP JUMPDEST PUSH1 0x1 PUSH1 0x1 PUSH1 0xA0 SHL SUB DUP4 AND PUSH2 0x444 JUMPI PUSH1 0x0 DUP1 JUMPDEST DUP4 MLOAD DUP2 LT ISZERO PUSH2 0x1049 JUMPI PUSH1 0x0 DUP4 DUP3 DUP2 MLOAD DUP2 LT PUSH2 0xFEE JUMPI PUSH2 0xFEE PUSH2 0x1A86 JUMP JUMPDEST PUSH1 0x20 MUL PUSH1 0x20 ADD ADD MLOAD SWAP1 POP DUP1 PUSH1 0x3 PUSH1 0x0 DUP8 DUP6 DUP2 MLOAD DUP2 LT PUSH2 0x100F JUMPI PUSH2 0x100F PUSH2 0x1A86 JUMP JUMPDEST PUSH1 0x20 MUL PUSH1 0x20 ADD ADD MLOAD DUP2 MSTORE PUSH1 0x20 ADD SWAP1 DUP2 MSTORE PUSH1 0x20 ADD PUSH1 0x0 KECCAK256 PUSH1 0x0 DUP3 DUP3 SLOAD SUB SWAP3 POP POP DUP2 SWAP1 SSTORE POP DUP1 DUP4 ADD SWAP3 POP POP DUP1 PUSH2 0x1042 SWAP1 PUSH2 0x1AB2 JUMP JUMPDEST SWAP1 POP PUSH2 0xFD1 JUMP JUMPDEST POP PUSH1 0x4 DUP1 SLOAD SWAP2 SWAP1 SWAP2 SUB SWAP1 SSTORE POP POP POP POP JUMP JUMPDEST DUP1 MLOAD DUP3 MLOAD EQ PUSH2 0x1089 JUMPI DUP2 MLOAD DUP2 MLOAD PUSH1 0x40 MLOAD PUSH4 0x5B059991 PUSH1 0xE0 SHL DUP2 MSTORE PUSH1 0x4 DUP2 ADD SWAP3 SWAP1 SWAP3 MSTORE PUSH1 0x24 DUP3 ADD MSTORE PUSH1 0x44 ADD PUSH2 0x42F JUMP JUMPDEST CALLER PUSH1 0x0 JUMPDEST DUP4 MLOAD DUP2 LT ISZERO PUSH2 0x1198 JUMPI PUSH1 0x20 DUP2 DUP2 MUL DUP6 DUP2 ADD DUP3 ADD MLOAD SWAP1 DUP6 ADD SWAP1 SWAP2 ADD MLOAD PUSH1 0x1 PUSH1 0x1 PUSH1 0xA0 SHL SUB DUP9 AND ISZERO PUSH2 0x1140 JUMPI PUSH1 0x0 DUP3 DUP2 MSTORE PUSH1 0x20 DUP2 DUP2 MSTORE PUSH1 0x40 DUP1 DUP4 KECCAK256 PUSH1 0x1 PUSH1 0x1 PUSH1 0xA0 SHL SUB DUP13 AND DUP5 MSTORE SWAP1 SWAP2 MSTORE SWAP1 KECCAK256 SLOAD DUP2 DUP2 LT ISZERO PUSH2 0x1119 JUMPI PUSH1 0x40 MLOAD PUSH4 0x3DEE4C5 PUSH1 0xE0 SHL DUP2 MSTORE PUSH1 0x1 PUSH1 0x1 PUSH1 0xA0 SHL SUB DUP11 AND PUSH1 0x4 DUP3 ADD MSTORE PUSH1 0x24 DUP2 ADD DUP3 SWAP1 MSTORE PUSH1 0x44 DUP2 ADD DUP4 SWAP1 MSTORE PUSH1 0x64 DUP2 ADD DUP5 SWAP1 MSTORE PUSH1 0x84 ADD PUSH2 0x42F JUMP JUMPDEST PUSH1 0x0 DUP4 DUP2 MSTORE PUSH1 0x20 DUP2 DUP2 MSTORE PUSH1 0x40 DUP1 DUP4 KECCAK256 PUSH1 0x1 PUSH1 0x1 PUSH1 0xA0 SHL SUB DUP14 AND DUP5 MSTORE SWAP1 SWAP2 MSTORE SWAP1 KECCAK256 SWAP1 DUP3 SWAP1 SUB SWAP1 SSTORE JUMPDEST PUSH1 0x1 PUSH1 0x1 PUSH1 0xA0 SHL SUB DUP8 AND ISZERO PUSH2 0x1185 JUMPI PUSH1 0x0 DUP3 DUP2 MSTORE PUSH1 0x20 DUP2 DUP2 MSTORE PUSH1 0x40 DUP1 DUP4 KECCAK256 PUSH1 0x1 PUSH1 0x1 PUSH1 0xA0 SHL SUB DUP12 AND DUP5 MSTORE SWAP1 SWAP2 MSTORE DUP2 KECCAK256 DUP1 SLOAD DUP4 SWAP3 SWAP1 PUSH2 0x117F SWAP1 DUP5 SWAP1 PUSH2 0x1B09 JUMP JUMPDEST SWAP1 SWAP2 SSTORE POP POP JUMPDEST POP POP DUP1 PUSH2 0x1191 SWAP1 PUSH2 0x1AB2 JUMP JUMPDEST SWAP1 POP PUSH2 0x108D JUMP JUMPDEST POP DUP3 MLOAD PUSH1 0x1 SUB PUSH2 0x1219 JUMPI PUSH1 0x20 DUP4 ADD MLOAD PUSH1 0x0 SWAP1 PUSH1 0x20 DUP5 ADD MLOAD SWAP1 SWAP2 POP DUP6 PUSH1 0x1 PUSH1 0x1 PUSH1 0xA0 SHL SUB AND DUP8 PUSH1 0x1 PUSH1 0x1 PUSH1 0xA0 SHL SUB AND DUP5 PUSH1 0x1 PUSH1 0x1 PUSH1 0xA0 SHL SUB AND PUSH32 0xC3D58168C5AE7397731D063D5BBF3D657854427343F4C083240F7AACAA2D0F62 DUP6 DUP6 PUSH1 0x40 MLOAD PUSH2 0x120A SWAP3 SWAP2 SWAP1 SWAP2 DUP3 MSTORE PUSH1 0x20 DUP3 ADD MSTORE PUSH1 0x40 ADD SWAP1 JUMP JUMPDEST PUSH1 0x40 MLOAD DUP1 SWAP2 SUB SWAP1 LOG4 POP POP PUSH2 0x975 JUMP JUMPDEST DUP4 PUSH1 0x1 PUSH1 0x1 PUSH1 0xA0 SHL SUB AND DUP6 PUSH1 0x1 PUSH1 0x1 PUSH1 0xA0 SHL SUB AND DUP3 PUSH1 0x1 PUSH1 0x1 PUSH1 0xA0 SHL SUB AND PUSH32 0x4A39DC06D4C0DBC64B70AF90FD698A233A518AA5D07E595D983B8C0526C8F7FB DUP7 DUP7 PUSH1 0x40 MLOAD PUSH2 0x1268 SWAP3 SWAP2 SWAP1 PUSH2 0x1C06 JUMP JUMPDEST PUSH1 0x40 MLOAD DUP1 SWAP2 SUB SWAP1 LOG4 POP POP POP POP POP JUMP JUMPDEST DUP1 CALLDATALOAD PUSH1 0x1 PUSH1 0x1 PUSH1 0xA0 SHL SUB DUP2 AND DUP2 EQ PUSH2 0x128E JUMPI PUSH1 0x0 DUP1 REVERT JUMPDEST SWAP2 SWAP1 POP JUMP JUMPDEST PUSH1 0x0 DUP1 PUSH1 0x40 DUP4 DUP6 SUB SLT ISZERO PUSH2 0x12A6 JUMPI PUSH1 0x0 DUP1 REVERT JUMPDEST PUSH2 0x12AF DUP4 PUSH2 0x1277 JUMP JUMPDEST SWAP5 PUSH1 0x20 SWAP4 SWAP1 SWAP4 ADD CALLDATALOAD SWAP4 POP POP POP JUMP JUMPDEST PUSH1 0x1 PUSH1 0x1 PUSH1 0xE0 SHL SUB NOT DUP2 AND DUP2 EQ PUSH2 0x986 JUMPI PUSH1 0x0 DUP1 REVERT JUMPDEST PUSH1 0x0 PUSH1 0x20 DUP3 DUP5 SUB SLT ISZERO PUSH2 0x12E5 JUMPI PUSH1 0x0 DUP1 REVERT JUMPDEST DUP2 CALLDATALOAD PUSH2 0x12F0 DUP2 PUSH2 0x12BD JUMP JUMPDEST SWAP4 SWAP3 POP POP POP JUMP JUMPDEST PUSH1 0x0 PUSH1 0x20 DUP3 DUP5 SUB SLT ISZERO PUSH2 0x1309 JUMPI PUSH1 0x0 DUP1 REVERT JUMPDEST POP CALLDATALOAD SWAP2 SWAP1 POP JUMP JUMPDEST PUSH1 0x0 JUMPDEST DUP4 DUP2 LT ISZERO PUSH2 0x132B JUMPI DUP2 DUP2 ADD MLOAD DUP4 DUP3 ADD MSTORE PUSH1 0x20 ADD PUSH2 0x1313 JUMP JUMPDEST POP POP PUSH1 0x0 SWAP2 ADD MSTORE JUMP JUMPDEST PUSH1 0x0 DUP2 MLOAD DUP1 DUP5 MSTORE PUSH2 0x134C DUP2 PUSH1 0x20 DUP7 ADD PUSH1 0x20 DUP7 ADD PUSH2 0x1310 JUMP JUMPDEST PUSH1 0x1F ADD PUSH1 0x1F NOT AND SWAP3 SWAP1 SWAP3 ADD PUSH1 0x20 ADD SWAP3 SWAP2 POP POP JUMP JUMPDEST PUSH1 0x20 DUP2 MSTORE PUSH1 0x0 PUSH2 0x12F0 PUSH1 0x20 DUP4 ADD DUP5 PUSH2 0x1334 JUMP JUMPDEST PUSH4 0x4E487B71 PUSH1 0xE0 SHL PUSH1 0x0 MSTORE PUSH1 0x41 PUSH1 0x4 MSTORE PUSH1 0x24 PUSH1 0x0 REVERT JUMPDEST PUSH1 0x40 MLOAD PUSH1 0x1F DUP3 ADD PUSH1 0x1F NOT AND DUP2 ADD PUSH8 0xFFFFFFFFFFFFFFFF DUP2 GT DUP3 DUP3 LT OR ISZERO PUSH2 0x13B2 JUMPI PUSH2 0x13B2 PUSH2 0x1373 JUMP JUMPDEST PUSH1 0x40 MSTORE SWAP2 SWAP1 POP JUMP JUMPDEST PUSH1 0x0 PUSH8 0xFFFFFFFFFFFFFFFF DUP3 GT ISZERO PUSH2 0x13D4 JUMPI PUSH2 0x13D4 PUSH2 0x1373 JUMP JUMPDEST POP PUSH1 0x5 SHL PUSH1 0x20 ADD SWAP1 JUMP JUMPDEST PUSH1 0x0 DUP3 PUSH1 0x1F DUP4 ADD SLT PUSH2 0x13EF JUMPI PUSH1 0x0 DUP1 REVERT JUMPDEST DUP2 CALLDATALOAD PUSH1 0x20 PUSH2 0x1404 PUSH2 0x13FF DUP4 PUSH2 0x13BA JUMP JUMPDEST PUSH2 0x1389 JUMP JUMPDEST DUP3 DUP2 MSTORE PUSH1 0x5 SWAP3 SWAP1 SWAP3 SHL DUP5 ADD DUP2 ADD SWAP2 DUP2 DUP2 ADD SWAP1 DUP7 DUP5 GT ISZERO PUSH2 0x1423 JUMPI PUSH1 0x0 DUP1 REVERT JUMPDEST DUP3 DUP7 ADD JUMPDEST DUP5 DUP2 LT ISZERO PUSH2 0x143E JUMPI DUP1 CALLDATALOAD DUP4 MSTORE SWAP2 DUP4 ADD SWAP2 DUP4 ADD PUSH2 0x1427 JUMP JUMPDEST POP SWAP7 SWAP6 POP POP POP POP POP POP JUMP JUMPDEST PUSH1 0x0 PUSH8 0xFFFFFFFFFFFFFFFF DUP4 GT ISZERO PUSH2 0x1463 JUMPI PUSH2 0x1463 PUSH2 0x1373 JUMP JUMPDEST PUSH2 0x1476 PUSH1 0x1F DUP5 ADD PUSH1 0x1F NOT AND PUSH1 0x20 ADD PUSH2 0x1389 JUMP JUMPDEST SWAP1 POP DUP3 DUP2 MSTORE DUP4 DUP4 DUP4 ADD GT ISZERO PUSH2 0x148A JUMPI PUSH1 0x0 DUP1 REVERT JUMPDEST DUP3 DUP3 PUSH1 0x20 DUP4 ADD CALLDATACOPY PUSH1 0x0 PUSH1 0x20 DUP5 DUP4 ADD ADD MSTORE SWAP4 SWAP3 POP POP POP JUMP JUMPDEST PUSH1 0x0 DUP3 PUSH1 0x1F DUP4 ADD SLT PUSH2 0x14B2 JUMPI PUSH1 0x0 DUP1 REVERT JUMPDEST PUSH2 0x12F0 DUP4 DUP4 CALLDATALOAD PUSH1 0x20 DUP6 ADD PUSH2 0x1449 JUMP JUMPDEST PUSH1 0x0 DUP1 PUSH1 0x0 DUP1 PUSH1 0x80 DUP6 DUP8 SUB SLT ISZERO PUSH2 0x14D7 JUMPI PUSH1 0x0 DUP1 REVERT JUMPDEST PUSH2 0x14E0 DUP6 PUSH2 0x1277 JUMP JUMPDEST SWAP4 POP PUSH1 0x20 DUP6 ADD CALLDATALOAD PUSH8 0xFFFFFFFFFFFFFFFF DUP1 DUP3 GT ISZERO PUSH2 0x14FD JUMPI PUSH1 0x0 DUP1 REVERT JUMPDEST PUSH2 0x1509 DUP9 DUP4 DUP10 ADD PUSH2 0x13DE JUMP JUMPDEST SWAP5 POP PUSH1 0x40 DUP8 ADD CALLDATALOAD SWAP2 POP DUP1 DUP3 GT ISZERO PUSH2 0x151F JUMPI PUSH1 0x0 DUP1 REVERT JUMPDEST PUSH2 0x152B DUP9 DUP4 DUP10 ADD PUSH2 0x13DE JUMP JUMPDEST SWAP4 POP PUSH1 0x60 DUP8 ADD CALLDATALOAD SWAP2 POP DUP1 DUP3 GT ISZERO PUSH2 0x1541 JUMPI PUSH1 0x0 DUP1 REVERT JUMPDEST POP PUSH2 0x154E DUP8 DUP3 DUP9 ADD PUSH2 0x14A1 JUMP JUMPDEST SWAP2 POP POP SWAP3 SWAP6 SWAP2 SWAP5 POP SWAP3 POP JUMP JUMPDEST PUSH1 0x0 DUP1 PUSH1 0x0 DUP1 PUSH1 0x0 PUSH1 0xA0 DUP7 DUP9 SUB SLT ISZERO PUSH2 0x1572 JUMPI PUSH1 0x0 DUP1 REVERT JUMPDEST PUSH2 0x157B DUP7 PUSH2 0x1277 JUMP JUMPDEST SWAP5 POP PUSH2 0x1589 PUSH1 0x20 DUP8 ADD PUSH2 0x1277 JUMP JUMPDEST SWAP4 POP PUSH1 0x40 DUP7 ADD CALLDATALOAD PUSH8 0xFFFFFFFFFFFFFFFF DUP1 DUP3 GT ISZERO PUSH2 0x15A6 JUMPI PUSH1 0x0 DUP1 REVERT JUMPDEST PUSH2 0x15B2 DUP10 DUP4 DUP11 ADD PUSH2 0x13DE JUMP JUMPDEST SWAP5 POP PUSH1 0x60 DUP9 ADD CALLDATALOAD SWAP2 POP DUP1 DUP3 GT ISZERO PUSH2 0x15C8 JUMPI PUSH1 0x0 DUP1 REVERT JUMPDEST PUSH2 0x15D4 DUP10 DUP4 DUP11 ADD PUSH2 0x13DE JUMP JUMPDEST SWAP4 POP PUSH1 0x80 DUP9 ADD CALLDATALOAD SWAP2 POP DUP1 DUP3 GT ISZERO PUSH2 0x15EA JUMPI PUSH1 0x0 DUP1 REVERT JUMPDEST POP PUSH2 0x15F7 DUP9 DUP3 DUP10 ADD PUSH2 0x14A1 JUMP JUMPDEST SWAP2 POP POP SWAP3 SWAP6 POP SWAP3 SWAP6 SWAP1 SWAP4 POP JUMP JUMPDEST PUSH1 0x0 DUP1 PUSH1 0x40 DUP4 DUP6 SUB SLT ISZERO PUSH2 0x1617 JUMPI PUSH1 0x0 DUP1 REVERT JUMPDEST DUP3 CALLDATALOAD SWAP2 POP PUSH2 0x1627 PUSH1 0x20 DUP5 ADD PUSH2 0x1277 JUMP JUMPDEST SWAP1 POP SWAP3 POP SWAP3 SWAP1 POP JUMP JUMPDEST PUSH1 0x0 PUSH1 0x20 DUP3 DUP5 SUB SLT ISZERO PUSH2 0x1642 JUMPI PUSH1 0x0 DUP1 REVERT JUMPDEST DUP2 CALLDATALOAD PUSH8 0xFFFFFFFFFFFFFFFF DUP2 GT ISZERO PUSH2 0x1659 JUMPI PUSH1 0x0 DUP1 REVERT JUMPDEST DUP3 ADD PUSH1 0x1F DUP2 ADD DUP5 SGT PUSH2 0x166A JUMPI PUSH1 0x0 DUP1 REVERT JUMPDEST PUSH2 0x1679 DUP5 DUP3 CALLDATALOAD PUSH1 0x20 DUP5 ADD PUSH2 0x1449 JUMP JUMPDEST SWAP5 SWAP4 POP POP POP POP JUMP JUMPDEST PUSH1 0x0 DUP1 PUSH1 0x40 DUP4 DUP6 SUB SLT ISZERO PUSH2 0x1694 JUMPI PUSH1 0x0 DUP1 REVERT JUMPDEST DUP3 CALLDATALOAD PUSH8 0xFFFFFFFFFFFFFFFF DUP1 DUP3 GT ISZERO PUSH2 0x16AC JUMPI PUSH1 0x0 DUP1 REVERT JUMPDEST DUP2 DUP6 ADD SWAP2 POP DUP6 PUSH1 0x1F DUP4 ADD SLT PUSH2 0x16C0 JUMPI PUSH1 0x0 DUP1 REVERT JUMPDEST DUP2 CALLDATALOAD PUSH1 0x20 PUSH2 0x16D0 PUSH2 0x13FF DUP4 PUSH2 0x13BA JUMP JUMPDEST DUP3 DUP2 MSTORE PUSH1 0x5 SWAP3 SWAP1 SWAP3 SHL DUP5 ADD DUP2 ADD SWAP2 DUP2 DUP2 ADD SWAP1 DUP10 DUP5 GT ISZERO PUSH2 0x16EF JUMPI PUSH1 0x0 DUP1 REVERT JUMPDEST SWAP5 DUP3 ADD SWAP5 JUMPDEST DUP4 DUP7 LT ISZERO PUSH2 0x1714 JUMPI PUSH2 0x1705 DUP7 PUSH2 0x1277 JUMP JUMPDEST DUP3 MSTORE SWAP5 DUP3 ADD SWAP5 SWAP1 DUP3 ADD SWAP1 PUSH2 0x16F4 JUMP JUMPDEST SWAP7 POP POP DUP7 ADD CALLDATALOAD SWAP3 POP POP DUP1 DUP3 GT ISZERO PUSH2 0x172A JUMPI PUSH1 0x0 DUP1 REVERT JUMPDEST POP PUSH2 0x1737 DUP6 DUP3 DUP7 ADD PUSH2 0x13DE JUMP JUMPDEST SWAP2 POP POP SWAP3 POP SWAP3 SWAP1 POP JUMP JUMPDEST PUSH1 0x0 DUP2 MLOAD DUP1 DUP5 MSTORE PUSH1 0x20 DUP1 DUP6 ADD SWAP5 POP DUP1 DUP5 ADD PUSH1 0x0 JUMPDEST DUP4 DUP2 LT ISZERO PUSH2 0x1771 JUMPI DUP2 MLOAD DUP8 MSTORE SWAP6 DUP3 ADD SWAP6 SWAP1 DUP3 ADD SWAP1 PUSH1 0x1 ADD PUSH2 0x1755 JUMP JUMPDEST POP SWAP5 SWAP6 SWAP5 POP POP POP POP POP JUMP JUMPDEST PUSH1 0x20 DUP2 MSTORE PUSH1 0x0 PUSH2 0x12F0 PUSH1 0x20 DUP4 ADD DUP5 PUSH2 0x1741 JUMP JUMPDEST PUSH1 0x0 DUP1 PUSH1 0x0 DUP1 PUSH1 0x80 DUP6 DUP8 SUB SLT ISZERO PUSH2 0x17A5 JUMPI PUSH1 0x0 DUP1 REVERT JUMPDEST PUSH2 0x17AE DUP6 PUSH2 0x1277 JUMP JUMPDEST SWAP4 POP PUSH1 0x20 DUP6 ADD CALLDATALOAD SWAP3 POP PUSH1 0x40 DUP6 ADD CALLDATALOAD SWAP2 POP PUSH1 0x60 DUP6 ADD CALLDATALOAD PUSH8 0xFFFFFFFFFFFFFFFF DUP2 GT ISZERO PUSH2 0x17D8 JUMPI PUSH1 0x0 DUP1 REVERT JUMPDEST PUSH2 0x154E DUP8 DUP3 DUP9 ADD PUSH2 0x14A1 JUMP JUMPDEST PUSH1 0x0 DUP1 PUSH1 0x40 DUP4 DUP6 SUB SLT ISZERO PUSH2 0x17F7 JUMPI PUSH1 0x0 DUP1 REVERT JUMPDEST PUSH2 0x1800 DUP4 PUSH2 0x1277 JUMP JUMPDEST SWAP2 POP PUSH1 0x20 DUP4 ADD CALLDATALOAD DUP1 ISZERO ISZERO DUP2 EQ PUSH2 0x1815 JUMPI PUSH1 0x0 DUP1 REVERT JUMPDEST DUP1 SWAP2 POP POP SWAP3 POP SWAP3 SWAP1 POP JUMP JUMPDEST PUSH1 0x0 DUP1 PUSH1 0x40 DUP4 DUP6 SUB SLT ISZERO PUSH2 0x1833 JUMPI PUSH1 0x0 DUP1 REVERT JUMPDEST PUSH2 0x183C DUP4 PUSH2 0x1277 JUMP JUMPDEST SWAP2 POP PUSH2 0x1627 PUSH1 0x20 DUP5 ADD PUSH2 0x1277 JUMP JUMPDEST PUSH1 0x0 DUP1 PUSH1 0x0 DUP1 PUSH1 0x0 PUSH1 0xA0 DUP7 DUP9 SUB SLT ISZERO PUSH2 0x1862 JUMPI PUSH1 0x0 DUP1 REVERT JUMPDEST PUSH2 0x186B DUP7 PUSH2 0x1277 JUMP JUMPDEST SWAP5 POP PUSH2 0x1879 PUSH1 0x20 DUP8 ADD PUSH2 0x1277 JUMP JUMPDEST SWAP4 POP PUSH1 0x40 DUP7 ADD CALLDATALOAD SWAP3 POP PUSH1 0x60 DUP7 ADD CALLDATALOAD SWAP2 POP PUSH1 0x80 DUP7 ADD CALLDATALOAD PUSH8 0xFFFFFFFFFFFFFFFF DUP2 GT ISZERO PUSH2 0x18A3 JUMPI PUSH1 0x0 DUP1 REVERT JUMPDEST PUSH2 0x15F7 DUP9 DUP3 DUP10 ADD PUSH2 0x14A1 JUMP JUMPDEST PUSH1 0x1 DUP2 DUP2 SHR SWAP1 DUP3 AND DUP1 PUSH2 0x18C3 JUMPI PUSH1 0x7F DUP3 AND SWAP2 POP JUMPDEST PUSH1 0x20 DUP3 LT DUP2 SUB PUSH2 0x18E3 JUMPI PUSH4 0x4E487B71 PUSH1 0xE0 SHL PUSH1 0x0 MSTORE PUSH1 0x22 PUSH1 0x4 MSTORE PUSH1 0x24 PUSH1 0x0 REVERT JUMPDEST POP SWAP2 SWAP1 POP JUMP JUMPDEST PUSH1 0x0 DUP1 DUP5 SLOAD PUSH2 0x18F7 DUP2 PUSH2 0x18AF JUMP JUMPDEST PUSH1 0x1 DUP3 DUP2 AND DUP1 ISZERO PUSH2 0x190F JUMPI PUSH1 0x1 DUP2 EQ PUSH2 0x1924 JUMPI PUSH2 0x1953 JUMP JUMPDEST PUSH1 0xFF NOT DUP5 AND DUP8 MSTORE DUP3 ISZERO ISZERO DUP4 MUL DUP8 ADD SWAP5 POP PUSH2 0x1953 JUMP JUMPDEST DUP9 PUSH1 0x0 MSTORE PUSH1 0x20 DUP1 PUSH1 0x0 KECCAK256 PUSH1 0x0 JUMPDEST DUP6 DUP2 LT ISZERO PUSH2 0x194A JUMPI DUP2 SLOAD DUP11 DUP3 ADD MSTORE SWAP1 DUP5 ADD SWAP1 DUP3 ADD PUSH2 0x1931 JUMP JUMPDEST POP POP POP DUP3 DUP8 ADD SWAP5 POP JUMPDEST POP POP POP POP DUP4 MLOAD PUSH2 0x1967 DUP2 DUP4 PUSH1 0x20 DUP9 ADD PUSH2 0x1310 JUMP JUMPDEST PUSH5 0x173539B7B7 PUSH1 0xD9 SHL SWAP2 ADD SWAP1 DUP2 MSTORE PUSH1 0x5 ADD SWAP5 SWAP4 POP POP POP POP JUMP JUMPDEST PUSH1 0x1F DUP3 GT ISZERO PUSH2 0x567 JUMPI PUSH1 0x0 DUP2 DUP2 MSTORE PUSH1 0x20 DUP2 KECCAK256 PUSH1 0x1F DUP6 ADD PUSH1 0x5 SHR DUP2 ADD PUSH1 0x20 DUP7 LT ISZERO PUSH2 0x19A7 JUMPI POP DUP1 JUMPDEST PUSH1 0x1F DUP6 ADD PUSH1 0x5 SHR DUP3 ADD SWAP2 POP JUMPDEST DUP2 DUP2 LT ISZERO PUSH2 0x4A9 JUMPI DUP3 DUP2 SSTORE PUSH1 0x1 ADD PUSH2 0x19B3 JUMP JUMPDEST DUP2 MLOAD PUSH8 0xFFFFFFFFFFFFFFFF DUP2 GT ISZERO PUSH2 0x19E0 JUMPI PUSH2 0x19E0 PUSH2 0x1373 JUMP JUMPDEST PUSH2 0x19F4 DUP2 PUSH2 0x19EE DUP5 SLOAD PUSH2 0x18AF JUMP JUMPDEST DUP5 PUSH2 0x1980 JUMP JUMPDEST PUSH1 0x20 DUP1 PUSH1 0x1F DUP4 GT PUSH1 0x1 DUP2 EQ PUSH2 0x1A29 JUMPI PUSH1 0x0 DUP5 ISZERO PUSH2 0x1A11 JUMPI POP DUP6 DUP4 ADD MLOAD JUMPDEST PUSH1 0x0 NOT PUSH1 0x3 DUP7 SWAP1 SHL SHR NOT AND PUSH1 0x1 DUP6 SWAP1 SHL OR DUP6 SSTORE PUSH2 0x4A9 JUMP JUMPDEST PUSH1 0x0 DUP6 DUP2 MSTORE PUSH1 0x20 DUP2 KECCAK256 PUSH1 0x1F NOT DUP7 AND SWAP2 JUMPDEST DUP3 DUP2 LT ISZERO PUSH2 0x1A58 JUMPI DUP9 DUP7 ADD MLOAD DUP3 SSTORE SWAP5 DUP5 ADD SWAP5 PUSH1 0x1 SWAP1 SWAP2 ADD SWAP1 DUP5 ADD PUSH2 0x1A39 JUMP JUMPDEST POP DUP6 DUP3 LT ISZERO PUSH2 0x1A76 JUMPI DUP8 DUP6 ADD MLOAD PUSH1 0x0 NOT PUSH1 0x3 DUP9 SWAP1 SHL PUSH1 0xF8 AND SHR NOT AND DUP2 SSTORE JUMPDEST POP POP POP POP POP PUSH1 0x1 SWAP1 DUP2 SHL ADD SWAP1 SSTORE POP JUMP JUMPDEST PUSH4 0x4E487B71 PUSH1 0xE0 SHL PUSH1 0x0 MSTORE PUSH1 0x32 PUSH1 0x4 MSTORE PUSH1 0x24 PUSH1 0x0 REVERT JUMPDEST PUSH4 0x4E487B71 PUSH1 0xE0 SHL PUSH1 0x0 MSTORE PUSH1 0x11 PUSH1 0x4 MSTORE PUSH1 0x24 PUSH1 0x0 REVERT JUMPDEST PUSH1 0x0 PUSH1 0x1 DUP3 ADD PUSH2 0x1AC4 JUMPI PUSH2 0x1AC4 PUSH2 0x1A9C JUMP JUMPDEST POP PUSH1 0x1 ADD SWAP1 JUMP JUMPDEST PUSH4 0x4E487B71 PUSH1 0xE0 SHL PUSH1 0x0 MSTORE PUSH1 0x12 PUSH1 0x4 MSTORE PUSH1 0x24 PUSH1 0x0 REVERT JUMPDEST PUSH1 0x0 DUP3 PUSH2 0x1AF0 JUMPI PUSH2 0x1AF0 PUSH2 0x1ACB JUMP JUMPDEST POP DIV SWAP1 JUMP JUMPDEST PUSH1 0x0 DUP3 PUSH2 0x1B04 JUMPI PUSH2 0x1B04 PUSH2 0x1ACB JUMP JUMPDEST POP MOD SWAP1 JUMP JUMPDEST DUP1 DUP3 ADD DUP1 DUP3 GT ISZERO PUSH2 0x355 JUMPI PUSH2 0x355 PUSH2 0x1A9C JUMP JUMPDEST DUP2 DUP2 SUB DUP2 DUP2 GT ISZERO PUSH2 0x355 JUMPI PUSH2 0x355 PUSH2 0x1A9C JUMP JUMPDEST PUSH1 0x0 DUP2 PUSH2 0x1B3E JUMPI PUSH2 0x1B3E PUSH2 0x1A9C JUMP JUMPDEST POP PUSH1 0x0 NOT ADD SWAP1 JUMP JUMPDEST PUSH1 0x1 PUSH1 0x1 PUSH1 0xA0 SHL SUB DUP7 DUP2 AND DUP3 MSTORE DUP6 AND PUSH1 0x20 DUP3 ADD MSTORE PUSH1 0x40 DUP2 ADD DUP5 SWAP1 MSTORE PUSH1 0x60 DUP2 ADD DUP4 SWAP1 MSTORE PUSH1 0xA0 PUSH1 0x80 DUP3 ADD DUP2 SWAP1 MSTORE PUSH1 0x0 SWAP1 PUSH2 0x1B80 SWAP1 DUP4 ADD DUP5 PUSH2 0x1334 JUMP JUMPDEST SWAP8 SWAP7 POP POP POP POP POP POP POP JUMP JUMPDEST PUSH1 0x0 PUSH1 0x20 DUP3 DUP5 SUB SLT ISZERO PUSH2 0x1B9D JUMPI PUSH1 0x0 DUP1 REVERT JUMPDEST DUP2 MLOAD PUSH2 0x12F0 DUP2 PUSH2 0x12BD JUMP JUMPDEST PUSH1 0x1 PUSH1 0x1 PUSH1 0xA0 SHL SUB DUP7 DUP2 AND DUP3 MSTORE DUP6 AND PUSH1 0x20 DUP3 ADD MSTORE PUSH1 0xA0 PUSH1 0x40 DUP3 ADD DUP2 SWAP1 MSTORE PUSH1 0x0 SWAP1 PUSH2 0x1BD4 SWAP1 DUP4 ADD DUP7 PUSH2 0x1741 JUMP JUMPDEST DUP3 DUP2 SUB PUSH1 0x60 DUP5 ADD MSTORE PUSH2 0x1BE6 DUP2 DUP7 PUSH2 0x1741 JUMP JUMPDEST SWAP1 POP DUP3 DUP2 SUB PUSH1 0x80 DUP5 ADD MSTORE PUSH2 0x1BFA DUP2 DUP6 PUSH2 0x1334 JUMP JUMPDEST SWAP9 SWAP8 POP POP POP POP POP POP POP POP JUMP JUMPDEST PUSH1 0x40 DUP2 MSTORE PUSH1 0x0 PUSH2 0x1C19 PUSH1 0x40 DUP4 ADD DUP6 PUSH2 0x1741 JUMP JUMPDEST DUP3 DUP2 SUB PUSH1 0x20 DUP5 ADD MSTORE PUSH2 0x1C2B DUP2 DUP6 PUSH2 0x1741 JUMP JUMPDEST SWAP6 SWAP5 POP POP POP POP POP JUMP INVALID LOG2 PUSH5 0x6970667358 0x22 SLT KECCAK256 BYTE 0xCC SWAP14 0xE6 0xE0 0xAC 0xCA SWAP4 0xDF 0x23 0xE9 PUSH7 0x692FCCF87E520B DUP8 CALLDATALOAD PC MSTORE8 DUP7 OR 0xCB 0x4C 0xD7 0xD3 0xCA 0xB4 0xDB PUSH5 0x736F6C6343 STOP ADDMOD EQ STOP CALLER "
				},
				"gasEstimates": {
					"creation": {
						"codeDepositCost": "1454800",
						"executionCost": "infinite",
						"totalCost": "infinite"
					},
					"external": {
						"DEFAULT_ADMIN_ROLE()": "295",
						"MINTER_ROLE()": "250",
						"balanceOf(address,uint256)": "2660",
						"balanceOfBatch(address[],uint256[])": "infinite",
						"exists(uint256)": "2495",
						"getRoleAdmin(bytes32)": "2456",
						"grantRole(bytes32,address)": "infinite",
						"hasRole(bytes32,address)": "2754",
						"isApprovedForAll(address,address)": "infinite",
						"mint(address,uint256,uint256,bytes)": "infinite",
						"mintBatch(address,uint256[],uint256[],bytes)": "infinite",
						"renounceRole(bytes32,address)": "29140",
						"revokeRole(bytes32,address)": "infinite",
						"safeBatchTransferFrom(address,address,uint256[],uint256[],bytes)": "infinite",
						"safeTransferFrom(address,address,uint256,uint256,bytes)": "infinite",
						"setApprovalForAll(address,bool)": "26681",
						"setBaseTokenURI(string)": "infinite",
						"supportsInterface(bytes4)": "infinite",
						"totalSupply()": "2371",
						"totalSupply(uint256)": "2471",
						"uri(uint256)": "infinite"
					},
					"internal": {
						"_update(address,address,uint256[] memory,uint256[] memory)": "infinite",
						"tokenIdToString(uint256)": "infinite"
					}
				},
				"methodIdentifiers": {
					"DEFAULT_ADMIN_ROLE()": "a217fddf",
					"MINTER_ROLE()": "d5391393",
					"balanceOf(address,uint256)": "00fdd58e",
					"balanceOfBatch(address[],uint256[])": "4e1273f4",
					"exists(uint256)": "4f558e79",
					"getRoleAdmin(bytes32)": "248a9ca3",
					"grantRole(bytes32,address)": "2f2ff15d",
					"hasRole(bytes32,address)": "91d14854",
					"isApprovedForAll(address,address)": "e985e9c5",
					"mint(address,uint256,uint256,bytes)": "731133e9",
					"mintBatch(address,uint256[],uint256[],bytes)": "1f7fdffa",
					"renounceRole(bytes32,address)": "36568abe",
					"revokeRole(bytes32,address)": "d547741f",
					"safeBatchTransferFrom(address,address,uint256[],uint256[],bytes)": "2eb2c2d6",
					"safeTransferFrom(address,address,uint256,uint256,bytes)": "f242432a",
					"setApprovalForAll(address,bool)": "a22cb465",
					"setBaseTokenURI(string)": "30176e13",
					"supportsInterface(bytes4)": "01ffc9a7",
					"totalSupply()": "18160ddd",
					"totalSupply(uint256)": "bd85b039",
					"uri(uint256)": "0e89341c"
				}
			},
			"storageLayout": {
				"storage": [
					{
						"astId": 557,
						"contract": "MyNFT.sol:PrizeItems",
						"label": "_balances",
						"offset": 0,
						"slot": "0",
						"type": "t_mapping(t_uint256,t_mapping(t_address,t_uint256))"
					},
					{
						"astId": 563,
						"contract": "MyNFT.sol:PrizeItems",
						"label": "_operatorApprovals",
						"offset": 0,
						"slot": "1",
						"type": "t_mapping(t_address,t_mapping(t_address,t_bool))"
					},
					{
						"astId": 565,
						"contract": "MyNFT.sol:PrizeItems",
						"label": "_uri",
						"offset": 0,
						"slot": "2",
						"type": "t_string_storage"
					},
					{
						"astId": 1742,
						"contract": "MyNFT.sol:PrizeItems",
						"label": "_totalSupply",
						"offset": 0,
						"slot": "3",
						"type": "t_mapping(t_uint256,t_uint256)"
					},
					{
						"astId": 1744,
						"contract": "MyNFT.sol:PrizeItems",
						"label": "_totalSupplyAll",
						"offset": 0,
						"slot": "4",
						"type": "t_uint256"
					},
					{
						"astId": 26,
						"contract": "MyNFT.sol:PrizeItems",
						"label": "_roles",
						"offset": 0,
						"slot": "5",
						"type": "t_mapping(t_bytes32,t_struct(RoleData)21_storage)"
					},
					{
						"astId": 3350,
						"contract": "MyNFT.sol:PrizeItems",
						"label": "_baseTokenURI",
						"offset": 0,
						"slot": "6",
						"type": "t_string_storage"
					}
				],
				"types": {
					"t_address": {
						"encoding": "inplace",
						"label": "address",
						"numberOfBytes": "20"
					},
					"t_bool": {
						"encoding": "inplace",
						"label": "bool",
						"numberOfBytes": "1"
					},
					"t_bytes32": {
						"encoding": "inplace",
						"label": "bytes32",
						"numberOfBytes": "32"
					},
					"t_mapping(t_address,t_bool)": {
						"encoding": "mapping",
						"key": "t_address",
						"label": "mapping(address => bool)",
						"numberOfBytes": "32",
						"value": "t_bool"
					},
					"t_mapping(t_address,t_mapping(t_address,t_bool))": {
						"encoding": "mapping",
						"key": "t_address",
						"label": "mapping(address => mapping(address => bool))",
						"numberOfBytes": "32",
						"value": "t_mapping(t_address,t_bool)"
					},
					"t_mapping(t_address,t_uint256)": {
						"encoding": "mapping",
						"key": "t_address",
						"label": "mapping(address => uint256)",
						"numberOfBytes": "32",
						"value": "t_uint256"
					},
					"t_mapping(t_bytes32,t_struct(RoleData)21_storage)": {
						"encoding": "mapping",
						"key": "t_bytes32",
						"label": "mapping(bytes32 => struct AccessControl.RoleData)",
						"numberOfBytes": "32",
						"value": "t_struct(RoleData)21_storage"
					},
					"t_mapping(t_uint256,t_mapping(t_address,t_uint256))": {
						"encoding": "mapping",
						"key": "t_uint256",
						"label": "mapping(uint256 => mapping(address => uint256))",
						"numberOfBytes": "32",
						"value": "t_mapping(t_address,t_uint256)"
					},
					"t_mapping(t_uint256,t_uint256)": {
						"encoding": "mapping",
						"key": "t_uint256",
						"label": "mapping(uint256 => uint256)",
						"numberOfBytes": "32",
						"value": "t_uint256"
					},
					"t_string_storage": {
						"encoding": "bytes",
						"label": "string",
						"numberOfBytes": "32"
					},
					"t_struct(RoleData)21_storage": {
						"encoding": "inplace",
						"label": "struct AccessControl.RoleData",
						"members": [
							{
								"astId": 18,
								"contract": "MyNFT.sol:PrizeItems",
								"label": "hasRole",
								"offset": 0,
								"slot": "0",
								"type": "t_mapping(t_address,t_bool)"
							},
							{
								"astId": 20,
								"contract": "MyNFT.sol:PrizeItems",
								"label": "adminRole",
								"offset": 0,
								"slot": "1",
								"type": "t_bytes32"
							}
						],
						"numberOfBytes": "64"
					},
					"t_uint256": {
						"encoding": "inplace",
						"label": "uint256",
						"numberOfBytes": "32"
					}
				}
			},
			"userdoc": {
				"kind": "user",
				"methods": {},
				"version": 1
			}
		}
	}
}