{
	"PackedArray.sol": {
		"PackedArray": {
			"abi": [
				{
					"inputs": [
						{
							"components": [
								{
									"internalType": "uint256",
									"name": "nums",
									"type": "uint256"
								},
								{
									"internalType": "uint256[]",
									"name": "result",
									"type": "uint256[]"
								}
							],
							"internalType": "struct PackedArray.PackedArray32",
							"name": "p",
							"type": "tuple"
						},
						{
							"internalType": "uint256",
							"name": "index",
							"type": "uint256"
						}
					],
					"name": "get",
					"outputs": [
						{
							"internalType": "uint32",
							"name": "",
							"type": "uint32"
						}
					],
					"stateMutability": "pure",
					"type": "function"
				},
				{
					"inputs": [
						{
							"internalType": "uint32[]",
							"name": "_arr",
							"type": "uint32[]"
						}
					],
					"name": "pack",
					"outputs": [
						{
							"components": [
								{
									"internalType": "uint256",
									"name": "nums",
									"type": "uint256"
								},
								{
									"internalType": "uint256[]",
									"name": "result",
									"type": "uint256[]"
								}
							],
							"internalType": "struct PackedArray.PackedArray32",
							"name": "",
							"type": "tuple"
						}
					],
					"stateMutability": "pure",
					"type": "function"
				},
				{
					"inputs": [
						{
							"components": [
								{
									"internalType": "uint256",
									"name": "nums",
									"type": "uint256"
								},
								{
									"internalType": "uint256[]",
									"name": "result",
									"type": "uint256[]"
								}
							],
							"internalType": "struct PackedArray.PackedArray32",
							"name": "p",
							"type": "tuple"
						},
						{
							"internalType": "uint256",
							"name": "index",
							"type": "uint256"
						},
						{
							"internalType": "uint32",
							"name": "data",
							"type": "uint32"
						}
					],
					"name": "set",
					"outputs": [
						{
							"components": [
								{
									"internalType": "uint256",
									"name": "nums",
									"type": "uint256"
								},
								{
									"internalType": "uint256[]",
									"name": "result",
									"type": "uint256[]"
								}
							],
							"internalType": "struct PackedArray.PackedArray32",
							"name": "",
							"type": "tuple"
						}
					],
					"stateMutability": "pure",
					"type": "function"
				}
			],
			"devdoc": {
				"kind": "dev",
				"methods": {},
				"version": 1
			},
			"evm": {
				"assembly": "    /* \"PackedArray.sol\":58:1269  library PackedArray {... */\n  dataSize(sub_0)\n  dataOffset(sub_0)\n  0x0b\n  dup3\n  dup3\n  dup3\n  codecopy\n  dup1\n  mload\n  0x00\n  byte\n  0x73\n  eq\n  tag_1\n  jumpi\n  mstore(0x00, shl(0xe0, 0x4e487b71))\n  mstore(0x04, 0x00)\n  revert(0x00, 0x24)\ntag_1:\n  mstore(0x00, address)\n  0x73\n  dup2\n  mstore8\n  dup3\n  dup2\n  return\nstop\n\nsub_0: assembly {\n        /* \"PackedArray.sol\":58:1269  library PackedArray {... */\n      eq(address, deployTimeAddress())\n      mstore(0x40, 0x80)\n      jumpi(tag_1, lt(calldatasize, 0x04))\n      shr(0xe0, calldataload(0x00))\n      dup1\n      0x373cfe03\n      eq\n      tag_2\n      jumpi\n      dup1\n      0x905387ed\n      eq\n      tag_3\n      jumpi\n      dup1\n      0xbdd1b767\n      eq\n      tag_4\n      jumpi\n    tag_1:\n      0x00\n      dup1\n      revert\n        /* \"PackedArray.sol\":650:1004  function set(PackedArray32 memory p, uint256 index, uint32 data) public pure returns(PackedArray32 memory){... */\n    tag_2:\n      tag_5\n      tag_6\n      calldatasize\n      0x04\n      tag_7\n      jump\t// in\n    tag_6:\n      tag_8\n      jump\t// in\n    tag_5:\n      mload(0x40)\n      tag_9\n      swap2\n      swap1\n      tag_10\n      jump\t// in\n    tag_9:\n      mload(0x40)\n      dup1\n      swap2\n      sub\n      swap1\n      return\n        /* \"PackedArray.sol\":167:644  function pack(uint32[] memory _arr) public pure returns(PackedArray32 memory) {... */\n    tag_3:\n      tag_5\n      tag_12\n      calldatasize\n      0x04\n      tag_13\n      jump\t// in\n    tag_12:\n      tag_14\n      jump\t// in\n        /* \"PackedArray.sol\":1010:1267  function get(PackedArray32 memory p, uint256 index) public pure returns(uint32) {... */\n    tag_4:\n      tag_16\n      tag_17\n      calldatasize\n      0x04\n      tag_18\n      jump\t// in\n    tag_17:\n      tag_19\n      jump\t// in\n    tag_16:\n      mload(0x40)\n        /* \"#utility.yul\":4831:4841   */\n      0xffffffff\n        /* \"#utility.yul\":4819:4842   */\n      swap1\n      swap2\n      and\n        /* \"#utility.yul\":4801:4843   */\n      dup2\n      mstore\n        /* \"#utility.yul\":4789:4791   */\n      0x20\n        /* \"#utility.yul\":4774:4792   */\n      add\n        /* \"PackedArray.sol\":1010:1267  function get(PackedArray32 memory p, uint256 index) public pure returns(uint32) {... */\n      tag_9\n        /* \"#utility.yul\":4649:4849   */\n      jump\n        /* \"PackedArray.sol\":650:1004  function set(PackedArray32 memory p, uint256 index, uint32 data) public pure returns(PackedArray32 memory){... */\n    tag_8:\n      0x40\n      dup1\n      mload\n      dup1\n      dup3\n      add\n      swap1\n      swap2\n      mstore\n      0x00\n      dup2\n      mstore\n      0x60\n      0x20\n      dup3\n      add\n      mstore\n        /* \"PackedArray.sol\":766:777  uint256 row */\n      0x00\n        /* \"PackedArray.sol\":780:789  index / 8 */\n      tag_25\n        /* \"PackedArray.sol\":788:789  8 */\n      0x08\n        /* \"PackedArray.sol\":780:785  index */\n      dup6\n        /* \"PackedArray.sol\":780:789  index / 8 */\n      tag_26\n      jump\t// in\n    tag_25:\n        /* \"PackedArray.sol\":766:789  uint256 row = index / 8 */\n      swap1\n      pop\n        /* \"PackedArray.sol\":799:808  uint256 i */\n      0x00\n        /* \"PackedArray.sol\":811:820  index % 8 */\n      tag_27\n        /* \"PackedArray.sol\":819:820  8 */\n      0x08\n        /* \"PackedArray.sol\":811:816  index */\n      dup7\n        /* \"PackedArray.sol\":811:820  index % 8 */\n      tag_28\n      jump\t// in\n    tag_27:\n        /* \"PackedArray.sol\":799:820  uint256 i = index % 8 */\n      swap1\n      pop\n        /* \"PackedArray.sol\":830:842  uint256 mask */\n      0x00\n        /* \"PackedArray.sol\":882:887  7 - i */\n      tag_29\n        /* \"PackedArray.sol\":799:820  uint256 i = index % 8 */\n      dup3\n        /* \"PackedArray.sol\":882:883  7 */\n      0x07\n        /* \"PackedArray.sol\":882:887  7 - i */\n      tag_30\n      jump\t// in\n    tag_29:\n        /* \"PackedArray.sol\":876:888  32 * (7 - i) */\n      tag_31\n      swap1\n        /* \"PackedArray.sol\":876:878  32 */\n      0x20\n        /* \"PackedArray.sol\":876:888  32 * (7 - i) */\n      tag_32\n      jump\t// in\n    tag_31:\n        /* \"PackedArray.sol\":855:871  type(uint32).max */\n      0xffffffff\n        /* \"PackedArray.sol\":847:872  uint256(type(uint32).max) */\n      dup1\n      and\n        /* \"PackedArray.sol\":847:888  uint256(type(uint32).max) << 32 * (7 - i) */\n      swap1\n      shl\n        /* \"PackedArray.sol\":845:889  ~(uint256(type(uint32).max) << 32 * (7 - i)) */\n      not\n        /* \"PackedArray.sol\":830:889  uint256 mask = ~(uint256(type(uint32).max) << 32 * (7 - i)) */\n      swap1\n      pop\n        /* \"PackedArray.sol\":916:920  mask */\n      dup1\n        /* \"PackedArray.sol\":899:900  p */\n      dup8\n        /* \"PackedArray.sol\":899:907  p.result */\n      0x20\n      add\n      mload\n        /* \"PackedArray.sol\":908:911  row */\n      dup5\n        /* \"PackedArray.sol\":899:912  p.result[row] */\n      dup2\n      mload\n      dup2\n      lt\n      tag_34\n      jumpi\n      tag_34\n      tag_35\n      jump\t// in\n    tag_34:\n      0x20\n      swap1\n      dup2\n      mul\n      swap2\n      swap1\n      swap2\n      add\n      add\n        /* \"PackedArray.sol\":899:920  p.result[row] &= mask */\n      dup1\n      mload\n      swap1\n      swap2\n      and\n      swap1\n      mstore\n        /* \"PackedArray.sol\":971:976  7 - i */\n      tag_36\n        /* \"PackedArray.sol\":975:976  i */\n      dup3\n        /* \"PackedArray.sol\":971:972  7 */\n      0x07\n        /* \"PackedArray.sol\":971:976  7 - i */\n      tag_30\n      jump\t// in\n    tag_36:\n        /* \"PackedArray.sol\":965:977  32 * (7 - i) */\n      tag_37\n      swap1\n        /* \"PackedArray.sol\":965:967  32 */\n      0x20\n        /* \"PackedArray.sol\":965:977  32 * (7 - i) */\n      tag_32\n      jump\t// in\n    tag_37:\n        /* \"PackedArray.sol\":956:960  data */\n      dup6\n        /* \"PackedArray.sol\":948:961  uint256(data) */\n      0xffffffff\n      and\n        /* \"PackedArray.sol\":948:977  uint256(data) << 32 * (7 - i) */\n      swap1\n      shl\n        /* \"PackedArray.sol\":930:931  p */\n      dup8\n        /* \"PackedArray.sol\":930:938  p.result */\n      0x20\n      add\n      mload\n        /* \"PackedArray.sol\":939:942  row */\n      dup5\n        /* \"PackedArray.sol\":930:943  p.result[row] */\n      dup2\n      mload\n      dup2\n      lt\n      tag_39\n      jumpi\n      tag_39\n      tag_35\n      jump\t// in\n    tag_39:\n      0x20\n      swap1\n      dup2\n      mul\n      swap2\n      swap1\n      swap2\n      add\n      add\n        /* \"PackedArray.sol\":930:978  p.result[row] |= (uint256(data) << 32 * (7 - i)) */\n      dup1\n      mload\n      swap1\n      swap2\n      or\n      swap1\n      mstore\n      pop\n        /* \"PackedArray.sol\":996:997  p */\n      swap5\n      swap6\n        /* \"PackedArray.sol\":650:1004  function set(PackedArray32 memory p, uint256 index, uint32 data) public pure returns(PackedArray32 memory){... */\n      swap5\n      pop\n      pop\n      pop\n      pop\n      pop\n      jump\t// out\n        /* \"PackedArray.sol\":167:644  function pack(uint32[] memory _arr) public pure returns(PackedArray32 memory) {... */\n    tag_14:\n      0x40\n      dup1\n      mload\n      dup1\n      dup3\n      add\n      swap1\n      swap2\n      mstore\n      0x00\n      dup2\n      mstore\n      0x60\n      0x20\n      dup3\n      add\n      mstore\n      0x40\n      dup1\n      mload\n      dup1\n      dup3\n      add\n      swap1\n      swap2\n      mstore\n      0x00\n      dup2\n      mstore\n      0x60\n      0x20\n      dup3\n      add\n      mstore\n        /* \"PackedArray.sol\":323:334  _arr.length */\n      dup3\n      mload\n        /* \"PackedArray.sol\":297:335  packedArray.nums = uint32(_arr.length) */\n      0xffffffff\n      and\n      dup2\n      mstore\n        /* \"PackedArray.sol\":361:372  _arr.length */\n      dup3\n      mload\n        /* \"PackedArray.sol\":297:313  packedArray.nums */\n      0x00\n      swap1\n        /* \"PackedArray.sol\":361:374  _arr.length/8 */\n      tag_43\n      swap1\n        /* \"PackedArray.sol\":373:374  8 */\n      0x08\n      swap1\n        /* \"PackedArray.sol\":361:374  _arr.length/8 */\n      tag_26\n      jump\t// in\n    tag_43:\n        /* \"PackedArray.sol\":346:374  uint256 rows = _arr.length/8 */\n      swap1\n      pop\n        /* \"PackedArray.sol\":401:402  8 */\n      0x08\n        /* \"PackedArray.sol\":387:391  _arr */\n      dup5\n        /* \"PackedArray.sol\":387:398  _arr.length */\n      mload\n        /* \"PackedArray.sol\":387:402  _arr.length % 8 */\n      tag_44\n      swap2\n      swap1\n      tag_28\n      jump\t// in\n    tag_44:\n        /* \"PackedArray.sol\":387:407  _arr.length % 8 != 0 */\n      iszero\n        /* \"PackedArray.sol\":384:441  if(_arr.length % 8 != 0) {... */\n      tag_45\n      jumpi\n        /* \"PackedArray.sol\":423:430  rows ++ */\n      dup1\n      tag_46\n      dup2\n      tag_47\n      jump\t// in\n    tag_46:\n      swap2\n      pop\n      pop\n        /* \"PackedArray.sol\":384:441  if(_arr.length % 8 != 0) {... */\n    tag_45:\n        /* \"PackedArray.sol\":494:498  rows */\n      dup1\n        /* \"PackedArray.sol\":480:499  new uint256[](rows) */\n      0xffffffffffffffff\n      dup2\n      gt\n      iszero\n      tag_49\n      jumpi\n      tag_49\n      tag_50\n      jump\t// in\n    tag_49:\n      mload(0x40)\n      swap1\n      dup1\n      dup3\n      mstore\n      dup1\n      0x20\n      mul\n      0x20\n      add\n      dup3\n      add\n      0x40\n      mstore\n      dup1\n      iszero\n      tag_51\n      jumpi\n      dup2\n      0x20\n      add\n      0x20\n      dup3\n      mul\n      dup1\n      calldatasize\n      dup4\n      calldatacopy\n      add\n      swap1\n      pop\n    tag_51:\n      pop\n        /* \"PackedArray.sol\":459:477  packedArray.result */\n      0x20\n      dup4\n      add\n        /* \"PackedArray.sol\":459:499  packedArray.result = new uint256[](rows) */\n      mstore\n        /* \"PackedArray.sol\":513:522  uint256 i */\n      0x00\n        /* \"PackedArray.sol\":509:609  for(uint256 i;i<_arr.length;i++) {... */\n    tag_52:\n        /* \"PackedArray.sol\":525:529  _arr */\n      dup5\n        /* \"PackedArray.sol\":525:536  _arr.length */\n      mload\n        /* \"PackedArray.sol\":523:524  i */\n      dup2\n        /* \"PackedArray.sol\":523:536  i<_arr.length */\n      lt\n        /* \"PackedArray.sol\":509:609  for(uint256 i;i<_arr.length;i++) {... */\n      iszero\n      tag_53\n      jumpi\n        /* \"PackedArray.sol\":570:598  set(packedArray, i, _arr[i]) */\n      tag_55\n        /* \"PackedArray.sol\":574:585  packedArray */\n      dup4\n        /* \"PackedArray.sol\":587:588  i */\n      dup3\n        /* \"PackedArray.sol\":590:594  _arr */\n      dup8\n        /* \"PackedArray.sol\":595:596  i */\n      dup5\n        /* \"PackedArray.sol\":590:597  _arr[i] */\n      dup2\n      mload\n      dup2\n      lt\n      tag_57\n      jumpi\n      tag_57\n      tag_35\n      jump\t// in\n    tag_57:\n      0x20\n      mul\n      0x20\n      add\n      add\n      mload\n        /* \"PackedArray.sol\":570:573  set */\n      tag_8\n        /* \"PackedArray.sol\":570:598  set(packedArray, i, _arr[i]) */\n      jump\t// in\n    tag_55:\n        /* \"PackedArray.sol\":556:598  packedArray = set(packedArray, i, _arr[i]) */\n      swap3\n      pop\n        /* \"PackedArray.sol\":537:540  i++ */\n      dup1\n      tag_58\n      dup2\n      tag_47\n      jump\t// in\n    tag_58:\n      swap2\n      pop\n      pop\n        /* \"PackedArray.sol\":509:609  for(uint256 i;i<_arr.length;i++) {... */\n      jump(tag_52)\n    tag_53:\n      pop\n        /* \"PackedArray.sol\":626:637  packedArray */\n      swap1\n      swap4\n        /* \"PackedArray.sol\":167:644  function pack(uint32[] memory _arr) public pure returns(PackedArray32 memory) {... */\n      swap3\n      pop\n      pop\n      pop\n      jump\t// out\n        /* \"PackedArray.sol\":1010:1267  function get(PackedArray32 memory p, uint256 index) public pure returns(uint32) {... */\n    tag_19:\n        /* \"PackedArray.sol\":1116:1122  p.nums */\n      dup2\n      mload\n        /* \"PackedArray.sol\":1082:1088  uint32 */\n      0x00\n      swap1\n        /* \"PackedArray.sol\":1108:1122  index < p.nums */\n      dup3\n      lt\n        /* \"PackedArray.sol\":1100:1146  require(index < p.nums, \"Index out of range.\") */\n      tag_60\n      jumpi\n      mload(0x40)\n      shl(0xe5, 0x461bcd)\n      dup2\n      mstore\n        /* \"#utility.yul\":6140:6142   */\n      0x20\n        /* \"PackedArray.sol\":1100:1146  require(index < p.nums, \"Index out of range.\") */\n      0x04\n      dup3\n      add\n        /* \"#utility.yul\":6122:6143   */\n      mstore\n        /* \"#utility.yul\":6179:6181   */\n      0x13\n        /* \"#utility.yul\":6159:6177   */\n      0x24\n      dup3\n      add\n        /* \"#utility.yul\":6152:6182   */\n      mstore\n      shl(0x69, 0x24b73232bc1037baba1037b3103930b733b297)\n        /* \"#utility.yul\":6198:6216   */\n      0x44\n      dup3\n      add\n        /* \"#utility.yul\":6191:6240   */\n      mstore\n        /* \"#utility.yul\":6257:6275   */\n      0x64\n      add\n        /* \"PackedArray.sol\":1100:1146  require(index < p.nums, \"Index out of range.\") */\n      mload(0x40)\n      dup1\n      swap2\n      sub\n      swap1\n      revert\n    tag_60:\n        /* \"PackedArray.sol\":1156:1167  uint256 row */\n      0x00\n        /* \"PackedArray.sol\":1170:1179  index / 8 */\n      tag_63\n        /* \"PackedArray.sol\":1178:1179  8 */\n      0x08\n        /* \"PackedArray.sol\":1170:1175  index */\n      dup5\n        /* \"PackedArray.sol\":1170:1179  index / 8 */\n      tag_26\n      jump\t// in\n    tag_63:\n        /* \"PackedArray.sol\":1156:1179  uint256 row = index / 8 */\n      swap1\n      pop\n        /* \"PackedArray.sol\":1189:1198  uint256 i */\n      0x00\n        /* \"PackedArray.sol\":1201:1210  index % 8 */\n      tag_64\n        /* \"PackedArray.sol\":1209:1210  8 */\n      0x08\n        /* \"PackedArray.sol\":1201:1206  index */\n      dup6\n        /* \"PackedArray.sol\":1201:1210  index % 8 */\n      tag_28\n      jump\t// in\n    tag_64:\n        /* \"PackedArray.sol\":1189:1210  uint256 i = index % 8 */\n      swap1\n      pop\n        /* \"PackedArray.sol\":1252:1255  7-i */\n      tag_65\n        /* \"PackedArray.sol\":1189:1210  uint256 i = index % 8 */\n      dup2\n        /* \"PackedArray.sol\":1252:1253  7 */\n      0x07\n        /* \"PackedArray.sol\":1252:1255  7-i */\n      tag_30\n      jump\t// in\n    tag_65:\n        /* \"PackedArray.sol\":1251:1259  (7-i)*32 */\n      tag_66\n      swap1\n        /* \"PackedArray.sol\":1257:1259  32 */\n      0x20\n        /* \"PackedArray.sol\":1251:1259  (7-i)*32 */\n      tag_32\n      jump\t// in\n    tag_66:\n        /* \"PackedArray.sol\":1234:1235  p */\n      dup6\n        /* \"PackedArray.sol\":1234:1242  p.result */\n      0x20\n      add\n      mload\n        /* \"PackedArray.sol\":1243:1246  row */\n      dup4\n        /* \"PackedArray.sol\":1234:1247  p.result[row] */\n      dup2\n      mload\n      dup2\n      lt\n      tag_68\n      jumpi\n      tag_68\n      tag_35\n      jump\t// in\n    tag_68:\n      0x20\n      mul\n      0x20\n      add\n      add\n      mload\n        /* \"PackedArray.sol\":1234:1259  p.result[row] >> (7-i)*32 */\n      swap1\n      shr\n        /* \"PackedArray.sol\":1220:1260  return uint32(p.result[row] >> (7-i)*32) */\n      swap3\n      pop\n      pop\n      pop\n        /* \"PackedArray.sol\":1010:1267  function get(PackedArray32 memory p, uint256 index) public pure returns(uint32) {... */\n    tag_59:\n      swap3\n      swap2\n      pop\n      pop\n      jump\t// out\n        /* \"#utility.yul\":14:141   */\n    tag_50:\n        /* \"#utility.yul\":75:85   */\n      0x4e487b71\n        /* \"#utility.yul\":70:73   */\n      0xe0\n        /* \"#utility.yul\":66:86   */\n      shl\n        /* \"#utility.yul\":63:64   */\n      0x00\n        /* \"#utility.yul\":56:87   */\n      mstore\n        /* \"#utility.yul\":106:110   */\n      0x41\n        /* \"#utility.yul\":103:104   */\n      0x04\n        /* \"#utility.yul\":96:111   */\n      mstore\n        /* \"#utility.yul\":130:134   */\n      0x24\n        /* \"#utility.yul\":127:128   */\n      0x00\n        /* \"#utility.yul\":120:135   */\n      revert\n        /* \"#utility.yul\":146:403   */\n    tag_69:\n        /* \"#utility.yul\":218:222   */\n      0x40\n        /* \"#utility.yul\":212:223   */\n      dup1\n      mload\n      swap1\n        /* \"#utility.yul\":250:267   */\n      dup2\n      add\n        /* \"#utility.yul\":297:315   */\n      0xffffffffffffffff\n        /* \"#utility.yul\":282:316   */\n      dup2\n      gt\n        /* \"#utility.yul\":318:340   */\n      dup3\n      dup3\n      lt\n        /* \"#utility.yul\":279:341   */\n      or\n        /* \"#utility.yul\":276:364   */\n      iszero\n      tag_80\n      jumpi\n        /* \"#utility.yul\":344:362   */\n      tag_80\n      tag_50\n      jump\t// in\n    tag_80:\n        /* \"#utility.yul\":380:384   */\n      0x40\n        /* \"#utility.yul\":373:397   */\n      mstore\n        /* \"#utility.yul\":146:403   */\n      swap1\n      jump\t// out\n        /* \"#utility.yul\":408:683   */\n    tag_70:\n        /* \"#utility.yul\":479:481   */\n      0x40\n        /* \"#utility.yul\":473:482   */\n      mload\n        /* \"#utility.yul\":544:546   */\n      0x1f\n        /* \"#utility.yul\":525:538   */\n      dup3\n      add\n      not(0x1f)\n        /* \"#utility.yul\":521:548   */\n      and\n        /* \"#utility.yul\":509:549   */\n      dup2\n      add\n        /* \"#utility.yul\":579:597   */\n      0xffffffffffffffff\n        /* \"#utility.yul\":564:598   */\n      dup2\n      gt\n        /* \"#utility.yul\":600:622   */\n      dup3\n      dup3\n      lt\n        /* \"#utility.yul\":561:623   */\n      or\n        /* \"#utility.yul\":558:646   */\n      iszero\n      tag_83\n      jumpi\n        /* \"#utility.yul\":626:644   */\n      tag_83\n      tag_50\n      jump\t// in\n    tag_83:\n        /* \"#utility.yul\":662:664   */\n      0x40\n        /* \"#utility.yul\":655:677   */\n      mstore\n        /* \"#utility.yul\":408:683   */\n      swap2\n      swap1\n      pop\n      jump\t// out\n        /* \"#utility.yul\":688:871   */\n    tag_71:\n        /* \"#utility.yul\":748:752   */\n      0x00\n        /* \"#utility.yul\":781:799   */\n      0xffffffffffffffff\n        /* \"#utility.yul\":773:779   */\n      dup3\n        /* \"#utility.yul\":770:800   */\n      gt\n        /* \"#utility.yul\":767:823   */\n      iszero\n      tag_86\n      jumpi\n        /* \"#utility.yul\":803:821   */\n      tag_86\n      tag_50\n      jump\t// in\n    tag_86:\n      pop\n        /* \"#utility.yul\":848:849   */\n      0x05\n        /* \"#utility.yul\":844:858   */\n      shl\n        /* \"#utility.yul\":860:864   */\n      0x20\n        /* \"#utility.yul\":840:865   */\n      add\n      swap1\n        /* \"#utility.yul\":688:871   */\n      jump\t// out\n        /* \"#utility.yul\":876:1842   */\n    tag_72:\n        /* \"#utility.yul\":936:941   */\n      0x00\n        /* \"#utility.yul\":984:988   */\n      0x40\n        /* \"#utility.yul\":972:981   */\n      dup3\n        /* \"#utility.yul\":967:970   */\n      dup5\n        /* \"#utility.yul\":963:982   */\n      sub\n        /* \"#utility.yul\":959:989   */\n      slt\n        /* \"#utility.yul\":956:1006   */\n      iszero\n      tag_88\n      jumpi\n        /* \"#utility.yul\":1002:1003   */\n      0x00\n        /* \"#utility.yul\":999:1000   */\n      dup1\n        /* \"#utility.yul\":992:1004   */\n      revert\n        /* \"#utility.yul\":956:1006   */\n    tag_88:\n        /* \"#utility.yul\":1024:1046   */\n      tag_89\n      tag_69\n      jump\t// in\n    tag_89:\n        /* \"#utility.yul\":1015:1046   */\n      swap1\n      pop\n        /* \"#utility.yul\":1082:1091   */\n      dup2\n        /* \"#utility.yul\":1069:1092   */\n      calldataload\n        /* \"#utility.yul\":1062:1067   */\n      dup2\n        /* \"#utility.yul\":1055:1093   */\n      mstore\n        /* \"#utility.yul\":1112:1114   */\n      0x20\n        /* \"#utility.yul\":1165:1167   */\n      dup1\n        /* \"#utility.yul\":1154:1163   */\n      dup4\n        /* \"#utility.yul\":1150:1168   */\n      add\n        /* \"#utility.yul\":1137:1169   */\n      calldataload\n        /* \"#utility.yul\":1192:1210   */\n      0xffffffffffffffff\n        /* \"#utility.yul\":1184:1190   */\n      dup2\n        /* \"#utility.yul\":1181:1211   */\n      gt\n        /* \"#utility.yul\":1178:1228   */\n      iszero\n      tag_90\n      jumpi\n        /* \"#utility.yul\":1224:1225   */\n      0x00\n        /* \"#utility.yul\":1221:1222   */\n      dup1\n        /* \"#utility.yul\":1214:1226   */\n      revert\n        /* \"#utility.yul\":1178:1228   */\n    tag_90:\n        /* \"#utility.yul\":1247:1269   */\n      dup4\n      add\n        /* \"#utility.yul\":1300:1304   */\n      0x1f\n        /* \"#utility.yul\":1292:1305   */\n      dup2\n      add\n        /* \"#utility.yul\":1288:1311   */\n      dup6\n      sgt\n        /* \"#utility.yul\":1278:1329   */\n      tag_91\n      jumpi\n        /* \"#utility.yul\":1325:1326   */\n      0x00\n        /* \"#utility.yul\":1322:1323   */\n      dup1\n        /* \"#utility.yul\":1315:1327   */\n      revert\n        /* \"#utility.yul\":1278:1329   */\n    tag_91:\n        /* \"#utility.yul\":1361:1363   */\n      dup1\n        /* \"#utility.yul\":1348:1364   */\n      calldataload\n        /* \"#utility.yul\":1384:1444   */\n      tag_92\n        /* \"#utility.yul\":1400:1443   */\n      tag_93\n        /* \"#utility.yul\":1440:1442   */\n      dup3\n        /* \"#utility.yul\":1400:1443   */\n      tag_71\n      jump\t// in\n    tag_93:\n        /* \"#utility.yul\":1384:1444   */\n      tag_70\n      jump\t// in\n    tag_92:\n        /* \"#utility.yul\":1478:1493   */\n      dup2\n      dup2\n      mstore\n        /* \"#utility.yul\":1560:1561   */\n      0x05\n        /* \"#utility.yul\":1556:1566   */\n      swap2\n      swap1\n      swap2\n      shl\n        /* \"#utility.yul\":1548:1567   */\n      dup3\n      add\n        /* \"#utility.yul\":1544:1572   */\n      dup4\n      add\n      swap1\n        /* \"#utility.yul\":1509:1521   */\n      dup4\n      dup2\n      add\n      swap1\n        /* \"#utility.yul\":1584:1599   */\n      dup8\n      dup4\n      gt\n        /* \"#utility.yul\":1581:1616   */\n      iszero\n      tag_94\n      jumpi\n        /* \"#utility.yul\":1612:1613   */\n      0x00\n        /* \"#utility.yul\":1609:1610   */\n      dup1\n        /* \"#utility.yul\":1602:1614   */\n      revert\n        /* \"#utility.yul\":1581:1616   */\n    tag_94:\n        /* \"#utility.yul\":1636:1647   */\n      swap3\n      dup5\n      add\n      swap3\n        /* \"#utility.yul\":1656:1798   */\n    tag_95:\n        /* \"#utility.yul\":1672:1678   */\n      dup3\n        /* \"#utility.yul\":1667:1670   */\n      dup5\n        /* \"#utility.yul\":1664:1679   */\n      lt\n        /* \"#utility.yul\":1656:1798   */\n      iszero\n      tag_97\n      jumpi\n        /* \"#utility.yul\":1738:1755   */\n      dup4\n      calldataload\n        /* \"#utility.yul\":1726:1756   */\n      dup3\n      mstore\n        /* \"#utility.yul\":1689:1701   */\n      swap3\n      dup5\n      add\n      swap3\n        /* \"#utility.yul\":1776:1788   */\n      swap1\n      dup5\n      add\n      swap1\n        /* \"#utility.yul\":1656:1798   */\n      jump(tag_95)\n    tag_97:\n        /* \"#utility.yul\":1830:1835   */\n      dup1\n        /* \"#utility.yul\":1825:1827   */\n      dup6\n        /* \"#utility.yul\":1818:1823   */\n      dup8\n        /* \"#utility.yul\":1814:1828   */\n      add\n        /* \"#utility.yul\":1807:1836   */\n      mstore\n      pop\n      pop\n      pop\n      pop\n      pop\n        /* \"#utility.yul\":876:1842   */\n      swap3\n      swap2\n      pop\n      pop\n      jump\t// out\n        /* \"#utility.yul\":1847:2010   */\n    tag_73:\n        /* \"#utility.yul\":1914:1934   */\n      dup1\n      calldataload\n        /* \"#utility.yul\":1974:1984   */\n      0xffffffff\n        /* \"#utility.yul\":1963:1985   */\n      dup2\n      and\n        /* \"#utility.yul\":1953:1986   */\n      dup2\n      eq\n        /* \"#utility.yul\":1943:2004   */\n      tag_99\n      jumpi\n        /* \"#utility.yul\":2000:2001   */\n      0x00\n        /* \"#utility.yul\":1997:1998   */\n      dup1\n        /* \"#utility.yul\":1990:2002   */\n      revert\n        /* \"#utility.yul\":1943:2004   */\n    tag_99:\n        /* \"#utility.yul\":1847:2010   */\n      swap2\n      swap1\n      pop\n      jump\t// out\n        /* \"#utility.yul\":2015:2509   */\n    tag_7:\n        /* \"#utility.yul\":2119:2125   */\n      0x00\n        /* \"#utility.yul\":2127:2133   */\n      dup1\n        /* \"#utility.yul\":2135:2141   */\n      0x00\n        /* \"#utility.yul\":2188:2190   */\n      0x60\n        /* \"#utility.yul\":2176:2185   */\n      dup5\n        /* \"#utility.yul\":2167:2174   */\n      dup7\n        /* \"#utility.yul\":2163:2186   */\n      sub\n        /* \"#utility.yul\":2159:2191   */\n      slt\n        /* \"#utility.yul\":2156:2208   */\n      iszero\n      tag_101\n      jumpi\n        /* \"#utility.yul\":2204:2205   */\n      0x00\n        /* \"#utility.yul\":2201:2202   */\n      dup1\n        /* \"#utility.yul\":2194:2206   */\n      revert\n        /* \"#utility.yul\":2156:2208   */\n    tag_101:\n        /* \"#utility.yul\":2244:2253   */\n      dup4\n        /* \"#utility.yul\":2231:2254   */\n      calldataload\n        /* \"#utility.yul\":2277:2295   */\n      0xffffffffffffffff\n        /* \"#utility.yul\":2269:2275   */\n      dup2\n        /* \"#utility.yul\":2266:2296   */\n      gt\n        /* \"#utility.yul\":2263:2313   */\n      iszero\n      tag_102\n      jumpi\n        /* \"#utility.yul\":2309:2310   */\n      0x00\n        /* \"#utility.yul\":2306:2307   */\n      dup1\n        /* \"#utility.yul\":2299:2311   */\n      revert\n        /* \"#utility.yul\":2263:2313   */\n    tag_102:\n        /* \"#utility.yul\":2332:2396   */\n      tag_103\n        /* \"#utility.yul\":2388:2395   */\n      dup7\n        /* \"#utility.yul\":2379:2385   */\n      dup3\n        /* \"#utility.yul\":2368:2377   */\n      dup8\n        /* \"#utility.yul\":2364:2386   */\n      add\n        /* \"#utility.yul\":2332:2396   */\n      tag_72\n      jump\t// in\n    tag_103:\n        /* \"#utility.yul\":2322:2396   */\n      swap4\n      pop\n      pop\n        /* \"#utility.yul\":2443:2445   */\n      0x20\n        /* \"#utility.yul\":2432:2441   */\n      dup5\n        /* \"#utility.yul\":2428:2446   */\n      add\n        /* \"#utility.yul\":2415:2447   */\n      calldataload\n        /* \"#utility.yul\":2405:2447   */\n      swap2\n      pop\n        /* \"#utility.yul\":2466:2503   */\n      tag_104\n        /* \"#utility.yul\":2499:2501   */\n      0x40\n        /* \"#utility.yul\":2488:2497   */\n      dup6\n        /* \"#utility.yul\":2484:2502   */\n      add\n        /* \"#utility.yul\":2466:2503   */\n      tag_73\n      jump\t// in\n    tag_104:\n        /* \"#utility.yul\":2456:2503   */\n      swap1\n      pop\n        /* \"#utility.yul\":2015:2509   */\n      swap3\n      pop\n      swap3\n      pop\n      swap3\n      jump\t// out\n        /* \"#utility.yul\":2514:3317   */\n    tag_10:\n        /* \"#utility.yul\":2699:2701   */\n      0x20\n        /* \"#utility.yul\":2710:2731   */\n      dup1\n      dup3\n      mstore\n        /* \"#utility.yul\":2808:2821   */\n      dup3\n      mload\n        /* \"#utility.yul\":2788:2806   */\n      dup3\n      dup3\n      add\n        /* \"#utility.yul\":2781:2822   */\n      mstore\n        /* \"#utility.yul\":2857:2872   */\n      dup3\n      dup2\n      add\n        /* \"#utility.yul\":2851:2873   */\n      mload\n        /* \"#utility.yul\":2911:2915   */\n      0x40\n        /* \"#utility.yul\":2889:2909   */\n      dup1\n      dup5\n      add\n        /* \"#utility.yul\":2882:2916   */\n      mstore\n        /* \"#utility.yul\":2965:2984   */\n      dup1\n      mload\n        /* \"#utility.yul\":2769:2771   */\n      0x60\n        /* \"#utility.yul\":2754:2772   */\n      dup5\n      add\n        /* \"#utility.yul\":2993:3015   */\n      dup2\n      swap1\n      mstore\n        /* \"#utility.yul\":2670:2674   */\n      0x00\n      swap3\n        /* \"#utility.yul\":2699:2701   */\n      swap2\n        /* \"#utility.yul\":3073:3094   */\n      dup3\n      add\n      swap1\n        /* \"#utility.yul\":2670:2674   */\n      dup4\n      swap1\n        /* \"#utility.yul\":3046:3049   */\n      0x80\n        /* \"#utility.yul\":3031:3050   */\n      dup7\n      add\n      swap1\n        /* \"#utility.yul\":3122:3291   */\n    tag_106:\n        /* \"#utility.yul\":3136:3142   */\n      dup1\n        /* \"#utility.yul\":3133:3134   */\n      dup4\n        /* \"#utility.yul\":3130:3143   */\n      lt\n        /* \"#utility.yul\":3122:3291   */\n      iszero\n      tag_108\n      jumpi\n        /* \"#utility.yul\":3197:3210   */\n      dup4\n      mload\n        /* \"#utility.yul\":3185:3211   */\n      dup3\n      mstore\n        /* \"#utility.yul\":3266:3281   */\n      swap3\n      dup5\n      add\n      swap3\n        /* \"#utility.yul\":3158:3159   */\n      0x01\n        /* \"#utility.yul\":3151:3160   */\n      swap3\n      swap1\n      swap3\n      add\n      swap2\n        /* \"#utility.yul\":3231:3243   */\n      swap1\n      dup5\n      add\n      swap1\n        /* \"#utility.yul\":3122:3291   */\n      jump(tag_106)\n    tag_108:\n      pop\n        /* \"#utility.yul\":3308:3311   */\n      swap7\n        /* \"#utility.yul\":2514:3317   */\n      swap6\n      pop\n      pop\n      pop\n      pop\n      pop\n      pop\n      jump\t// out\n        /* \"#utility.yul\":3322:4217   */\n    tag_13:\n        /* \"#utility.yul\":3405:3411   */\n      0x00\n        /* \"#utility.yul\":3436:3438   */\n      0x20\n        /* \"#utility.yul\":3479:3481   */\n      dup1\n        /* \"#utility.yul\":3467:3476   */\n      dup4\n        /* \"#utility.yul\":3458:3465   */\n      dup6\n        /* \"#utility.yul\":3454:3477   */\n      sub\n        /* \"#utility.yul\":3450:3482   */\n      slt\n        /* \"#utility.yul\":3447:3499   */\n      iszero\n      tag_110\n      jumpi\n        /* \"#utility.yul\":3495:3496   */\n      0x00\n        /* \"#utility.yul\":3492:3493   */\n      dup1\n        /* \"#utility.yul\":3485:3497   */\n      revert\n        /* \"#utility.yul\":3447:3499   */\n    tag_110:\n        /* \"#utility.yul\":3535:3544   */\n      dup3\n        /* \"#utility.yul\":3522:3545   */\n      calldataload\n        /* \"#utility.yul\":3568:3586   */\n      0xffffffffffffffff\n        /* \"#utility.yul\":3560:3566   */\n      dup2\n        /* \"#utility.yul\":3557:3587   */\n      gt\n        /* \"#utility.yul\":3554:3604   */\n      iszero\n      tag_111\n      jumpi\n        /* \"#utility.yul\":3600:3601   */\n      0x00\n        /* \"#utility.yul\":3597:3598   */\n      dup1\n        /* \"#utility.yul\":3590:3602   */\n      revert\n        /* \"#utility.yul\":3554:3604   */\n    tag_111:\n        /* \"#utility.yul\":3623:3645   */\n      dup4\n      add\n        /* \"#utility.yul\":3676:3680   */\n      0x1f\n        /* \"#utility.yul\":3668:3681   */\n      dup2\n      add\n        /* \"#utility.yul\":3664:3691   */\n      dup6\n      sgt\n        /* \"#utility.yul\":3654:3709   */\n      tag_112\n      jumpi\n        /* \"#utility.yul\":3705:3706   */\n      0x00\n        /* \"#utility.yul\":3702:3703   */\n      dup1\n        /* \"#utility.yul\":3695:3707   */\n      revert\n        /* \"#utility.yul\":3654:3709   */\n    tag_112:\n        /* \"#utility.yul\":3741:3743   */\n      dup1\n        /* \"#utility.yul\":3728:3744   */\n      calldataload\n        /* \"#utility.yul\":3764:3824   */\n      tag_113\n        /* \"#utility.yul\":3780:3823   */\n      tag_93\n        /* \"#utility.yul\":3820:3822   */\n      dup3\n        /* \"#utility.yul\":3780:3823   */\n      tag_71\n      jump\t// in\n        /* \"#utility.yul\":3764:3824   */\n    tag_113:\n        /* \"#utility.yul\":3858:3873   */\n      dup2\n      dup2\n      mstore\n        /* \"#utility.yul\":3940:3941   */\n      0x05\n        /* \"#utility.yul\":3936:3946   */\n      swap2\n      swap1\n      swap2\n      shl\n        /* \"#utility.yul\":3928:3947   */\n      dup3\n      add\n        /* \"#utility.yul\":3924:3952   */\n      dup4\n      add\n      swap1\n        /* \"#utility.yul\":3889:3901   */\n      dup4\n      dup2\n      add\n      swap1\n        /* \"#utility.yul\":3964:3983   */\n      dup8\n      dup4\n      gt\n        /* \"#utility.yul\":3961:4000   */\n      iszero\n      tag_115\n      jumpi\n        /* \"#utility.yul\":3996:3997   */\n      0x00\n        /* \"#utility.yul\":3993:3994   */\n      dup1\n        /* \"#utility.yul\":3986:3998   */\n      revert\n        /* \"#utility.yul\":3961:4000   */\n    tag_115:\n        /* \"#utility.yul\":4020:4031   */\n      swap3\n      dup5\n      add\n      swap3\n        /* \"#utility.yul\":4040:4187   */\n    tag_116:\n        /* \"#utility.yul\":4056:4062   */\n      dup3\n        /* \"#utility.yul\":4051:4054   */\n      dup5\n        /* \"#utility.yul\":4048:4063   */\n      lt\n        /* \"#utility.yul\":4040:4187   */\n      iszero\n      tag_118\n      jumpi\n        /* \"#utility.yul\":4122:4144   */\n      tag_119\n        /* \"#utility.yul\":4140:4143   */\n      dup5\n        /* \"#utility.yul\":4122:4144   */\n      tag_73\n      jump\t// in\n    tag_119:\n        /* \"#utility.yul\":4110:4145   */\n      dup3\n      mstore\n        /* \"#utility.yul\":4073:4085   */\n      swap3\n      dup5\n      add\n      swap3\n        /* \"#utility.yul\":4165:4177   */\n      swap1\n      dup5\n      add\n      swap1\n        /* \"#utility.yul\":4040:4187   */\n      jump(tag_116)\n    tag_118:\n        /* \"#utility.yul\":4206:4211   */\n      swap8\n        /* \"#utility.yul\":3322:4217   */\n      swap7\n      pop\n      pop\n      pop\n      pop\n      pop\n      pop\n      pop\n      jump\t// out\n        /* \"#utility.yul\":4222:4644   */\n    tag_18:\n        /* \"#utility.yul\":4318:4324   */\n      0x00\n        /* \"#utility.yul\":4326:4332   */\n      dup1\n        /* \"#utility.yul\":4379:4381   */\n      0x40\n        /* \"#utility.yul\":4367:4376   */\n      dup4\n        /* \"#utility.yul\":4358:4365   */\n      dup6\n        /* \"#utility.yul\":4354:4377   */\n      sub\n        /* \"#utility.yul\":4350:4382   */\n      slt\n        /* \"#utility.yul\":4347:4399   */\n      iszero\n      tag_121\n      jumpi\n        /* \"#utility.yul\":4395:4396   */\n      0x00\n        /* \"#utility.yul\":4392:4393   */\n      dup1\n        /* \"#utility.yul\":4385:4397   */\n      revert\n        /* \"#utility.yul\":4347:4399   */\n    tag_121:\n        /* \"#utility.yul\":4435:4444   */\n      dup3\n        /* \"#utility.yul\":4422:4445   */\n      calldataload\n        /* \"#utility.yul\":4468:4486   */\n      0xffffffffffffffff\n        /* \"#utility.yul\":4460:4466   */\n      dup2\n        /* \"#utility.yul\":4457:4487   */\n      gt\n        /* \"#utility.yul\":4454:4504   */\n      iszero\n      tag_122\n      jumpi\n        /* \"#utility.yul\":4500:4501   */\n      0x00\n        /* \"#utility.yul\":4497:4498   */\n      dup1\n        /* \"#utility.yul\":4490:4502   */\n      revert\n        /* \"#utility.yul\":4454:4504   */\n    tag_122:\n        /* \"#utility.yul\":4523:4587   */\n      tag_123\n        /* \"#utility.yul\":4579:4586   */\n      dup6\n        /* \"#utility.yul\":4570:4576   */\n      dup3\n        /* \"#utility.yul\":4559:4568   */\n      dup7\n        /* \"#utility.yul\":4555:4577   */\n      add\n        /* \"#utility.yul\":4523:4587   */\n      tag_72\n      jump\t// in\n    tag_123:\n        /* \"#utility.yul\":4513:4587   */\n      swap6\n        /* \"#utility.yul\":4634:4636   */\n      0x20\n        /* \"#utility.yul\":4619:4637   */\n      swap5\n      swap1\n      swap5\n      add\n        /* \"#utility.yul\":4606:4638   */\n      calldataload\n      swap5\n      pop\n      pop\n      pop\n      pop\n        /* \"#utility.yul\":4222:4644   */\n      jump\t// out\n        /* \"#utility.yul\":4854:4981   */\n    tag_74:\n        /* \"#utility.yul\":4915:4925   */\n      0x4e487b71\n        /* \"#utility.yul\":4910:4913   */\n      0xe0\n        /* \"#utility.yul\":4906:4926   */\n      shl\n        /* \"#utility.yul\":4903:4904   */\n      0x00\n        /* \"#utility.yul\":4896:4927   */\n      mstore\n        /* \"#utility.yul\":4946:4950   */\n      0x12\n        /* \"#utility.yul\":4943:4944   */\n      0x04\n        /* \"#utility.yul\":4936:4951   */\n      mstore\n        /* \"#utility.yul\":4970:4974   */\n      0x24\n        /* \"#utility.yul\":4967:4968   */\n      0x00\n        /* \"#utility.yul\":4960:4975   */\n      revert\n        /* \"#utility.yul\":4986:5113   */\n    tag_75:\n        /* \"#utility.yul\":5047:5057   */\n      0x4e487b71\n        /* \"#utility.yul\":5042:5045   */\n      0xe0\n        /* \"#utility.yul\":5038:5058   */\n      shl\n        /* \"#utility.yul\":5035:5036   */\n      0x00\n        /* \"#utility.yul\":5028:5059   */\n      mstore\n        /* \"#utility.yul\":5078:5082   */\n      0x11\n        /* \"#utility.yul\":5075:5076   */\n      0x04\n        /* \"#utility.yul\":5068:5083   */\n      mstore\n        /* \"#utility.yul\":5102:5106   */\n      0x24\n        /* \"#utility.yul\":5099:5100   */\n      0x00\n        /* \"#utility.yul\":5092:5107   */\n      revert\n        /* \"#utility.yul\":5118:5238   */\n    tag_26:\n        /* \"#utility.yul\":5158:5159   */\n      0x00\n        /* \"#utility.yul\":5184:5185   */\n      dup3\n        /* \"#utility.yul\":5174:5209   */\n      tag_129\n      jumpi\n        /* \"#utility.yul\":5189:5207   */\n      tag_129\n      tag_74\n      jump\t// in\n    tag_129:\n      pop\n        /* \"#utility.yul\":5223:5232   */\n      div\n      swap1\n        /* \"#utility.yul\":5118:5238   */\n      jump\t// out\n        /* \"#utility.yul\":5243:5355   */\n    tag_28:\n        /* \"#utility.yul\":5275:5276   */\n      0x00\n        /* \"#utility.yul\":5301:5302   */\n      dup3\n        /* \"#utility.yul\":5291:5326   */\n      tag_132\n      jumpi\n        /* \"#utility.yul\":5306:5324   */\n      tag_132\n      tag_74\n      jump\t// in\n    tag_132:\n      pop\n        /* \"#utility.yul\":5340:5349   */\n      mod\n      swap1\n        /* \"#utility.yul\":5243:5355   */\n      jump\t// out\n        /* \"#utility.yul\":5360:5488   */\n    tag_30:\n        /* \"#utility.yul\":5427:5436   */\n      dup2\n      dup2\n      sub\n        /* \"#utility.yul\":5448:5459   */\n      dup2\n      dup2\n      gt\n        /* \"#utility.yul\":5445:5482   */\n      iszero\n      tag_59\n      jumpi\n        /* \"#utility.yul\":5462:5480   */\n      tag_59\n      tag_75\n      jump\t// in\n        /* \"#utility.yul\":5493:5661   */\n    tag_32:\n        /* \"#utility.yul\":5566:5575   */\n      dup1\n      dup3\n      mul\n        /* \"#utility.yul\":5597:5606   */\n      dup2\n      iszero\n        /* \"#utility.yul\":5614:5629   */\n      dup3\n      dup3\n      div\n        /* \"#utility.yul\":5608:5630   */\n      dup5\n      eq\n        /* \"#utility.yul\":5594:5631   */\n      or\n        /* \"#utility.yul\":5584:5655   */\n      tag_59\n      jumpi\n        /* \"#utility.yul\":5635:5653   */\n      tag_59\n      tag_75\n      jump\t// in\n        /* \"#utility.yul\":5666:5793   */\n    tag_35:\n        /* \"#utility.yul\":5727:5737   */\n      0x4e487b71\n        /* \"#utility.yul\":5722:5725   */\n      0xe0\n        /* \"#utility.yul\":5718:5738   */\n      shl\n        /* \"#utility.yul\":5715:5716   */\n      0x00\n        /* \"#utility.yul\":5708:5739   */\n      mstore\n        /* \"#utility.yul\":5758:5762   */\n      0x32\n        /* \"#utility.yul\":5755:5756   */\n      0x04\n        /* \"#utility.yul\":5748:5763   */\n      mstore\n        /* \"#utility.yul\":5782:5786   */\n      0x24\n        /* \"#utility.yul\":5779:5780   */\n      0x00\n        /* \"#utility.yul\":5772:5787   */\n      revert\n        /* \"#utility.yul\":5798:5933   */\n    tag_47:\n        /* \"#utility.yul\":5837:5840   */\n      0x00\n        /* \"#utility.yul\":5858:5875   */\n      0x01\n      dup3\n      add\n        /* \"#utility.yul\":5855:5898   */\n      tag_142\n      jumpi\n        /* \"#utility.yul\":5878:5896   */\n      tag_142\n      tag_75\n      jump\t// in\n    tag_142:\n      pop\n        /* \"#utility.yul\":5925:5926   */\n      0x01\n        /* \"#utility.yul\":5914:5927   */\n      add\n      swap1\n        /* \"#utility.yul\":5798:5933   */\n      jump\t// out\n\n    auxdata: 0xa2646970667358221220ebbc41a28f0028caaafce6380b4d4d2be8a92487076019b14d5e6377ba1ffc6e64736f6c63430008140033\n}\n",
				"bytecode": {
					"linkReferences": {},
					"object": "6106f561003a600b82828239805160001a60731461002d57634e487b7160e01b600052600060045260246000fd5b30600052607381538281f3fe730000000000000000000000000000000000000000301460806040526004361061004b5760003560e01c8063373cfe0314610050578063905387ed14610079578063bdd1b7671461008c575b600080fd5b61006361005e366004610486565b6100b4565b60405161007091906104dd565b60405180910390f35b610063610087366004610535565b610184565b61009f61009a3660046105cd565b610281565b60405163ffffffff9091168152602001610070565b60408051808201909152600081526060602082015260006100d660088561063e565b905060006100e5600886610652565b905060006100f4826007610666565b6100ff906020610679565b63ffffffff8016901b199050808760200151848151811061012257610122610690565b602090810291909101018051909116905261013e826007610666565b610149906020610679565b8563ffffffff16901b8760200151848151811061016857610168610690565b6020908102919091010180519091179052509495945050505050565b604080518082019091526000815260606020820152604080518082019091526000815260606020820152825163ffffffff16815282516000906101c99060089061063e565b9050600884516101d99190610652565b156101ec57806101e8816106a6565b9150505b8067ffffffffffffffff8111156102055761020561032d565b60405190808252806020026020018201604052801561022e578160200160208202803683370190505b50602083015260005b845181101561027857610264838287848151811061025757610257610690565b60200260200101516100b4565b925080610270816106a6565b915050610237565b50909392505050565b815160009082106102ce5760405162461bcd60e51b815260206004820152601360248201527224b73232bc1037baba1037b3103930b733b29760691b604482015260640160405180910390fd5b60006102db60088461063e565b905060006102ea600885610652565b90506102f7816007610666565b610302906020610679565b8560200151838151811061031857610318610690565b6020026020010151901c925050505b92915050565b634e487b7160e01b600052604160045260246000fd5b6040805190810167ffffffffffffffff811182821017156103665761036661032d565b60405290565b604051601f8201601f1916810167ffffffffffffffff811182821017156103955761039561032d565b604052919050565b600067ffffffffffffffff8211156103b7576103b761032d565b5060051b60200190565b6000604082840312156103d357600080fd5b6103db610343565b90508135815260208083013567ffffffffffffffff8111156103fc57600080fd5b8301601f8101851361040d57600080fd5b803561042061041b8261039d565b61036c565b81815260059190911b8201830190838101908783111561043f57600080fd5b928401925b8284101561045d57833582529284019290840190610444565b8085870152505050505092915050565b803563ffffffff8116811461048157600080fd5b919050565b60008060006060848603121561049b57600080fd5b833567ffffffffffffffff8111156104b257600080fd5b6104be868287016103c1565b935050602084013591506104d46040850161046d565b90509250925092565b60208082528251828201528281015160408084015280516060840181905260009291820190839060808601905b8083101561052a578351825292840192600192909201919084019061050a565b509695505050505050565b6000602080838503121561054857600080fd5b823567ffffffffffffffff81111561055f57600080fd5b8301601f8101851361057057600080fd5b803561057e61041b8261039d565b81815260059190911b8201830190838101908783111561059d57600080fd5b928401925b828410156105c2576105b38461046d565b825292840192908401906105a2565b979650505050505050565b600080604083850312156105e057600080fd5b823567ffffffffffffffff8111156105f757600080fd5b610603858286016103c1565b95602094909401359450505050565b634e487b7160e01b600052601260045260246000fd5b634e487b7160e01b600052601160045260246000fd5b60008261064d5761064d610612565b500490565b60008261066157610661610612565b500690565b8181038181111561032757610327610628565b808202811582820484141761032757610327610628565b634e487b7160e01b600052603260045260246000fd5b6000600182016106b8576106b8610628565b506001019056fea2646970667358221220ebbc41a28f0028caaafce6380b4d4d2be8a92487076019b14d5e6377ba1ffc6e64736f6c63430008140033",
					"opcodes": "PUSH2 0x6F5 PUSH2 0x3A PUSH1 0xB DUP3 DUP3 DUP3 CODECOPY DUP1 MLOAD PUSH1 0x0 BYTE PUSH1 0x73 EQ PUSH2 0x2D JUMPI PUSH4 0x4E487B71 PUSH1 0xE0 SHL PUSH1 0x0 MSTORE PUSH1 0x0 PUSH1 0x4 MSTORE PUSH1 0x24 PUSH1 0x0 REVERT JUMPDEST ADDRESS PUSH1 0x0 MSTORE PUSH1 0x73 DUP2 MSTORE8 DUP3 DUP2 RETURN INVALID PUSH20 0x0 ADDRESS EQ PUSH1 0x80 PUSH1 0x40 MSTORE PUSH1 0x4 CALLDATASIZE LT PUSH2 0x4B JUMPI PUSH1 0x0 CALLDATALOAD PUSH1 0xE0 SHR DUP1 PUSH4 0x373CFE03 EQ PUSH2 0x50 JUMPI DUP1 PUSH4 0x905387ED EQ PUSH2 0x79 JUMPI DUP1 PUSH4 0xBDD1B767 EQ PUSH2 0x8C JUMPI JUMPDEST PUSH1 0x0 DUP1 REVERT JUMPDEST PUSH2 0x63 PUSH2 0x5E CALLDATASIZE PUSH1 0x4 PUSH2 0x486 JUMP JUMPDEST PUSH2 0xB4 JUMP JUMPDEST PUSH1 0x40 MLOAD PUSH2 0x70 SWAP2 SWAP1 PUSH2 0x4DD JUMP JUMPDEST PUSH1 0x40 MLOAD DUP1 SWAP2 SUB SWAP1 RETURN JUMPDEST PUSH2 0x63 PUSH2 0x87 CALLDATASIZE PUSH1 0x4 PUSH2 0x535 JUMP JUMPDEST PUSH2 0x184 JUMP JUMPDEST PUSH2 0x9F PUSH2 0x9A CALLDATASIZE PUSH1 0x4 PUSH2 0x5CD JUMP JUMPDEST PUSH2 0x281 JUMP JUMPDEST PUSH1 0x40 MLOAD PUSH4 0xFFFFFFFF SWAP1 SWAP2 AND DUP2 MSTORE PUSH1 0x20 ADD PUSH2 0x70 JUMP JUMPDEST PUSH1 0x40 DUP1 MLOAD DUP1 DUP3 ADD SWAP1 SWAP2 MSTORE PUSH1 0x0 DUP2 MSTORE PUSH1 0x60 PUSH1 0x20 DUP3 ADD MSTORE PUSH1 0x0 PUSH2 0xD6 PUSH1 0x8 DUP6 PUSH2 0x63E JUMP JUMPDEST SWAP1 POP PUSH1 0x0 PUSH2 0xE5 PUSH1 0x8 DUP7 PUSH2 0x652 JUMP JUMPDEST SWAP1 POP PUSH1 0x0 PUSH2 0xF4 DUP3 PUSH1 0x7 PUSH2 0x666 JUMP JUMPDEST PUSH2 0xFF SWAP1 PUSH1 0x20 PUSH2 0x679 JUMP JUMPDEST PUSH4 0xFFFFFFFF DUP1 AND SWAP1 SHL NOT SWAP1 POP DUP1 DUP8 PUSH1 0x20 ADD MLOAD DUP5 DUP2 MLOAD DUP2 LT PUSH2 0x122 JUMPI PUSH2 0x122 PUSH2 0x690 JUMP JUMPDEST PUSH1 0x20 SWAP1 DUP2 MUL SWAP2 SWAP1 SWAP2 ADD ADD DUP1 MLOAD SWAP1 SWAP2 AND SWAP1 MSTORE PUSH2 0x13E DUP3 PUSH1 0x7 PUSH2 0x666 JUMP JUMPDEST PUSH2 0x149 SWAP1 PUSH1 0x20 PUSH2 0x679 JUMP JUMPDEST DUP6 PUSH4 0xFFFFFFFF AND SWAP1 SHL DUP8 PUSH1 0x20 ADD MLOAD DUP5 DUP2 MLOAD DUP2 LT PUSH2 0x168 JUMPI PUSH2 0x168 PUSH2 0x690 JUMP JUMPDEST PUSH1 0x20 SWAP1 DUP2 MUL SWAP2 SWAP1 SWAP2 ADD ADD DUP1 MLOAD SWAP1 SWAP2 OR SWAP1 MSTORE POP SWAP5 SWAP6 SWAP5 POP POP POP POP POP JUMP JUMPDEST PUSH1 0x40 DUP1 MLOAD DUP1 DUP3 ADD SWAP1 SWAP2 MSTORE PUSH1 0x0 DUP2 MSTORE PUSH1 0x60 PUSH1 0x20 DUP3 ADD MSTORE PUSH1 0x40 DUP1 MLOAD DUP1 DUP3 ADD SWAP1 SWAP2 MSTORE PUSH1 0x0 DUP2 MSTORE PUSH1 0x60 PUSH1 0x20 DUP3 ADD MSTORE DUP3 MLOAD PUSH4 0xFFFFFFFF AND DUP2 MSTORE DUP3 MLOAD PUSH1 0x0 SWAP1 PUSH2 0x1C9 SWAP1 PUSH1 0x8 SWAP1 PUSH2 0x63E JUMP JUMPDEST SWAP1 POP PUSH1 0x8 DUP5 MLOAD PUSH2 0x1D9 SWAP2 SWAP1 PUSH2 0x652 JUMP JUMPDEST ISZERO PUSH2 0x1EC JUMPI DUP1 PUSH2 0x1E8 DUP2 PUSH2 0x6A6 JUMP JUMPDEST SWAP2 POP POP JUMPDEST DUP1 PUSH8 0xFFFFFFFFFFFFFFFF DUP2 GT ISZERO PUSH2 0x205 JUMPI PUSH2 0x205 PUSH2 0x32D JUMP JUMPDEST PUSH1 0x40 MLOAD SWAP1 DUP1 DUP3 MSTORE DUP1 PUSH1 0x20 MUL PUSH1 0x20 ADD DUP3 ADD PUSH1 0x40 MSTORE DUP1 ISZERO PUSH2 0x22E JUMPI DUP2 PUSH1 0x20 ADD PUSH1 0x20 DUP3 MUL DUP1 CALLDATASIZE DUP4 CALLDATACOPY ADD SWAP1 POP JUMPDEST POP PUSH1 0x20 DUP4 ADD MSTORE PUSH1 0x0 JUMPDEST DUP5 MLOAD DUP2 LT ISZERO PUSH2 0x278 JUMPI PUSH2 0x264 DUP4 DUP3 DUP8 DUP5 DUP2 MLOAD DUP2 LT PUSH2 0x257 JUMPI PUSH2 0x257 PUSH2 0x690 JUMP JUMPDEST PUSH1 0x20 MUL PUSH1 0x20 ADD ADD MLOAD PUSH2 0xB4 JUMP JUMPDEST SWAP3 POP DUP1 PUSH2 0x270 DUP2 PUSH2 0x6A6 JUMP JUMPDEST SWAP2 POP POP PUSH2 0x237 JUMP JUMPDEST POP SWAP1 SWAP4 SWAP3 POP POP POP JUMP JUMPDEST DUP2 MLOAD PUSH1 0x0 SWAP1 DUP3 LT PUSH2 0x2CE JUMPI PUSH1 0x40 MLOAD PUSH3 0x461BCD PUSH1 0xE5 SHL DUP2 MSTORE PUSH1 0x20 PUSH1 0x4 DUP3 ADD MSTORE PUSH1 0x13 PUSH1 0x24 DUP3 ADD MSTORE PUSH19 0x24B73232BC1037BABA1037B3103930B733B297 PUSH1 0x69 SHL PUSH1 0x44 DUP3 ADD MSTORE PUSH1 0x64 ADD PUSH1 0x40 MLOAD DUP1 SWAP2 SUB SWAP1 REVERT JUMPDEST PUSH1 0x0 PUSH2 0x2DB PUSH1 0x8 DUP5 PUSH2 0x63E JUMP JUMPDEST SWAP1 POP PUSH1 0x0 PUSH2 0x2EA PUSH1 0x8 DUP6 PUSH2 0x652 JUMP JUMPDEST SWAP1 POP PUSH2 0x2F7 DUP2 PUSH1 0x7 PUSH2 0x666 JUMP JUMPDEST PUSH2 0x302 SWAP1 PUSH1 0x20 PUSH2 0x679 JUMP JUMPDEST DUP6 PUSH1 0x20 ADD MLOAD DUP4 DUP2 MLOAD DUP2 LT PUSH2 0x318 JUMPI PUSH2 0x318 PUSH2 0x690 JUMP JUMPDEST PUSH1 0x20 MUL PUSH1 0x20 ADD ADD MLOAD SWAP1 SHR SWAP3 POP POP POP JUMPDEST SWAP3 SWAP2 POP POP JUMP JUMPDEST PUSH4 0x4E487B71 PUSH1 0xE0 SHL PUSH1 0x0 MSTORE PUSH1 0x41 PUSH1 0x4 MSTORE PUSH1 0x24 PUSH1 0x0 REVERT JUMPDEST PUSH1 0x40 DUP1 MLOAD SWAP1 DUP2 ADD PUSH8 0xFFFFFFFFFFFFFFFF DUP2 GT DUP3 DUP3 LT OR ISZERO PUSH2 0x366 JUMPI PUSH2 0x366 PUSH2 0x32D JUMP JUMPDEST PUSH1 0x40 MSTORE SWAP1 JUMP JUMPDEST PUSH1 0x40 MLOAD PUSH1 0x1F DUP3 ADD PUSH1 0x1F NOT AND DUP2 ADD PUSH8 0xFFFFFFFFFFFFFFFF DUP2 GT DUP3 DUP3 LT OR ISZERO PUSH2 0x395 JUMPI PUSH2 0x395 PUSH2 0x32D JUMP JUMPDEST PUSH1 0x40 MSTORE SWAP2 SWAP1 POP JUMP JUMPDEST PUSH1 0x0 PUSH8 0xFFFFFFFFFFFFFFFF DUP3 GT ISZERO PUSH2 0x3B7 JUMPI PUSH2 0x3B7 PUSH2 0x32D JUMP JUMPDEST POP PUSH1 0x5 SHL PUSH1 0x20 ADD SWAP1 JUMP JUMPDEST PUSH1 0x0 PUSH1 0x40 DUP3 DUP5 SUB SLT ISZERO PUSH2 0x3D3 JUMPI PUSH1 0x0 DUP1 REVERT JUMPDEST PUSH2 0x3DB PUSH2 0x343 JUMP JUMPDEST SWAP1 POP DUP2 CALLDATALOAD DUP2 MSTORE PUSH1 0x20 DUP1 DUP4 ADD CALLDATALOAD PUSH8 0xFFFFFFFFFFFFFFFF DUP2 GT ISZERO PUSH2 0x3FC JUMPI PUSH1 0x0 DUP1 REVERT JUMPDEST DUP4 ADD PUSH1 0x1F DUP2 ADD DUP6 SGT PUSH2 0x40D JUMPI PUSH1 0x0 DUP1 REVERT JUMPDEST DUP1 CALLDATALOAD PUSH2 0x420 PUSH2 0x41B DUP3 PUSH2 0x39D JUMP JUMPDEST PUSH2 0x36C JUMP JUMPDEST DUP2 DUP2 MSTORE PUSH1 0x5 SWAP2 SWAP1 SWAP2 SHL DUP3 ADD DUP4 ADD SWAP1 DUP4 DUP2 ADD SWAP1 DUP8 DUP4 GT ISZERO PUSH2 0x43F JUMPI PUSH1 0x0 DUP1 REVERT JUMPDEST SWAP3 DUP5 ADD SWAP3 JUMPDEST DUP3 DUP5 LT ISZERO PUSH2 0x45D JUMPI DUP4 CALLDATALOAD DUP3 MSTORE SWAP3 DUP5 ADD SWAP3 SWAP1 DUP5 ADD SWAP1 PUSH2 0x444 JUMP JUMPDEST DUP1 DUP6 DUP8 ADD MSTORE POP POP POP POP POP SWAP3 SWAP2 POP POP JUMP JUMPDEST DUP1 CALLDATALOAD PUSH4 0xFFFFFFFF DUP2 AND DUP2 EQ PUSH2 0x481 JUMPI PUSH1 0x0 DUP1 REVERT JUMPDEST SWAP2 SWAP1 POP JUMP JUMPDEST PUSH1 0x0 DUP1 PUSH1 0x0 PUSH1 0x60 DUP5 DUP7 SUB SLT ISZERO PUSH2 0x49B JUMPI PUSH1 0x0 DUP1 REVERT JUMPDEST DUP4 CALLDATALOAD PUSH8 0xFFFFFFFFFFFFFFFF DUP2 GT ISZERO PUSH2 0x4B2 JUMPI PUSH1 0x0 DUP1 REVERT JUMPDEST PUSH2 0x4BE DUP7 DUP3 DUP8 ADD PUSH2 0x3C1 JUMP JUMPDEST SWAP4 POP POP PUSH1 0x20 DUP5 ADD CALLDATALOAD SWAP2 POP PUSH2 0x4D4 PUSH1 0x40 DUP6 ADD PUSH2 0x46D JUMP JUMPDEST SWAP1 POP SWAP3 POP SWAP3 POP SWAP3 JUMP JUMPDEST PUSH1 0x20 DUP1 DUP3 MSTORE DUP3 MLOAD DUP3 DUP3 ADD MSTORE DUP3 DUP2 ADD MLOAD PUSH1 0x40 DUP1 DUP5 ADD MSTORE DUP1 MLOAD PUSH1 0x60 DUP5 ADD DUP2 SWAP1 MSTORE PUSH1 0x0 SWAP3 SWAP2 DUP3 ADD SWAP1 DUP4 SWAP1 PUSH1 0x80 DUP7 ADD SWAP1 JUMPDEST DUP1 DUP4 LT ISZERO PUSH2 0x52A JUMPI DUP4 MLOAD DUP3 MSTORE SWAP3 DUP5 ADD SWAP3 PUSH1 0x1 SWAP3 SWAP1 SWAP3 ADD SWAP2 SWAP1 DUP5 ADD SWAP1 PUSH2 0x50A JUMP JUMPDEST POP SWAP7 SWAP6 POP POP POP POP POP POP JUMP JUMPDEST PUSH1 0x0 PUSH1 0x20 DUP1 DUP4 DUP6 SUB SLT ISZERO PUSH2 0x548 JUMPI PUSH1 0x0 DUP1 REVERT JUMPDEST DUP3 CALLDATALOAD PUSH8 0xFFFFFFFFFFFFFFFF DUP2 GT ISZERO PUSH2 0x55F JUMPI PUSH1 0x0 DUP1 REVERT JUMPDEST DUP4 ADD PUSH1 0x1F DUP2 ADD DUP6 SGT PUSH2 0x570 JUMPI PUSH1 0x0 DUP1 REVERT JUMPDEST DUP1 CALLDATALOAD PUSH2 0x57E PUSH2 0x41B DUP3 PUSH2 0x39D JUMP JUMPDEST DUP2 DUP2 MSTORE PUSH1 0x5 SWAP2 SWAP1 SWAP2 SHL DUP3 ADD DUP4 ADD SWAP1 DUP4 DUP2 ADD SWAP1 DUP8 DUP4 GT ISZERO PUSH2 0x59D JUMPI PUSH1 0x0 DUP1 REVERT JUMPDEST SWAP3 DUP5 ADD SWAP3 JUMPDEST DUP3 DUP5 LT ISZERO PUSH2 0x5C2 JUMPI PUSH2 0x5B3 DUP5 PUSH2 0x46D JUMP JUMPDEST DUP3 MSTORE SWAP3 DUP5 ADD SWAP3 SWAP1 DUP5 ADD SWAP1 PUSH2 0x5A2 JUMP JUMPDEST SWAP8 SWAP7 POP POP POP POP POP POP POP JUMP JUMPDEST PUSH1 0x0 DUP1 PUSH1 0x40 DUP4 DUP6 SUB SLT ISZERO PUSH2 0x5E0 JUMPI PUSH1 0x0 DUP1 REVERT JUMPDEST DUP3 CALLDATALOAD PUSH8 0xFFFFFFFFFFFFFFFF DUP2 GT ISZERO PUSH2 0x5F7 JUMPI PUSH1 0x0 DUP1 REVERT JUMPDEST PUSH2 0x603 DUP6 DUP3 DUP7 ADD PUSH2 0x3C1 JUMP JUMPDEST SWAP6 PUSH1 0x20 SWAP5 SWAP1 SWAP5 ADD CALLDATALOAD SWAP5 POP POP POP POP JUMP JUMPDEST PUSH4 0x4E487B71 PUSH1 0xE0 SHL PUSH1 0x0 MSTORE PUSH1 0x12 PUSH1 0x4 MSTORE PUSH1 0x24 PUSH1 0x0 REVERT JUMPDEST PUSH4 0x4E487B71 PUSH1 0xE0 SHL PUSH1 0x0 MSTORE PUSH1 0x11 PUSH1 0x4 MSTORE PUSH1 0x24 PUSH1 0x0 REVERT JUMPDEST PUSH1 0x0 DUP3 PUSH2 0x64D JUMPI PUSH2 0x64D PUSH2 0x612 JUMP JUMPDEST POP DIV SWAP1 JUMP JUMPDEST PUSH1 0x0 DUP3 PUSH2 0x661 JUMPI PUSH2 0x661 PUSH2 0x612 JUMP JUMPDEST POP MOD SWAP1 JUMP JUMPDEST DUP2 DUP2 SUB DUP2 DUP2 GT ISZERO PUSH2 0x327 JUMPI PUSH2 0x327 PUSH2 0x628 JUMP JUMPDEST DUP1 DUP3 MUL DUP2 ISZERO DUP3 DUP3 DIV DUP5 EQ OR PUSH2 0x327 JUMPI PUSH2 0x327 PUSH2 0x628 JUMP JUMPDEST PUSH4 0x4E487B71 PUSH1 0xE0 SHL PUSH1 0x0 MSTORE PUSH1 0x32 PUSH1 0x4 MSTORE PUSH1 0x24 PUSH1 0x0 REVERT JUMPDEST PUSH1 0x0 PUSH1 0x1 DUP3 ADD PUSH2 0x6B8 JUMPI PUSH2 0x6B8 PUSH2 0x628 JUMP JUMPDEST POP PUSH1 0x1 ADD SWAP1 JUMP INVALID LOG2 PUSH5 0x6970667358 0x22 SLT KECCAK256 0xEB 0xBC COINBASE LOG2 DUP16 STOP 0x28 0xCA 0xAA 0xFC 0xE6 CODESIZE SIGNEXTEND 0x4D 0x4D 0x2B 0xE8 0xA9 0x24 DUP8 SMOD PUSH1 0x19 0xB1 0x4D 0x5E PUSH4 0x77BA1FFC PUSH15 0x64736F6C6343000814003300000000 "
				},
				"gasEstimates": {
					"creation": {
						"codeDepositCost": "356200",
						"executionCost": "424",
						"totalCost": "356624"
					},
					"external": {
						"get(PackedArray.PackedArray32,uint256)": "infinite",
						"pack(uint32[])": "infinite",
						"set(PackedArray.PackedArray32,uint256,uint32)": "infinite"
					}
				},
				"methodIdentifiers": {
					"get(PackedArray.PackedArray32,uint256)": "bdd1b767",
					"pack(uint32[])": "905387ed",
					"set(PackedArray.PackedArray32,uint256,uint32)": "373cfe03"
				}
			},
			"storageLayout": {
				"storage": [],
				"types": null
			},
			"userdoc": {
				"kind": "user",
				"methods": {},
				"version": 1
			}
		}
	}
}