{
	"data": {
		"bytecode": {
			"linkReferences": {
				"PackedArray.sol": {
					"PackedArray": [
						{
							"length": 20,
							"start": 11351
						},
						{
							"length": 20,
							"start": 11695
						},
						{
							"length": 20,
							"start": 13603
						},
						{
							"length": 20,
							"start": 14113
						},
						{
							"length": 20,
							"start": 14224
						},
						{
							"length": 20,
							"start": 14843
						}
					]
				}
			},
			"object": "60806040523480156200001157600080fd5b5060405162004c7338038062004c738339810160408190526200003491620000f8565b6200004160008262000049565b50506200012a565b6000828152602081815260408083206001600160a01b038516845290915281205460ff16620000ee576000838152602081815260408083206001600160a01b03861684529091529020805460ff19166001179055620000a53390565b6001600160a01b0316826001600160a01b0316847f2f8788117e7eff1d82e926ec794901d17c78024a50270940304540a733656f0d60405160405180910390a4506001620000f2565b5060005b92915050565b6000602082840312156200010b57600080fd5b81516001600160a01b03811681146200012357600080fd5b9392505050565b614b39806200013a6000396000f3fe608060405234801561001057600080fd5b50600436106102f15760003560e01c80636473ec2c1161019d578063b670ed52116100e9578063d7b6453f116100a2578063dbe4613d1161007c578063dbe4613d146107b8578063f36b4b58146107df578063f3ebc985146107e7578063fac333ac1461080857600080fd5b8063d7b6453f1461077b578063d8683b2e14610783578063db2e3b4d146107a557600080fd5b8063b670ed5214610710578063b749ea8314610732578063cfa74b9c1461073a578063d2b0022f1461074d578063d547741f14610755578063d56d229d1461076857600080fd5b80638487a06a116101565780638c7a63ae116101305780638c7a63ae146106a157806390297b0d146106e257806391d14854146106f5578063a217fddf1461070857600080fd5b80638487a06a1461067e5780638667b8d9146106865780638c7520f01461069957600080fd5b80636473ec2c146106095780636a82557f146106195780636ce6a4b41461062c57806375a6da9b1461063f5780637c1a0302146106625780637f2486ce1461066b57600080fd5b806338ba46141161025c5780634ed31428116102155780635a1c7c50116101ef5780635a1c7c501461053c5780635d7ba30f1461054f5780635ef73b1f1461056757806361d34d421461059257600080fd5b80634ed31428146104a55780634fd331c6146104d657806350cf21d9146104fd57600080fd5b806338ba46141461043c57806339da9fb81461044f5780633c15ecf4146104645780633c36eaec1461046c57806340730aaa1461047f5780634749c25c1461049257600080fd5b80631a75b3ed116102ae5780631a75b3ed146103b6578063248a9ca3146103cb5780632714795f146103ee5780632e413c37146104035780632f2ff15d1461041657806336568abe1461042957600080fd5b806301ffc9a7146102f657806302f430231461031e57806307bd0265146103465780630b8160451461037b57806319b88edb1461039b57806319c2b4c3146103ae575b600080fd5b610309610304366004613f93565b61081b565b60405190151581526020015b60405180910390f35b61033161032c366004613fc4565b610852565b60405163ffffffff9091168152602001610315565b61036d7fd8aa0f3194971a2a116679f7c2090f6939c8d4e01a2a8d7e41d55e5351469e6381565b604051908152602001610315565b61038e610389366004613fc4565b61088c565b604051610315919061404e565b61036d6103a9366004613fc4565b610a96565b61036d610b04565b6103c96103c4366004614208565b610b2b565b005b61036d6103d9366004613fc4565b60009081526020819052604090206001015490565b6103f6610c03565b6040516103159190614244565b610331610411366004613fc4565b610c87565b6103c961042436600461426e565b610c97565b6103c961043736600461426e565b610cc2565b6103c961044a3660046142f5565b610cfa565b610457610e03565b604051610315919061433b565b6103f6610e5a565b61033161047a366004613fc4565b610eb7565b6103c961048d36600461434e565b610ec7565b61036d6104a0366004613fc4565b611061565b6103316104b33660046143a7565b600360209081526000928352604080842090915290825290205463ffffffff1681565b61036d7f5fd84582b30bace1cbb5cc91a75b8ee48a0e84da1e64c2d880c8c865c813444f81565b61033161050b3660046143a7565b6001600160a01b0391909116600090815260036020908152604080832063ffffffff94851684529091529020541690565b6103c961054a3660046143de565b611082565b60075461033190640100000000900463ffffffff1681565b60025461057a906001600160a01b031681565b6040516001600160a01b039091168152602001610315565b6105d86105a0366004613fc4565b60066020526000908152604090205460ff8082169161010081048216916201000082041690630100000090046001600160a01b031684565b6040805194151585529215156020850152901515918301919091526001600160a01b03166060820152608001610315565b6007546103319063ffffffff1681565b6103c961062736600461434e565b6110ec565b6103c961063a366004614412565b6113e9565b61030961064d36600461442d565b60056020526000908152604090205460ff1681565b61036d60085481565b6103c961067936600461444a565b611459565b6103c961148c565b610331610694366004613fc4565b61152f565b61045761153f565b6106b46106af366004613fc4565b611c2e565b604080519415158552602085019390935263ffffffff91821692840192909252166060820152608001610315565b6103c96106f0366004614412565b611d11565b61030961070336600461426e565b611d5a565b61036d600081565b61072361071e36600461442d565b611d83565b604051610315939291906144bf565b6103f6611f5b565b6103c9610748366004614208565b611fb8565b61036d612159565b6103c961076336600461426e565b612170565b60015461057a906001600160a01b031681565b610457612195565b61079661079136600461442d565b6121eb565b60405161031593929190614517565b6103c96107b336600461453b565b612279565b61036d7f43f25613eb2f15fb17222a5d424ca2655743e71265d98e4b93c05e5fb589ecde81565b6103f66123bc565b6107fa6107f536600461442d565b612419565b604051610315929190614559565b61036d610816366004613fc4565b612579565b60006001600160e01b03198216637965db0b60e01b148061084c57506301ffc9a760e01b6001600160e01b03198316145b92915050565b600b818154811061086257600080fd5b9060005260206000209060089182820401919006600402915054906101000a900463ffffffff1681565b6108db6040518060e0016040528060001515815260200160001515815260200160001515815260200160006001600160a01b031681526020016060815260200160608152602001606081525090565b600082815260066020908152604091829020825160e081018452815460ff808216151583526101008204811615158386015262010000820416151582860152630100000090046001600160a01b0316606082015260018201805485518186028101860190965280865291949293608086019392908301828280156109aa57602002820191906000526020600020906000905b82829054906101000a900463ffffffff1663ffffffff168152602001906004019060208260030104928301926001038202915080841161096d5790505b5050505050815260200160028201805480602002602001604051908101604052809291908181526020018280548015610a2e57602002820191906000526020600020906000905b82829054906101000a900463ffffffff1663ffffffff16815260200190600401906020826003010492830192600103820291508084116109f15790505b5050505050815260200160038201805480602002602001604051908101604052809291908181526020018280548015610a8657602002820191906000526020600020905b815481526020019060010190808311610a72575b5050505050815250509050919050565b60015460405163bd85b03960e01b8152600481018390526000916001600160a01b03169063bd85b03990602401602060405180830381865afa158015610ae0573d6000803e3d6000fd5b505050506040513d601f19601f8201168201806040525081019061084c919061457e565b6000600e60085481548110610b1b57610b1b614597565b9060005260206000200154905090565b610b36600033611d5a565b610b5b5760405162461bcd60e51b8152600401610b52906145ad565b60405180910390fd5b600d54600003610b7e5760405163775ade0160e01b815260040160405180910390fd5b8051600d5414610ba157604051631985132360e31b815260040160405180910390fd5b8051610bb490600b906020840190613e98565b508051610bc890600c906020840190613e98565b507f8baf124fb435347a873afb6512246f2fae8e3fd69d4689513bef69293c84c29b81604051610bf89190614244565b60405180910390a150565b60606009805480602002602001604051908101604052809291908181526020018280548015610c7d57602002820191906000526020600020906000905b82829054906101000a900463ffffffff1663ffffffff1681526020019060040190602082600301049283019260010382029150808411610c405790505b5050505050905090565b600a818154811061086257600080fd5b600082815260208190526040902060010154610cb281612589565b610cbc8383612596565b50505050565b6001600160a01b0381163314610ceb5760405163334bd91960e11b815260040160405180910390fd5b610cf58282612628565b505050565b610d247f5fd84582b30bace1cbb5cc91a75b8ee48a0e84da1e64c2d880c8c865c813444f33611d5a565b610d705760405162461bcd60e51b815260206004820152601960248201527f5265737472696374656420746f2066756c66696c6c6572732e000000000000006044820152606401610b52565b6000828152600660205260409020805460ff16610da357604051639a1cfbfd60e01b815260048101849052602401610b52565b805461ff0019166101001781558151610dc59060038301906020850190613f43565b50827ffe2e2d779dba245964d4e3ef9b994be63856fd568bf7d3ca9e224755cb1bd54d83604051610df6919061433b565b60405180910390a2505050565b6060600e805480602002602001604051908101604052809291908181526020018280548015610c7d57602002820191906000526020600020905b815481526020019060010190808311610e3d575050505050905090565b6060600b805480602002602001604051908101604052809291908181526020018280548015610c7d576000918252602091829020805463ffffffff168452908202830192909160049101808411610c405790505050505050905090565b600c818154811061086257600080fd5b610ed2600033611d5a565b610eee5760405162461bcd60e51b8152600401610b52906145ad565b600754640100000000900463ffffffff1660008181526005602052604090208251845114610f2f57604051631985132360e31b815260040160405180910390fd5b610f3883612693565b8051610f4e916003840191602090910190613e98565b50805460ff1916600190811782558451610f6f918301906020870190613e98565b508251610f859060028301906020860190613e98565b50600a8054600181018255600091909152600881047fc65a7bb8d6351c1cf70c95a316cc6a92839c986682d98bc35f958f4883f9d2a801805463ffffffff8086166004600795861681026101000a9182029183021990931617909255825464010000000090049091169190610ff9836145f1565b91906101000a81548163ffffffff021916908363ffffffff160217905550507f83b611e3a9f3ebea1fa1254d2c7535bd0733ed9b76a5a2b0da450d5ba399ecbd82604051611053919063ffffffff91909116815260200190565b60405180910390a150505050565b600e818154811061107157600080fd5b600091825260209091200154905081565b61108d600033611d5a565b6110a95760405162461bcd60e51b8152600401610b52906145ad565b80516110bc90600d906020840190613f43565b507f7deb1779af15e10714f572c4ec4ac6290b5e3132af43085b2d7cb86f75024bbf81604051610bf8919061433b565b600033815b845181101561129357600084828151811061110e5761110e614597565b602002602001015163ffffffff16116111605760405162461bcd60e51b8152602060048201526014602482015273496e76616c6964206472617720616d6f756e747360601b6044820152606401610b52565b84818151811061117257611172614597565b6020908102919091018101516001600160a01b038416600090815260038352604080822063ffffffff808516845294529020548651919550909116908590839081106111c0576111c0614597565b602002602001015163ffffffff168163ffffffff16101561120b57604051632ad841e160e21b81526001600160a01b038416600482015263ffffffff85166024820152604401610b52565b84828151811061121d5761121d614597565b6020908102919091018101516001600160a01b038516600090815260038352604080822063ffffffff808a1684529452812080549293909261126191859116614614565b92506101000a81548163ffffffff021916908363ffffffff16021790555050808061128b90614638565b9150506110f1565b5060025460405163203256c560e21b81526001600160a01b03838116600483015260009216906380c95b14906024016020604051808303816000875af11580156112e1573d6000803e3d6000fd5b505050506040513d601f19601f82011682018060405250810190611305919061457e565b60008181526006602090815260409091208054600162ffff01600160b81b031990911663010000006001600160a01b038816021781178255885193945090926113549291840191890190613e98565b50845161136a9060028301906020880190613e98565b50600e80546001810182556000919091527fbb7b4a454dc3493923482f07822329ed19e8244eff582cc204f8554c3620c3fd01829055604080518381526001600160a01b03851660208201527f48b98ad7a8a8dbe21cc82bf98710ad4d2cdd949ccac393692e4d9a1722c162c7910160405180910390a1505050505050565b6113f4600033611d5a565b6114105760405162461bcd60e51b8152600401610b52906145ad565b600280546001600160a01b0319166001600160a01b0383161790556114557f5fd84582b30bace1cbb5cc91a75b8ee48a0e84da1e64c2d880c8c865c813444f82612596565b5050565b60005b8363ffffffff168163ffffffff161015610cbc5761147a83836110ec565b80611484816145f1565b91505061145c565b6114b67fd8aa0f3194971a2a116679f7c2090f6939c8d4e01a2a8d7e41d55e5351469e6333611d5a565b6114fd5760405162461bcd60e51b81526020600482015260186024820152772932b9ba3934b1ba32b2103a379032bc32b1baba37b9399760411b6044820152606401610b52565b6000611507612159565b905060005b818110156114555761151c61153f565b508061152781614638565b91505061150c565b6009818154811061086257600080fd5b606061156b7fd8aa0f3194971a2a116679f7c2090f6939c8d4e01a2a8d7e41d55e5351469e6333611d5a565b6115b25760405162461bcd60e51b81526020600482015260186024820152772932b9ba3934b1ba32b2103a379032bc32b1baba37b9399760411b6044820152606401610b52565b6115ba612159565b6000036116095760405162461bcd60e51b815260206004820152601760248201527f4e6f2070656e64696e672072657175657374206e6f772e0000000000000000006044820152606401610b52565b6000600e6008548154811061162057611620614597565b60009182526020808320909101548083526006909152604090912080549192509060ff16801561165657508054610100900460ff165b6116a25760405162461bcd60e51b815260206004820152601e60248201527f5265717565737420776173206e6f742066756c66696c6c6564207965742e00006044820152606401610b52565b80546001820180546040805160208084028201810190925282815263010000009094046001600160a01b0316936000939092909183018282801561173157602002820191906000526020600020906000905b82829054906101000a900463ffffffff1663ffffffff16815260200190600401906020826003010492830192600103820291508084116116f45790505b505050505090506000836002018054806020026020016040519081016040528092919081815260200182805480156117b457602002820191906000526020600020906000905b82829054906101000a900463ffffffff1663ffffffff16815260200190600401906020826003010492830192600103820291508084116117775790505b505050505090506000846003016000815481106117d3576117d3614597565b906000526020600020015490506000805b835181101561182c578381815181106117ff576117ff614597565b602002602001015163ffffffff16826118189190614651565b91508061182481614638565b9150506117e4565b506000816001600160401b03811115611847576118476140f1565b604051908082528060200260200182016040528015611870578160200160208202803683370190505b509050600080808086815b8a51811015611a705760005b8a828151811061189957611899614597565b602002602001015163ffffffff16811015611a5d578b51929550602086901c926118dd908d90849081106118cf576118cf614597565b602002602001015187612750565b9650919450602085901c916118f287876129c8565b9350600d848154811061190757611907614597565b9060005260206000200154888663ffffffff168151811061192a5761192a614597565b6020026020010181815250508260000361194d576119478a612d40565b99508992505b63ffffffff8016600b858154811061196757611967614597565b6000918252602090912060088204015460079091166004026101000a900463ffffffff161015611a3d57600c84815481106119a4576119a4614597565b906000526020600020906008918282040191900660040281819054906101000a900463ffffffff16809291906119d990614664565b91906101000a81548163ffffffff021916908363ffffffff16021790555050600c8481548110611a0b57611a0b614597565b60009182526020822060088204015460079091166004026101000a900463ffffffff169003611a3d57611a3d84612d73565b84611a47816145f1565b9550508080611a5590614638565b915050611887565b5080611a6881614638565b91505061187b565b5086600103611b265760015486516001600160a01b039091169063731133e9908d908990600090611aa357611aa3614597565b60209081029190910101516040516001600160e01b031960e085901b1681526001600160a01b039092166004830152602482015260016044820152608060648201526000608482015260a401600060405180830381600087803b158015611b0957600080fd5b505af1158015611b1d573d6000803e3d6000fd5b50505050611bc2565b6000611b3187612fa4565b9050606080611b3f83612fd0565b8092508193505050600160009054906101000a90046001600160a01b03166001600160a01b0316631f7fdffa8f84846040518463ffffffff1660e01b8152600401611b8c93929190614684565b600060405180830381600087803b158015611ba657600080fd5b505af1158015611bba573d6000803e3d6000fd5b505050505050505b60088054906000611bd283614638565b90915550508b5462ff0000191662010000178c556040516001600160a01b038c16908e907f1d961eb7779cdf87f83b3c5ca1e5a7b0b7832f5fc1f9b813fea6787daf0e884c90600090a350939b50505050505050505050505090565b60008060008060005b600d54811015611cfa5785600d8281548110611c5557611c55614597565b906000526020600020015403611ce857600181600b8381548110611c7b57611c7b614597565b90600052602060002090600891828204019190066004029054906101000a900463ffffffff16600c8481548110611cb457611cb4614597565b90600052602060002090600891828204019190066004029054906101000a900463ffffffff16945094509450945050611d0a565b80611cf281614638565b915050611c37565b5060008060008093509350935093505b9193509193565b611d1c600033611d5a565b611d385760405162461bcd60e51b8152600401610b52906145ad565b600180546001600160a01b0319166001600160a01b0392909216919091179055565b6000918252602082815260408084206001600160a01b0393909316845291905290205460ff1690565b63ffffffff811660009081526005602090815260408083208151608081018352815460ff161515815260018201805484518187028101870190955280855260609687968796919593858201939091830182828015611e2c57602002820191906000526020600020906000905b82829054906101000a900463ffffffff1663ffffffff1681526020019060040190602082600301049283019260010382029150808411611def5790505b5050505050815260200160028201805480602002602001604051908101604052809291908181526020018280548015611eb057602002820191906000526020600020906000905b82829054906101000a900463ffffffff1663ffffffff1681526020019060040190602082600301049283019260010382029150808411611e735790505b5050505050815260200160038201805480602002602001604051908101604052809291908181526020018280548015611f3457602002820191906000526020600020906000905b82829054906101000a900463ffffffff1663ffffffff1681526020019060040190602082600301049283019260010382029150808411611ef75790505b50505091909252505050602081015160408201516060909201519097919650945092505050565b6060600a805480602002602001604051908101604052809291908181526020018280548015610c7d576000918252602091829020805463ffffffff168452908202830192909160049101808411610c405790505050505050905090565b611fc3600033611d5a565b611fdf5760405162461bcd60e51b8152600401610b52906145ad565b60075463ffffffff166000818152600460205260409020600d5483511461201957604051631985132360e31b815260040160405180910390fd5b612022836131e2565b80516002830190815560208083015180516120439260038701920190613f43565b509050506120518351613466565b815460ff919091166101000261ff0019909116178155825161207c9060018301906020860190613e98565b508054600160ff199091168117825560098054918201815560009081527f6e1540171b6c0c960b71a7020d9f60077f6af931a8bbf590da0223dacf75c7af6008830401805460079384166004026101000a63ffffffff81810219909216878316919091021790915582541691906120f2836145f1565b91906101000a81548163ffffffff021916908363ffffffff160217905550507fccfa93fc6dee2f7a59e08bd1a7bce043edec08ba7a9daa51aa4be9c95294acd68260405161214c919063ffffffff91909116815260200190565b60405180910390a1505050565b600854600e5460009161216b916146d6565b905090565b60008281526020819052604090206001015461218b81612589565b610cbc8383612628565b6060600d805480602002602001604051908101604052809291908181526020018280548015610c7d5760200282019190600052602060002090815481526020019060010190808311610e3d575050505050905090565b600460209081526000918252604091829020805483518085018552600283018054825260038401805487518188028101880190985280885260ff808616986101009096041696939492938581019392919083018282801561226b57602002820191906000526020600020905b815481526020019060010190808311612257575b505050505081525050905083565b6122a37f43f25613eb2f15fb17222a5d424ca2655743e71265d98e4b93c05e5fb589ecde33611d5a565b6122e85760405162461bcd60e51b81526020600482015260166024820152752932b9ba3934b1ba32b2103a379039b2b63632b9399760511b6044820152606401610b52565b805182511461230a57604051631985132360e31b815260040160405180910390fd5b60005b8251811015610cbc5781818151811061232857612328614597565b602002602001015160036000866001600160a01b03166001600160a01b03168152602001908152602001600020600085848151811061236957612369614597565b602002602001015163ffffffff1663ffffffff16815260200190815260200160002060006101000a81548163ffffffff021916908363ffffffff16021790555080806123b490614638565b91505061230d565b6060600c805480602002602001604051908101604052809291908181526020018280548015610c7d576000918252602091829020805463ffffffff168452908202830192909160049101808411610c405790505050505050905090565b6060612438604051806040016040528060008152602001606081525090565b63ffffffff831660009081526004602090815260408083208151608081018352815460ff8082161515835261010090910416818501526001820180548451818702810187018652818152929593948601938301828280156124e457602002820191906000526020600020906000905b82829054906101000a900463ffffffff1663ffffffff16815260200190600401906020826003010492830192600103820291508084116124a75790505b5050505050815260200160028201604051806040016040529081600082015481526020016001820180548060200260200160405190810160405280929190818152602001828054801561255657602002820191906000526020600020905b815481526020019060010190808311612542575b505050505081525050815250509050806040015181606001519250925050915091565b600d818154811061107157600080fd5b6125938133613492565b50565b60006125a28383611d5a565b612620576000838152602081815260408083206001600160a01b03861684529091529020805460ff191660011790556125d83390565b6001600160a01b0316826001600160a01b0316847f2f8788117e7eff1d82e926ec794901d17c78024a50270940304540a733656f0d60405160405180910390a450600161084c565b50600061084c565b60006126348383611d5a565b15612620576000838152602081815260408083206001600160a01b0386168085529252808320805460ff1916905551339286917ff6391f5c32d9c69d2a47ea670b442974b53935d1edc7fd64eb21e047a839171b9190a450600161084c565b6060600082516001600160401b038111156126b0576126b06140f1565b6040519080825280602002602001820160405280156126d9578160200160208202803683370190505b50915060005b8351811015612749578381815181106126fa576126fa614597565b60200260200101518261270d91906146e9565b91508183828151811061272257612722614597565b63ffffffff909216602092830291909101909101528061274181614638565b9150506126df565b5050919050565b63ffffffff821660009081526005602090815260408083208151608081018352815460ff16151581526001820180548451818702810187019095528085528695929485840193909291908301828280156127f557602002820191906000526020600020906000905b82829054906101000a900463ffffffff1663ffffffff16815260200190600401906020826003010492830192600103820291508084116127b85790505b505050505081526020016002820180548060200260200160405190810160405280929190818152602001828054801561287957602002820191906000526020600020906000905b82829054906101000a900463ffffffff1663ffffffff168152602001906004019060208260030104928301926001038202915080841161283c5790505b50505050508152602001600382018054806020026020016040519081016040528092919081815260200182805480156128fd57602002820191906000526020600020906000905b82829054906101000a900463ffffffff1663ffffffff16815260200190600401906020826003010492830192600103820291508084116128c05790505b505050919092525050506060810151602082015151919250906000826129246001846146d6565b8151811061293457612934614597565b602002602001015186612947919061471c565b905060005b828110156129bd578460200151818151811061296a5761296a614597565b6020026020010151955083818151811061298657612986614597565b602002602001015163ffffffff168263ffffffff1610156129ab57505050505061084c565b806129b581614638565b91505061294c565b505050505092915050565b63ffffffff821660009081526004602090815260408083208151608081018352815460ff80821615158352610100909104168185015260018201805484518187028101870186528181528796939586019390929190830182828015612a7857602002820191906000526020600020906000905b82829054906101000a900463ffffffff1663ffffffff1681526020019060040190602082600301049283019260010382029150808411612a3b5790505b50505050508152602001600282016040518060400160405290816000820154815260200160018201805480602002602001604051908101604052809291908181526020018280548015612aea57602002820191906000526020600020905b815481526020019060010190808311612ad6575b5050509190925250505090525060608101516040808301516020840151915163bdd1b76760e01b8152939450919260009073__$ce68a536f26d89f94e3eaa4005dd046f20$__9063bdd1b76790612b47908790859060040161478b565b602060405180830381865af4158015612b64573d6000803e3d6000fd5b505050506040513d601f19601f82011682018060405250810190612b8891906147ad565b612b92908861471c565b84519091506000908180805b8660ff168160ff161015612d305760015b60088160ff1611612d1d57612bc56001896147ca565b60ff168260ff1603612c4a578460ff8216612be18660086147e3565b612beb9190614651565b612bf591906146d6565b9250888381518110612c0957612c09614597565b602002602001015195508563ffffffff168763ffffffff1610612c3757612c308688614614565b9650612d0b565b829b50505050505050505050505061084c565b60ff8116612c598560086147e3565b612c639190614651565b60405163bdd1b76760e01b815290935073__$ce68a536f26d89f94e3eaa4005dd046f20$__9063bdd1b76790612c9f908d90879060040161478b565b602060405180830381865af4158015612cbc573d6000803e3d6000fd5b505050506040513d601f19601f82011682018060405250810190612ce091906147ad565b95508563ffffffff168763ffffffff161015612cfe57829350612d1d565b612d088688614614565b96505b80612d15816147fa565b915050612baf565b5080612d28816147fa565b915050612b9e565b5050505050505050505092915050565b600081604051602001612d5591815260200190565b60408051601f19818403018152919052805160209091012092915050565b60006009805480602002602001604051908101604052809291908181526020018280548015612ded57602002820191906000526020600020906000905b82829054906101000a900463ffffffff1663ffffffff1681526020019060040190602082600301049283019260010382029150808411612db05790505b505050505090506000805b8251811015610cbc57828181518110612e1357612e13614597565b60209081029190910181015163ffffffff811660009081526004835260408082208151608081018352815460ff8082161515835261010090910416818701526001820180548451818902810189018652818152969950949691959294938601939091830182828015612ed057602002820191906000526020600020906000905b82829054906101000a900463ffffffff1663ffffffff1681526020019060040190602082600301049283019260010382029150808411612e935790505b50505050508152602001600282016040518060400160405290816000820154815260200160018201805480602002602001604051908101604052809291908181526020018280548015612f4257602002820191906000526020600020905b815481526020019060010190808311612f2e575b50505050508152505081525050905080604001518581518110612f6757612f67614597565b602002602001015163ffffffff16600014612f9157612f88838660006134cb565b612f918361377f565b5080612f9c81614638565b915050612df8565b60606001825111612fb3575090565b612fcc82600060018551612fc791906146d6565b613941565b5090565b6060808251600003612fe457509091829150565b6001805b84518110156130545784612ffd6001836146d6565b8151811061300d5761300d614597565b602002602001015185828151811061302757613027614597565b602002602001015114613042578161303e81614638565b9250505b8061304c81614638565b915050612fe8565b506000816001600160401b0381111561306f5761306f6140f1565b604051908082528060200260200182016040528015613098578160200160208202803683370190505b5090506000826001600160401b038111156130b5576130b56140f1565b6040519080825280602002602001820160405280156130de578160200160208202803683370190505b5090506000866000815181106130f6576130f6614597565b6020026020010151905060008184828151811061311557613115614597565b60200260200101818152505060005b88518110156131d3578289828151811061314057613140614597565b6020026020010151146131975788818151811061315f5761315f614597565b60200260200101519250818061317490614638565b9250508285838151811061318a5761318a614597565b6020026020010181815250505b8382815181106131a9576131a9614597565b6020026020010180518091906131be90614638565b905250806131cb81614638565b915050613124565b50929791965090945050505050565b6040805180820190915260008152606060208201526000806132048451613466565b60ff16905060008060008060008851905060006007600188600861322891906148fd565b61323291906146d6565b61323c919061490f565b90506000816001600160401b03811115613258576132586140f1565b604051908082528060200260200182016040528015613281578160200160208202803683370190505b50905060005b8863ffffffff168163ffffffff1610156133d6576132a5818a614614565b6132b09060086148fd565b965060076132bf6001896146d6565b6132c9919061490f565b955060005b878110156133c3576132e08782614651565b955063ffffffff82161561331a5782868151811061330057613300614597565b60200260200101518b61331391906146e9565b9a50613349565b8085146133c3578c818151811061333357613333614597565b60200260200101518b61334691906146e9565b9a505b613354600887614923565b158061336957506133666001866146d6565b81145b156133b157600361337b6001886146d6565b901c98508a838a8151811061339257613392614597565b602002602001019063ffffffff16908163ffffffff168152505060009a505b806133bb81614638565b9150506132ce565b50806133ce816145f1565b915050613287565b5060405163905387ed60e01b815260009073__$ce68a536f26d89f94e3eaa4005dd046f20$__9063905387ed90613411908590600401614937565b600060405180830381865af415801561342e573d6000803e3d6000fd5b505050506040513d6000823e601f3d908101601f191682016040526134569190810190614981565b9c9b505050505050505050505050565b60015b81613475826008614a4f565b101561348d5780613485816147fa565b915050613469565b919050565b61349c8282611d5a565b6114555760405163e2517d3f60e01b81526001600160a01b038216600482015260248101839052604401610b52565b63ffffffff83166000908152600460209081526040808320815180830183526002820180548252600383018054855181880281018801909652808652939695929491938584019383018282801561354157602002820191906000526020600020905b81548152602001906001019080831161352d575b505050505081525050905060008260000160019054906101000a900460ff169050600083600101868154811061357957613579614597565b90600052602060002090600891828204019190066004029054906101000a900463ffffffff1690506000808460000151886135b49190614651565b905060005b8460ff168160ff1610156136fc5760036135d46001846146d6565b60405163bdd1b76760e01b8152911c925073__$ce68a536f26d89f94e3eaa4005dd046f20$__9063bdd1b76790613611908990869060040161478b565b602060405180830381865af415801561362e573d6000803e3d6000fd5b505050506040513d601f19601f8201168201806040525081019061365291906147ad565b925073__$ce68a536f26d89f94e3eaa4005dd046f20$__63373cfe0387848761367b8d896146e9565b6136859190614614565b6040518463ffffffff1660e01b81526004016136a393929190614a5e565b600060405180830381865af41580156136c0573d6000803e3d6000fd5b505050506040513d6000823e601f3d908101601f191682016040526136e89190810190614981565b9550806136f4816147fa565b9150506135b9565b508686600101898154811061371357613713614597565b90600052602060002090600891828204019190066004026101000a81548163ffffffff021916908363ffffffff1602179055508486600201600082015181600001556020820151816001019080519060200190613771929190613f43565b505050505050505050505050565b63ffffffff811660009081526004602090815260408083208151608081018352815460ff80821615158352610100909104168185015260018201805484518187028101870186528181529295939486019383018282801561382b57602002820191906000526020600020906000905b82829054906101000a900463ffffffff1663ffffffff16815260200190600401906020826003010492830192600103820291508084116137ee5790505b5050505050815260200160028201604051806040016040529081600082015481526020016001820180548060200260200160405190810160405280929190818152602001828054801561389d57602002820191906000526020600020905b815481526020019060010190808311613889575b50505091909252505050905250606081015160405163bdd1b76760e01b815291925073__$ce68a536f26d89f94e3eaa4005dd046f20$__9163bdd1b767916138ea9160009060040161478b565b602060405180830381865af4158015613907573d6000803e3d6000fd5b505050506040513d601f19601f8201168201806040525081019061392b91906147ad565b63ffffffff166000036114555761145582613985565b80821215610cf5576000613956848484613be9565b905082811315613970576139708484612fc7600185614a8d565b610cbc8461397f836001614aad565b84613941565b63ffffffff81166000908152600460205260408120906060905b600a54811015613bd157600060056000600a84815481106139c2576139c2614597565b90600052602060002090600891828204019190066004029054906101000a900463ffffffff1663ffffffff1663ffffffff168152602001908152602001600020905080600101805480602002602001604051908101604052809291908181526020018280548015613a7e57602002820191906000526020600020906000905b82829054906101000a900463ffffffff1663ffffffff1681526020019060040190602082600301049283019260010382029150808411613a415790505b5050505050925060005b8351811015613bbc578563ffffffff16848281518110613aaa57613aaa614597565b602002602001015163ffffffff1603613baa576000826002018281548110613ad457613ad4614597565b90600052602060002090600891828204019190066004026101000a81548163ffffffff021916908363ffffffff160217905550613b8e82600201805480602002602001604051908101604052809291908181526020018280548015613b8457602002820191906000526020600020906000905b82829054906101000a900463ffffffff1663ffffffff1681526020019060040190602082600301049283019260010382029150808411613b475790505b5050505050612693565b8051613ba4916003850191602090910190613e98565b50613bbc565b80613bb481614638565b915050613a88565b50508080613bc990614638565b91505061399f565b50613bdd600984613d6d565b50805460ff1916905550565b600080848381518110613bfe57613bfe614597565b602002602001015190506000600185613c179190614a8d565b9050845b84811215613cd15782878281518110613c3657613c36614597565b602002602001015111613cbf5781613c4d81614ad5565b925050868181518110613c6257613c62614597565b6020026020010151878381518110613c7c57613c7c614597565b6020026020010151888481518110613c9657613c96614597565b60200260200101898481518110613caf57613caf614597565b6020908102919091010191909152525b80613cc981614ad5565b915050613c1b565b50858481518110613ce457613ce4614597565b602002602001015186826001613cfa9190614aad565b81518110613d0a57613d0a614597565b602002602001015187836001613d209190614aad565b81518110613d3057613d30614597565b60200260200101888781518110613d4957613d49614597565b602090810291909101019190915252613d63816001614aad565b9695505050505050565b815460005b81811015610cbc578263ffffffff16848281548110613d9357613d93614597565b6000918252602090912060088204015460079091166004026101000a900463ffffffff1603613e865783613dc86001846146d6565b81548110613dd857613dd8614597565b90600052602060002090600891828204019190066004029054906101000a900463ffffffff16848281548110613e1057613e10614597565b90600052602060002090600891828204019190066004026101000a81548163ffffffff021916908363ffffffff16021790555083805480613e5357613e53614aed565b600082815260209020600860001990920191820401805463ffffffff600460078516026101000a02191690559055610cbc565b80613e9081614638565b915050613d72565b82805482825590600052602060002090600701600890048101928215613f375791602002820160005b83821115613f0557835183826101000a81548163ffffffff021916908363ffffffff1602179055509260200192600401602081600301049283019260010302613ec1565b8015613f355782816101000a81549063ffffffff0219169055600401602081600301049283019260010302613f05565b505b50612fcc929150613f7e565b828054828255906000526020600020908101928215613f37579160200282015b82811115613f37578251825591602001919060010190613f63565b5b80821115612fcc5760008155600101613f7f565b600060208284031215613fa557600080fd5b81356001600160e01b031981168114613fbd57600080fd5b9392505050565b600060208284031215613fd657600080fd5b5035919050565b600081518084526020808501945080840160005b8381101561401357815163ffffffff1687529582019590820190600101613ff1565b509495945050505050565b600081518084526020808501945080840160005b8381101561401357815187529582019590820190600101614032565b602081528151151560208201526020820151151560408201526000604083015161407c606084018215159052565b5060608301516001600160a01b038116608084015250608083015160e060a08401526140ac610100840182613fdd565b905060a0840151601f19808584030160c08601526140ca8383613fdd565b925060c08601519150808584030160e0860152506140e8828261401e565b95945050505050565b634e487b7160e01b600052604160045260246000fd5b604080519081016001600160401b0381118282101715614129576141296140f1565b60405290565b604051601f8201601f191681016001600160401b0381118282101715614157576141576140f1565b604052919050565b60006001600160401b03821115614178576141786140f1565b5060051b60200190565b63ffffffff8116811461259357600080fd5b600082601f8301126141a557600080fd5b813560206141ba6141b58361415f565b61412f565b82815260059290921b840181019181810190868411156141d957600080fd5b8286015b848110156141fd5780356141f081614182565b83529183019183016141dd565b509695505050505050565b60006020828403121561421a57600080fd5b81356001600160401b0381111561423057600080fd5b61423c84828501614194565b949350505050565b602081526000613fbd6020830184613fdd565b80356001600160a01b038116811461348d57600080fd5b6000806040838503121561428157600080fd5b8235915061429160208401614257565b90509250929050565b600082601f8301126142ab57600080fd5b813560206142bb6141b58361415f565b82815260059290921b840181019181810190868411156142da57600080fd5b8286015b848110156141fd57803583529183019183016142de565b6000806040838503121561430857600080fd5b8235915060208301356001600160401b0381111561432557600080fd5b6143318582860161429a565b9150509250929050565b602081526000613fbd602083018461401e565b6000806040838503121561436157600080fd5b82356001600160401b038082111561437857600080fd5b61438486838701614194565b9350602085013591508082111561439a57600080fd5b5061433185828601614194565b600080604083850312156143ba57600080fd5b6143c383614257565b915060208301356143d381614182565b809150509250929050565b6000602082840312156143f057600080fd5b81356001600160401b0381111561440657600080fd5b61423c8482850161429a565b60006020828403121561442457600080fd5b613fbd82614257565b60006020828403121561443f57600080fd5b8135613fbd81614182565b60008060006060848603121561445f57600080fd5b833561446a81614182565b925060208401356001600160401b038082111561448657600080fd5b61449287838801614194565b935060408601359150808211156144a857600080fd5b506144b586828701614194565b9150509250925092565b6060815260006144d26060830186613fdd565b82810360208401526144e48186613fdd565b90508281036040840152613d638185613fdd565b80518252600060208201516040602085015261423c604085018261401e565b831515815260ff831660208201526060604082015260006140e860608301846144f8565b60008060006060848603121561455057600080fd5b61446a84614257565b60408152600061456c6040830185613fdd565b82810360208401526140e881856144f8565b60006020828403121561459057600080fd5b5051919050565b634e487b7160e01b600052603260045260246000fd5b6020808252601490820152732932b9ba3934b1ba32b2103a379030b236b4b71760611b604082015260600190565b634e487b7160e01b600052601160045260246000fd5b600063ffffffff80831681810361460a5761460a6145db565b6001019392505050565b63ffffffff828116828216039080821115614631576146316145db565b5092915050565b60006001820161464a5761464a6145db565b5060010190565b8082018082111561084c5761084c6145db565b600063ffffffff82168061467a5761467a6145db565b6000190192915050565b6001600160a01b03841681526080602082018190526000906146a89083018561401e565b82810360408401526146ba818561401e565b8381036060909401939093525050600081526020019392505050565b8181038181111561084c5761084c6145db565b63ffffffff818116838216019080821115614631576146316145db565b634e487b7160e01b600052601260045260246000fd5b600063ffffffff8084168061473357614733614706565b92169190910692915050565b600060408301825184526020808401516040828701528281518085526060880191508383019450600092505b808310156141fd578451825293830193600192909201919083019061476b565b60408152600061479e604083018561473f565b90508260208301529392505050565b6000602082840312156147bf57600080fd5b8151613fbd81614182565b60ff828116828216039081111561084c5761084c6145db565b808202811582820484141761084c5761084c6145db565b600060ff821660ff8103614810576148106145db565b60010192915050565b600181815b8085111561485457816000190482111561483a5761483a6145db565b8085161561484757918102915b93841c939080029061481e565b509250929050565b60008261486b5750600161084c565b816148785750600061084c565b816001811461488e5760028114614898576148b4565b600191505061084c565b60ff8411156148a9576148a96145db565b50506001821b61084c565b5060208310610133831016604e8410600b84101617156148d7575081810a61084c565b6148e18383614819565b80600019048211156148f5576148f56145db565b029392505050565b6000613fbd63ffffffff84168361485c565b60008261491e5761491e614706565b500490565b60008261493257614932614706565b500690565b6020808252825182820181905260009190848201906040850190845b8181101561497557835163ffffffff1683529284019291840191600101614953565b50909695505050505050565b6000602080838503121561499457600080fd5b82516001600160401b03808211156149ab57600080fd5b90840190604082870312156149bf57600080fd5b6149c7614107565b8251815283830151828111156149dc57600080fd5b80840193505086601f8401126149f157600080fd5b82519150614a016141b58361415f565b82815260059290921b83018401918481019088841115614a2057600080fd5b938501935b83851015614a3e57845182529385019390850190614a25565b948201949094529695505050505050565b6000613fbd60ff84168361485c565b606081526000614a71606083018661473f565b905083602083015263ffffffff83166040830152949350505050565b8181036000831280158383131683831282161715614631576146316145db565b8082018281126000831280158216821582161715614acd57614acd6145db565b505092915050565b60006001600160ff1b01820161464a5761464a6145db565b634e487b7160e01b600052603160045260246000fdfea2646970667358221220ca9b6f63f0f3eacb93b92ffc9bcb128fbbc8aa352b6a0058f71e27090fff72b864736f6c63430008140033",
			"opcodes": "PUSH1 0x80 PUSH1 0x40 MSTORE CALLVALUE DUP1 ISZERO PUSH3 0x11 JUMPI PUSH1 0x0 DUP1 REVERT JUMPDEST POP PUSH1 0x40 MLOAD PUSH3 0x4C73 CODESIZE SUB DUP1 PUSH3 0x4C73 DUP4 CODECOPY DUP2 ADD PUSH1 0x40 DUP2 SWAP1 MSTORE PUSH3 0x34 SWAP2 PUSH3 0xF8 JUMP JUMPDEST PUSH3 0x41 PUSH1 0x0 DUP3 PUSH3 0x49 JUMP JUMPDEST POP POP PUSH3 0x12A JUMP JUMPDEST PUSH1 0x0 DUP3 DUP2 MSTORE PUSH1 0x20 DUP2 DUP2 MSTORE PUSH1 0x40 DUP1 DUP4 KECCAK256 PUSH1 0x1 PUSH1 0x1 PUSH1 0xA0 SHL SUB DUP6 AND DUP5 MSTORE SWAP1 SWAP2 MSTORE DUP2 KECCAK256 SLOAD PUSH1 0xFF AND PUSH3 0xEE JUMPI PUSH1 0x0 DUP4 DUP2 MSTORE PUSH1 0x20 DUP2 DUP2 MSTORE PUSH1 0x40 DUP1 DUP4 KECCAK256 PUSH1 0x1 PUSH1 0x1 PUSH1 0xA0 SHL SUB DUP7 AND DUP5 MSTORE SWAP1 SWAP2 MSTORE SWAP1 KECCAK256 DUP1 SLOAD PUSH1 0xFF NOT AND PUSH1 0x1 OR SWAP1 SSTORE PUSH3 0xA5 CALLER SWAP1 JUMP JUMPDEST PUSH1 0x1 PUSH1 0x1 PUSH1 0xA0 SHL SUB AND DUP3 PUSH1 0x1 PUSH1 0x1 PUSH1 0xA0 SHL SUB AND DUP5 PUSH32 0x2F8788117E7EFF1D82E926EC794901D17C78024A50270940304540A733656F0D PUSH1 0x40 MLOAD PUSH1 0x40 MLOAD DUP1 SWAP2 SUB SWAP1 LOG4 POP PUSH1 0x1 PUSH3 0xF2 JUMP JUMPDEST POP PUSH1 0x0 JUMPDEST SWAP3 SWAP2 POP POP JUMP JUMPDEST PUSH1 0x0 PUSH1 0x20 DUP3 DUP5 SUB SLT ISZERO PUSH3 0x10B JUMPI PUSH1 0x0 DUP1 REVERT JUMPDEST DUP2 MLOAD PUSH1 0x1 PUSH1 0x1 PUSH1 0xA0 SHL SUB DUP2 AND DUP2 EQ PUSH3 0x123 JUMPI PUSH1 0x0 DUP1 REVERT JUMPDEST SWAP4 SWAP3 POP POP POP JUMP JUMPDEST PUSH2 0x4B39 DUP1 PUSH3 0x13A PUSH1 0x0 CODECOPY PUSH1 0x0 RETURN INVALID PUSH1 0x80 PUSH1 0x40 MSTORE CALLVALUE DUP1 ISZERO PUSH2 0x10 JUMPI PUSH1 0x0 DUP1 REVERT JUMPDEST POP PUSH1 0x4 CALLDATASIZE LT PUSH2 0x2F1 JUMPI PUSH1 0x0 CALLDATALOAD PUSH1 0xE0 SHR DUP1 PUSH4 0x6473EC2C GT PUSH2 0x19D JUMPI DUP1 PUSH4 0xB670ED52 GT PUSH2 0xE9 JUMPI DUP1 PUSH4 0xD7B6453F GT PUSH2 0xA2 JUMPI DUP1 PUSH4 0xDBE4613D GT PUSH2 0x7C JUMPI DUP1 PUSH4 0xDBE4613D EQ PUSH2 0x7B8 JUMPI DUP1 PUSH4 0xF36B4B58 EQ PUSH2 0x7DF JUMPI DUP1 PUSH4 0xF3EBC985 EQ PUSH2 0x7E7 JUMPI DUP1 PUSH4 0xFAC333AC EQ PUSH2 0x808 JUMPI PUSH1 0x0 DUP1 REVERT JUMPDEST DUP1 PUSH4 0xD7B6453F EQ PUSH2 0x77B JUMPI DUP1 PUSH4 0xD8683B2E EQ PUSH2 0x783 JUMPI DUP1 PUSH4 0xDB2E3B4D EQ PUSH2 0x7A5 JUMPI PUSH1 0x0 DUP1 REVERT JUMPDEST DUP1 PUSH4 0xB670ED52 EQ PUSH2 0x710 JUMPI DUP1 PUSH4 0xB749EA83 EQ PUSH2 0x732 JUMPI DUP1 PUSH4 0xCFA74B9C EQ PUSH2 0x73A JUMPI DUP1 PUSH4 0xD2B0022F EQ PUSH2 0x74D JUMPI DUP1 PUSH4 0xD547741F EQ PUSH2 0x755 JUMPI DUP1 PUSH4 0xD56D229D EQ PUSH2 0x768 JUMPI PUSH1 0x0 DUP1 REVERT JUMPDEST DUP1 PUSH4 0x8487A06A GT PUSH2 0x156 JUMPI DUP1 PUSH4 0x8C7A63AE GT PUSH2 0x130 JUMPI DUP1 PUSH4 0x8C7A63AE EQ PUSH2 0x6A1 JUMPI DUP1 PUSH4 0x90297B0D EQ PUSH2 0x6E2 JUMPI DUP1 PUSH4 0x91D14854 EQ PUSH2 0x6F5 JUMPI DUP1 PUSH4 0xA217FDDF EQ PUSH2 0x708 JUMPI PUSH1 0x0 DUP1 REVERT JUMPDEST DUP1 PUSH4 0x8487A06A EQ PUSH2 0x67E JUMPI DUP1 PUSH4 0x8667B8D9 EQ PUSH2 0x686 JUMPI DUP1 PUSH4 0x8C7520F0 EQ PUSH2 0x699 JUMPI PUSH1 0x0 DUP1 REVERT JUMPDEST DUP1 PUSH4 0x6473EC2C EQ PUSH2 0x609 JUMPI DUP1 PUSH4 0x6A82557F EQ PUSH2 0x619 JUMPI DUP1 PUSH4 0x6CE6A4B4 EQ PUSH2 0x62C JUMPI DUP1 PUSH4 0x75A6DA9B EQ PUSH2 0x63F JUMPI DUP1 PUSH4 0x7C1A0302 EQ PUSH2 0x662 JUMPI DUP1 PUSH4 0x7F2486CE EQ PUSH2 0x66B JUMPI PUSH1 0x0 DUP1 REVERT JUMPDEST DUP1 PUSH4 0x38BA4614 GT PUSH2 0x25C JUMPI DUP1 PUSH4 0x4ED31428 GT PUSH2 0x215 JUMPI DUP1 PUSH4 0x5A1C7C50 GT PUSH2 0x1EF JUMPI DUP1 PUSH4 0x5A1C7C50 EQ PUSH2 0x53C JUMPI DUP1 PUSH4 0x5D7BA30F EQ PUSH2 0x54F JUMPI DUP1 PUSH4 0x5EF73B1F EQ PUSH2 0x567 JUMPI DUP1 PUSH4 0x61D34D42 EQ PUSH2 0x592 JUMPI PUSH1 0x0 DUP1 REVERT JUMPDEST DUP1 PUSH4 0x4ED31428 EQ PUSH2 0x4A5 JUMPI DUP1 PUSH4 0x4FD331C6 EQ PUSH2 0x4D6 JUMPI DUP1 PUSH4 0x50CF21D9 EQ PUSH2 0x4FD JUMPI PUSH1 0x0 DUP1 REVERT JUMPDEST DUP1 PUSH4 0x38BA4614 EQ PUSH2 0x43C JUMPI DUP1 PUSH4 0x39DA9FB8 EQ PUSH2 0x44F JUMPI DUP1 PUSH4 0x3C15ECF4 EQ PUSH2 0x464 JUMPI DUP1 PUSH4 0x3C36EAEC EQ PUSH2 0x46C JUMPI DUP1 PUSH4 0x40730AAA EQ PUSH2 0x47F JUMPI DUP1 PUSH4 0x4749C25C EQ PUSH2 0x492 JUMPI PUSH1 0x0 DUP1 REVERT JUMPDEST DUP1 PUSH4 0x1A75B3ED GT PUSH2 0x2AE JUMPI DUP1 PUSH4 0x1A75B3ED EQ PUSH2 0x3B6 JUMPI DUP1 PUSH4 0x248A9CA3 EQ PUSH2 0x3CB JUMPI DUP1 PUSH4 0x2714795F EQ PUSH2 0x3EE JUMPI DUP1 PUSH4 0x2E413C37 EQ PUSH2 0x403 JUMPI DUP1 PUSH4 0x2F2FF15D EQ PUSH2 0x416 JUMPI DUP1 PUSH4 0x36568ABE EQ PUSH2 0x429 JUMPI PUSH1 0x0 DUP1 REVERT JUMPDEST DUP1 PUSH4 0x1FFC9A7 EQ PUSH2 0x2F6 JUMPI DUP1 PUSH4 0x2F43023 EQ PUSH2 0x31E JUMPI DUP1 PUSH4 0x7BD0265 EQ PUSH2 0x346 JUMPI DUP1 PUSH4 0xB816045 EQ PUSH2 0x37B JUMPI DUP1 PUSH4 0x19B88EDB EQ PUSH2 0x39B JUMPI DUP1 PUSH4 0x19C2B4C3 EQ PUSH2 0x3AE JUMPI JUMPDEST PUSH1 0x0 DUP1 REVERT JUMPDEST PUSH2 0x309 PUSH2 0x304 CALLDATASIZE PUSH1 0x4 PUSH2 0x3F93 JUMP JUMPDEST PUSH2 0x81B JUMP JUMPDEST PUSH1 0x40 MLOAD SWAP1 ISZERO ISZERO DUP2 MSTORE PUSH1 0x20 ADD JUMPDEST PUSH1 0x40 MLOAD DUP1 SWAP2 SUB SWAP1 RETURN JUMPDEST PUSH2 0x331 PUSH2 0x32C CALLDATASIZE PUSH1 0x4 PUSH2 0x3FC4 JUMP JUMPDEST PUSH2 0x852 JUMP JUMPDEST PUSH1 0x40 MLOAD PUSH4 0xFFFFFFFF SWAP1 SWAP2 AND DUP2 MSTORE PUSH1 0x20 ADD PUSH2 0x315 JUMP JUMPDEST PUSH2 0x36D PUSH32 0xD8AA0F3194971A2A116679F7C2090F6939C8D4E01A2A8D7E41D55E5351469E63 DUP2 JUMP JUMPDEST PUSH1 0x40 MLOAD SWAP1 DUP2 MSTORE PUSH1 0x20 ADD PUSH2 0x315 JUMP JUMPDEST PUSH2 0x38E PUSH2 0x389 CALLDATASIZE PUSH1 0x4 PUSH2 0x3FC4 JUMP JUMPDEST PUSH2 0x88C JUMP JUMPDEST PUSH1 0x40 MLOAD PUSH2 0x315 SWAP2 SWAP1 PUSH2 0x404E JUMP JUMPDEST PUSH2 0x36D PUSH2 0x3A9 CALLDATASIZE PUSH1 0x4 PUSH2 0x3FC4 JUMP JUMPDEST PUSH2 0xA96 JUMP JUMPDEST PUSH2 0x36D PUSH2 0xB04 JUMP JUMPDEST PUSH2 0x3C9 PUSH2 0x3C4 CALLDATASIZE PUSH1 0x4 PUSH2 0x4208 JUMP JUMPDEST PUSH2 0xB2B JUMP JUMPDEST STOP JUMPDEST PUSH2 0x36D PUSH2 0x3D9 CALLDATASIZE PUSH1 0x4 PUSH2 0x3FC4 JUMP JUMPDEST PUSH1 0x0 SWAP1 DUP2 MSTORE PUSH1 0x20 DUP2 SWAP1 MSTORE PUSH1 0x40 SWAP1 KECCAK256 PUSH1 0x1 ADD SLOAD SWAP1 JUMP JUMPDEST PUSH2 0x3F6 PUSH2 0xC03 JUMP JUMPDEST PUSH1 0x40 MLOAD PUSH2 0x315 SWAP2 SWAP1 PUSH2 0x4244 JUMP JUMPDEST PUSH2 0x331 PUSH2 0x411 CALLDATASIZE PUSH1 0x4 PUSH2 0x3FC4 JUMP JUMPDEST PUSH2 0xC87 JUMP JUMPDEST PUSH2 0x3C9 PUSH2 0x424 CALLDATASIZE PUSH1 0x4 PUSH2 0x426E JUMP JUMPDEST PUSH2 0xC97 JUMP JUMPDEST PUSH2 0x3C9 PUSH2 0x437 CALLDATASIZE PUSH1 0x4 PUSH2 0x426E JUMP JUMPDEST PUSH2 0xCC2 JUMP JUMPDEST PUSH2 0x3C9 PUSH2 0x44A CALLDATASIZE PUSH1 0x4 PUSH2 0x42F5 JUMP JUMPDEST PUSH2 0xCFA JUMP JUMPDEST PUSH2 0x457 PUSH2 0xE03 JUMP JUMPDEST PUSH1 0x40 MLOAD PUSH2 0x315 SWAP2 SWAP1 PUSH2 0x433B JUMP JUMPDEST PUSH2 0x3F6 PUSH2 0xE5A JUMP JUMPDEST PUSH2 0x331 PUSH2 0x47A CALLDATASIZE PUSH1 0x4 PUSH2 0x3FC4 JUMP JUMPDEST PUSH2 0xEB7 JUMP JUMPDEST PUSH2 0x3C9 PUSH2 0x48D CALLDATASIZE PUSH1 0x4 PUSH2 0x434E JUMP JUMPDEST PUSH2 0xEC7 JUMP JUMPDEST PUSH2 0x36D PUSH2 0x4A0 CALLDATASIZE PUSH1 0x4 PUSH2 0x3FC4 JUMP JUMPDEST PUSH2 0x1061 JUMP JUMPDEST PUSH2 0x331 PUSH2 0x4B3 CALLDATASIZE PUSH1 0x4 PUSH2 0x43A7 JUMP JUMPDEST PUSH1 0x3 PUSH1 0x20 SWAP1 DUP2 MSTORE PUSH1 0x0 SWAP3 DUP4 MSTORE PUSH1 0x40 DUP1 DUP5 KECCAK256 SWAP1 SWAP2 MSTORE SWAP1 DUP3 MSTORE SWAP1 KECCAK256 SLOAD PUSH4 0xFFFFFFFF AND DUP2 JUMP JUMPDEST PUSH2 0x36D PUSH32 0x5FD84582B30BACE1CBB5CC91A75B8EE48A0E84DA1E64C2D880C8C865C813444F DUP2 JUMP JUMPDEST PUSH2 0x331 PUSH2 0x50B CALLDATASIZE PUSH1 0x4 PUSH2 0x43A7 JUMP JUMPDEST PUSH1 0x1 PUSH1 0x1 PUSH1 0xA0 SHL SUB SWAP2 SWAP1 SWAP2 AND PUSH1 0x0 SWAP1 DUP2 MSTORE PUSH1 0x3 PUSH1 0x20 SWAP1 DUP2 MSTORE PUSH1 0x40 DUP1 DUP4 KECCAK256 PUSH4 0xFFFFFFFF SWAP5 DUP6 AND DUP5 MSTORE SWAP1 SWAP2 MSTORE SWAP1 KECCAK256 SLOAD AND SWAP1 JUMP JUMPDEST PUSH2 0x3C9 PUSH2 0x54A CALLDATASIZE PUSH1 0x4 PUSH2 0x43DE JUMP JUMPDEST PUSH2 0x1082 JUMP JUMPDEST PUSH1 0x7 SLOAD PUSH2 0x331 SWAP1 PUSH5 0x100000000 SWAP1 DIV PUSH4 0xFFFFFFFF AND DUP2 JUMP JUMPDEST PUSH1 0x2 SLOAD PUSH2 0x57A SWAP1 PUSH1 0x1 PUSH1 0x1 PUSH1 0xA0 SHL SUB AND DUP2 JUMP JUMPDEST PUSH1 0x40 MLOAD PUSH1 0x1 PUSH1 0x1 PUSH1 0xA0 SHL SUB SWAP1 SWAP2 AND DUP2 MSTORE PUSH1 0x20 ADD PUSH2 0x315 JUMP JUMPDEST PUSH2 0x5D8 PUSH2 0x5A0 CALLDATASIZE PUSH1 0x4 PUSH2 0x3FC4 JUMP JUMPDEST PUSH1 0x6 PUSH1 0x20 MSTORE PUSH1 0x0 SWAP1 DUP2 MSTORE PUSH1 0x40 SWAP1 KECCAK256 SLOAD PUSH1 0xFF DUP1 DUP3 AND SWAP2 PUSH2 0x100 DUP2 DIV DUP3 AND SWAP2 PUSH3 0x10000 DUP3 DIV AND SWAP1 PUSH4 0x1000000 SWAP1 DIV PUSH1 0x1 PUSH1 0x1 PUSH1 0xA0 SHL SUB AND DUP5 JUMP JUMPDEST PUSH1 0x40 DUP1 MLOAD SWAP5 ISZERO ISZERO DUP6 MSTORE SWAP3 ISZERO ISZERO PUSH1 0x20 DUP6 ADD MSTORE SWAP1 ISZERO ISZERO SWAP2 DUP4 ADD SWAP2 SWAP1 SWAP2 MSTORE PUSH1 0x1 PUSH1 0x1 PUSH1 0xA0 SHL SUB AND PUSH1 0x60 DUP3 ADD MSTORE PUSH1 0x80 ADD PUSH2 0x315 JUMP JUMPDEST PUSH1 0x7 SLOAD PUSH2 0x331 SWAP1 PUSH4 0xFFFFFFFF AND DUP2 JUMP JUMPDEST PUSH2 0x3C9 PUSH2 0x627 CALLDATASIZE PUSH1 0x4 PUSH2 0x434E JUMP JUMPDEST PUSH2 0x10EC JUMP JUMPDEST PUSH2 0x3C9 PUSH2 0x63A CALLDATASIZE PUSH1 0x4 PUSH2 0x4412 JUMP JUMPDEST PUSH2 0x13E9 JUMP JUMPDEST PUSH2 0x309 PUSH2 0x64D CALLDATASIZE PUSH1 0x4 PUSH2 0x442D JUMP JUMPDEST PUSH1 0x5 PUSH1 0x20 MSTORE PUSH1 0x0 SWAP1 DUP2 MSTORE PUSH1 0x40 SWAP1 KECCAK256 SLOAD PUSH1 0xFF AND DUP2 JUMP JUMPDEST PUSH2 0x36D PUSH1 0x8 SLOAD DUP2 JUMP JUMPDEST PUSH2 0x3C9 PUSH2 0x679 CALLDATASIZE PUSH1 0x4 PUSH2 0x444A JUMP JUMPDEST PUSH2 0x1459 JUMP JUMPDEST PUSH2 0x3C9 PUSH2 0x148C JUMP JUMPDEST PUSH2 0x331 PUSH2 0x694 CALLDATASIZE PUSH1 0x4 PUSH2 0x3FC4 JUMP JUMPDEST PUSH2 0x152F JUMP JUMPDEST PUSH2 0x457 PUSH2 0x153F JUMP JUMPDEST PUSH2 0x6B4 PUSH2 0x6AF CALLDATASIZE PUSH1 0x4 PUSH2 0x3FC4 JUMP JUMPDEST PUSH2 0x1C2E JUMP JUMPDEST PUSH1 0x40 DUP1 MLOAD SWAP5 ISZERO ISZERO DUP6 MSTORE PUSH1 0x20 DUP6 ADD SWAP4 SWAP1 SWAP4 MSTORE PUSH4 0xFFFFFFFF SWAP2 DUP3 AND SWAP3 DUP5 ADD SWAP3 SWAP1 SWAP3 MSTORE AND PUSH1 0x60 DUP3 ADD MSTORE PUSH1 0x80 ADD PUSH2 0x315 JUMP JUMPDEST PUSH2 0x3C9 PUSH2 0x6F0 CALLDATASIZE PUSH1 0x4 PUSH2 0x4412 JUMP JUMPDEST PUSH2 0x1D11 JUMP JUMPDEST PUSH2 0x309 PUSH2 0x703 CALLDATASIZE PUSH1 0x4 PUSH2 0x426E JUMP JUMPDEST PUSH2 0x1D5A JUMP JUMPDEST PUSH2 0x36D PUSH1 0x0 DUP2 JUMP JUMPDEST PUSH2 0x723 PUSH2 0x71E CALLDATASIZE PUSH1 0x4 PUSH2 0x442D JUMP JUMPDEST PUSH2 0x1D83 JUMP JUMPDEST PUSH1 0x40 MLOAD PUSH2 0x315 SWAP4 SWAP3 SWAP2 SWAP1 PUSH2 0x44BF JUMP JUMPDEST PUSH2 0x3F6 PUSH2 0x1F5B JUMP JUMPDEST PUSH2 0x3C9 PUSH2 0x748 CALLDATASIZE PUSH1 0x4 PUSH2 0x4208 JUMP JUMPDEST PUSH2 0x1FB8 JUMP JUMPDEST PUSH2 0x36D PUSH2 0x2159 JUMP JUMPDEST PUSH2 0x3C9 PUSH2 0x763 CALLDATASIZE PUSH1 0x4 PUSH2 0x426E JUMP JUMPDEST PUSH2 0x2170 JUMP JUMPDEST PUSH1 0x1 SLOAD PUSH2 0x57A SWAP1 PUSH1 0x1 PUSH1 0x1 PUSH1 0xA0 SHL SUB AND DUP2 JUMP JUMPDEST PUSH2 0x457 PUSH2 0x2195 JUMP JUMPDEST PUSH2 0x796 PUSH2 0x791 CALLDATASIZE PUSH1 0x4 PUSH2 0x442D JUMP JUMPDEST PUSH2 0x21EB JUMP JUMPDEST PUSH1 0x40 MLOAD PUSH2 0x315 SWAP4 SWAP3 SWAP2 SWAP1 PUSH2 0x4517 JUMP JUMPDEST PUSH2 0x3C9 PUSH2 0x7B3 CALLDATASIZE PUSH1 0x4 PUSH2 0x453B JUMP JUMPDEST PUSH2 0x2279 JUMP JUMPDEST PUSH2 0x36D PUSH32 0x43F25613EB2F15FB17222A5D424CA2655743E71265D98E4B93C05E5FB589ECDE DUP2 JUMP JUMPDEST PUSH2 0x3F6 PUSH2 0x23BC JUMP JUMPDEST PUSH2 0x7FA PUSH2 0x7F5 CALLDATASIZE PUSH1 0x4 PUSH2 0x442D JUMP JUMPDEST PUSH2 0x2419 JUMP JUMPDEST PUSH1 0x40 MLOAD PUSH2 0x315 SWAP3 SWAP2 SWAP1 PUSH2 0x4559 JUMP JUMPDEST PUSH2 0x36D PUSH2 0x816 CALLDATASIZE PUSH1 0x4 PUSH2 0x3FC4 JUMP JUMPDEST PUSH2 0x2579 JUMP JUMPDEST PUSH1 0x0 PUSH1 0x1 PUSH1 0x1 PUSH1 0xE0 SHL SUB NOT DUP3 AND PUSH4 0x7965DB0B PUSH1 0xE0 SHL EQ DUP1 PUSH2 0x84C JUMPI POP PUSH4 0x1FFC9A7 PUSH1 0xE0 SHL PUSH1 0x1 PUSH1 0x1 PUSH1 0xE0 SHL SUB NOT DUP4 AND EQ JUMPDEST SWAP3 SWAP2 POP POP JUMP JUMPDEST PUSH1 0xB DUP2 DUP2 SLOAD DUP2 LT PUSH2 0x862 JUMPI PUSH1 0x0 DUP1 REVERT JUMPDEST SWAP1 PUSH1 0x0 MSTORE PUSH1 0x20 PUSH1 0x0 KECCAK256 SWAP1 PUSH1 0x8 SWAP2 DUP3 DUP3 DIV ADD SWAP2 SWAP1 MOD PUSH1 0x4 MUL SWAP2 POP SLOAD SWAP1 PUSH2 0x100 EXP SWAP1 DIV PUSH4 0xFFFFFFFF AND DUP2 JUMP JUMPDEST PUSH2 0x8DB PUSH1 0x40 MLOAD DUP1 PUSH1 0xE0 ADD PUSH1 0x40 MSTORE DUP1 PUSH1 0x0 ISZERO ISZERO DUP2 MSTORE PUSH1 0x20 ADD PUSH1 0x0 ISZERO ISZERO DUP2 MSTORE PUSH1 0x20 ADD PUSH1 0x0 ISZERO ISZERO DUP2 MSTORE PUSH1 0x20 ADD PUSH1 0x0 PUSH1 0x1 PUSH1 0x1 PUSH1 0xA0 SHL SUB AND DUP2 MSTORE PUSH1 0x20 ADD PUSH1 0x60 DUP2 MSTORE PUSH1 0x20 ADD PUSH1 0x60 DUP2 MSTORE PUSH1 0x20 ADD PUSH1 0x60 DUP2 MSTORE POP SWAP1 JUMP JUMPDEST PUSH1 0x0 DUP3 DUP2 MSTORE PUSH1 0x6 PUSH1 0x20 SWAP1 DUP2 MSTORE PUSH1 0x40 SWAP2 DUP3 SWAP1 KECCAK256 DUP3 MLOAD PUSH1 0xE0 DUP2 ADD DUP5 MSTORE DUP2 SLOAD PUSH1 0xFF DUP1 DUP3 AND ISZERO ISZERO DUP4 MSTORE PUSH2 0x100 DUP3 DIV DUP2 AND ISZERO ISZERO DUP4 DUP7 ADD MSTORE PUSH3 0x10000 DUP3 DIV AND ISZERO ISZERO DUP3 DUP7 ADD MSTORE PUSH4 0x1000000 SWAP1 DIV PUSH1 0x1 PUSH1 0x1 PUSH1 0xA0 SHL SUB AND PUSH1 0x60 DUP3 ADD MSTORE PUSH1 0x1 DUP3 ADD DUP1 SLOAD DUP6 MLOAD DUP2 DUP7 MUL DUP2 ADD DUP7 ADD SWAP1 SWAP7 MSTORE DUP1 DUP7 MSTORE SWAP2 SWAP5 SWAP3 SWAP4 PUSH1 0x80 DUP7 ADD SWAP4 SWAP3 SWAP1 DUP4 ADD DUP3 DUP3 DUP1 ISZERO PUSH2 0x9AA JUMPI PUSH1 0x20 MUL DUP3 ADD SWAP2 SWAP1 PUSH1 0x0 MSTORE PUSH1 0x20 PUSH1 0x0 KECCAK256 SWAP1 PUSH1 0x0 SWAP1 JUMPDEST DUP3 DUP3 SWAP1 SLOAD SWAP1 PUSH2 0x100 EXP SWAP1 DIV PUSH4 0xFFFFFFFF AND PUSH4 0xFFFFFFFF AND DUP2 MSTORE PUSH1 0x20 ADD SWAP1 PUSH1 0x4 ADD SWAP1 PUSH1 0x20 DUP3 PUSH1 0x3 ADD DIV SWAP3 DUP4 ADD SWAP3 PUSH1 0x1 SUB DUP3 MUL SWAP2 POP DUP1 DUP5 GT PUSH2 0x96D JUMPI SWAP1 POP JUMPDEST POP POP POP POP POP DUP2 MSTORE PUSH1 0x20 ADD PUSH1 0x2 DUP3 ADD DUP1 SLOAD DUP1 PUSH1 0x20 MUL PUSH1 0x20 ADD PUSH1 0x40 MLOAD SWAP1 DUP2 ADD PUSH1 0x40 MSTORE DUP1 SWAP3 SWAP2 SWAP1 DUP2 DUP2 MSTORE PUSH1 0x20 ADD DUP3 DUP1 SLOAD DUP1 ISZERO PUSH2 0xA2E JUMPI PUSH1 0x20 MUL DUP3 ADD SWAP2 SWAP1 PUSH1 0x0 MSTORE PUSH1 0x20 PUSH1 0x0 KECCAK256 SWAP1 PUSH1 0x0 SWAP1 JUMPDEST DUP3 DUP3 SWAP1 SLOAD SWAP1 PUSH2 0x100 EXP SWAP1 DIV PUSH4 0xFFFFFFFF AND PUSH4 0xFFFFFFFF AND DUP2 MSTORE PUSH1 0x20 ADD SWAP1 PUSH1 0x4 ADD SWAP1 PUSH1 0x20 DUP3 PUSH1 0x3 ADD DIV SWAP3 DUP4 ADD SWAP3 PUSH1 0x1 SUB DUP3 MUL SWAP2 POP DUP1 DUP5 GT PUSH2 0x9F1 JUMPI SWAP1 POP JUMPDEST POP POP POP POP POP DUP2 MSTORE PUSH1 0x20 ADD PUSH1 0x3 DUP3 ADD DUP1 SLOAD DUP1 PUSH1 0x20 MUL PUSH1 0x20 ADD PUSH1 0x40 MLOAD SWAP1 DUP2 ADD PUSH1 0x40 MSTORE DUP1 SWAP3 SWAP2 SWAP1 DUP2 DUP2 MSTORE PUSH1 0x20 ADD DUP3 DUP1 SLOAD DUP1 ISZERO PUSH2 0xA86 JUMPI PUSH1 0x20 MUL DUP3 ADD SWAP2 SWAP1 PUSH1 0x0 MSTORE PUSH1 0x20 PUSH1 0x0 KECCAK256 SWAP1 JUMPDEST DUP2 SLOAD DUP2 MSTORE PUSH1 0x20 ADD SWAP1 PUSH1 0x1 ADD SWAP1 DUP1 DUP4 GT PUSH2 0xA72 JUMPI JUMPDEST POP POP POP POP POP DUP2 MSTORE POP POP SWAP1 POP SWAP2 SWAP1 POP JUMP JUMPDEST PUSH1 0x1 SLOAD PUSH1 0x40 MLOAD PUSH4 0xBD85B039 PUSH1 0xE0 SHL DUP2 MSTORE PUSH1 0x4 DUP2 ADD DUP4 SWAP1 MSTORE PUSH1 0x0 SWAP2 PUSH1 0x1 PUSH1 0x1 PUSH1 0xA0 SHL SUB AND SWAP1 PUSH4 0xBD85B039 SWAP1 PUSH1 0x24 ADD PUSH1 0x20 PUSH1 0x40 MLOAD DUP1 DUP4 SUB DUP2 DUP7 GAS STATICCALL ISZERO DUP1 ISZERO PUSH2 0xAE0 JUMPI RETURNDATASIZE PUSH1 0x0 DUP1 RETURNDATACOPY RETURNDATASIZE PUSH1 0x0 REVERT JUMPDEST POP POP POP POP PUSH1 0x40 MLOAD RETURNDATASIZE PUSH1 0x1F NOT PUSH1 0x1F DUP3 ADD AND DUP3 ADD DUP1 PUSH1 0x40 MSTORE POP DUP2 ADD SWAP1 PUSH2 0x84C SWAP2 SWAP1 PUSH2 0x457E JUMP JUMPDEST PUSH1 0x0 PUSH1 0xE PUSH1 0x8 SLOAD DUP2 SLOAD DUP2 LT PUSH2 0xB1B JUMPI PUSH2 0xB1B PUSH2 0x4597 JUMP JUMPDEST SWAP1 PUSH1 0x0 MSTORE PUSH1 0x20 PUSH1 0x0 KECCAK256 ADD SLOAD SWAP1 POP SWAP1 JUMP JUMPDEST PUSH2 0xB36 PUSH1 0x0 CALLER PUSH2 0x1D5A JUMP JUMPDEST PUSH2 0xB5B JUMPI PUSH1 0x40 MLOAD PUSH3 0x461BCD PUSH1 0xE5 SHL DUP2 MSTORE PUSH1 0x4 ADD PUSH2 0xB52 SWAP1 PUSH2 0x45AD JUMP JUMPDEST PUSH1 0x40 MLOAD DUP1 SWAP2 SUB SWAP1 REVERT JUMPDEST PUSH1 0xD SLOAD PUSH1 0x0 SUB PUSH2 0xB7E JUMPI PUSH1 0x40 MLOAD PUSH4 0x775ADE01 PUSH1 0xE0 SHL DUP2 MSTORE PUSH1 0x4 ADD PUSH1 0x40 MLOAD DUP1 SWAP2 SUB SWAP1 REVERT JUMPDEST DUP1 MLOAD PUSH1 0xD SLOAD EQ PUSH2 0xBA1 JUMPI PUSH1 0x40 MLOAD PUSH4 0x19851323 PUSH1 0xE3 SHL DUP2 MSTORE PUSH1 0x4 ADD PUSH1 0x40 MLOAD DUP1 SWAP2 SUB SWAP1 REVERT JUMPDEST DUP1 MLOAD PUSH2 0xBB4 SWAP1 PUSH1 0xB SWAP1 PUSH1 0x20 DUP5 ADD SWAP1 PUSH2 0x3E98 JUMP JUMPDEST POP DUP1 MLOAD PUSH2 0xBC8 SWAP1 PUSH1 0xC SWAP1 PUSH1 0x20 DUP5 ADD SWAP1 PUSH2 0x3E98 JUMP JUMPDEST POP PUSH32 0x8BAF124FB435347A873AFB6512246F2FAE8E3FD69D4689513BEF69293C84C29B DUP2 PUSH1 0x40 MLOAD PUSH2 0xBF8 SWAP2 SWAP1 PUSH2 0x4244 JUMP JUMPDEST PUSH1 0x40 MLOAD DUP1 SWAP2 SUB SWAP1 LOG1 POP JUMP JUMPDEST PUSH1 0x60 PUSH1 0x9 DUP1 SLOAD DUP1 PUSH1 0x20 MUL PUSH1 0x20 ADD PUSH1 0x40 MLOAD SWAP1 DUP2 ADD PUSH1 0x40 MSTORE DUP1 SWAP3 SWAP2 SWAP1 DUP2 DUP2 MSTORE PUSH1 0x20 ADD DUP3 DUP1 SLOAD DUP1 ISZERO PUSH2 0xC7D JUMPI PUSH1 0x20 MUL DUP3 ADD SWAP2 SWAP1 PUSH1 0x0 MSTORE PUSH1 0x20 PUSH1 0x0 KECCAK256 SWAP1 PUSH1 0x0 SWAP1 JUMPDEST DUP3 DUP3 SWAP1 SLOAD SWAP1 PUSH2 0x100 EXP SWAP1 DIV PUSH4 0xFFFFFFFF AND PUSH4 0xFFFFFFFF AND DUP2 MSTORE PUSH1 0x20 ADD SWAP1 PUSH1 0x4 ADD SWAP1 PUSH1 0x20 DUP3 PUSH1 0x3 ADD DIV SWAP3 DUP4 ADD SWAP3 PUSH1 0x1 SUB DUP3 MUL SWAP2 POP DUP1 DUP5 GT PUSH2 0xC40 JUMPI SWAP1 POP JUMPDEST POP POP POP POP POP SWAP1 POP SWAP1 JUMP JUMPDEST PUSH1 0xA DUP2 DUP2 SLOAD DUP2 LT PUSH2 0x862 JUMPI PUSH1 0x0 DUP1 REVERT JUMPDEST PUSH1 0x0 DUP3 DUP2 MSTORE PUSH1 0x20 DUP2 SWAP1 MSTORE PUSH1 0x40 SWAP1 KECCAK256 PUSH1 0x1 ADD SLOAD PUSH2 0xCB2 DUP2 PUSH2 0x2589 JUMP JUMPDEST PUSH2 0xCBC DUP4 DUP4 PUSH2 0x2596 JUMP JUMPDEST POP POP POP POP JUMP JUMPDEST PUSH1 0x1 PUSH1 0x1 PUSH1 0xA0 SHL SUB DUP2 AND CALLER EQ PUSH2 0xCEB JUMPI PUSH1 0x40 MLOAD PUSH4 0x334BD919 PUSH1 0xE1 SHL DUP2 MSTORE PUSH1 0x4 ADD PUSH1 0x40 MLOAD DUP1 SWAP2 SUB SWAP1 REVERT JUMPDEST PUSH2 0xCF5 DUP3 DUP3 PUSH2 0x2628 JUMP JUMPDEST POP POP POP JUMP JUMPDEST PUSH2 0xD24 PUSH32 0x5FD84582B30BACE1CBB5CC91A75B8EE48A0E84DA1E64C2D880C8C865C813444F CALLER PUSH2 0x1D5A JUMP JUMPDEST PUSH2 0xD70 JUMPI PUSH1 0x40 MLOAD PUSH3 0x461BCD PUSH1 0xE5 SHL DUP2 MSTORE PUSH1 0x20 PUSH1 0x4 DUP3 ADD MSTORE PUSH1 0x19 PUSH1 0x24 DUP3 ADD MSTORE PUSH32 0x5265737472696374656420746F2066756C66696C6C6572732E00000000000000 PUSH1 0x44 DUP3 ADD MSTORE PUSH1 0x64 ADD PUSH2 0xB52 JUMP JUMPDEST PUSH1 0x0 DUP3 DUP2 MSTORE PUSH1 0x6 PUSH1 0x20 MSTORE PUSH1 0x40 SWAP1 KECCAK256 DUP1 SLOAD PUSH1 0xFF AND PUSH2 0xDA3 JUMPI PUSH1 0x40 MLOAD PUSH4 0x9A1CFBFD PUSH1 0xE0 SHL DUP2 MSTORE PUSH1 0x4 DUP2 ADD DUP5 SWAP1 MSTORE PUSH1 0x24 ADD PUSH2 0xB52 JUMP JUMPDEST DUP1 SLOAD PUSH2 0xFF00 NOT AND PUSH2 0x100 OR DUP2 SSTORE DUP2 MLOAD PUSH2 0xDC5 SWAP1 PUSH1 0x3 DUP4 ADD SWAP1 PUSH1 0x20 DUP6 ADD SWAP1 PUSH2 0x3F43 JUMP JUMPDEST POP DUP3 PUSH32 0xFE2E2D779DBA245964D4E3EF9B994BE63856FD568BF7D3CA9E224755CB1BD54D DUP4 PUSH1 0x40 MLOAD PUSH2 0xDF6 SWAP2 SWAP1 PUSH2 0x433B JUMP JUMPDEST PUSH1 0x40 MLOAD DUP1 SWAP2 SUB SWAP1 LOG2 POP POP POP JUMP JUMPDEST PUSH1 0x60 PUSH1 0xE DUP1 SLOAD DUP1 PUSH1 0x20 MUL PUSH1 0x20 ADD PUSH1 0x40 MLOAD SWAP1 DUP2 ADD PUSH1 0x40 MSTORE DUP1 SWAP3 SWAP2 SWAP1 DUP2 DUP2 MSTORE PUSH1 0x20 ADD DUP3 DUP1 SLOAD DUP1 ISZERO PUSH2 0xC7D JUMPI PUSH1 0x20 MUL DUP3 ADD SWAP2 SWAP1 PUSH1 0x0 MSTORE PUSH1 0x20 PUSH1 0x0 KECCAK256 SWAP1 JUMPDEST DUP2 SLOAD DUP2 MSTORE PUSH1 0x20 ADD SWAP1 PUSH1 0x1 ADD SWAP1 DUP1 DUP4 GT PUSH2 0xE3D JUMPI POP POP POP POP POP SWAP1 POP SWAP1 JUMP JUMPDEST PUSH1 0x60 PUSH1 0xB DUP1 SLOAD DUP1 PUSH1 0x20 MUL PUSH1 0x20 ADD PUSH1 0x40 MLOAD SWAP1 DUP2 ADD PUSH1 0x40 MSTORE DUP1 SWAP3 SWAP2 SWAP1 DUP2 DUP2 MSTORE PUSH1 0x20 ADD DUP3 DUP1 SLOAD DUP1 ISZERO PUSH2 0xC7D JUMPI PUSH1 0x0 SWAP2 DUP3 MSTORE PUSH1 0x20 SWAP2 DUP3 SWAP1 KECCAK256 DUP1 SLOAD PUSH4 0xFFFFFFFF AND DUP5 MSTORE SWAP1 DUP3 MUL DUP4 ADD SWAP3 SWAP1 SWAP2 PUSH1 0x4 SWAP2 ADD DUP1 DUP5 GT PUSH2 0xC40 JUMPI SWAP1 POP POP POP POP POP POP SWAP1 POP SWAP1 JUMP JUMPDEST PUSH1 0xC DUP2 DUP2 SLOAD DUP2 LT PUSH2 0x862 JUMPI PUSH1 0x0 DUP1 REVERT JUMPDEST PUSH2 0xED2 PUSH1 0x0 CALLER PUSH2 0x1D5A JUMP JUMPDEST PUSH2 0xEEE JUMPI PUSH1 0x40 MLOAD PUSH3 0x461BCD PUSH1 0xE5 SHL DUP2 MSTORE PUSH1 0x4 ADD PUSH2 0xB52 SWAP1 PUSH2 0x45AD JUMP JUMPDEST PUSH1 0x7 SLOAD PUSH5 0x100000000 SWAP1 DIV PUSH4 0xFFFFFFFF AND PUSH1 0x0 DUP2 DUP2 MSTORE PUSH1 0x5 PUSH1 0x20 MSTORE PUSH1 0x40 SWAP1 KECCAK256 DUP3 MLOAD DUP5 MLOAD EQ PUSH2 0xF2F JUMPI PUSH1 0x40 MLOAD PUSH4 0x19851323 PUSH1 0xE3 SHL DUP2 MSTORE PUSH1 0x4 ADD PUSH1 0x40 MLOAD DUP1 SWAP2 SUB SWAP1 REVERT JUMPDEST PUSH2 0xF38 DUP4 PUSH2 0x2693 JUMP JUMPDEST DUP1 MLOAD PUSH2 0xF4E SWAP2 PUSH1 0x3 DUP5 ADD SWAP2 PUSH1 0x20 SWAP1 SWAP2 ADD SWAP1 PUSH2 0x3E98 JUMP JUMPDEST POP DUP1 SLOAD PUSH1 0xFF NOT AND PUSH1 0x1 SWAP1 DUP2 OR DUP3 SSTORE DUP5 MLOAD PUSH2 0xF6F SWAP2 DUP4 ADD SWAP1 PUSH1 0x20 DUP8 ADD SWAP1 PUSH2 0x3E98 JUMP JUMPDEST POP DUP3 MLOAD PUSH2 0xF85 SWAP1 PUSH1 0x2 DUP4 ADD SWAP1 PUSH1 0x20 DUP7 ADD SWAP1 PUSH2 0x3E98 JUMP JUMPDEST POP PUSH1 0xA DUP1 SLOAD PUSH1 0x1 DUP2 ADD DUP3 SSTORE PUSH1 0x0 SWAP2 SWAP1 SWAP2 MSTORE PUSH1 0x8 DUP2 DIV PUSH32 0xC65A7BB8D6351C1CF70C95A316CC6A92839C986682D98BC35F958F4883F9D2A8 ADD DUP1 SLOAD PUSH4 0xFFFFFFFF DUP1 DUP7 AND PUSH1 0x4 PUSH1 0x7 SWAP6 DUP7 AND DUP2 MUL PUSH2 0x100 EXP SWAP2 DUP3 MUL SWAP2 DUP4 MUL NOT SWAP1 SWAP4 AND OR SWAP1 SWAP3 SSTORE DUP3 SLOAD PUSH5 0x100000000 SWAP1 DIV SWAP1 SWAP2 AND SWAP2 SWAP1 PUSH2 0xFF9 DUP4 PUSH2 0x45F1 JUMP JUMPDEST SWAP2 SWAP1 PUSH2 0x100 EXP DUP2 SLOAD DUP2 PUSH4 0xFFFFFFFF MUL NOT AND SWAP1 DUP4 PUSH4 0xFFFFFFFF AND MUL OR SWAP1 SSTORE POP POP PUSH32 0x83B611E3A9F3EBEA1FA1254D2C7535BD0733ED9B76A5A2B0DA450D5BA399ECBD DUP3 PUSH1 0x40 MLOAD PUSH2 0x1053 SWAP2 SWAP1 PUSH4 0xFFFFFFFF SWAP2 SWAP1 SWAP2 AND DUP2 MSTORE PUSH1 0x20 ADD SWAP1 JUMP JUMPDEST PUSH1 0x40 MLOAD DUP1 SWAP2 SUB SWAP1 LOG1 POP POP POP POP JUMP JUMPDEST PUSH1 0xE DUP2 DUP2 SLOAD DUP2 LT PUSH2 0x1071 JUMPI PUSH1 0x0 DUP1 REVERT JUMPDEST PUSH1 0x0 SWAP2 DUP3 MSTORE PUSH1 0x20 SWAP1 SWAP2 KECCAK256 ADD SLOAD SWAP1 POP DUP2 JUMP JUMPDEST PUSH2 0x108D PUSH1 0x0 CALLER PUSH2 0x1D5A JUMP JUMPDEST PUSH2 0x10A9 JUMPI PUSH1 0x40 MLOAD PUSH3 0x461BCD PUSH1 0xE5 SHL DUP2 MSTORE PUSH1 0x4 ADD PUSH2 0xB52 SWAP1 PUSH2 0x45AD JUMP JUMPDEST DUP1 MLOAD PUSH2 0x10BC SWAP1 PUSH1 0xD SWAP1 PUSH1 0x20 DUP5 ADD SWAP1 PUSH2 0x3F43 JUMP JUMPDEST POP PUSH32 0x7DEB1779AF15E10714F572C4EC4AC6290B5E3132AF43085B2D7CB86F75024BBF DUP2 PUSH1 0x40 MLOAD PUSH2 0xBF8 SWAP2 SWAP1 PUSH2 0x433B JUMP JUMPDEST PUSH1 0x0 CALLER DUP2 JUMPDEST DUP5 MLOAD DUP2 LT ISZERO PUSH2 0x1293 JUMPI PUSH1 0x0 DUP5 DUP3 DUP2 MLOAD DUP2 LT PUSH2 0x110E JUMPI PUSH2 0x110E PUSH2 0x4597 JUMP JUMPDEST PUSH1 0x20 MUL PUSH1 0x20 ADD ADD MLOAD PUSH4 0xFFFFFFFF AND GT PUSH2 0x1160 JUMPI PUSH1 0x40 MLOAD PUSH3 0x461BCD PUSH1 0xE5 SHL DUP2 MSTORE PUSH1 0x20 PUSH1 0x4 DUP3 ADD MSTORE PUSH1 0x14 PUSH1 0x24 DUP3 ADD MSTORE PUSH20 0x496E76616C6964206472617720616D6F756E7473 PUSH1 0x60 SHL PUSH1 0x44 DUP3 ADD MSTORE PUSH1 0x64 ADD PUSH2 0xB52 JUMP JUMPDEST DUP5 DUP2 DUP2 MLOAD DUP2 LT PUSH2 0x1172 JUMPI PUSH2 0x1172 PUSH2 0x4597 JUMP JUMPDEST PUSH1 0x20 SWAP1 DUP2 MUL SWAP2 SWAP1 SWAP2 ADD DUP2 ADD MLOAD PUSH1 0x1 PUSH1 0x1 PUSH1 0xA0 SHL SUB DUP5 AND PUSH1 0x0 SWAP1 DUP2 MSTORE PUSH1 0x3 DUP4 MSTORE PUSH1 0x40 DUP1 DUP3 KECCAK256 PUSH4 0xFFFFFFFF DUP1 DUP6 AND DUP5 MSTORE SWAP5 MSTORE SWAP1 KECCAK256 SLOAD DUP7 MLOAD SWAP2 SWAP6 POP SWAP1 SWAP2 AND SWAP1 DUP6 SWAP1 DUP4 SWAP1 DUP2 LT PUSH2 0x11C0 JUMPI PUSH2 0x11C0 PUSH2 0x4597 JUMP JUMPDEST PUSH1 0x20 MUL PUSH1 0x20 ADD ADD MLOAD PUSH4 0xFFFFFFFF AND DUP2 PUSH4 0xFFFFFFFF AND LT ISZERO PUSH2 0x120B JUMPI PUSH1 0x40 MLOAD PUSH4 0x2AD841E1 PUSH1 0xE2 SHL DUP2 MSTORE PUSH1 0x1 PUSH1 0x1 PUSH1 0xA0 SHL SUB DUP5 AND PUSH1 0x4 DUP3 ADD MSTORE PUSH4 0xFFFFFFFF DUP6 AND PUSH1 0x24 DUP3 ADD MSTORE PUSH1 0x44 ADD PUSH2 0xB52 JUMP JUMPDEST DUP5 DUP3 DUP2 MLOAD DUP2 LT PUSH2 0x121D JUMPI PUSH2 0x121D PUSH2 0x4597 JUMP JUMPDEST PUSH1 0x20 SWAP1 DUP2 MUL SWAP2 SWAP1 SWAP2 ADD DUP2 ADD MLOAD PUSH1 0x1 PUSH1 0x1 PUSH1 0xA0 SHL SUB DUP6 AND PUSH1 0x0 SWAP1 DUP2 MSTORE PUSH1 0x3 DUP4 MSTORE PUSH1 0x40 DUP1 DUP3 KECCAK256 PUSH4 0xFFFFFFFF DUP1 DUP11 AND DUP5 MSTORE SWAP5 MSTORE DUP2 KECCAK256 DUP1 SLOAD SWAP3 SWAP4 SWAP1 SWAP3 PUSH2 0x1261 SWAP2 DUP6 SWAP2 AND PUSH2 0x4614 JUMP JUMPDEST SWAP3 POP PUSH2 0x100 EXP DUP2 SLOAD DUP2 PUSH4 0xFFFFFFFF MUL NOT AND SWAP1 DUP4 PUSH4 0xFFFFFFFF AND MUL OR SWAP1 SSTORE POP POP DUP1 DUP1 PUSH2 0x128B SWAP1 PUSH2 0x4638 JUMP JUMPDEST SWAP2 POP POP PUSH2 0x10F1 JUMP JUMPDEST POP PUSH1 0x2 SLOAD PUSH1 0x40 MLOAD PUSH4 0x203256C5 PUSH1 0xE2 SHL DUP2 MSTORE PUSH1 0x1 PUSH1 0x1 PUSH1 0xA0 SHL SUB DUP4 DUP2 AND PUSH1 0x4 DUP4 ADD MSTORE PUSH1 0x0 SWAP3 AND SWAP1 PUSH4 0x80C95B14 SWAP1 PUSH1 0x24 ADD PUSH1 0x20 PUSH1 0x40 MLOAD DUP1 DUP4 SUB DUP2 PUSH1 0x0 DUP8 GAS CALL ISZERO DUP1 ISZERO PUSH2 0x12E1 JUMPI RETURNDATASIZE PUSH1 0x0 DUP1 RETURNDATACOPY RETURNDATASIZE PUSH1 0x0 REVERT JUMPDEST POP POP POP POP PUSH1 0x40 MLOAD RETURNDATASIZE PUSH1 0x1F NOT PUSH1 0x1F DUP3 ADD AND DUP3 ADD DUP1 PUSH1 0x40 MSTORE POP DUP2 ADD SWAP1 PUSH2 0x1305 SWAP2 SWAP1 PUSH2 0x457E JUMP JUMPDEST PUSH1 0x0 DUP2 DUP2 MSTORE PUSH1 0x6 PUSH1 0x20 SWAP1 DUP2 MSTORE PUSH1 0x40 SWAP1 SWAP2 KECCAK256 DUP1 SLOAD PUSH1 0x1 PUSH3 0xFFFF01 PUSH1 0x1 PUSH1 0xB8 SHL SUB NOT SWAP1 SWAP2 AND PUSH4 0x1000000 PUSH1 0x1 PUSH1 0x1 PUSH1 0xA0 SHL SUB DUP9 AND MUL OR DUP2 OR DUP3 SSTORE DUP9 MLOAD SWAP4 SWAP5 POP SWAP1 SWAP3 PUSH2 0x1354 SWAP3 SWAP2 DUP5 ADD SWAP2 DUP10 ADD SWAP1 PUSH2 0x3E98 JUMP JUMPDEST POP DUP5 MLOAD PUSH2 0x136A SWAP1 PUSH1 0x2 DUP4 ADD SWAP1 PUSH1 0x20 DUP9 ADD SWAP1 PUSH2 0x3E98 JUMP JUMPDEST POP PUSH1 0xE DUP1 SLOAD PUSH1 0x1 DUP2 ADD DUP3 SSTORE PUSH1 0x0 SWAP2 SWAP1 SWAP2 MSTORE PUSH32 0xBB7B4A454DC3493923482F07822329ED19E8244EFF582CC204F8554C3620C3FD ADD DUP3 SWAP1 SSTORE PUSH1 0x40 DUP1 MLOAD DUP4 DUP2 MSTORE PUSH1 0x1 PUSH1 0x1 PUSH1 0xA0 SHL SUB DUP6 AND PUSH1 0x20 DUP3 ADD MSTORE PUSH32 0x48B98AD7A8A8DBE21CC82BF98710AD4D2CDD949CCAC393692E4D9A1722C162C7 SWAP2 ADD PUSH1 0x40 MLOAD DUP1 SWAP2 SUB SWAP1 LOG1 POP POP POP POP POP POP JUMP JUMPDEST PUSH2 0x13F4 PUSH1 0x0 CALLER PUSH2 0x1D5A JUMP JUMPDEST PUSH2 0x1410 JUMPI PUSH1 0x40 MLOAD PUSH3 0x461BCD PUSH1 0xE5 SHL DUP2 MSTORE PUSH1 0x4 ADD PUSH2 0xB52 SWAP1 PUSH2 0x45AD JUMP JUMPDEST PUSH1 0x2 DUP1 SLOAD PUSH1 0x1 PUSH1 0x1 PUSH1 0xA0 SHL SUB NOT AND PUSH1 0x1 PUSH1 0x1 PUSH1 0xA0 SHL SUB DUP4 AND OR SWAP1 SSTORE PUSH2 0x1455 PUSH32 0x5FD84582B30BACE1CBB5CC91A75B8EE48A0E84DA1E64C2D880C8C865C813444F DUP3 PUSH2 0x2596 JUMP JUMPDEST POP POP JUMP JUMPDEST PUSH1 0x0 JUMPDEST DUP4 PUSH4 0xFFFFFFFF AND DUP2 PUSH4 0xFFFFFFFF AND LT ISZERO PUSH2 0xCBC JUMPI PUSH2 0x147A DUP4 DUP4 PUSH2 0x10EC JUMP JUMPDEST DUP1 PUSH2 0x1484 DUP2 PUSH2 0x45F1 JUMP JUMPDEST SWAP2 POP POP PUSH2 0x145C JUMP JUMPDEST PUSH2 0x14B6 PUSH32 0xD8AA0F3194971A2A116679F7C2090F6939C8D4E01A2A8D7E41D55E5351469E63 CALLER PUSH2 0x1D5A JUMP JUMPDEST PUSH2 0x14FD JUMPI PUSH1 0x40 MLOAD PUSH3 0x461BCD PUSH1 0xE5 SHL DUP2 MSTORE PUSH1 0x20 PUSH1 0x4 DUP3 ADD MSTORE PUSH1 0x18 PUSH1 0x24 DUP3 ADD MSTORE PUSH24 0x2932B9BA3934B1BA32B2103A379032BC32B1BABA37B93997 PUSH1 0x41 SHL PUSH1 0x44 DUP3 ADD MSTORE PUSH1 0x64 ADD PUSH2 0xB52 JUMP JUMPDEST PUSH1 0x0 PUSH2 0x1507 PUSH2 0x2159 JUMP JUMPDEST SWAP1 POP PUSH1 0x0 JUMPDEST DUP2 DUP2 LT ISZERO PUSH2 0x1455 JUMPI PUSH2 0x151C PUSH2 0x153F JUMP JUMPDEST POP DUP1 PUSH2 0x1527 DUP2 PUSH2 0x4638 JUMP JUMPDEST SWAP2 POP POP PUSH2 0x150C JUMP JUMPDEST PUSH1 0x9 DUP2 DUP2 SLOAD DUP2 LT PUSH2 0x862 JUMPI PUSH1 0x0 DUP1 REVERT JUMPDEST PUSH1 0x60 PUSH2 0x156B PUSH32 0xD8AA0F3194971A2A116679F7C2090F6939C8D4E01A2A8D7E41D55E5351469E63 CALLER PUSH2 0x1D5A JUMP JUMPDEST PUSH2 0x15B2 JUMPI PUSH1 0x40 MLOAD PUSH3 0x461BCD PUSH1 0xE5 SHL DUP2 MSTORE PUSH1 0x20 PUSH1 0x4 DUP3 ADD MSTORE PUSH1 0x18 PUSH1 0x24 DUP3 ADD MSTORE PUSH24 0x2932B9BA3934B1BA32B2103A379032BC32B1BABA37B93997 PUSH1 0x41 SHL PUSH1 0x44 DUP3 ADD MSTORE PUSH1 0x64 ADD PUSH2 0xB52 JUMP JUMPDEST PUSH2 0x15BA PUSH2 0x2159 JUMP JUMPDEST PUSH1 0x0 SUB PUSH2 0x1609 JUMPI PUSH1 0x40 MLOAD PUSH3 0x461BCD PUSH1 0xE5 SHL DUP2 MSTORE PUSH1 0x20 PUSH1 0x4 DUP3 ADD MSTORE PUSH1 0x17 PUSH1 0x24 DUP3 ADD MSTORE PUSH32 0x4E6F2070656E64696E672072657175657374206E6F772E000000000000000000 PUSH1 0x44 DUP3 ADD MSTORE PUSH1 0x64 ADD PUSH2 0xB52 JUMP JUMPDEST PUSH1 0x0 PUSH1 0xE PUSH1 0x8 SLOAD DUP2 SLOAD DUP2 LT PUSH2 0x1620 JUMPI PUSH2 0x1620 PUSH2 0x4597 JUMP JUMPDEST PUSH1 0x0 SWAP2 DUP3 MSTORE PUSH1 0x20 DUP1 DUP4 KECCAK256 SWAP1 SWAP2 ADD SLOAD DUP1 DUP4 MSTORE PUSH1 0x6 SWAP1 SWAP2 MSTORE PUSH1 0x40 SWAP1 SWAP2 KECCAK256 DUP1 SLOAD SWAP2 SWAP3 POP SWAP1 PUSH1 0xFF AND DUP1 ISZERO PUSH2 0x1656 JUMPI POP DUP1 SLOAD PUSH2 0x100 SWAP1 DIV PUSH1 0xFF AND JUMPDEST PUSH2 0x16A2 JUMPI PUSH1 0x40 MLOAD PUSH3 0x461BCD PUSH1 0xE5 SHL DUP2 MSTORE PUSH1 0x20 PUSH1 0x4 DUP3 ADD MSTORE PUSH1 0x1E PUSH1 0x24 DUP3 ADD MSTORE PUSH32 0x5265717565737420776173206E6F742066756C66696C6C6564207965742E0000 PUSH1 0x44 DUP3 ADD MSTORE PUSH1 0x64 ADD PUSH2 0xB52 JUMP JUMPDEST DUP1 SLOAD PUSH1 0x1 DUP3 ADD DUP1 SLOAD PUSH1 0x40 DUP1 MLOAD PUSH1 0x20 DUP1 DUP5 MUL DUP3 ADD DUP2 ADD SWAP1 SWAP3 MSTORE DUP3 DUP2 MSTORE PUSH4 0x1000000 SWAP1 SWAP5 DIV PUSH1 0x1 PUSH1 0x1 PUSH1 0xA0 SHL SUB AND SWAP4 PUSH1 0x0 SWAP4 SWAP1 SWAP3 SWAP1 SWAP2 DUP4 ADD DUP3 DUP3 DUP1 ISZERO PUSH2 0x1731 JUMPI PUSH1 0x20 MUL DUP3 ADD SWAP2 SWAP1 PUSH1 0x0 MSTORE PUSH1 0x20 PUSH1 0x0 KECCAK256 SWAP1 PUSH1 0x0 SWAP1 JUMPDEST DUP3 DUP3 SWAP1 SLOAD SWAP1 PUSH2 0x100 EXP SWAP1 DIV PUSH4 0xFFFFFFFF AND PUSH4 0xFFFFFFFF AND DUP2 MSTORE PUSH1 0x20 ADD SWAP1 PUSH1 0x4 ADD SWAP1 PUSH1 0x20 DUP3 PUSH1 0x3 ADD DIV SWAP3 DUP4 ADD SWAP3 PUSH1 0x1 SUB DUP3 MUL SWAP2 POP DUP1 DUP5 GT PUSH2 0x16F4 JUMPI SWAP1 POP JUMPDEST POP POP POP POP POP SWAP1 POP PUSH1 0x0 DUP4 PUSH1 0x2 ADD DUP1 SLOAD DUP1 PUSH1 0x20 MUL PUSH1 0x20 ADD PUSH1 0x40 MLOAD SWAP1 DUP2 ADD PUSH1 0x40 MSTORE DUP1 SWAP3 SWAP2 SWAP1 DUP2 DUP2 MSTORE PUSH1 0x20 ADD DUP3 DUP1 SLOAD DUP1 ISZERO PUSH2 0x17B4 JUMPI PUSH1 0x20 MUL DUP3 ADD SWAP2 SWAP1 PUSH1 0x0 MSTORE PUSH1 0x20 PUSH1 0x0 KECCAK256 SWAP1 PUSH1 0x0 SWAP1 JUMPDEST DUP3 DUP3 SWAP1 SLOAD SWAP1 PUSH2 0x100 EXP SWAP1 DIV PUSH4 0xFFFFFFFF AND PUSH4 0xFFFFFFFF AND DUP2 MSTORE PUSH1 0x20 ADD SWAP1 PUSH1 0x4 ADD SWAP1 PUSH1 0x20 DUP3 PUSH1 0x3 ADD DIV SWAP3 DUP4 ADD SWAP3 PUSH1 0x1 SUB DUP3 MUL SWAP2 POP DUP1 DUP5 GT PUSH2 0x1777 JUMPI SWAP1 POP JUMPDEST POP POP POP POP POP SWAP1 POP PUSH1 0x0 DUP5 PUSH1 0x3 ADD PUSH1 0x0 DUP2 SLOAD DUP2 LT PUSH2 0x17D3 JUMPI PUSH2 0x17D3 PUSH2 0x4597 JUMP JUMPDEST SWAP1 PUSH1 0x0 MSTORE PUSH1 0x20 PUSH1 0x0 KECCAK256 ADD SLOAD SWAP1 POP PUSH1 0x0 DUP1 JUMPDEST DUP4 MLOAD DUP2 LT ISZERO PUSH2 0x182C JUMPI DUP4 DUP2 DUP2 MLOAD DUP2 LT PUSH2 0x17FF JUMPI PUSH2 0x17FF PUSH2 0x4597 JUMP JUMPDEST PUSH1 0x20 MUL PUSH1 0x20 ADD ADD MLOAD PUSH4 0xFFFFFFFF AND DUP3 PUSH2 0x1818 SWAP2 SWAP1 PUSH2 0x4651 JUMP JUMPDEST SWAP2 POP DUP1 PUSH2 0x1824 DUP2 PUSH2 0x4638 JUMP JUMPDEST SWAP2 POP POP PUSH2 0x17E4 JUMP JUMPDEST POP PUSH1 0x0 DUP2 PUSH1 0x1 PUSH1 0x1 PUSH1 0x40 SHL SUB DUP2 GT ISZERO PUSH2 0x1847 JUMPI PUSH2 0x1847 PUSH2 0x40F1 JUMP JUMPDEST PUSH1 0x40 MLOAD SWAP1 DUP1 DUP3 MSTORE DUP1 PUSH1 0x20 MUL PUSH1 0x20 ADD DUP3 ADD PUSH1 0x40 MSTORE DUP1 ISZERO PUSH2 0x1870 JUMPI DUP2 PUSH1 0x20 ADD PUSH1 0x20 DUP3 MUL DUP1 CALLDATASIZE DUP4 CALLDATACOPY ADD SWAP1 POP JUMPDEST POP SWAP1 POP PUSH1 0x0 DUP1 DUP1 DUP1 DUP7 DUP2 JUMPDEST DUP11 MLOAD DUP2 LT ISZERO PUSH2 0x1A70 JUMPI PUSH1 0x0 JUMPDEST DUP11 DUP3 DUP2 MLOAD DUP2 LT PUSH2 0x1899 JUMPI PUSH2 0x1899 PUSH2 0x4597 JUMP JUMPDEST PUSH1 0x20 MUL PUSH1 0x20 ADD ADD MLOAD PUSH4 0xFFFFFFFF AND DUP2 LT ISZERO PUSH2 0x1A5D JUMPI DUP12 MLOAD SWAP3 SWAP6 POP PUSH1 0x20 DUP7 SWAP1 SHR SWAP3 PUSH2 0x18DD SWAP1 DUP14 SWAP1 DUP5 SWAP1 DUP2 LT PUSH2 0x18CF JUMPI PUSH2 0x18CF PUSH2 0x4597 JUMP JUMPDEST PUSH1 0x20 MUL PUSH1 0x20 ADD ADD MLOAD DUP8 PUSH2 0x2750 JUMP JUMPDEST SWAP7 POP SWAP2 SWAP5 POP PUSH1 0x20 DUP6 SWAP1 SHR SWAP2 PUSH2 0x18F2 DUP8 DUP8 PUSH2 0x29C8 JUMP JUMPDEST SWAP4 POP PUSH1 0xD DUP5 DUP2 SLOAD DUP2 LT PUSH2 0x1907 JUMPI PUSH2 0x1907 PUSH2 0x4597 JUMP JUMPDEST SWAP1 PUSH1 0x0 MSTORE PUSH1 0x20 PUSH1 0x0 KECCAK256 ADD SLOAD DUP9 DUP7 PUSH4 0xFFFFFFFF AND DUP2 MLOAD DUP2 LT PUSH2 0x192A JUMPI PUSH2 0x192A PUSH2 0x4597 JUMP JUMPDEST PUSH1 0x20 MUL PUSH1 0x20 ADD ADD DUP2 DUP2 MSTORE POP POP DUP3 PUSH1 0x0 SUB PUSH2 0x194D JUMPI PUSH2 0x1947 DUP11 PUSH2 0x2D40 JUMP JUMPDEST SWAP10 POP DUP10 SWAP3 POP JUMPDEST PUSH4 0xFFFFFFFF DUP1 AND PUSH1 0xB DUP6 DUP2 SLOAD DUP2 LT PUSH2 0x1967 JUMPI PUSH2 0x1967 PUSH2 0x4597 JUMP JUMPDEST PUSH1 0x0 SWAP2 DUP3 MSTORE PUSH1 0x20 SWAP1 SWAP2 KECCAK256 PUSH1 0x8 DUP3 DIV ADD SLOAD PUSH1 0x7 SWAP1 SWAP2 AND PUSH1 0x4 MUL PUSH2 0x100 EXP SWAP1 DIV PUSH4 0xFFFFFFFF AND LT ISZERO PUSH2 0x1A3D JUMPI PUSH1 0xC DUP5 DUP2 SLOAD DUP2 LT PUSH2 0x19A4 JUMPI PUSH2 0x19A4 PUSH2 0x4597 JUMP JUMPDEST SWAP1 PUSH1 0x0 MSTORE PUSH1 0x20 PUSH1 0x0 KECCAK256 SWAP1 PUSH1 0x8 SWAP2 DUP3 DUP3 DIV ADD SWAP2 SWAP1 MOD PUSH1 0x4 MUL DUP2 DUP2 SWAP1 SLOAD SWAP1 PUSH2 0x100 EXP SWAP1 DIV PUSH4 0xFFFFFFFF AND DUP1 SWAP3 SWAP2 SWAP1 PUSH2 0x19D9 SWAP1 PUSH2 0x4664 JUMP JUMPDEST SWAP2 SWAP1 PUSH2 0x100 EXP DUP2 SLOAD DUP2 PUSH4 0xFFFFFFFF MUL NOT AND SWAP1 DUP4 PUSH4 0xFFFFFFFF AND MUL OR SWAP1 SSTORE POP POP PUSH1 0xC DUP5 DUP2 SLOAD DUP2 LT PUSH2 0x1A0B JUMPI PUSH2 0x1A0B PUSH2 0x4597 JUMP JUMPDEST PUSH1 0x0 SWAP2 DUP3 MSTORE PUSH1 0x20 DUP3 KECCAK256 PUSH1 0x8 DUP3 DIV ADD SLOAD PUSH1 0x7 SWAP1 SWAP2 AND PUSH1 0x4 MUL PUSH2 0x100 EXP SWAP1 DIV PUSH4 0xFFFFFFFF AND SWAP1 SUB PUSH2 0x1A3D JUMPI PUSH2 0x1A3D DUP5 PUSH2 0x2D73 JUMP JUMPDEST DUP5 PUSH2 0x1A47 DUP2 PUSH2 0x45F1 JUMP JUMPDEST SWAP6 POP POP DUP1 DUP1 PUSH2 0x1A55 SWAP1 PUSH2 0x4638 JUMP JUMPDEST SWAP2 POP POP PUSH2 0x1887 JUMP JUMPDEST POP DUP1 PUSH2 0x1A68 DUP2 PUSH2 0x4638 JUMP JUMPDEST SWAP2 POP POP PUSH2 0x187B JUMP JUMPDEST POP DUP7 PUSH1 0x1 SUB PUSH2 0x1B26 JUMPI PUSH1 0x1 SLOAD DUP7 MLOAD PUSH1 0x1 PUSH1 0x1 PUSH1 0xA0 SHL SUB SWAP1 SWAP2 AND SWAP1 PUSH4 0x731133E9 SWAP1 DUP14 SWAP1 DUP10 SWAP1 PUSH1 0x0 SWAP1 PUSH2 0x1AA3 JUMPI PUSH2 0x1AA3 PUSH2 0x4597 JUMP JUMPDEST PUSH1 0x20 SWAP1 DUP2 MUL SWAP2 SWAP1 SWAP2 ADD ADD MLOAD PUSH1 0x40 MLOAD PUSH1 0x1 PUSH1 0x1 PUSH1 0xE0 SHL SUB NOT PUSH1 0xE0 DUP6 SWAP1 SHL AND DUP2 MSTORE PUSH1 0x1 PUSH1 0x1 PUSH1 0xA0 SHL SUB SWAP1 SWAP3 AND PUSH1 0x4 DUP4 ADD MSTORE PUSH1 0x24 DUP3 ADD MSTORE PUSH1 0x1 PUSH1 0x44 DUP3 ADD MSTORE PUSH1 0x80 PUSH1 0x64 DUP3 ADD MSTORE PUSH1 0x0 PUSH1 0x84 DUP3 ADD MSTORE PUSH1 0xA4 ADD PUSH1 0x0 PUSH1 0x40 MLOAD DUP1 DUP4 SUB DUP2 PUSH1 0x0 DUP8 DUP1 EXTCODESIZE ISZERO DUP1 ISZERO PUSH2 0x1B09 JUMPI PUSH1 0x0 DUP1 REVERT JUMPDEST POP GAS CALL ISZERO DUP1 ISZERO PUSH2 0x1B1D JUMPI RETURNDATASIZE PUSH1 0x0 DUP1 RETURNDATACOPY RETURNDATASIZE PUSH1 0x0 REVERT JUMPDEST POP POP POP POP PUSH2 0x1BC2 JUMP JUMPDEST PUSH1 0x0 PUSH2 0x1B31 DUP8 PUSH2 0x2FA4 JUMP JUMPDEST SWAP1 POP PUSH1 0x60 DUP1 PUSH2 0x1B3F DUP4 PUSH2 0x2FD0 JUMP JUMPDEST DUP1 SWAP3 POP DUP2 SWAP4 POP POP POP PUSH1 0x1 PUSH1 0x0 SWAP1 SLOAD SWAP1 PUSH2 0x100 EXP SWAP1 DIV PUSH1 0x1 PUSH1 0x1 PUSH1 0xA0 SHL SUB AND PUSH1 0x1 PUSH1 0x1 PUSH1 0xA0 SHL SUB AND PUSH4 0x1F7FDFFA DUP16 DUP5 DUP5 PUSH1 0x40 MLOAD DUP5 PUSH4 0xFFFFFFFF AND PUSH1 0xE0 SHL DUP2 MSTORE PUSH1 0x4 ADD PUSH2 0x1B8C SWAP4 SWAP3 SWAP2 SWAP1 PUSH2 0x4684 JUMP JUMPDEST PUSH1 0x0 PUSH1 0x40 MLOAD DUP1 DUP4 SUB DUP2 PUSH1 0x0 DUP8 DUP1 EXTCODESIZE ISZERO DUP1 ISZERO PUSH2 0x1BA6 JUMPI PUSH1 0x0 DUP1 REVERT JUMPDEST POP GAS CALL ISZERO DUP1 ISZERO PUSH2 0x1BBA JUMPI RETURNDATASIZE PUSH1 0x0 DUP1 RETURNDATACOPY RETURNDATASIZE PUSH1 0x0 REVERT JUMPDEST POP POP POP POP POP POP POP JUMPDEST PUSH1 0x8 DUP1 SLOAD SWAP1 PUSH1 0x0 PUSH2 0x1BD2 DUP4 PUSH2 0x4638 JUMP JUMPDEST SWAP1 SWAP2 SSTORE POP POP DUP12 SLOAD PUSH3 0xFF0000 NOT AND PUSH3 0x10000 OR DUP13 SSTORE PUSH1 0x40 MLOAD PUSH1 0x1 PUSH1 0x1 PUSH1 0xA0 SHL SUB DUP13 AND SWAP1 DUP15 SWAP1 PUSH32 0x1D961EB7779CDF87F83B3C5CA1E5A7B0B7832F5FC1F9B813FEA6787DAF0E884C SWAP1 PUSH1 0x0 SWAP1 LOG3 POP SWAP4 SWAP12 POP POP POP POP POP POP POP POP POP POP POP POP SWAP1 JUMP JUMPDEST PUSH1 0x0 DUP1 PUSH1 0x0 DUP1 PUSH1 0x0 JUMPDEST PUSH1 0xD SLOAD DUP2 LT ISZERO PUSH2 0x1CFA JUMPI DUP6 PUSH1 0xD DUP3 DUP2 SLOAD DUP2 LT PUSH2 0x1C55 JUMPI PUSH2 0x1C55 PUSH2 0x4597 JUMP JUMPDEST SWAP1 PUSH1 0x0 MSTORE PUSH1 0x20 PUSH1 0x0 KECCAK256 ADD SLOAD SUB PUSH2 0x1CE8 JUMPI PUSH1 0x1 DUP2 PUSH1 0xB DUP4 DUP2 SLOAD DUP2 LT PUSH2 0x1C7B JUMPI PUSH2 0x1C7B PUSH2 0x4597 JUMP JUMPDEST SWAP1 PUSH1 0x0 MSTORE PUSH1 0x20 PUSH1 0x0 KECCAK256 SWAP1 PUSH1 0x8 SWAP2 DUP3 DUP3 DIV ADD SWAP2 SWAP1 MOD PUSH1 0x4 MUL SWAP1 SLOAD SWAP1 PUSH2 0x100 EXP SWAP1 DIV PUSH4 0xFFFFFFFF AND PUSH1 0xC DUP5 DUP2 SLOAD DUP2 LT PUSH2 0x1CB4 JUMPI PUSH2 0x1CB4 PUSH2 0x4597 JUMP JUMPDEST SWAP1 PUSH1 0x0 MSTORE PUSH1 0x20 PUSH1 0x0 KECCAK256 SWAP1 PUSH1 0x8 SWAP2 DUP3 DUP3 DIV ADD SWAP2 SWAP1 MOD PUSH1 0x4 MUL SWAP1 SLOAD SWAP1 PUSH2 0x100 EXP SWAP1 DIV PUSH4 0xFFFFFFFF AND SWAP5 POP SWAP5 POP SWAP5 POP SWAP5 POP POP PUSH2 0x1D0A JUMP JUMPDEST DUP1 PUSH2 0x1CF2 DUP2 PUSH2 0x4638 JUMP JUMPDEST SWAP2 POP POP PUSH2 0x1C37 JUMP JUMPDEST POP PUSH1 0x0 DUP1 PUSH1 0x0 DUP1 SWAP4 POP SWAP4 POP SWAP4 POP SWAP4 POP JUMPDEST SWAP2 SWAP4 POP SWAP2 SWAP4 JUMP JUMPDEST PUSH2 0x1D1C PUSH1 0x0 CALLER PUSH2 0x1D5A JUMP JUMPDEST PUSH2 0x1D38 JUMPI PUSH1 0x40 MLOAD PUSH3 0x461BCD PUSH1 0xE5 SHL DUP2 MSTORE PUSH1 0x4 ADD PUSH2 0xB52 SWAP1 PUSH2 0x45AD JUMP JUMPDEST PUSH1 0x1 DUP1 SLOAD PUSH1 0x1 PUSH1 0x1 PUSH1 0xA0 SHL SUB NOT AND PUSH1 0x1 PUSH1 0x1 PUSH1 0xA0 SHL SUB SWAP3 SWAP1 SWAP3 AND SWAP2 SWAP1 SWAP2 OR SWAP1 SSTORE JUMP JUMPDEST PUSH1 0x0 SWAP2 DUP3 MSTORE PUSH1 0x20 DUP3 DUP2 MSTORE PUSH1 0x40 DUP1 DUP5 KECCAK256 PUSH1 0x1 PUSH1 0x1 PUSH1 0xA0 SHL SUB SWAP4 SWAP1 SWAP4 AND DUP5 MSTORE SWAP2 SWAP1 MSTORE SWAP1 KECCAK256 SLOAD PUSH1 0xFF AND SWAP1 JUMP JUMPDEST PUSH4 0xFFFFFFFF DUP2 AND PUSH1 0x0 SWAP1 DUP2 MSTORE PUSH1 0x5 PUSH1 0x20 SWAP1 DUP2 MSTORE PUSH1 0x40 DUP1 DUP4 KECCAK256 DUP2 MLOAD PUSH1 0x80 DUP2 ADD DUP4 MSTORE DUP2 SLOAD PUSH1 0xFF AND ISZERO ISZERO DUP2 MSTORE PUSH1 0x1 DUP3 ADD DUP1 SLOAD DUP5 MLOAD DUP2 DUP8 MUL DUP2 ADD DUP8 ADD SWAP1 SWAP6 MSTORE DUP1 DUP6 MSTORE PUSH1 0x60 SWAP7 DUP8 SWAP7 DUP8 SWAP7 SWAP2 SWAP6 SWAP4 DUP6 DUP3 ADD SWAP4 SWAP1 SWAP2 DUP4 ADD DUP3 DUP3 DUP1 ISZERO PUSH2 0x1E2C JUMPI PUSH1 0x20 MUL DUP3 ADD SWAP2 SWAP1 PUSH1 0x0 MSTORE PUSH1 0x20 PUSH1 0x0 KECCAK256 SWAP1 PUSH1 0x0 SWAP1 JUMPDEST DUP3 DUP3 SWAP1 SLOAD SWAP1 PUSH2 0x100 EXP SWAP1 DIV PUSH4 0xFFFFFFFF AND PUSH4 0xFFFFFFFF AND DUP2 MSTORE PUSH1 0x20 ADD SWAP1 PUSH1 0x4 ADD SWAP1 PUSH1 0x20 DUP3 PUSH1 0x3 ADD DIV SWAP3 DUP4 ADD SWAP3 PUSH1 0x1 SUB DUP3 MUL SWAP2 POP DUP1 DUP5 GT PUSH2 0x1DEF JUMPI SWAP1 POP JUMPDEST POP POP POP POP POP DUP2 MSTORE PUSH1 0x20 ADD PUSH1 0x2 DUP3 ADD DUP1 SLOAD DUP1 PUSH1 0x20 MUL PUSH1 0x20 ADD PUSH1 0x40 MLOAD SWAP1 DUP2 ADD PUSH1 0x40 MSTORE DUP1 SWAP3 SWAP2 SWAP1 DUP2 DUP2 MSTORE PUSH1 0x20 ADD DUP3 DUP1 SLOAD DUP1 ISZERO PUSH2 0x1EB0 JUMPI PUSH1 0x20 MUL DUP3 ADD SWAP2 SWAP1 PUSH1 0x0 MSTORE PUSH1 0x20 PUSH1 0x0 KECCAK256 SWAP1 PUSH1 0x0 SWAP1 JUMPDEST DUP3 DUP3 SWAP1 SLOAD SWAP1 PUSH2 0x100 EXP SWAP1 DIV PUSH4 0xFFFFFFFF AND PUSH4 0xFFFFFFFF AND DUP2 MSTORE PUSH1 0x20 ADD SWAP1 PUSH1 0x4 ADD SWAP1 PUSH1 0x20 DUP3 PUSH1 0x3 ADD DIV SWAP3 DUP4 ADD SWAP3 PUSH1 0x1 SUB DUP3 MUL SWAP2 POP DUP1 DUP5 GT PUSH2 0x1E73 JUMPI SWAP1 POP JUMPDEST POP POP POP POP POP DUP2 MSTORE PUSH1 0x20 ADD PUSH1 0x3 DUP3 ADD DUP1 SLOAD DUP1 PUSH1 0x20 MUL PUSH1 0x20 ADD PUSH1 0x40 MLOAD SWAP1 DUP2 ADD PUSH1 0x40 MSTORE DUP1 SWAP3 SWAP2 SWAP1 DUP2 DUP2 MSTORE PUSH1 0x20 ADD DUP3 DUP1 SLOAD DUP1 ISZERO PUSH2 0x1F34 JUMPI PUSH1 0x20 MUL DUP3 ADD SWAP2 SWAP1 PUSH1 0x0 MSTORE PUSH1 0x20 PUSH1 0x0 KECCAK256 SWAP1 PUSH1 0x0 SWAP1 JUMPDEST DUP3 DUP3 SWAP1 SLOAD SWAP1 PUSH2 0x100 EXP SWAP1 DIV PUSH4 0xFFFFFFFF AND PUSH4 0xFFFFFFFF AND DUP2 MSTORE PUSH1 0x20 ADD SWAP1 PUSH1 0x4 ADD SWAP1 PUSH1 0x20 DUP3 PUSH1 0x3 ADD DIV SWAP3 DUP4 ADD SWAP3 PUSH1 0x1 SUB DUP3 MUL SWAP2 POP DUP1 DUP5 GT PUSH2 0x1EF7 JUMPI SWAP1 POP JUMPDEST POP POP POP SWAP2 SWAP1 SWAP3 MSTORE POP POP POP PUSH1 0x20 DUP2 ADD MLOAD PUSH1 0x40 DUP3 ADD MLOAD PUSH1 0x60 SWAP1 SWAP3 ADD MLOAD SWAP1 SWAP8 SWAP2 SWAP7 POP SWAP5 POP SWAP3 POP POP POP JUMP JUMPDEST PUSH1 0x60 PUSH1 0xA DUP1 SLOAD DUP1 PUSH1 0x20 MUL PUSH1 0x20 ADD PUSH1 0x40 MLOAD SWAP1 DUP2 ADD PUSH1 0x40 MSTORE DUP1 SWAP3 SWAP2 SWAP1 DUP2 DUP2 MSTORE PUSH1 0x20 ADD DUP3 DUP1 SLOAD DUP1 ISZERO PUSH2 0xC7D JUMPI PUSH1 0x0 SWAP2 DUP3 MSTORE PUSH1 0x20 SWAP2 DUP3 SWAP1 KECCAK256 DUP1 SLOAD PUSH4 0xFFFFFFFF AND DUP5 MSTORE SWAP1 DUP3 MUL DUP4 ADD SWAP3 SWAP1 SWAP2 PUSH1 0x4 SWAP2 ADD DUP1 DUP5 GT PUSH2 0xC40 JUMPI SWAP1 POP POP POP POP POP POP SWAP1 POP SWAP1 JUMP JUMPDEST PUSH2 0x1FC3 PUSH1 0x0 CALLER PUSH2 0x1D5A JUMP JUMPDEST PUSH2 0x1FDF JUMPI PUSH1 0x40 MLOAD PUSH3 0x461BCD PUSH1 0xE5 SHL DUP2 MSTORE PUSH1 0x4 ADD PUSH2 0xB52 SWAP1 PUSH2 0x45AD JUMP JUMPDEST PUSH1 0x7 SLOAD PUSH4 0xFFFFFFFF AND PUSH1 0x0 DUP2 DUP2 MSTORE PUSH1 0x4 PUSH1 0x20 MSTORE PUSH1 0x40 SWAP1 KECCAK256 PUSH1 0xD SLOAD DUP4 MLOAD EQ PUSH2 0x2019 JUMPI PUSH1 0x40 MLOAD PUSH4 0x19851323 PUSH1 0xE3 SHL DUP2 MSTORE PUSH1 0x4 ADD PUSH1 0x40 MLOAD DUP1 SWAP2 SUB SWAP1 REVERT JUMPDEST PUSH2 0x2022 DUP4 PUSH2 0x31E2 JUMP JUMPDEST DUP1 MLOAD PUSH1 0x2 DUP4 ADD SWAP1 DUP2 SSTORE PUSH1 0x20 DUP1 DUP4 ADD MLOAD DUP1 MLOAD PUSH2 0x2043 SWAP3 PUSH1 0x3 DUP8 ADD SWAP3 ADD SWAP1 PUSH2 0x3F43 JUMP JUMPDEST POP SWAP1 POP POP PUSH2 0x2051 DUP4 MLOAD PUSH2 0x3466 JUMP JUMPDEST DUP2 SLOAD PUSH1 0xFF SWAP2 SWAP1 SWAP2 AND PUSH2 0x100 MUL PUSH2 0xFF00 NOT SWAP1 SWAP2 AND OR DUP2 SSTORE DUP3 MLOAD PUSH2 0x207C SWAP1 PUSH1 0x1 DUP4 ADD SWAP1 PUSH1 0x20 DUP7 ADD SWAP1 PUSH2 0x3E98 JUMP JUMPDEST POP DUP1 SLOAD PUSH1 0x1 PUSH1 0xFF NOT SWAP1 SWAP2 AND DUP2 OR DUP3 SSTORE PUSH1 0x9 DUP1 SLOAD SWAP2 DUP3 ADD DUP2 SSTORE PUSH1 0x0 SWAP1 DUP2 MSTORE PUSH32 0x6E1540171B6C0C960B71A7020D9F60077F6AF931A8BBF590DA0223DACF75C7AF PUSH1 0x8 DUP4 DIV ADD DUP1 SLOAD PUSH1 0x7 SWAP4 DUP5 AND PUSH1 0x4 MUL PUSH2 0x100 EXP PUSH4 0xFFFFFFFF DUP2 DUP2 MUL NOT SWAP1 SWAP3 AND DUP8 DUP4 AND SWAP2 SWAP1 SWAP2 MUL OR SWAP1 SWAP2 SSTORE DUP3 SLOAD AND SWAP2 SWAP1 PUSH2 0x20F2 DUP4 PUSH2 0x45F1 JUMP JUMPDEST SWAP2 SWAP1 PUSH2 0x100 EXP DUP2 SLOAD DUP2 PUSH4 0xFFFFFFFF MUL NOT AND SWAP1 DUP4 PUSH4 0xFFFFFFFF AND MUL OR SWAP1 SSTORE POP POP PUSH32 0xCCFA93FC6DEE2F7A59E08BD1A7BCE043EDEC08BA7A9DAA51AA4BE9C95294ACD6 DUP3 PUSH1 0x40 MLOAD PUSH2 0x214C SWAP2 SWAP1 PUSH4 0xFFFFFFFF SWAP2 SWAP1 SWAP2 AND DUP2 MSTORE PUSH1 0x20 ADD SWAP1 JUMP JUMPDEST PUSH1 0x40 MLOAD DUP1 SWAP2 SUB SWAP1 LOG1 POP POP POP JUMP JUMPDEST PUSH1 0x8 SLOAD PUSH1 0xE SLOAD PUSH1 0x0 SWAP2 PUSH2 0x216B SWAP2 PUSH2 0x46D6 JUMP JUMPDEST SWAP1 POP SWAP1 JUMP JUMPDEST PUSH1 0x0 DUP3 DUP2 MSTORE PUSH1 0x20 DUP2 SWAP1 MSTORE PUSH1 0x40 SWAP1 KECCAK256 PUSH1 0x1 ADD SLOAD PUSH2 0x218B DUP2 PUSH2 0x2589 JUMP JUMPDEST PUSH2 0xCBC DUP4 DUP4 PUSH2 0x2628 JUMP JUMPDEST PUSH1 0x60 PUSH1 0xD DUP1 SLOAD DUP1 PUSH1 0x20 MUL PUSH1 0x20 ADD PUSH1 0x40 MLOAD SWAP1 DUP2 ADD PUSH1 0x40 MSTORE DUP1 SWAP3 SWAP2 SWAP1 DUP2 DUP2 MSTORE PUSH1 0x20 ADD DUP3 DUP1 SLOAD DUP1 ISZERO PUSH2 0xC7D JUMPI PUSH1 0x20 MUL DUP3 ADD SWAP2 SWAP1 PUSH1 0x0 MSTORE PUSH1 0x20 PUSH1 0x0 KECCAK256 SWAP1 DUP2 SLOAD DUP2 MSTORE PUSH1 0x20 ADD SWAP1 PUSH1 0x1 ADD SWAP1 DUP1 DUP4 GT PUSH2 0xE3D JUMPI POP POP POP POP POP SWAP1 POP SWAP1 JUMP JUMPDEST PUSH1 0x4 PUSH1 0x20 SWAP1 DUP2 MSTORE PUSH1 0x0 SWAP2 DUP3 MSTORE PUSH1 0x40 SWAP2 DUP3 SWAP1 KECCAK256 DUP1 SLOAD DUP4 MLOAD DUP1 DUP6 ADD DUP6 MSTORE PUSH1 0x2 DUP4 ADD DUP1 SLOAD DUP3 MSTORE PUSH1 0x3 DUP5 ADD DUP1 SLOAD DUP8 MLOAD DUP2 DUP9 MUL DUP2 ADD DUP9 ADD SWAP1 SWAP9 MSTORE DUP1 DUP9 MSTORE PUSH1 0xFF DUP1 DUP7 AND SWAP9 PUSH2 0x100 SWAP1 SWAP7 DIV AND SWAP7 SWAP4 SWAP5 SWAP3 SWAP4 DUP6 DUP2 ADD SWAP4 SWAP3 SWAP2 SWAP1 DUP4 ADD DUP3 DUP3 DUP1 ISZERO PUSH2 0x226B JUMPI PUSH1 0x20 MUL DUP3 ADD SWAP2 SWAP1 PUSH1 0x0 MSTORE PUSH1 0x20 PUSH1 0x0 KECCAK256 SWAP1 JUMPDEST DUP2 SLOAD DUP2 MSTORE PUSH1 0x20 ADD SWAP1 PUSH1 0x1 ADD SWAP1 DUP1 DUP4 GT PUSH2 0x2257 JUMPI JUMPDEST POP POP POP POP POP DUP2 MSTORE POP POP SWAP1 POP DUP4 JUMP JUMPDEST PUSH2 0x22A3 PUSH32 0x43F25613EB2F15FB17222A5D424CA2655743E71265D98E4B93C05E5FB589ECDE CALLER PUSH2 0x1D5A JUMP JUMPDEST PUSH2 0x22E8 JUMPI PUSH1 0x40 MLOAD PUSH3 0x461BCD PUSH1 0xE5 SHL DUP2 MSTORE PUSH1 0x20 PUSH1 0x4 DUP3 ADD MSTORE PUSH1 0x16 PUSH1 0x24 DUP3 ADD MSTORE PUSH22 0x2932B9BA3934B1BA32B2103A379039B2B63632B93997 PUSH1 0x51 SHL PUSH1 0x44 DUP3 ADD MSTORE PUSH1 0x64 ADD PUSH2 0xB52 JUMP JUMPDEST DUP1 MLOAD DUP3 MLOAD EQ PUSH2 0x230A JUMPI PUSH1 0x40 MLOAD PUSH4 0x19851323 PUSH1 0xE3 SHL DUP2 MSTORE PUSH1 0x4 ADD PUSH1 0x40 MLOAD DUP1 SWAP2 SUB SWAP1 REVERT JUMPDEST PUSH1 0x0 JUMPDEST DUP3 MLOAD DUP2 LT ISZERO PUSH2 0xCBC JUMPI DUP2 DUP2 DUP2 MLOAD DUP2 LT PUSH2 0x2328 JUMPI PUSH2 0x2328 PUSH2 0x4597 JUMP JUMPDEST PUSH1 0x20 MUL PUSH1 0x20 ADD ADD MLOAD PUSH1 0x3 PUSH1 0x0 DUP7 PUSH1 0x1 PUSH1 0x1 PUSH1 0xA0 SHL SUB AND PUSH1 0x1 PUSH1 0x1 PUSH1 0xA0 SHL SUB AND DUP2 MSTORE PUSH1 0x20 ADD SWAP1 DUP2 MSTORE PUSH1 0x20 ADD PUSH1 0x0 KECCAK256 PUSH1 0x0 DUP6 DUP5 DUP2 MLOAD DUP2 LT PUSH2 0x2369 JUMPI PUSH2 0x2369 PUSH2 0x4597 JUMP JUMPDEST PUSH1 0x20 MUL PUSH1 0x20 ADD ADD MLOAD PUSH4 0xFFFFFFFF AND PUSH4 0xFFFFFFFF AND DUP2 MSTORE PUSH1 0x20 ADD SWAP1 DUP2 MSTORE PUSH1 0x20 ADD PUSH1 0x0 KECCAK256 PUSH1 0x0 PUSH2 0x100 EXP DUP2 SLOAD DUP2 PUSH4 0xFFFFFFFF MUL NOT AND SWAP1 DUP4 PUSH4 0xFFFFFFFF AND MUL OR SWAP1 SSTORE POP DUP1 DUP1 PUSH2 0x23B4 SWAP1 PUSH2 0x4638 JUMP JUMPDEST SWAP2 POP POP PUSH2 0x230D JUMP JUMPDEST PUSH1 0x60 PUSH1 0xC DUP1 SLOAD DUP1 PUSH1 0x20 MUL PUSH1 0x20 ADD PUSH1 0x40 MLOAD SWAP1 DUP2 ADD PUSH1 0x40 MSTORE DUP1 SWAP3 SWAP2 SWAP1 DUP2 DUP2 MSTORE PUSH1 0x20 ADD DUP3 DUP1 SLOAD DUP1 ISZERO PUSH2 0xC7D JUMPI PUSH1 0x0 SWAP2 DUP3 MSTORE PUSH1 0x20 SWAP2 DUP3 SWAP1 KECCAK256 DUP1 SLOAD PUSH4 0xFFFFFFFF AND DUP5 MSTORE SWAP1 DUP3 MUL DUP4 ADD SWAP3 SWAP1 SWAP2 PUSH1 0x4 SWAP2 ADD DUP1 DUP5 GT PUSH2 0xC40 JUMPI SWAP1 POP POP POP POP POP POP SWAP1 POP SWAP1 JUMP JUMPDEST PUSH1 0x60 PUSH2 0x2438 PUSH1 0x40 MLOAD DUP1 PUSH1 0x40 ADD PUSH1 0x40 MSTORE DUP1 PUSH1 0x0 DUP2 MSTORE PUSH1 0x20 ADD PUSH1 0x60 DUP2 MSTORE POP SWAP1 JUMP JUMPDEST PUSH4 0xFFFFFFFF DUP4 AND PUSH1 0x0 SWAP1 DUP2 MSTORE PUSH1 0x4 PUSH1 0x20 SWAP1 DUP2 MSTORE PUSH1 0x40 DUP1 DUP4 KECCAK256 DUP2 MLOAD PUSH1 0x80 DUP2 ADD DUP4 MSTORE DUP2 SLOAD PUSH1 0xFF DUP1 DUP3 AND ISZERO ISZERO DUP4 MSTORE PUSH2 0x100 SWAP1 SWAP2 DIV AND DUP2 DUP6 ADD MSTORE PUSH1 0x1 DUP3 ADD DUP1 SLOAD DUP5 MLOAD DUP2 DUP8 MUL DUP2 ADD DUP8 ADD DUP7 MSTORE DUP2 DUP2 MSTORE SWAP3 SWAP6 SWAP4 SWAP5 DUP7 ADD SWAP4 DUP4 ADD DUP3 DUP3 DUP1 ISZERO PUSH2 0x24E4 JUMPI PUSH1 0x20 MUL DUP3 ADD SWAP2 SWAP1 PUSH1 0x0 MSTORE PUSH1 0x20 PUSH1 0x0 KECCAK256 SWAP1 PUSH1 0x0 SWAP1 JUMPDEST DUP3 DUP3 SWAP1 SLOAD SWAP1 PUSH2 0x100 EXP SWAP1 DIV PUSH4 0xFFFFFFFF AND PUSH4 0xFFFFFFFF AND DUP2 MSTORE PUSH1 0x20 ADD SWAP1 PUSH1 0x4 ADD SWAP1 PUSH1 0x20 DUP3 PUSH1 0x3 ADD DIV SWAP3 DUP4 ADD SWAP3 PUSH1 0x1 SUB DUP3 MUL SWAP2 POP DUP1 DUP5 GT PUSH2 0x24A7 JUMPI SWAP1 POP JUMPDEST POP POP POP POP POP DUP2 MSTORE PUSH1 0x20 ADD PUSH1 0x2 DUP3 ADD PUSH1 0x40 MLOAD DUP1 PUSH1 0x40 ADD PUSH1 0x40 MSTORE SWAP1 DUP2 PUSH1 0x0 DUP3 ADD SLOAD DUP2 MSTORE PUSH1 0x20 ADD PUSH1 0x1 DUP3 ADD DUP1 SLOAD DUP1 PUSH1 0x20 MUL PUSH1 0x20 ADD PUSH1 0x40 MLOAD SWAP1 DUP2 ADD PUSH1 0x40 MSTORE DUP1 SWAP3 SWAP2 SWAP1 DUP2 DUP2 MSTORE PUSH1 0x20 ADD DUP3 DUP1 SLOAD DUP1 ISZERO PUSH2 0x2556 JUMPI PUSH1 0x20 MUL DUP3 ADD SWAP2 SWAP1 PUSH1 0x0 MSTORE PUSH1 0x20 PUSH1 0x0 KECCAK256 SWAP1 JUMPDEST DUP2 SLOAD DUP2 MSTORE PUSH1 0x20 ADD SWAP1 PUSH1 0x1 ADD SWAP1 DUP1 DUP4 GT PUSH2 0x2542 JUMPI JUMPDEST POP POP POP POP POP DUP2 MSTORE POP POP DUP2 MSTORE POP POP SWAP1 POP DUP1 PUSH1 0x40 ADD MLOAD DUP2 PUSH1 0x60 ADD MLOAD SWAP3 POP SWAP3 POP POP SWAP2 POP SWAP2 JUMP JUMPDEST PUSH1 0xD DUP2 DUP2 SLOAD DUP2 LT PUSH2 0x1071 JUMPI PUSH1 0x0 DUP1 REVERT JUMPDEST PUSH2 0x2593 DUP2 CALLER PUSH2 0x3492 JUMP JUMPDEST POP JUMP JUMPDEST PUSH1 0x0 PUSH2 0x25A2 DUP4 DUP4 PUSH2 0x1D5A JUMP JUMPDEST PUSH2 0x2620 JUMPI PUSH1 0x0 DUP4 DUP2 MSTORE PUSH1 0x20 DUP2 DUP2 MSTORE PUSH1 0x40 DUP1 DUP4 KECCAK256 PUSH1 0x1 PUSH1 0x1 PUSH1 0xA0 SHL SUB DUP7 AND DUP5 MSTORE SWAP1 SWAP2 MSTORE SWAP1 KECCAK256 DUP1 SLOAD PUSH1 0xFF NOT AND PUSH1 0x1 OR SWAP1 SSTORE PUSH2 0x25D8 CALLER SWAP1 JUMP JUMPDEST PUSH1 0x1 PUSH1 0x1 PUSH1 0xA0 SHL SUB AND DUP3 PUSH1 0x1 PUSH1 0x1 PUSH1 0xA0 SHL SUB AND DUP5 PUSH32 0x2F8788117E7EFF1D82E926EC794901D17C78024A50270940304540A733656F0D PUSH1 0x40 MLOAD PUSH1 0x40 MLOAD DUP1 SWAP2 SUB SWAP1 LOG4 POP PUSH1 0x1 PUSH2 0x84C JUMP JUMPDEST POP PUSH1 0x0 PUSH2 0x84C JUMP JUMPDEST PUSH1 0x0 PUSH2 0x2634 DUP4 DUP4 PUSH2 0x1D5A JUMP JUMPDEST ISZERO PUSH2 0x2620 JUMPI PUSH1 0x0 DUP4 DUP2 MSTORE PUSH1 0x20 DUP2 DUP2 MSTORE PUSH1 0x40 DUP1 DUP4 KECCAK256 PUSH1 0x1 PUSH1 0x1 PUSH1 0xA0 SHL SUB DUP7 AND DUP1 DUP6 MSTORE SWAP3 MSTORE DUP1 DUP4 KECCAK256 DUP1 SLOAD PUSH1 0xFF NOT AND SWAP1 SSTORE MLOAD CALLER SWAP3 DUP7 SWAP2 PUSH32 0xF6391F5C32D9C69D2A47EA670B442974B53935D1EDC7FD64EB21E047A839171B SWAP2 SWAP1 LOG4 POP PUSH1 0x1 PUSH2 0x84C JUMP JUMPDEST PUSH1 0x60 PUSH1 0x0 DUP3 MLOAD PUSH1 0x1 PUSH1 0x1 PUSH1 0x40 SHL SUB DUP2 GT ISZERO PUSH2 0x26B0 JUMPI PUSH2 0x26B0 PUSH2 0x40F1 JUMP JUMPDEST PUSH1 0x40 MLOAD SWAP1 DUP1 DUP3 MSTORE DUP1 PUSH1 0x20 MUL PUSH1 0x20 ADD DUP3 ADD PUSH1 0x40 MSTORE DUP1 ISZERO PUSH2 0x26D9 JUMPI DUP2 PUSH1 0x20 ADD PUSH1 0x20 DUP3 MUL DUP1 CALLDATASIZE DUP4 CALLDATACOPY ADD SWAP1 POP JUMPDEST POP SWAP2 POP PUSH1 0x0 JUMPDEST DUP4 MLOAD DUP2 LT ISZERO PUSH2 0x2749 JUMPI DUP4 DUP2 DUP2 MLOAD DUP2 LT PUSH2 0x26FA JUMPI PUSH2 0x26FA PUSH2 0x4597 JUMP JUMPDEST PUSH1 0x20 MUL PUSH1 0x20 ADD ADD MLOAD DUP3 PUSH2 0x270D SWAP2 SWAP1 PUSH2 0x46E9 JUMP JUMPDEST SWAP2 POP DUP2 DUP4 DUP3 DUP2 MLOAD DUP2 LT PUSH2 0x2722 JUMPI PUSH2 0x2722 PUSH2 0x4597 JUMP JUMPDEST PUSH4 0xFFFFFFFF SWAP1 SWAP3 AND PUSH1 0x20 SWAP3 DUP4 MUL SWAP2 SWAP1 SWAP2 ADD SWAP1 SWAP2 ADD MSTORE DUP1 PUSH2 0x2741 DUP2 PUSH2 0x4638 JUMP JUMPDEST SWAP2 POP POP PUSH2 0x26DF JUMP JUMPDEST POP POP SWAP2 SWAP1 POP JUMP JUMPDEST PUSH4 0xFFFFFFFF DUP3 AND PUSH1 0x0 SWAP1 DUP2 MSTORE PUSH1 0x5 PUSH1 0x20 SWAP1 DUP2 MSTORE PUSH1 0x40 DUP1 DUP4 KECCAK256 DUP2 MLOAD PUSH1 0x80 DUP2 ADD DUP4 MSTORE DUP2 SLOAD PUSH1 0xFF AND ISZERO ISZERO DUP2 MSTORE PUSH1 0x1 DUP3 ADD DUP1 SLOAD DUP5 MLOAD DUP2 DUP8 MUL DUP2 ADD DUP8 ADD SWAP1 SWAP6 MSTORE DUP1 DUP6 MSTORE DUP7 SWAP6 SWAP3 SWAP5 DUP6 DUP5 ADD SWAP4 SWAP1 SWAP3 SWAP2 SWAP1 DUP4 ADD DUP3 DUP3 DUP1 ISZERO PUSH2 0x27F5 JUMPI PUSH1 0x20 MUL DUP3 ADD SWAP2 SWAP1 PUSH1 0x0 MSTORE PUSH1 0x20 PUSH1 0x0 KECCAK256 SWAP1 PUSH1 0x0 SWAP1 JUMPDEST DUP3 DUP3 SWAP1 SLOAD SWAP1 PUSH2 0x100 EXP SWAP1 DIV PUSH4 0xFFFFFFFF AND PUSH4 0xFFFFFFFF AND DUP2 MSTORE PUSH1 0x20 ADD SWAP1 PUSH1 0x4 ADD SWAP1 PUSH1 0x20 DUP3 PUSH1 0x3 ADD DIV SWAP3 DUP4 ADD SWAP3 PUSH1 0x1 SUB DUP3 MUL SWAP2 POP DUP1 DUP5 GT PUSH2 0x27B8 JUMPI SWAP1 POP JUMPDEST POP POP POP POP POP DUP2 MSTORE PUSH1 0x20 ADD PUSH1 0x2 DUP3 ADD DUP1 SLOAD DUP1 PUSH1 0x20 MUL PUSH1 0x20 ADD PUSH1 0x40 MLOAD SWAP1 DUP2 ADD PUSH1 0x40 MSTORE DUP1 SWAP3 SWAP2 SWAP1 DUP2 DUP2 MSTORE PUSH1 0x20 ADD DUP3 DUP1 SLOAD DUP1 ISZERO PUSH2 0x2879 JUMPI PUSH1 0x20 MUL DUP3 ADD SWAP2 SWAP1 PUSH1 0x0 MSTORE PUSH1 0x20 PUSH1 0x0 KECCAK256 SWAP1 PUSH1 0x0 SWAP1 JUMPDEST DUP3 DUP3 SWAP1 SLOAD SWAP1 PUSH2 0x100 EXP SWAP1 DIV PUSH4 0xFFFFFFFF AND PUSH4 0xFFFFFFFF AND DUP2 MSTORE PUSH1 0x20 ADD SWAP1 PUSH1 0x4 ADD SWAP1 PUSH1 0x20 DUP3 PUSH1 0x3 ADD DIV SWAP3 DUP4 ADD SWAP3 PUSH1 0x1 SUB DUP3 MUL SWAP2 POP DUP1 DUP5 GT PUSH2 0x283C JUMPI SWAP1 POP JUMPDEST POP POP POP POP POP DUP2 MSTORE PUSH1 0x20 ADD PUSH1 0x3 DUP3 ADD DUP1 SLOAD DUP1 PUSH1 0x20 MUL PUSH1 0x20 ADD PUSH1 0x40 MLOAD SWAP1 DUP2 ADD PUSH1 0x40 MSTORE DUP1 SWAP3 SWAP2 SWAP1 DUP2 DUP2 MSTORE PUSH1 0x20 ADD DUP3 DUP1 SLOAD DUP1 ISZERO PUSH2 0x28FD JUMPI PUSH1 0x20 MUL DUP3 ADD SWAP2 SWAP1 PUSH1 0x0 MSTORE PUSH1 0x20 PUSH1 0x0 KECCAK256 SWAP1 PUSH1 0x0 SWAP1 JUMPDEST DUP3 DUP3 SWAP1 SLOAD SWAP1 PUSH2 0x100 EXP SWAP1 DIV PUSH4 0xFFFFFFFF AND PUSH4 0xFFFFFFFF AND DUP2 MSTORE PUSH1 0x20 ADD SWAP1 PUSH1 0x4 ADD SWAP1 PUSH1 0x20 DUP3 PUSH1 0x3 ADD DIV SWAP3 DUP4 ADD SWAP3 PUSH1 0x1 SUB DUP3 MUL SWAP2 POP DUP1 DUP5 GT PUSH2 0x28C0 JUMPI SWAP1 POP JUMPDEST POP POP POP SWAP2 SWAP1 SWAP3 MSTORE POP POP POP PUSH1 0x60 DUP2 ADD MLOAD PUSH1 0x20 DUP3 ADD MLOAD MLOAD SWAP2 SWAP3 POP SWAP1 PUSH1 0x0 DUP3 PUSH2 0x2924 PUSH1 0x1 DUP5 PUSH2 0x46D6 JUMP JUMPDEST DUP2 MLOAD DUP2 LT PUSH2 0x2934 JUMPI PUSH2 0x2934 PUSH2 0x4597 JUMP JUMPDEST PUSH1 0x20 MUL PUSH1 0x20 ADD ADD MLOAD DUP7 PUSH2 0x2947 SWAP2 SWAP1 PUSH2 0x471C JUMP JUMPDEST SWAP1 POP PUSH1 0x0 JUMPDEST DUP3 DUP2 LT ISZERO PUSH2 0x29BD JUMPI DUP5 PUSH1 0x20 ADD MLOAD DUP2 DUP2 MLOAD DUP2 LT PUSH2 0x296A JUMPI PUSH2 0x296A PUSH2 0x4597 JUMP JUMPDEST PUSH1 0x20 MUL PUSH1 0x20 ADD ADD MLOAD SWAP6 POP DUP4 DUP2 DUP2 MLOAD DUP2 LT PUSH2 0x2986 JUMPI PUSH2 0x2986 PUSH2 0x4597 JUMP JUMPDEST PUSH1 0x20 MUL PUSH1 0x20 ADD ADD MLOAD PUSH4 0xFFFFFFFF AND DUP3 PUSH4 0xFFFFFFFF AND LT ISZERO PUSH2 0x29AB JUMPI POP POP POP POP POP PUSH2 0x84C JUMP JUMPDEST DUP1 PUSH2 0x29B5 DUP2 PUSH2 0x4638 JUMP JUMPDEST SWAP2 POP POP PUSH2 0x294C JUMP JUMPDEST POP POP POP POP POP SWAP3 SWAP2 POP POP JUMP JUMPDEST PUSH4 0xFFFFFFFF DUP3 AND PUSH1 0x0 SWAP1 DUP2 MSTORE PUSH1 0x4 PUSH1 0x20 SWAP1 DUP2 MSTORE PUSH1 0x40 DUP1 DUP4 KECCAK256 DUP2 MLOAD PUSH1 0x80 DUP2 ADD DUP4 MSTORE DUP2 SLOAD PUSH1 0xFF DUP1 DUP3 AND ISZERO ISZERO DUP4 MSTORE PUSH2 0x100 SWAP1 SWAP2 DIV AND DUP2 DUP6 ADD MSTORE PUSH1 0x1 DUP3 ADD DUP1 SLOAD DUP5 MLOAD DUP2 DUP8 MUL DUP2 ADD DUP8 ADD DUP7 MSTORE DUP2 DUP2 MSTORE DUP8 SWAP7 SWAP4 SWAP6 DUP7 ADD SWAP4 SWAP1 SWAP3 SWAP2 SWAP1 DUP4 ADD DUP3 DUP3 DUP1 ISZERO PUSH2 0x2A78 JUMPI PUSH1 0x20 MUL DUP3 ADD SWAP2 SWAP1 PUSH1 0x0 MSTORE PUSH1 0x20 PUSH1 0x0 KECCAK256 SWAP1 PUSH1 0x0 SWAP1 JUMPDEST DUP3 DUP3 SWAP1 SLOAD SWAP1 PUSH2 0x100 EXP SWAP1 DIV PUSH4 0xFFFFFFFF AND PUSH4 0xFFFFFFFF AND DUP2 MSTORE PUSH1 0x20 ADD SWAP1 PUSH1 0x4 ADD SWAP1 PUSH1 0x20 DUP3 PUSH1 0x3 ADD DIV SWAP3 DUP4 ADD SWAP3 PUSH1 0x1 SUB DUP3 MUL SWAP2 POP DUP1 DUP5 GT PUSH2 0x2A3B JUMPI SWAP1 POP JUMPDEST POP POP POP POP POP DUP2 MSTORE PUSH1 0x20 ADD PUSH1 0x2 DUP3 ADD PUSH1 0x40 MLOAD DUP1 PUSH1 0x40 ADD PUSH1 0x40 MSTORE SWAP1 DUP2 PUSH1 0x0 DUP3 ADD SLOAD DUP2 MSTORE PUSH1 0x20 ADD PUSH1 0x1 DUP3 ADD DUP1 SLOAD DUP1 PUSH1 0x20 MUL PUSH1 0x20 ADD PUSH1 0x40 MLOAD SWAP1 DUP2 ADD PUSH1 0x40 MSTORE DUP1 SWAP3 SWAP2 SWAP1 DUP2 DUP2 MSTORE PUSH1 0x20 ADD DUP3 DUP1 SLOAD DUP1 ISZERO PUSH2 0x2AEA JUMPI PUSH1 0x20 MUL DUP3 ADD SWAP2 SWAP1 PUSH1 0x0 MSTORE PUSH1 0x20 PUSH1 0x0 KECCAK256 SWAP1 JUMPDEST DUP2 SLOAD DUP2 MSTORE PUSH1 0x20 ADD SWAP1 PUSH1 0x1 ADD SWAP1 DUP1 DUP4 GT PUSH2 0x2AD6 JUMPI JUMPDEST POP POP POP SWAP2 SWAP1 SWAP3 MSTORE POP POP POP SWAP1 MSTORE POP PUSH1 0x60 DUP2 ADD MLOAD PUSH1 0x40 DUP1 DUP4 ADD MLOAD PUSH1 0x20 DUP5 ADD MLOAD SWAP2 MLOAD PUSH4 0xBDD1B767 PUSH1 0xE0 SHL DUP2 MSTORE SWAP4 SWAP5 POP SWAP2 SWAP3 PUSH1 0x0 SWAP1 PUSH20 0x0 SWAP1 PUSH4 0xBDD1B767 SWAP1 PUSH2 0x2B47 SWAP1 DUP8 SWAP1 DUP6 SWAP1 PUSH1 0x4 ADD PUSH2 0x478B JUMP JUMPDEST PUSH1 0x20 PUSH1 0x40 MLOAD DUP1 DUP4 SUB DUP2 DUP7 GAS DELEGATECALL ISZERO DUP1 ISZERO PUSH2 0x2B64 JUMPI RETURNDATASIZE PUSH1 0x0 DUP1 RETURNDATACOPY RETURNDATASIZE PUSH1 0x0 REVERT JUMPDEST POP POP POP POP PUSH1 0x40 MLOAD RETURNDATASIZE PUSH1 0x1F NOT PUSH1 0x1F DUP3 ADD AND DUP3 ADD DUP1 PUSH1 0x40 MSTORE POP DUP2 ADD SWAP1 PUSH2 0x2B88 SWAP2 SWAP1 PUSH2 0x47AD JUMP JUMPDEST PUSH2 0x2B92 SWAP1 DUP9 PUSH2 0x471C JUMP JUMPDEST DUP5 MLOAD SWAP1 SWAP2 POP PUSH1 0x0 SWAP1 DUP2 DUP1 DUP1 JUMPDEST DUP7 PUSH1 0xFF AND DUP2 PUSH1 0xFF AND LT ISZERO PUSH2 0x2D30 JUMPI PUSH1 0x1 JUMPDEST PUSH1 0x8 DUP2 PUSH1 0xFF AND GT PUSH2 0x2D1D JUMPI PUSH2 0x2BC5 PUSH1 0x1 DUP10 PUSH2 0x47CA JUMP JUMPDEST PUSH1 0xFF AND DUP3 PUSH1 0xFF AND SUB PUSH2 0x2C4A JUMPI DUP5 PUSH1 0xFF DUP3 AND PUSH2 0x2BE1 DUP7 PUSH1 0x8 PUSH2 0x47E3 JUMP JUMPDEST PUSH2 0x2BEB SWAP2 SWAP1 PUSH2 0x4651 JUMP JUMPDEST PUSH2 0x2BF5 SWAP2 SWAP1 PUSH2 0x46D6 JUMP JUMPDEST SWAP3 POP DUP9 DUP4 DUP2 MLOAD DUP2 LT PUSH2 0x2C09 JUMPI PUSH2 0x2C09 PUSH2 0x4597 JUMP JUMPDEST PUSH1 0x20 MUL PUSH1 0x20 ADD ADD MLOAD SWAP6 POP DUP6 PUSH4 0xFFFFFFFF AND DUP8 PUSH4 0xFFFFFFFF AND LT PUSH2 0x2C37 JUMPI PUSH2 0x2C30 DUP7 DUP9 PUSH2 0x4614 JUMP JUMPDEST SWAP7 POP PUSH2 0x2D0B JUMP JUMPDEST DUP3 SWAP12 POP POP POP POP POP POP POP POP POP POP POP POP PUSH2 0x84C JUMP JUMPDEST PUSH1 0xFF DUP2 AND PUSH2 0x2C59 DUP6 PUSH1 0x8 PUSH2 0x47E3 JUMP JUMPDEST PUSH2 0x2C63 SWAP2 SWAP1 PUSH2 0x4651 JUMP JUMPDEST PUSH1 0x40 MLOAD PUSH4 0xBDD1B767 PUSH1 0xE0 SHL DUP2 MSTORE SWAP1 SWAP4 POP PUSH20 0x0 SWAP1 PUSH4 0xBDD1B767 SWAP1 PUSH2 0x2C9F SWAP1 DUP14 SWAP1 DUP8 SWAP1 PUSH1 0x4 ADD PUSH2 0x478B JUMP JUMPDEST PUSH1 0x20 PUSH1 0x40 MLOAD DUP1 DUP4 SUB DUP2 DUP7 GAS DELEGATECALL ISZERO DUP1 ISZERO PUSH2 0x2CBC JUMPI RETURNDATASIZE PUSH1 0x0 DUP1 RETURNDATACOPY RETURNDATASIZE PUSH1 0x0 REVERT JUMPDEST POP POP POP POP PUSH1 0x40 MLOAD RETURNDATASIZE PUSH1 0x1F NOT PUSH1 0x1F DUP3 ADD AND DUP3 ADD DUP1 PUSH1 0x40 MSTORE POP DUP2 ADD SWAP1 PUSH2 0x2CE0 SWAP2 SWAP1 PUSH2 0x47AD JUMP JUMPDEST SWAP6 POP DUP6 PUSH4 0xFFFFFFFF AND DUP8 PUSH4 0xFFFFFFFF AND LT ISZERO PUSH2 0x2CFE JUMPI DUP3 SWAP4 POP PUSH2 0x2D1D JUMP JUMPDEST PUSH2 0x2D08 DUP7 DUP9 PUSH2 0x4614 JUMP JUMPDEST SWAP7 POP JUMPDEST DUP1 PUSH2 0x2D15 DUP2 PUSH2 0x47FA JUMP JUMPDEST SWAP2 POP POP PUSH2 0x2BAF JUMP JUMPDEST POP DUP1 PUSH2 0x2D28 DUP2 PUSH2 0x47FA JUMP JUMPDEST SWAP2 POP POP PUSH2 0x2B9E JUMP JUMPDEST POP POP POP POP POP POP POP POP POP POP SWAP3 SWAP2 POP POP JUMP JUMPDEST PUSH1 0x0 DUP2 PUSH1 0x40 MLOAD PUSH1 0x20 ADD PUSH2 0x2D55 SWAP2 DUP2 MSTORE PUSH1 0x20 ADD SWAP1 JUMP JUMPDEST PUSH1 0x40 DUP1 MLOAD PUSH1 0x1F NOT DUP2 DUP5 SUB ADD DUP2 MSTORE SWAP2 SWAP1 MSTORE DUP1 MLOAD PUSH1 0x20 SWAP1 SWAP2 ADD KECCAK256 SWAP3 SWAP2 POP POP JUMP JUMPDEST PUSH1 0x0 PUSH1 0x9 DUP1 SLOAD DUP1 PUSH1 0x20 MUL PUSH1 0x20 ADD PUSH1 0x40 MLOAD SWAP1 DUP2 ADD PUSH1 0x40 MSTORE DUP1 SWAP3 SWAP2 SWAP1 DUP2 DUP2 MSTORE PUSH1 0x20 ADD DUP3 DUP1 SLOAD DUP1 ISZERO PUSH2 0x2DED JUMPI PUSH1 0x20 MUL DUP3 ADD SWAP2 SWAP1 PUSH1 0x0 MSTORE PUSH1 0x20 PUSH1 0x0 KECCAK256 SWAP1 PUSH1 0x0 SWAP1 JUMPDEST DUP3 DUP3 SWAP1 SLOAD SWAP1 PUSH2 0x100 EXP SWAP1 DIV PUSH4 0xFFFFFFFF AND PUSH4 0xFFFFFFFF AND DUP2 MSTORE PUSH1 0x20 ADD SWAP1 PUSH1 0x4 ADD SWAP1 PUSH1 0x20 DUP3 PUSH1 0x3 ADD DIV SWAP3 DUP4 ADD SWAP3 PUSH1 0x1 SUB DUP3 MUL SWAP2 POP DUP1 DUP5 GT PUSH2 0x2DB0 JUMPI SWAP1 POP JUMPDEST POP POP POP POP POP SWAP1 POP PUSH1 0x0 DUP1 JUMPDEST DUP3 MLOAD DUP2 LT ISZERO PUSH2 0xCBC JUMPI DUP3 DUP2 DUP2 MLOAD DUP2 LT PUSH2 0x2E13 JUMPI PUSH2 0x2E13 PUSH2 0x4597 JUMP JUMPDEST PUSH1 0x20 SWAP1 DUP2 MUL SWAP2 SWAP1 SWAP2 ADD DUP2 ADD MLOAD PUSH4 0xFFFFFFFF DUP2 AND PUSH1 0x0 SWAP1 DUP2 MSTORE PUSH1 0x4 DUP4 MSTORE PUSH1 0x40 DUP1 DUP3 KECCAK256 DUP2 MLOAD PUSH1 0x80 DUP2 ADD DUP4 MSTORE DUP2 SLOAD PUSH1 0xFF DUP1 DUP3 AND ISZERO ISZERO DUP4 MSTORE PUSH2 0x100 SWAP1 SWAP2 DIV AND DUP2 DUP8 ADD MSTORE PUSH1 0x1 DUP3 ADD DUP1 SLOAD DUP5 MLOAD DUP2 DUP10 MUL DUP2 ADD DUP10 ADD DUP7 MSTORE DUP2 DUP2 MSTORE SWAP7 SWAP10 POP SWAP5 SWAP7 SWAP2 SWAP6 SWAP3 SWAP5 SWAP4 DUP7 ADD SWAP4 SWAP1 SWAP2 DUP4 ADD DUP3 DUP3 DUP1 ISZERO PUSH2 0x2ED0 JUMPI PUSH1 0x20 MUL DUP3 ADD SWAP2 SWAP1 PUSH1 0x0 MSTORE PUSH1 0x20 PUSH1 0x0 KECCAK256 SWAP1 PUSH1 0x0 SWAP1 JUMPDEST DUP3 DUP3 SWAP1 SLOAD SWAP1 PUSH2 0x100 EXP SWAP1 DIV PUSH4 0xFFFFFFFF AND PUSH4 0xFFFFFFFF AND DUP2 MSTORE PUSH1 0x20 ADD SWAP1 PUSH1 0x4 ADD SWAP1 PUSH1 0x20 DUP3 PUSH1 0x3 ADD DIV SWAP3 DUP4 ADD SWAP3 PUSH1 0x1 SUB DUP3 MUL SWAP2 POP DUP1 DUP5 GT PUSH2 0x2E93 JUMPI SWAP1 POP JUMPDEST POP POP POP POP POP DUP2 MSTORE PUSH1 0x20 ADD PUSH1 0x2 DUP3 ADD PUSH1 0x40 MLOAD DUP1 PUSH1 0x40 ADD PUSH1 0x40 MSTORE SWAP1 DUP2 PUSH1 0x0 DUP3 ADD SLOAD DUP2 MSTORE PUSH1 0x20 ADD PUSH1 0x1 DUP3 ADD DUP1 SLOAD DUP1 PUSH1 0x20 MUL PUSH1 0x20 ADD PUSH1 0x40 MLOAD SWAP1 DUP2 ADD PUSH1 0x40 MSTORE DUP1 SWAP3 SWAP2 SWAP1 DUP2 DUP2 MSTORE PUSH1 0x20 ADD DUP3 DUP1 SLOAD DUP1 ISZERO PUSH2 0x2F42 JUMPI PUSH1 0x20 MUL DUP3 ADD SWAP2 SWAP1 PUSH1 0x0 MSTORE PUSH1 0x20 PUSH1 0x0 KECCAK256 SWAP1 JUMPDEST DUP2 SLOAD DUP2 MSTORE PUSH1 0x20 ADD SWAP1 PUSH1 0x1 ADD SWAP1 DUP1 DUP4 GT PUSH2 0x2F2E JUMPI JUMPDEST POP POP POP POP POP DUP2 MSTORE POP POP DUP2 MSTORE POP POP SWAP1 POP DUP1 PUSH1 0x40 ADD MLOAD DUP6 DUP2 MLOAD DUP2 LT PUSH2 0x2F67 JUMPI PUSH2 0x2F67 PUSH2 0x4597 JUMP JUMPDEST PUSH1 0x20 MUL PUSH1 0x20 ADD ADD MLOAD PUSH4 0xFFFFFFFF AND PUSH1 0x0 EQ PUSH2 0x2F91 JUMPI PUSH2 0x2F88 DUP4 DUP7 PUSH1 0x0 PUSH2 0x34CB JUMP JUMPDEST PUSH2 0x2F91 DUP4 PUSH2 0x377F JUMP JUMPDEST POP DUP1 PUSH2 0x2F9C DUP2 PUSH2 0x4638 JUMP JUMPDEST SWAP2 POP POP PUSH2 0x2DF8 JUMP JUMPDEST PUSH1 0x60 PUSH1 0x1 DUP3 MLOAD GT PUSH2 0x2FB3 JUMPI POP SWAP1 JUMP JUMPDEST PUSH2 0x2FCC DUP3 PUSH1 0x0 PUSH1 0x1 DUP6 MLOAD PUSH2 0x2FC7 SWAP2 SWAP1 PUSH2 0x46D6 JUMP JUMPDEST PUSH2 0x3941 JUMP JUMPDEST POP SWAP1 JUMP JUMPDEST PUSH1 0x60 DUP1 DUP3 MLOAD PUSH1 0x0 SUB PUSH2 0x2FE4 JUMPI POP SWAP1 SWAP2 DUP3 SWAP2 POP JUMP JUMPDEST PUSH1 0x1 DUP1 JUMPDEST DUP5 MLOAD DUP2 LT ISZERO PUSH2 0x3054 JUMPI DUP5 PUSH2 0x2FFD PUSH1 0x1 DUP4 PUSH2 0x46D6 JUMP JUMPDEST DUP2 MLOAD DUP2 LT PUSH2 0x300D JUMPI PUSH2 0x300D PUSH2 0x4597 JUMP JUMPDEST PUSH1 0x20 MUL PUSH1 0x20 ADD ADD MLOAD DUP6 DUP3 DUP2 MLOAD DUP2 LT PUSH2 0x3027 JUMPI PUSH2 0x3027 PUSH2 0x4597 JUMP JUMPDEST PUSH1 0x20 MUL PUSH1 0x20 ADD ADD MLOAD EQ PUSH2 0x3042 JUMPI DUP2 PUSH2 0x303E DUP2 PUSH2 0x4638 JUMP JUMPDEST SWAP3 POP POP JUMPDEST DUP1 PUSH2 0x304C DUP2 PUSH2 0x4638 JUMP JUMPDEST SWAP2 POP POP PUSH2 0x2FE8 JUMP JUMPDEST POP PUSH1 0x0 DUP2 PUSH1 0x1 PUSH1 0x1 PUSH1 0x40 SHL SUB DUP2 GT ISZERO PUSH2 0x306F JUMPI PUSH2 0x306F PUSH2 0x40F1 JUMP JUMPDEST PUSH1 0x40 MLOAD SWAP1 DUP1 DUP3 MSTORE DUP1 PUSH1 0x20 MUL PUSH1 0x20 ADD DUP3 ADD PUSH1 0x40 MSTORE DUP1 ISZERO PUSH2 0x3098 JUMPI DUP2 PUSH1 0x20 ADD PUSH1 0x20 DUP3 MUL DUP1 CALLDATASIZE DUP4 CALLDATACOPY ADD SWAP1 POP JUMPDEST POP SWAP1 POP PUSH1 0x0 DUP3 PUSH1 0x1 PUSH1 0x1 PUSH1 0x40 SHL SUB DUP2 GT ISZERO PUSH2 0x30B5 JUMPI PUSH2 0x30B5 PUSH2 0x40F1 JUMP JUMPDEST PUSH1 0x40 MLOAD SWAP1 DUP1 DUP3 MSTORE DUP1 PUSH1 0x20 MUL PUSH1 0x20 ADD DUP3 ADD PUSH1 0x40 MSTORE DUP1 ISZERO PUSH2 0x30DE JUMPI DUP2 PUSH1 0x20 ADD PUSH1 0x20 DUP3 MUL DUP1 CALLDATASIZE DUP4 CALLDATACOPY ADD SWAP1 POP JUMPDEST POP SWAP1 POP PUSH1 0x0 DUP7 PUSH1 0x0 DUP2 MLOAD DUP2 LT PUSH2 0x30F6 JUMPI PUSH2 0x30F6 PUSH2 0x4597 JUMP JUMPDEST PUSH1 0x20 MUL PUSH1 0x20 ADD ADD MLOAD SWAP1 POP PUSH1 0x0 DUP2 DUP5 DUP3 DUP2 MLOAD DUP2 LT PUSH2 0x3115 JUMPI PUSH2 0x3115 PUSH2 0x4597 JUMP JUMPDEST PUSH1 0x20 MUL PUSH1 0x20 ADD ADD DUP2 DUP2 MSTORE POP POP PUSH1 0x0 JUMPDEST DUP9 MLOAD DUP2 LT ISZERO PUSH2 0x31D3 JUMPI DUP3 DUP10 DUP3 DUP2 MLOAD DUP2 LT PUSH2 0x3140 JUMPI PUSH2 0x3140 PUSH2 0x4597 JUMP JUMPDEST PUSH1 0x20 MUL PUSH1 0x20 ADD ADD MLOAD EQ PUSH2 0x3197 JUMPI DUP9 DUP2 DUP2 MLOAD DUP2 LT PUSH2 0x315F JUMPI PUSH2 0x315F PUSH2 0x4597 JUMP JUMPDEST PUSH1 0x20 MUL PUSH1 0x20 ADD ADD MLOAD SWAP3 POP DUP2 DUP1 PUSH2 0x3174 SWAP1 PUSH2 0x4638 JUMP JUMPDEST SWAP3 POP POP DUP3 DUP6 DUP4 DUP2 MLOAD DUP2 LT PUSH2 0x318A JUMPI PUSH2 0x318A PUSH2 0x4597 JUMP JUMPDEST PUSH1 0x20 MUL PUSH1 0x20 ADD ADD DUP2 DUP2 MSTORE POP POP JUMPDEST DUP4 DUP3 DUP2 MLOAD DUP2 LT PUSH2 0x31A9 JUMPI PUSH2 0x31A9 PUSH2 0x4597 JUMP JUMPDEST PUSH1 0x20 MUL PUSH1 0x20 ADD ADD DUP1 MLOAD DUP1 SWAP2 SWAP1 PUSH2 0x31BE SWAP1 PUSH2 0x4638 JUMP JUMPDEST SWAP1 MSTORE POP DUP1 PUSH2 0x31CB DUP2 PUSH2 0x4638 JUMP JUMPDEST SWAP2 POP POP PUSH2 0x3124 JUMP JUMPDEST POP SWAP3 SWAP8 SWAP2 SWAP7 POP SWAP1 SWAP5 POP POP POP POP POP JUMP JUMPDEST PUSH1 0x40 DUP1 MLOAD DUP1 DUP3 ADD SWAP1 SWAP2 MSTORE PUSH1 0x0 DUP2 MSTORE PUSH1 0x60 PUSH1 0x20 DUP3 ADD MSTORE PUSH1 0x0 DUP1 PUSH2 0x3204 DUP5 MLOAD PUSH2 0x3466 JUMP JUMPDEST PUSH1 0xFF AND SWAP1 POP PUSH1 0x0 DUP1 PUSH1 0x0 DUP1 PUSH1 0x0 DUP9 MLOAD SWAP1 POP PUSH1 0x0 PUSH1 0x7 PUSH1 0x1 DUP9 PUSH1 0x8 PUSH2 0x3228 SWAP2 SWAP1 PUSH2 0x48FD JUMP JUMPDEST PUSH2 0x3232 SWAP2 SWAP1 PUSH2 0x46D6 JUMP JUMPDEST PUSH2 0x323C SWAP2 SWAP1 PUSH2 0x490F JUMP JUMPDEST SWAP1 POP PUSH1 0x0 DUP2 PUSH1 0x1 PUSH1 0x1 PUSH1 0x40 SHL SUB DUP2 GT ISZERO PUSH2 0x3258 JUMPI PUSH2 0x3258 PUSH2 0x40F1 JUMP JUMPDEST PUSH1 0x40 MLOAD SWAP1 DUP1 DUP3 MSTORE DUP1 PUSH1 0x20 MUL PUSH1 0x20 ADD DUP3 ADD PUSH1 0x40 MSTORE DUP1 ISZERO PUSH2 0x3281 JUMPI DUP2 PUSH1 0x20 ADD PUSH1 0x20 DUP3 MUL DUP1 CALLDATASIZE DUP4 CALLDATACOPY ADD SWAP1 POP JUMPDEST POP SWAP1 POP PUSH1 0x0 JUMPDEST DUP9 PUSH4 0xFFFFFFFF AND DUP2 PUSH4 0xFFFFFFFF AND LT ISZERO PUSH2 0x33D6 JUMPI PUSH2 0x32A5 DUP2 DUP11 PUSH2 0x4614 JUMP JUMPDEST PUSH2 0x32B0 SWAP1 PUSH1 0x8 PUSH2 0x48FD JUMP JUMPDEST SWAP7 POP PUSH1 0x7 PUSH2 0x32BF PUSH1 0x1 DUP10 PUSH2 0x46D6 JUMP JUMPDEST PUSH2 0x32C9 SWAP2 SWAP1 PUSH2 0x490F JUMP JUMPDEST SWAP6 POP PUSH1 0x0 JUMPDEST DUP8 DUP2 LT ISZERO PUSH2 0x33C3 JUMPI PUSH2 0x32E0 DUP8 DUP3 PUSH2 0x4651 JUMP JUMPDEST SWAP6 POP PUSH4 0xFFFFFFFF DUP3 AND ISZERO PUSH2 0x331A JUMPI DUP3 DUP7 DUP2 MLOAD DUP2 LT PUSH2 0x3300 JUMPI PUSH2 0x3300 PUSH2 0x4597 JUMP JUMPDEST PUSH1 0x20 MUL PUSH1 0x20 ADD ADD MLOAD DUP12 PUSH2 0x3313 SWAP2 SWAP1 PUSH2 0x46E9 JUMP JUMPDEST SWAP11 POP PUSH2 0x3349 JUMP JUMPDEST DUP1 DUP6 EQ PUSH2 0x33C3 JUMPI DUP13 DUP2 DUP2 MLOAD DUP2 LT PUSH2 0x3333 JUMPI PUSH2 0x3333 PUSH2 0x4597 JUMP JUMPDEST PUSH1 0x20 MUL PUSH1 0x20 ADD ADD MLOAD DUP12 PUSH2 0x3346 SWAP2 SWAP1 PUSH2 0x46E9 JUMP JUMPDEST SWAP11 POP JUMPDEST PUSH2 0x3354 PUSH1 0x8 DUP8 PUSH2 0x4923 JUMP JUMPDEST ISZERO DUP1 PUSH2 0x3369 JUMPI POP PUSH2 0x3366 PUSH1 0x1 DUP7 PUSH2 0x46D6 JUMP JUMPDEST DUP2 EQ JUMPDEST ISZERO PUSH2 0x33B1 JUMPI PUSH1 0x3 PUSH2 0x337B PUSH1 0x1 DUP9 PUSH2 0x46D6 JUMP JUMPDEST SWAP1 SHR SWAP9 POP DUP11 DUP4 DUP11 DUP2 MLOAD DUP2 LT PUSH2 0x3392 JUMPI PUSH2 0x3392 PUSH2 0x4597 JUMP JUMPDEST PUSH1 0x20 MUL PUSH1 0x20 ADD ADD SWAP1 PUSH4 0xFFFFFFFF AND SWAP1 DUP2 PUSH4 0xFFFFFFFF AND DUP2 MSTORE POP POP PUSH1 0x0 SWAP11 POP JUMPDEST DUP1 PUSH2 0x33BB DUP2 PUSH2 0x4638 JUMP JUMPDEST SWAP2 POP POP PUSH2 0x32CE JUMP JUMPDEST POP DUP1 PUSH2 0x33CE DUP2 PUSH2 0x45F1 JUMP JUMPDEST SWAP2 POP POP PUSH2 0x3287 JUMP JUMPDEST POP PUSH1 0x40 MLOAD PUSH4 0x905387ED PUSH1 0xE0 SHL DUP2 MSTORE PUSH1 0x0 SWAP1 PUSH20 0x0 SWAP1 PUSH4 0x905387ED SWAP1 PUSH2 0x3411 SWAP1 DUP6 SWAP1 PUSH1 0x4 ADD PUSH2 0x4937 JUMP JUMPDEST PUSH1 0x0 PUSH1 0x40 MLOAD DUP1 DUP4 SUB DUP2 DUP7 GAS DELEGATECALL ISZERO DUP1 ISZERO PUSH2 0x342E JUMPI RETURNDATASIZE PUSH1 0x0 DUP1 RETURNDATACOPY RETURNDATASIZE PUSH1 0x0 REVERT JUMPDEST POP POP POP POP PUSH1 0x40 MLOAD RETURNDATASIZE PUSH1 0x0 DUP3 RETURNDATACOPY PUSH1 0x1F RETURNDATASIZE SWAP1 DUP2 ADD PUSH1 0x1F NOT AND DUP3 ADD PUSH1 0x40 MSTORE PUSH2 0x3456 SWAP2 SWAP1 DUP2 ADD SWAP1 PUSH2 0x4981 JUMP JUMPDEST SWAP13 SWAP12 POP POP POP POP POP POP POP POP POP POP POP POP JUMP JUMPDEST PUSH1 0x1 JUMPDEST DUP2 PUSH2 0x3475 DUP3 PUSH1 0x8 PUSH2 0x4A4F JUMP JUMPDEST LT ISZERO PUSH2 0x348D JUMPI DUP1 PUSH2 0x3485 DUP2 PUSH2 0x47FA JUMP JUMPDEST SWAP2 POP POP PUSH2 0x3469 JUMP JUMPDEST SWAP2 SWAP1 POP JUMP JUMPDEST PUSH2 0x349C DUP3 DUP3 PUSH2 0x1D5A JUMP JUMPDEST PUSH2 0x1455 JUMPI PUSH1 0x40 MLOAD PUSH4 0xE2517D3F PUSH1 0xE0 SHL DUP2 MSTORE PUSH1 0x1 PUSH1 0x1 PUSH1 0xA0 SHL SUB DUP3 AND PUSH1 0x4 DUP3 ADD MSTORE PUSH1 0x24 DUP2 ADD DUP4 SWAP1 MSTORE PUSH1 0x44 ADD PUSH2 0xB52 JUMP JUMPDEST PUSH4 0xFFFFFFFF DUP4 AND PUSH1 0x0 SWAP1 DUP2 MSTORE PUSH1 0x4 PUSH1 0x20 SWAP1 DUP2 MSTORE PUSH1 0x40 DUP1 DUP4 KECCAK256 DUP2 MLOAD DUP1 DUP4 ADD DUP4 MSTORE PUSH1 0x2 DUP3 ADD DUP1 SLOAD DUP3 MSTORE PUSH1 0x3 DUP4 ADD DUP1 SLOAD DUP6 MLOAD DUP2 DUP9 MUL DUP2 ADD DUP9 ADD SWAP1 SWAP7 MSTORE DUP1 DUP7 MSTORE SWAP4 SWAP7 SWAP6 SWAP3 SWAP5 SWAP2 SWAP4 DUP6 DUP5 ADD SWAP4 DUP4 ADD DUP3 DUP3 DUP1 ISZERO PUSH2 0x3541 JUMPI PUSH1 0x20 MUL DUP3 ADD SWAP2 SWAP1 PUSH1 0x0 MSTORE PUSH1 0x20 PUSH1 0x0 KECCAK256 SWAP1 JUMPDEST DUP2 SLOAD DUP2 MSTORE PUSH1 0x20 ADD SWAP1 PUSH1 0x1 ADD SWAP1 DUP1 DUP4 GT PUSH2 0x352D JUMPI JUMPDEST POP POP POP POP POP DUP2 MSTORE POP POP SWAP1 POP PUSH1 0x0 DUP3 PUSH1 0x0 ADD PUSH1 0x1 SWAP1 SLOAD SWAP1 PUSH2 0x100 EXP SWAP1 DIV PUSH1 0xFF AND SWAP1 POP PUSH1 0x0 DUP4 PUSH1 0x1 ADD DUP7 DUP2 SLOAD DUP2 LT PUSH2 0x3579 JUMPI PUSH2 0x3579 PUSH2 0x4597 JUMP JUMPDEST SWAP1 PUSH1 0x0 MSTORE PUSH1 0x20 PUSH1 0x0 KECCAK256 SWAP1 PUSH1 0x8 SWAP2 DUP3 DUP3 DIV ADD SWAP2 SWAP1 MOD PUSH1 0x4 MUL SWAP1 SLOAD SWAP1 PUSH2 0x100 EXP SWAP1 DIV PUSH4 0xFFFFFFFF AND SWAP1 POP PUSH1 0x0 DUP1 DUP5 PUSH1 0x0 ADD MLOAD DUP9 PUSH2 0x35B4 SWAP2 SWAP1 PUSH2 0x4651 JUMP JUMPDEST SWAP1 POP PUSH1 0x0 JUMPDEST DUP5 PUSH1 0xFF AND DUP2 PUSH1 0xFF AND LT ISZERO PUSH2 0x36FC JUMPI PUSH1 0x3 PUSH2 0x35D4 PUSH1 0x1 DUP5 PUSH2 0x46D6 JUMP JUMPDEST PUSH1 0x40 MLOAD PUSH4 0xBDD1B767 PUSH1 0xE0 SHL DUP2 MSTORE SWAP2 SHR SWAP3 POP PUSH20 0x0 SWAP1 PUSH4 0xBDD1B767 SWAP1 PUSH2 0x3611 SWAP1 DUP10 SWAP1 DUP7 SWAP1 PUSH1 0x4 ADD PUSH2 0x478B JUMP JUMPDEST PUSH1 0x20 PUSH1 0x40 MLOAD DUP1 DUP4 SUB DUP2 DUP7 GAS DELEGATECALL ISZERO DUP1 ISZERO PUSH2 0x362E JUMPI RETURNDATASIZE PUSH1 0x0 DUP1 RETURNDATACOPY RETURNDATASIZE PUSH1 0x0 REVERT JUMPDEST POP POP POP POP PUSH1 0x40 MLOAD RETURNDATASIZE PUSH1 0x1F NOT PUSH1 0x1F DUP3 ADD AND DUP3 ADD DUP1 PUSH1 0x40 MSTORE POP DUP2 ADD SWAP1 PUSH2 0x3652 SWAP2 SWAP1 PUSH2 0x47AD JUMP JUMPDEST SWAP3 POP PUSH20 0x0 PUSH4 0x373CFE03 DUP8 DUP5 DUP8 PUSH2 0x367B DUP14 DUP10 PUSH2 0x46E9 JUMP JUMPDEST PUSH2 0x3685 SWAP2 SWAP1 PUSH2 0x4614 JUMP JUMPDEST PUSH1 0x40 MLOAD DUP5 PUSH4 0xFFFFFFFF AND PUSH1 0xE0 SHL DUP2 MSTORE PUSH1 0x4 ADD PUSH2 0x36A3 SWAP4 SWAP3 SWAP2 SWAP1 PUSH2 0x4A5E JUMP JUMPDEST PUSH1 0x0 PUSH1 0x40 MLOAD DUP1 DUP4 SUB DUP2 DUP7 GAS DELEGATECALL ISZERO DUP1 ISZERO PUSH2 0x36C0 JUMPI RETURNDATASIZE PUSH1 0x0 DUP1 RETURNDATACOPY RETURNDATASIZE PUSH1 0x0 REVERT JUMPDEST POP POP POP POP PUSH1 0x40 MLOAD RETURNDATASIZE PUSH1 0x0 DUP3 RETURNDATACOPY PUSH1 0x1F RETURNDATASIZE SWAP1 DUP2 ADD PUSH1 0x1F NOT AND DUP3 ADD PUSH1 0x40 MSTORE PUSH2 0x36E8 SWAP2 SWAP1 DUP2 ADD SWAP1 PUSH2 0x4981 JUMP JUMPDEST SWAP6 POP DUP1 PUSH2 0x36F4 DUP2 PUSH2 0x47FA JUMP JUMPDEST SWAP2 POP POP PUSH2 0x35B9 JUMP JUMPDEST POP DUP7 DUP7 PUSH1 0x1 ADD DUP10 DUP2 SLOAD DUP2 LT PUSH2 0x3713 JUMPI PUSH2 0x3713 PUSH2 0x4597 JUMP JUMPDEST SWAP1 PUSH1 0x0 MSTORE PUSH1 0x20 PUSH1 0x0 KECCAK256 SWAP1 PUSH1 0x8 SWAP2 DUP3 DUP3 DIV ADD SWAP2 SWAP1 MOD PUSH1 0x4 MUL PUSH2 0x100 EXP DUP2 SLOAD DUP2 PUSH4 0xFFFFFFFF MUL NOT AND SWAP1 DUP4 PUSH4 0xFFFFFFFF AND MUL OR SWAP1 SSTORE POP DUP5 DUP7 PUSH1 0x2 ADD PUSH1 0x0 DUP3 ADD MLOAD DUP2 PUSH1 0x0 ADD SSTORE PUSH1 0x20 DUP3 ADD MLOAD DUP2 PUSH1 0x1 ADD SWAP1 DUP1 MLOAD SWAP1 PUSH1 0x20 ADD SWAP1 PUSH2 0x3771 SWAP3 SWAP2 SWAP1 PUSH2 0x3F43 JUMP JUMPDEST POP POP POP POP POP POP POP POP POP POP POP POP JUMP JUMPDEST PUSH4 0xFFFFFFFF DUP2 AND PUSH1 0x0 SWAP1 DUP2 MSTORE PUSH1 0x4 PUSH1 0x20 SWAP1 DUP2 MSTORE PUSH1 0x40 DUP1 DUP4 KECCAK256 DUP2 MLOAD PUSH1 0x80 DUP2 ADD DUP4 MSTORE DUP2 SLOAD PUSH1 0xFF DUP1 DUP3 AND ISZERO ISZERO DUP4 MSTORE PUSH2 0x100 SWAP1 SWAP2 DIV AND DUP2 DUP6 ADD MSTORE PUSH1 0x1 DUP3 ADD DUP1 SLOAD DUP5 MLOAD DUP2 DUP8 MUL DUP2 ADD DUP8 ADD DUP7 MSTORE DUP2 DUP2 MSTORE SWAP3 SWAP6 SWAP4 SWAP5 DUP7 ADD SWAP4 DUP4 ADD DUP3 DUP3 DUP1 ISZERO PUSH2 0x382B JUMPI PUSH1 0x20 MUL DUP3 ADD SWAP2 SWAP1 PUSH1 0x0 MSTORE PUSH1 0x20 PUSH1 0x0 KECCAK256 SWAP1 PUSH1 0x0 SWAP1 JUMPDEST DUP3 DUP3 SWAP1 SLOAD SWAP1 PUSH2 0x100 EXP SWAP1 DIV PUSH4 0xFFFFFFFF AND PUSH4 0xFFFFFFFF AND DUP2 MSTORE PUSH1 0x20 ADD SWAP1 PUSH1 0x4 ADD SWAP1 PUSH1 0x20 DUP3 PUSH1 0x3 ADD DIV SWAP3 DUP4 ADD SWAP3 PUSH1 0x1 SUB DUP3 MUL SWAP2 POP DUP1 DUP5 GT PUSH2 0x37EE JUMPI SWAP1 POP JUMPDEST POP POP POP POP POP DUP2 MSTORE PUSH1 0x20 ADD PUSH1 0x2 DUP3 ADD PUSH1 0x40 MLOAD DUP1 PUSH1 0x40 ADD PUSH1 0x40 MSTORE SWAP1 DUP2 PUSH1 0x0 DUP3 ADD SLOAD DUP2 MSTORE PUSH1 0x20 ADD PUSH1 0x1 DUP3 ADD DUP1 SLOAD DUP1 PUSH1 0x20 MUL PUSH1 0x20 ADD PUSH1 0x40 MLOAD SWAP1 DUP2 ADD PUSH1 0x40 MSTORE DUP1 SWAP3 SWAP2 SWAP1 DUP2 DUP2 MSTORE PUSH1 0x20 ADD DUP3 DUP1 SLOAD DUP1 ISZERO PUSH2 0x389D JUMPI PUSH1 0x20 MUL DUP3 ADD SWAP2 SWAP1 PUSH1 0x0 MSTORE PUSH1 0x20 PUSH1 0x0 KECCAK256 SWAP1 JUMPDEST DUP2 SLOAD DUP2 MSTORE PUSH1 0x20 ADD SWAP1 PUSH1 0x1 ADD SWAP1 DUP1 DUP4 GT PUSH2 0x3889 JUMPI JUMPDEST POP POP POP SWAP2 SWAP1 SWAP3 MSTORE POP POP POP SWAP1 MSTORE POP PUSH1 0x60 DUP2 ADD MLOAD PUSH1 0x40 MLOAD PUSH4 0xBDD1B767 PUSH1 0xE0 SHL DUP2 MSTORE SWAP2 SWAP3 POP PUSH20 0x0 SWAP2 PUSH4 0xBDD1B767 SWAP2 PUSH2 0x38EA SWAP2 PUSH1 0x0 SWAP1 PUSH1 0x4 ADD PUSH2 0x478B JUMP JUMPDEST PUSH1 0x20 PUSH1 0x40 MLOAD DUP1 DUP4 SUB DUP2 DUP7 GAS DELEGATECALL ISZERO DUP1 ISZERO PUSH2 0x3907 JUMPI RETURNDATASIZE PUSH1 0x0 DUP1 RETURNDATACOPY RETURNDATASIZE PUSH1 0x0 REVERT JUMPDEST POP POP POP POP PUSH1 0x40 MLOAD RETURNDATASIZE PUSH1 0x1F NOT PUSH1 0x1F DUP3 ADD AND DUP3 ADD DUP1 PUSH1 0x40 MSTORE POP DUP2 ADD SWAP1 PUSH2 0x392B SWAP2 SWAP1 PUSH2 0x47AD JUMP JUMPDEST PUSH4 0xFFFFFFFF AND PUSH1 0x0 SUB PUSH2 0x1455 JUMPI PUSH2 0x1455 DUP3 PUSH2 0x3985 JUMP JUMPDEST DUP1 DUP3 SLT ISZERO PUSH2 0xCF5 JUMPI PUSH1 0x0 PUSH2 0x3956 DUP5 DUP5 DUP5 PUSH2 0x3BE9 JUMP JUMPDEST SWAP1 POP DUP3 DUP2 SGT ISZERO PUSH2 0x3970 JUMPI PUSH2 0x3970 DUP5 DUP5 PUSH2 0x2FC7 PUSH1 0x1 DUP6 PUSH2 0x4A8D JUMP JUMPDEST PUSH2 0xCBC DUP5 PUSH2 0x397F DUP4 PUSH1 0x1 PUSH2 0x4AAD JUMP JUMPDEST DUP5 PUSH2 0x3941 JUMP JUMPDEST PUSH4 0xFFFFFFFF DUP2 AND PUSH1 0x0 SWAP1 DUP2 MSTORE PUSH1 0x4 PUSH1 0x20 MSTORE PUSH1 0x40 DUP2 KECCAK256 SWAP1 PUSH1 0x60 SWAP1 JUMPDEST PUSH1 0xA SLOAD DUP2 LT ISZERO PUSH2 0x3BD1 JUMPI PUSH1 0x0 PUSH1 0x5 PUSH1 0x0 PUSH1 0xA DUP5 DUP2 SLOAD DUP2 LT PUSH2 0x39C2 JUMPI PUSH2 0x39C2 PUSH2 0x4597 JUMP JUMPDEST SWAP1 PUSH1 0x0 MSTORE PUSH1 0x20 PUSH1 0x0 KECCAK256 SWAP1 PUSH1 0x8 SWAP2 DUP3 DUP3 DIV ADD SWAP2 SWAP1 MOD PUSH1 0x4 MUL SWAP1 SLOAD SWAP1 PUSH2 0x100 EXP SWAP1 DIV PUSH4 0xFFFFFFFF AND PUSH4 0xFFFFFFFF AND PUSH4 0xFFFFFFFF AND DUP2 MSTORE PUSH1 0x20 ADD SWAP1 DUP2 MSTORE PUSH1 0x20 ADD PUSH1 0x0 KECCAK256 SWAP1 POP DUP1 PUSH1 0x1 ADD DUP1 SLOAD DUP1 PUSH1 0x20 MUL PUSH1 0x20 ADD PUSH1 0x40 MLOAD SWAP1 DUP2 ADD PUSH1 0x40 MSTORE DUP1 SWAP3 SWAP2 SWAP1 DUP2 DUP2 MSTORE PUSH1 0x20 ADD DUP3 DUP1 SLOAD DUP1 ISZERO PUSH2 0x3A7E JUMPI PUSH1 0x20 MUL DUP3 ADD SWAP2 SWAP1 PUSH1 0x0 MSTORE PUSH1 0x20 PUSH1 0x0 KECCAK256 SWAP1 PUSH1 0x0 SWAP1 JUMPDEST DUP3 DUP3 SWAP1 SLOAD SWAP1 PUSH2 0x100 EXP SWAP1 DIV PUSH4 0xFFFFFFFF AND PUSH4 0xFFFFFFFF AND DUP2 MSTORE PUSH1 0x20 ADD SWAP1 PUSH1 0x4 ADD SWAP1 PUSH1 0x20 DUP3 PUSH1 0x3 ADD DIV SWAP3 DUP4 ADD SWAP3 PUSH1 0x1 SUB DUP3 MUL SWAP2 POP DUP1 DUP5 GT PUSH2 0x3A41 JUMPI SWAP1 POP JUMPDEST POP POP POP POP POP SWAP3 POP PUSH1 0x0 JUMPDEST DUP4 MLOAD DUP2 LT ISZERO PUSH2 0x3BBC JUMPI DUP6 PUSH4 0xFFFFFFFF AND DUP5 DUP3 DUP2 MLOAD DUP2 LT PUSH2 0x3AAA JUMPI PUSH2 0x3AAA PUSH2 0x4597 JUMP JUMPDEST PUSH1 0x20 MUL PUSH1 0x20 ADD ADD MLOAD PUSH4 0xFFFFFFFF AND SUB PUSH2 0x3BAA JUMPI PUSH1 0x0 DUP3 PUSH1 0x2 ADD DUP3 DUP2 SLOAD DUP2 LT PUSH2 0x3AD4 JUMPI PUSH2 0x3AD4 PUSH2 0x4597 JUMP JUMPDEST SWAP1 PUSH1 0x0 MSTORE PUSH1 0x20 PUSH1 0x0 KECCAK256 SWAP1 PUSH1 0x8 SWAP2 DUP3 DUP3 DIV ADD SWAP2 SWAP1 MOD PUSH1 0x4 MUL PUSH2 0x100 EXP DUP2 SLOAD DUP2 PUSH4 0xFFFFFFFF MUL NOT AND SWAP1 DUP4 PUSH4 0xFFFFFFFF AND MUL OR SWAP1 SSTORE POP PUSH2 0x3B8E DUP3 PUSH1 0x2 ADD DUP1 SLOAD DUP1 PUSH1 0x20 MUL PUSH1 0x20 ADD PUSH1 0x40 MLOAD SWAP1 DUP2 ADD PUSH1 0x40 MSTORE DUP1 SWAP3 SWAP2 SWAP1 DUP2 DUP2 MSTORE PUSH1 0x20 ADD DUP3 DUP1 SLOAD DUP1 ISZERO PUSH2 0x3B84 JUMPI PUSH1 0x20 MUL DUP3 ADD SWAP2 SWAP1 PUSH1 0x0 MSTORE PUSH1 0x20 PUSH1 0x0 KECCAK256 SWAP1 PUSH1 0x0 SWAP1 JUMPDEST DUP3 DUP3 SWAP1 SLOAD SWAP1 PUSH2 0x100 EXP SWAP1 DIV PUSH4 0xFFFFFFFF AND PUSH4 0xFFFFFFFF AND DUP2 MSTORE PUSH1 0x20 ADD SWAP1 PUSH1 0x4 ADD SWAP1 PUSH1 0x20 DUP3 PUSH1 0x3 ADD DIV SWAP3 DUP4 ADD SWAP3 PUSH1 0x1 SUB DUP3 MUL SWAP2 POP DUP1 DUP5 GT PUSH2 0x3B47 JUMPI SWAP1 POP JUMPDEST POP POP POP POP POP PUSH2 0x2693 JUMP JUMPDEST DUP1 MLOAD PUSH2 0x3BA4 SWAP2 PUSH1 0x3 DUP6 ADD SWAP2 PUSH1 0x20 SWAP1 SWAP2 ADD SWAP1 PUSH2 0x3E98 JUMP JUMPDEST POP PUSH2 0x3BBC JUMP JUMPDEST DUP1 PUSH2 0x3BB4 DUP2 PUSH2 0x4638 JUMP JUMPDEST SWAP2 POP POP PUSH2 0x3A88 JUMP JUMPDEST POP POP DUP1 DUP1 PUSH2 0x3BC9 SWAP1 PUSH2 0x4638 JUMP JUMPDEST SWAP2 POP POP PUSH2 0x399F JUMP JUMPDEST POP PUSH2 0x3BDD PUSH1 0x9 DUP5 PUSH2 0x3D6D JUMP JUMPDEST POP DUP1 SLOAD PUSH1 0xFF NOT AND SWAP1 SSTORE POP JUMP JUMPDEST PUSH1 0x0 DUP1 DUP5 DUP4 DUP2 MLOAD DUP2 LT PUSH2 0x3BFE JUMPI PUSH2 0x3BFE PUSH2 0x4597 JUMP JUMPDEST PUSH1 0x20 MUL PUSH1 0x20 ADD ADD MLOAD SWAP1 POP PUSH1 0x0 PUSH1 0x1 DUP6 PUSH2 0x3C17 SWAP2 SWAP1 PUSH2 0x4A8D JUMP JUMPDEST SWAP1 POP DUP5 JUMPDEST DUP5 DUP2 SLT ISZERO PUSH2 0x3CD1 JUMPI DUP3 DUP8 DUP3 DUP2 MLOAD DUP2 LT PUSH2 0x3C36 JUMPI PUSH2 0x3C36 PUSH2 0x4597 JUMP JUMPDEST PUSH1 0x20 MUL PUSH1 0x20 ADD ADD MLOAD GT PUSH2 0x3CBF JUMPI DUP2 PUSH2 0x3C4D DUP2 PUSH2 0x4AD5 JUMP JUMPDEST SWAP3 POP POP DUP7 DUP2 DUP2 MLOAD DUP2 LT PUSH2 0x3C62 JUMPI PUSH2 0x3C62 PUSH2 0x4597 JUMP JUMPDEST PUSH1 0x20 MUL PUSH1 0x20 ADD ADD MLOAD DUP8 DUP4 DUP2 MLOAD DUP2 LT PUSH2 0x3C7C JUMPI PUSH2 0x3C7C PUSH2 0x4597 JUMP JUMPDEST PUSH1 0x20 MUL PUSH1 0x20 ADD ADD MLOAD DUP9 DUP5 DUP2 MLOAD DUP2 LT PUSH2 0x3C96 JUMPI PUSH2 0x3C96 PUSH2 0x4597 JUMP JUMPDEST PUSH1 0x20 MUL PUSH1 0x20 ADD ADD DUP10 DUP5 DUP2 MLOAD DUP2 LT PUSH2 0x3CAF JUMPI PUSH2 0x3CAF PUSH2 0x4597 JUMP JUMPDEST PUSH1 0x20 SWAP1 DUP2 MUL SWAP2 SWAP1 SWAP2 ADD ADD SWAP2 SWAP1 SWAP2 MSTORE MSTORE JUMPDEST DUP1 PUSH2 0x3CC9 DUP2 PUSH2 0x4AD5 JUMP JUMPDEST SWAP2 POP POP PUSH2 0x3C1B JUMP JUMPDEST POP DUP6 DUP5 DUP2 MLOAD DUP2 LT PUSH2 0x3CE4 JUMPI PUSH2 0x3CE4 PUSH2 0x4597 JUMP JUMPDEST PUSH1 0x20 MUL PUSH1 0x20 ADD ADD MLOAD DUP7 DUP3 PUSH1 0x1 PUSH2 0x3CFA SWAP2 SWAP1 PUSH2 0x4AAD JUMP JUMPDEST DUP2 MLOAD DUP2 LT PUSH2 0x3D0A JUMPI PUSH2 0x3D0A PUSH2 0x4597 JUMP JUMPDEST PUSH1 0x20 MUL PUSH1 0x20 ADD ADD MLOAD DUP8 DUP4 PUSH1 0x1 PUSH2 0x3D20 SWAP2 SWAP1 PUSH2 0x4AAD JUMP JUMPDEST DUP2 MLOAD DUP2 LT PUSH2 0x3D30 JUMPI PUSH2 0x3D30 PUSH2 0x4597 JUMP JUMPDEST PUSH1 0x20 MUL PUSH1 0x20 ADD ADD DUP9 DUP8 DUP2 MLOAD DUP2 LT PUSH2 0x3D49 JUMPI PUSH2 0x3D49 PUSH2 0x4597 JUMP JUMPDEST PUSH1 0x20 SWAP1 DUP2 MUL SWAP2 SWAP1 SWAP2 ADD ADD SWAP2 SWAP1 SWAP2 MSTORE MSTORE PUSH2 0x3D63 DUP2 PUSH1 0x1 PUSH2 0x4AAD JUMP JUMPDEST SWAP7 SWAP6 POP POP POP POP POP POP JUMP JUMPDEST DUP2 SLOAD PUSH1 0x0 JUMPDEST DUP2 DUP2 LT ISZERO PUSH2 0xCBC JUMPI DUP3 PUSH4 0xFFFFFFFF AND DUP5 DUP3 DUP2 SLOAD DUP2 LT PUSH2 0x3D93 JUMPI PUSH2 0x3D93 PUSH2 0x4597 JUMP JUMPDEST PUSH1 0x0 SWAP2 DUP3 MSTORE PUSH1 0x20 SWAP1 SWAP2 KECCAK256 PUSH1 0x8 DUP3 DIV ADD SLOAD PUSH1 0x7 SWAP1 SWAP2 AND PUSH1 0x4 MUL PUSH2 0x100 EXP SWAP1 DIV PUSH4 0xFFFFFFFF AND SUB PUSH2 0x3E86 JUMPI DUP4 PUSH2 0x3DC8 PUSH1 0x1 DUP5 PUSH2 0x46D6 JUMP JUMPDEST DUP2 SLOAD DUP2 LT PUSH2 0x3DD8 JUMPI PUSH2 0x3DD8 PUSH2 0x4597 JUMP JUMPDEST SWAP1 PUSH1 0x0 MSTORE PUSH1 0x20 PUSH1 0x0 KECCAK256 SWAP1 PUSH1 0x8 SWAP2 DUP3 DUP3 DIV ADD SWAP2 SWAP1 MOD PUSH1 0x4 MUL SWAP1 SLOAD SWAP1 PUSH2 0x100 EXP SWAP1 DIV PUSH4 0xFFFFFFFF AND DUP5 DUP3 DUP2 SLOAD DUP2 LT PUSH2 0x3E10 JUMPI PUSH2 0x3E10 PUSH2 0x4597 JUMP JUMPDEST SWAP1 PUSH1 0x0 MSTORE PUSH1 0x20 PUSH1 0x0 KECCAK256 SWAP1 PUSH1 0x8 SWAP2 DUP3 DUP3 DIV ADD SWAP2 SWAP1 MOD PUSH1 0x4 MUL PUSH2 0x100 EXP DUP2 SLOAD DUP2 PUSH4 0xFFFFFFFF MUL NOT AND SWAP1 DUP4 PUSH4 0xFFFFFFFF AND MUL OR SWAP1 SSTORE POP DUP4 DUP1 SLOAD DUP1 PUSH2 0x3E53 JUMPI PUSH2 0x3E53 PUSH2 0x4AED JUMP JUMPDEST PUSH1 0x0 DUP3 DUP2 MSTORE PUSH1 0x20 SWAP1 KECCAK256 PUSH1 0x8 PUSH1 0x0 NOT SWAP1 SWAP3 ADD SWAP2 DUP3 DIV ADD DUP1 SLOAD PUSH4 0xFFFFFFFF PUSH1 0x4 PUSH1 0x7 DUP6 AND MUL PUSH2 0x100 EXP MUL NOT AND SWAP1 SSTORE SWAP1 SSTORE PUSH2 0xCBC JUMP JUMPDEST DUP1 PUSH2 0x3E90 DUP2 PUSH2 0x4638 JUMP JUMPDEST SWAP2 POP POP PUSH2 0x3D72 JUMP JUMPDEST DUP3 DUP1 SLOAD DUP3 DUP3 SSTORE SWAP1 PUSH1 0x0 MSTORE PUSH1 0x20 PUSH1 0x0 KECCAK256 SWAP1 PUSH1 0x7 ADD PUSH1 0x8 SWAP1 DIV DUP2 ADD SWAP3 DUP3 ISZERO PUSH2 0x3F37 JUMPI SWAP2 PUSH1 0x20 MUL DUP3 ADD PUSH1 0x0 JUMPDEST DUP4 DUP3 GT ISZERO PUSH2 0x3F05 JUMPI DUP4 MLOAD DUP4 DUP3 PUSH2 0x100 EXP DUP2 SLOAD DUP2 PUSH4 0xFFFFFFFF MUL NOT AND SWAP1 DUP4 PUSH4 0xFFFFFFFF AND MUL OR SWAP1 SSTORE POP SWAP3 PUSH1 0x20 ADD SWAP3 PUSH1 0x4 ADD PUSH1 0x20 DUP2 PUSH1 0x3 ADD DIV SWAP3 DUP4 ADD SWAP3 PUSH1 0x1 SUB MUL PUSH2 0x3EC1 JUMP JUMPDEST DUP1 ISZERO PUSH2 0x3F35 JUMPI DUP3 DUP2 PUSH2 0x100 EXP DUP2 SLOAD SWAP1 PUSH4 0xFFFFFFFF MUL NOT AND SWAP1 SSTORE PUSH1 0x4 ADD PUSH1 0x20 DUP2 PUSH1 0x3 ADD DIV SWAP3 DUP4 ADD SWAP3 PUSH1 0x1 SUB MUL PUSH2 0x3F05 JUMP JUMPDEST POP JUMPDEST POP PUSH2 0x2FCC SWAP3 SWAP2 POP PUSH2 0x3F7E JUMP JUMPDEST DUP3 DUP1 SLOAD DUP3 DUP3 SSTORE SWAP1 PUSH1 0x0 MSTORE PUSH1 0x20 PUSH1 0x0 KECCAK256 SWAP1 DUP2 ADD SWAP3 DUP3 ISZERO PUSH2 0x3F37 JUMPI SWAP2 PUSH1 0x20 MUL DUP3 ADD JUMPDEST DUP3 DUP2 GT ISZERO PUSH2 0x3F37 JUMPI DUP3 MLOAD DUP3 SSTORE SWAP2 PUSH1 0x20 ADD SWAP2 SWAP1 PUSH1 0x1 ADD SWAP1 PUSH2 0x3F63 JUMP JUMPDEST JUMPDEST DUP1 DUP3 GT ISZERO PUSH2 0x2FCC JUMPI PUSH1 0x0 DUP2 SSTORE PUSH1 0x1 ADD PUSH2 0x3F7F JUMP JUMPDEST PUSH1 0x0 PUSH1 0x20 DUP3 DUP5 SUB SLT ISZERO PUSH2 0x3FA5 JUMPI PUSH1 0x0 DUP1 REVERT JUMPDEST DUP2 CALLDATALOAD PUSH1 0x1 PUSH1 0x1 PUSH1 0xE0 SHL SUB NOT DUP2 AND DUP2 EQ PUSH2 0x3FBD JUMPI PUSH1 0x0 DUP1 REVERT JUMPDEST SWAP4 SWAP3 POP POP POP JUMP JUMPDEST PUSH1 0x0 PUSH1 0x20 DUP3 DUP5 SUB SLT ISZERO PUSH2 0x3FD6 JUMPI PUSH1 0x0 DUP1 REVERT JUMPDEST POP CALLDATALOAD SWAP2 SWAP1 POP JUMP JUMPDEST PUSH1 0x0 DUP2 MLOAD DUP1 DUP5 MSTORE PUSH1 0x20 DUP1 DUP6 ADD SWAP5 POP DUP1 DUP5 ADD PUSH1 0x0 JUMPDEST DUP4 DUP2 LT ISZERO PUSH2 0x4013 JUMPI DUP2 MLOAD PUSH4 0xFFFFFFFF AND DUP8 MSTORE SWAP6 DUP3 ADD SWAP6 SWAP1 DUP3 ADD SWAP1 PUSH1 0x1 ADD PUSH2 0x3FF1 JUMP JUMPDEST POP SWAP5 SWAP6 SWAP5 POP POP POP POP POP JUMP JUMPDEST PUSH1 0x0 DUP2 MLOAD DUP1 DUP5 MSTORE PUSH1 0x20 DUP1 DUP6 ADD SWAP5 POP DUP1 DUP5 ADD PUSH1 0x0 JUMPDEST DUP4 DUP2 LT ISZERO PUSH2 0x4013 JUMPI DUP2 MLOAD DUP8 MSTORE SWAP6 DUP3 ADD SWAP6 SWAP1 DUP3 ADD SWAP1 PUSH1 0x1 ADD PUSH2 0x4032 JUMP JUMPDEST PUSH1 0x20 DUP2 MSTORE DUP2 MLOAD ISZERO ISZERO PUSH1 0x20 DUP3 ADD MSTORE PUSH1 0x20 DUP3 ADD MLOAD ISZERO ISZERO PUSH1 0x40 DUP3 ADD MSTORE PUSH1 0x0 PUSH1 0x40 DUP4 ADD MLOAD PUSH2 0x407C PUSH1 0x60 DUP5 ADD DUP3 ISZERO ISZERO SWAP1 MSTORE JUMP JUMPDEST POP PUSH1 0x60 DUP4 ADD MLOAD PUSH1 0x1 PUSH1 0x1 PUSH1 0xA0 SHL SUB DUP2 AND PUSH1 0x80 DUP5 ADD MSTORE POP PUSH1 0x80 DUP4 ADD MLOAD PUSH1 0xE0 PUSH1 0xA0 DUP5 ADD MSTORE PUSH2 0x40AC PUSH2 0x100 DUP5 ADD DUP3 PUSH2 0x3FDD JUMP JUMPDEST SWAP1 POP PUSH1 0xA0 DUP5 ADD MLOAD PUSH1 0x1F NOT DUP1 DUP6 DUP5 SUB ADD PUSH1 0xC0 DUP7 ADD MSTORE PUSH2 0x40CA DUP4 DUP4 PUSH2 0x3FDD JUMP JUMPDEST SWAP3 POP PUSH1 0xC0 DUP7 ADD MLOAD SWAP2 POP DUP1 DUP6 DUP5 SUB ADD PUSH1 0xE0 DUP7 ADD MSTORE POP PUSH2 0x40E8 DUP3 DUP3 PUSH2 0x401E JUMP JUMPDEST SWAP6 SWAP5 POP POP POP POP POP JUMP JUMPDEST PUSH4 0x4E487B71 PUSH1 0xE0 SHL PUSH1 0x0 MSTORE PUSH1 0x41 PUSH1 0x4 MSTORE PUSH1 0x24 PUSH1 0x0 REVERT JUMPDEST PUSH1 0x40 DUP1 MLOAD SWAP1 DUP2 ADD PUSH1 0x1 PUSH1 0x1 PUSH1 0x40 SHL SUB DUP2 GT DUP3 DUP3 LT OR ISZERO PUSH2 0x4129 JUMPI PUSH2 0x4129 PUSH2 0x40F1 JUMP JUMPDEST PUSH1 0x40 MSTORE SWAP1 JUMP JUMPDEST PUSH1 0x40 MLOAD PUSH1 0x1F DUP3 ADD PUSH1 0x1F NOT AND DUP2 ADD PUSH1 0x1 PUSH1 0x1 PUSH1 0x40 SHL SUB DUP2 GT DUP3 DUP3 LT OR ISZERO PUSH2 0x4157 JUMPI PUSH2 0x4157 PUSH2 0x40F1 JUMP JUMPDEST PUSH1 0x40 MSTORE SWAP2 SWAP1 POP JUMP JUMPDEST PUSH1 0x0 PUSH1 0x1 PUSH1 0x1 PUSH1 0x40 SHL SUB DUP3 GT ISZERO PUSH2 0x4178 JUMPI PUSH2 0x4178 PUSH2 0x40F1 JUMP JUMPDEST POP PUSH1 0x5 SHL PUSH1 0x20 ADD SWAP1 JUMP JUMPDEST PUSH4 0xFFFFFFFF DUP2 AND DUP2 EQ PUSH2 0x2593 JUMPI PUSH1 0x0 DUP1 REVERT JUMPDEST PUSH1 0x0 DUP3 PUSH1 0x1F DUP4 ADD SLT PUSH2 0x41A5 JUMPI PUSH1 0x0 DUP1 REVERT JUMPDEST DUP2 CALLDATALOAD PUSH1 0x20 PUSH2 0x41BA PUSH2 0x41B5 DUP4 PUSH2 0x415F JUMP JUMPDEST PUSH2 0x412F JUMP JUMPDEST DUP3 DUP2 MSTORE PUSH1 0x5 SWAP3 SWAP1 SWAP3 SHL DUP5 ADD DUP2 ADD SWAP2 DUP2 DUP2 ADD SWAP1 DUP7 DUP5 GT ISZERO PUSH2 0x41D9 JUMPI PUSH1 0x0 DUP1 REVERT JUMPDEST DUP3 DUP7 ADD JUMPDEST DUP5 DUP2 LT ISZERO PUSH2 0x41FD JUMPI DUP1 CALLDATALOAD PUSH2 0x41F0 DUP2 PUSH2 0x4182 JUMP JUMPDEST DUP4 MSTORE SWAP2 DUP4 ADD SWAP2 DUP4 ADD PUSH2 0x41DD JUMP JUMPDEST POP SWAP7 SWAP6 POP POP POP POP POP POP JUMP JUMPDEST PUSH1 0x0 PUSH1 0x20 DUP3 DUP5 SUB SLT ISZERO PUSH2 0x421A JUMPI PUSH1 0x0 DUP1 REVERT JUMPDEST DUP2 CALLDATALOAD PUSH1 0x1 PUSH1 0x1 PUSH1 0x40 SHL SUB DUP2 GT ISZERO PUSH2 0x4230 JUMPI PUSH1 0x0 DUP1 REVERT JUMPDEST PUSH2 0x423C DUP5 DUP3 DUP6 ADD PUSH2 0x4194 JUMP JUMPDEST SWAP5 SWAP4 POP POP POP POP JUMP JUMPDEST PUSH1 0x20 DUP2 MSTORE PUSH1 0x0 PUSH2 0x3FBD PUSH1 0x20 DUP4 ADD DUP5 PUSH2 0x3FDD JUMP JUMPDEST DUP1 CALLDATALOAD PUSH1 0x1 PUSH1 0x1 PUSH1 0xA0 SHL SUB DUP2 AND DUP2 EQ PUSH2 0x348D JUMPI PUSH1 0x0 DUP1 REVERT JUMPDEST PUSH1 0x0 DUP1 PUSH1 0x40 DUP4 DUP6 SUB SLT ISZERO PUSH2 0x4281 JUMPI PUSH1 0x0 DUP1 REVERT JUMPDEST DUP3 CALLDATALOAD SWAP2 POP PUSH2 0x4291 PUSH1 0x20 DUP5 ADD PUSH2 0x4257 JUMP JUMPDEST SWAP1 POP SWAP3 POP SWAP3 SWAP1 POP JUMP JUMPDEST PUSH1 0x0 DUP3 PUSH1 0x1F DUP4 ADD SLT PUSH2 0x42AB JUMPI PUSH1 0x0 DUP1 REVERT JUMPDEST DUP2 CALLDATALOAD PUSH1 0x20 PUSH2 0x42BB PUSH2 0x41B5 DUP4 PUSH2 0x415F JUMP JUMPDEST DUP3 DUP2 MSTORE PUSH1 0x5 SWAP3 SWAP1 SWAP3 SHL DUP5 ADD DUP2 ADD SWAP2 DUP2 DUP2 ADD SWAP1 DUP7 DUP5 GT ISZERO PUSH2 0x42DA JUMPI PUSH1 0x0 DUP1 REVERT JUMPDEST DUP3 DUP7 ADD JUMPDEST DUP5 DUP2 LT ISZERO PUSH2 0x41FD JUMPI DUP1 CALLDATALOAD DUP4 MSTORE SWAP2 DUP4 ADD SWAP2 DUP4 ADD PUSH2 0x42DE JUMP JUMPDEST PUSH1 0x0 DUP1 PUSH1 0x40 DUP4 DUP6 SUB SLT ISZERO PUSH2 0x4308 JUMPI PUSH1 0x0 DUP1 REVERT JUMPDEST DUP3 CALLDATALOAD SWAP2 POP PUSH1 0x20 DUP4 ADD CALLDATALOAD PUSH1 0x1 PUSH1 0x1 PUSH1 0x40 SHL SUB DUP2 GT ISZERO PUSH2 0x4325 JUMPI PUSH1 0x0 DUP1 REVERT JUMPDEST PUSH2 0x4331 DUP6 DUP3 DUP7 ADD PUSH2 0x429A JUMP JUMPDEST SWAP2 POP POP SWAP3 POP SWAP3 SWAP1 POP JUMP JUMPDEST PUSH1 0x20 DUP2 MSTORE PUSH1 0x0 PUSH2 0x3FBD PUSH1 0x20 DUP4 ADD DUP5 PUSH2 0x401E JUMP JUMPDEST PUSH1 0x0 DUP1 PUSH1 0x40 DUP4 DUP6 SUB SLT ISZERO PUSH2 0x4361 JUMPI PUSH1 0x0 DUP1 REVERT JUMPDEST DUP3 CALLDATALOAD PUSH1 0x1 PUSH1 0x1 PUSH1 0x40 SHL SUB DUP1 DUP3 GT ISZERO PUSH2 0x4378 JUMPI PUSH1 0x0 DUP1 REVERT JUMPDEST PUSH2 0x4384 DUP7 DUP4 DUP8 ADD PUSH2 0x4194 JUMP JUMPDEST SWAP4 POP PUSH1 0x20 DUP6 ADD CALLDATALOAD SWAP2 POP DUP1 DUP3 GT ISZERO PUSH2 0x439A JUMPI PUSH1 0x0 DUP1 REVERT JUMPDEST POP PUSH2 0x4331 DUP6 DUP3 DUP7 ADD PUSH2 0x4194 JUMP JUMPDEST PUSH1 0x0 DUP1 PUSH1 0x40 DUP4 DUP6 SUB SLT ISZERO PUSH2 0x43BA JUMPI PUSH1 0x0 DUP1 REVERT JUMPDEST PUSH2 0x43C3 DUP4 PUSH2 0x4257 JUMP JUMPDEST SWAP2 POP PUSH1 0x20 DUP4 ADD CALLDATALOAD PUSH2 0x43D3 DUP2 PUSH2 0x4182 JUMP JUMPDEST DUP1 SWAP2 POP POP SWAP3 POP SWAP3 SWAP1 POP JUMP JUMPDEST PUSH1 0x0 PUSH1 0x20 DUP3 DUP5 SUB SLT ISZERO PUSH2 0x43F0 JUMPI PUSH1 0x0 DUP1 REVERT JUMPDEST DUP2 CALLDATALOAD PUSH1 0x1 PUSH1 0x1 PUSH1 0x40 SHL SUB DUP2 GT ISZERO PUSH2 0x4406 JUMPI PUSH1 0x0 DUP1 REVERT JUMPDEST PUSH2 0x423C DUP5 DUP3 DUP6 ADD PUSH2 0x429A JUMP JUMPDEST PUSH1 0x0 PUSH1 0x20 DUP3 DUP5 SUB SLT ISZERO PUSH2 0x4424 JUMPI PUSH1 0x0 DUP1 REVERT JUMPDEST PUSH2 0x3FBD DUP3 PUSH2 0x4257 JUMP JUMPDEST PUSH1 0x0 PUSH1 0x20 DUP3 DUP5 SUB SLT ISZERO PUSH2 0x443F JUMPI PUSH1 0x0 DUP1 REVERT JUMPDEST DUP2 CALLDATALOAD PUSH2 0x3FBD DUP2 PUSH2 0x4182 JUMP JUMPDEST PUSH1 0x0 DUP1 PUSH1 0x0 PUSH1 0x60 DUP5 DUP7 SUB SLT ISZERO PUSH2 0x445F JUMPI PUSH1 0x0 DUP1 REVERT JUMPDEST DUP4 CALLDATALOAD PUSH2 0x446A DUP2 PUSH2 0x4182 JUMP JUMPDEST SWAP3 POP PUSH1 0x20 DUP5 ADD CALLDATALOAD PUSH1 0x1 PUSH1 0x1 PUSH1 0x40 SHL SUB DUP1 DUP3 GT ISZERO PUSH2 0x4486 JUMPI PUSH1 0x0 DUP1 REVERT JUMPDEST PUSH2 0x4492 DUP8 DUP4 DUP9 ADD PUSH2 0x4194 JUMP JUMPDEST SWAP4 POP PUSH1 0x40 DUP7 ADD CALLDATALOAD SWAP2 POP DUP1 DUP3 GT ISZERO PUSH2 0x44A8 JUMPI PUSH1 0x0 DUP1 REVERT JUMPDEST POP PUSH2 0x44B5 DUP7 DUP3 DUP8 ADD PUSH2 0x4194 JUMP JUMPDEST SWAP2 POP POP SWAP3 POP SWAP3 POP SWAP3 JUMP JUMPDEST PUSH1 0x60 DUP2 MSTORE PUSH1 0x0 PUSH2 0x44D2 PUSH1 0x60 DUP4 ADD DUP7 PUSH2 0x3FDD JUMP JUMPDEST DUP3 DUP2 SUB PUSH1 0x20 DUP5 ADD MSTORE PUSH2 0x44E4 DUP2 DUP7 PUSH2 0x3FDD JUMP JUMPDEST SWAP1 POP DUP3 DUP2 SUB PUSH1 0x40 DUP5 ADD MSTORE PUSH2 0x3D63 DUP2 DUP6 PUSH2 0x3FDD JUMP JUMPDEST DUP1 MLOAD DUP3 MSTORE PUSH1 0x0 PUSH1 0x20 DUP3 ADD MLOAD PUSH1 0x40 PUSH1 0x20 DUP6 ADD MSTORE PUSH2 0x423C PUSH1 0x40 DUP6 ADD DUP3 PUSH2 0x401E JUMP JUMPDEST DUP4 ISZERO ISZERO DUP2 MSTORE PUSH1 0xFF DUP4 AND PUSH1 0x20 DUP3 ADD MSTORE PUSH1 0x60 PUSH1 0x40 DUP3 ADD MSTORE PUSH1 0x0 PUSH2 0x40E8 PUSH1 0x60 DUP4 ADD DUP5 PUSH2 0x44F8 JUMP JUMPDEST PUSH1 0x0 DUP1 PUSH1 0x0 PUSH1 0x60 DUP5 DUP7 SUB SLT ISZERO PUSH2 0x4550 JUMPI PUSH1 0x0 DUP1 REVERT JUMPDEST PUSH2 0x446A DUP5 PUSH2 0x4257 JUMP JUMPDEST PUSH1 0x40 DUP2 MSTORE PUSH1 0x0 PUSH2 0x456C PUSH1 0x40 DUP4 ADD DUP6 PUSH2 0x3FDD JUMP JUMPDEST DUP3 DUP2 SUB PUSH1 0x20 DUP5 ADD MSTORE PUSH2 0x40E8 DUP2 DUP6 PUSH2 0x44F8 JUMP JUMPDEST PUSH1 0x0 PUSH1 0x20 DUP3 DUP5 SUB SLT ISZERO PUSH2 0x4590 JUMPI PUSH1 0x0 DUP1 REVERT JUMPDEST POP MLOAD SWAP2 SWAP1 POP JUMP JUMPDEST PUSH4 0x4E487B71 PUSH1 0xE0 SHL PUSH1 0x0 MSTORE PUSH1 0x32 PUSH1 0x4 MSTORE PUSH1 0x24 PUSH1 0x0 REVERT JUMPDEST PUSH1 0x20 DUP1 DUP3 MSTORE PUSH1 0x14 SWAP1 DUP3 ADD MSTORE PUSH20 0x2932B9BA3934B1BA32B2103A379030B236B4B717 PUSH1 0x61 SHL PUSH1 0x40 DUP3 ADD MSTORE PUSH1 0x60 ADD SWAP1 JUMP JUMPDEST PUSH4 0x4E487B71 PUSH1 0xE0 SHL PUSH1 0x0 MSTORE PUSH1 0x11 PUSH1 0x4 MSTORE PUSH1 0x24 PUSH1 0x0 REVERT JUMPDEST PUSH1 0x0 PUSH4 0xFFFFFFFF DUP1 DUP4 AND DUP2 DUP2 SUB PUSH2 0x460A JUMPI PUSH2 0x460A PUSH2 0x45DB JUMP JUMPDEST PUSH1 0x1 ADD SWAP4 SWAP3 POP POP POP JUMP JUMPDEST PUSH4 0xFFFFFFFF DUP3 DUP2 AND DUP3 DUP3 AND SUB SWAP1 DUP1 DUP3 GT ISZERO PUSH2 0x4631 JUMPI PUSH2 0x4631 PUSH2 0x45DB JUMP JUMPDEST POP SWAP3 SWAP2 POP POP JUMP JUMPDEST PUSH1 0x0 PUSH1 0x1 DUP3 ADD PUSH2 0x464A JUMPI PUSH2 0x464A PUSH2 0x45DB JUMP JUMPDEST POP PUSH1 0x1 ADD SWAP1 JUMP JUMPDEST DUP1 DUP3 ADD DUP1 DUP3 GT ISZERO PUSH2 0x84C JUMPI PUSH2 0x84C PUSH2 0x45DB JUMP JUMPDEST PUSH1 0x0 PUSH4 0xFFFFFFFF DUP3 AND DUP1 PUSH2 0x467A JUMPI PUSH2 0x467A PUSH2 0x45DB JUMP JUMPDEST PUSH1 0x0 NOT ADD SWAP3 SWAP2 POP POP JUMP JUMPDEST PUSH1 0x1 PUSH1 0x1 PUSH1 0xA0 SHL SUB DUP5 AND DUP2 MSTORE PUSH1 0x80 PUSH1 0x20 DUP3 ADD DUP2 SWAP1 MSTORE PUSH1 0x0 SWAP1 PUSH2 0x46A8 SWAP1 DUP4 ADD DUP6 PUSH2 0x401E JUMP JUMPDEST DUP3 DUP2 SUB PUSH1 0x40 DUP5 ADD MSTORE PUSH2 0x46BA DUP2 DUP6 PUSH2 0x401E JUMP JUMPDEST DUP4 DUP2 SUB PUSH1 0x60 SWAP1 SWAP5 ADD SWAP4 SWAP1 SWAP4 MSTORE POP POP PUSH1 0x0 DUP2 MSTORE PUSH1 0x20 ADD SWAP4 SWAP3 POP POP POP JUMP JUMPDEST DUP2 DUP2 SUB DUP2 DUP2 GT ISZERO PUSH2 0x84C JUMPI PUSH2 0x84C PUSH2 0x45DB JUMP JUMPDEST PUSH4 0xFFFFFFFF DUP2 DUP2 AND DUP4 DUP3 AND ADD SWAP1 DUP1 DUP3 GT ISZERO PUSH2 0x4631 JUMPI PUSH2 0x4631 PUSH2 0x45DB JUMP JUMPDEST PUSH4 0x4E487B71 PUSH1 0xE0 SHL PUSH1 0x0 MSTORE PUSH1 0x12 PUSH1 0x4 MSTORE PUSH1 0x24 PUSH1 0x0 REVERT JUMPDEST PUSH1 0x0 PUSH4 0xFFFFFFFF DUP1 DUP5 AND DUP1 PUSH2 0x4733 JUMPI PUSH2 0x4733 PUSH2 0x4706 JUMP JUMPDEST SWAP3 AND SWAP2 SWAP1 SWAP2 MOD SWAP3 SWAP2 POP POP JUMP JUMPDEST PUSH1 0x0 PUSH1 0x40 DUP4 ADD DUP3 MLOAD DUP5 MSTORE PUSH1 0x20 DUP1 DUP5 ADD MLOAD PUSH1 0x40 DUP3 DUP8 ADD MSTORE DUP3 DUP2 MLOAD DUP1 DUP6 MSTORE PUSH1 0x60 DUP9 ADD SWAP2 POP DUP4 DUP4 ADD SWAP5 POP PUSH1 0x0 SWAP3 POP JUMPDEST DUP1 DUP4 LT ISZERO PUSH2 0x41FD JUMPI DUP5 MLOAD DUP3 MSTORE SWAP4 DUP4 ADD SWAP4 PUSH1 0x1 SWAP3 SWAP1 SWAP3 ADD SWAP2 SWAP1 DUP4 ADD SWAP1 PUSH2 0x476B JUMP JUMPDEST PUSH1 0x40 DUP2 MSTORE PUSH1 0x0 PUSH2 0x479E PUSH1 0x40 DUP4 ADD DUP6 PUSH2 0x473F JUMP JUMPDEST SWAP1 POP DUP3 PUSH1 0x20 DUP4 ADD MSTORE SWAP4 SWAP3 POP POP POP JUMP JUMPDEST PUSH1 0x0 PUSH1 0x20 DUP3 DUP5 SUB SLT ISZERO PUSH2 0x47BF JUMPI PUSH1 0x0 DUP1 REVERT JUMPDEST DUP2 MLOAD PUSH2 0x3FBD DUP2 PUSH2 0x4182 JUMP JUMPDEST PUSH1 0xFF DUP3 DUP2 AND DUP3 DUP3 AND SUB SWAP1 DUP2 GT ISZERO PUSH2 0x84C JUMPI PUSH2 0x84C PUSH2 0x45DB JUMP JUMPDEST DUP1 DUP3 MUL DUP2 ISZERO DUP3 DUP3 DIV DUP5 EQ OR PUSH2 0x84C JUMPI PUSH2 0x84C PUSH2 0x45DB JUMP JUMPDEST PUSH1 0x0 PUSH1 0xFF DUP3 AND PUSH1 0xFF DUP2 SUB PUSH2 0x4810 JUMPI PUSH2 0x4810 PUSH2 0x45DB JUMP JUMPDEST PUSH1 0x1 ADD SWAP3 SWAP2 POP POP JUMP JUMPDEST PUSH1 0x1 DUP2 DUP2 JUMPDEST DUP1 DUP6 GT ISZERO PUSH2 0x4854 JUMPI DUP2 PUSH1 0x0 NOT DIV DUP3 GT ISZERO PUSH2 0x483A JUMPI PUSH2 0x483A PUSH2 0x45DB JUMP JUMPDEST DUP1 DUP6 AND ISZERO PUSH2 0x4847 JUMPI SWAP2 DUP2 MUL SWAP2 JUMPDEST SWAP4 DUP5 SHR SWAP4 SWAP1 DUP1 MUL SWAP1 PUSH2 0x481E JUMP JUMPDEST POP SWAP3 POP SWAP3 SWAP1 POP JUMP JUMPDEST PUSH1 0x0 DUP3 PUSH2 0x486B JUMPI POP PUSH1 0x1 PUSH2 0x84C JUMP JUMPDEST DUP2 PUSH2 0x4878 JUMPI POP PUSH1 0x0 PUSH2 0x84C JUMP JUMPDEST DUP2 PUSH1 0x1 DUP2 EQ PUSH2 0x488E JUMPI PUSH1 0x2 DUP2 EQ PUSH2 0x4898 JUMPI PUSH2 0x48B4 JUMP JUMPDEST PUSH1 0x1 SWAP2 POP POP PUSH2 0x84C JUMP JUMPDEST PUSH1 0xFF DUP5 GT ISZERO PUSH2 0x48A9 JUMPI PUSH2 0x48A9 PUSH2 0x45DB JUMP JUMPDEST POP POP PUSH1 0x1 DUP3 SHL PUSH2 0x84C JUMP JUMPDEST POP PUSH1 0x20 DUP4 LT PUSH2 0x133 DUP4 LT AND PUSH1 0x4E DUP5 LT PUSH1 0xB DUP5 LT AND OR ISZERO PUSH2 0x48D7 JUMPI POP DUP2 DUP2 EXP PUSH2 0x84C JUMP JUMPDEST PUSH2 0x48E1 DUP4 DUP4 PUSH2 0x4819 JUMP JUMPDEST DUP1 PUSH1 0x0 NOT DIV DUP3 GT ISZERO PUSH2 0x48F5 JUMPI PUSH2 0x48F5 PUSH2 0x45DB JUMP JUMPDEST MUL SWAP4 SWAP3 POP POP POP JUMP JUMPDEST PUSH1 0x0 PUSH2 0x3FBD PUSH4 0xFFFFFFFF DUP5 AND DUP4 PUSH2 0x485C JUMP JUMPDEST PUSH1 0x0 DUP3 PUSH2 0x491E JUMPI PUSH2 0x491E PUSH2 0x4706 JUMP JUMPDEST POP DIV SWAP1 JUMP JUMPDEST PUSH1 0x0 DUP3 PUSH2 0x4932 JUMPI PUSH2 0x4932 PUSH2 0x4706 JUMP JUMPDEST POP MOD SWAP1 JUMP JUMPDEST PUSH1 0x20 DUP1 DUP3 MSTORE DUP3 MLOAD DUP3 DUP3 ADD DUP2 SWAP1 MSTORE PUSH1 0x0 SWAP2 SWAP1 DUP5 DUP3 ADD SWAP1 PUSH1 0x40 DUP6 ADD SWAP1 DUP5 JUMPDEST DUP2 DUP2 LT ISZERO PUSH2 0x4975 JUMPI DUP4 MLOAD PUSH4 0xFFFFFFFF AND DUP4 MSTORE SWAP3 DUP5 ADD SWAP3 SWAP2 DUP5 ADD SWAP2 PUSH1 0x1 ADD PUSH2 0x4953 JUMP JUMPDEST POP SWAP1 SWAP7 SWAP6 POP POP POP POP POP POP JUMP JUMPDEST PUSH1 0x0 PUSH1 0x20 DUP1 DUP4 DUP6 SUB SLT ISZERO PUSH2 0x4994 JUMPI PUSH1 0x0 DUP1 REVERT JUMPDEST DUP3 MLOAD PUSH1 0x1 PUSH1 0x1 PUSH1 0x40 SHL SUB DUP1 DUP3 GT ISZERO PUSH2 0x49AB JUMPI PUSH1 0x0 DUP1 REVERT JUMPDEST SWAP1 DUP5 ADD SWAP1 PUSH1 0x40 DUP3 DUP8 SUB SLT ISZERO PUSH2 0x49BF JUMPI PUSH1 0x0 DUP1 REVERT JUMPDEST PUSH2 0x49C7 PUSH2 0x4107 JUMP JUMPDEST DUP3 MLOAD DUP2 MSTORE DUP4 DUP4 ADD MLOAD DUP3 DUP2 GT ISZERO PUSH2 0x49DC JUMPI PUSH1 0x0 DUP1 REVERT JUMPDEST DUP1 DUP5 ADD SWAP4 POP POP DUP7 PUSH1 0x1F DUP5 ADD SLT PUSH2 0x49F1 JUMPI PUSH1 0x0 DUP1 REVERT JUMPDEST DUP3 MLOAD SWAP2 POP PUSH2 0x4A01 PUSH2 0x41B5 DUP4 PUSH2 0x415F JUMP JUMPDEST DUP3 DUP2 MSTORE PUSH1 0x5 SWAP3 SWAP1 SWAP3 SHL DUP4 ADD DUP5 ADD SWAP2 DUP5 DUP2 ADD SWAP1 DUP9 DUP5 GT ISZERO PUSH2 0x4A20 JUMPI PUSH1 0x0 DUP1 REVERT JUMPDEST SWAP4 DUP6 ADD SWAP4 JUMPDEST DUP4 DUP6 LT ISZERO PUSH2 0x4A3E JUMPI DUP5 MLOAD DUP3 MSTORE SWAP4 DUP6 ADD SWAP4 SWAP1 DUP6 ADD SWAP1 PUSH2 0x4A25 JUMP JUMPDEST SWAP5 DUP3 ADD SWAP5 SWAP1 SWAP5 MSTORE SWAP7 SWAP6 POP POP POP POP POP POP JUMP JUMPDEST PUSH1 0x0 PUSH2 0x3FBD PUSH1 0xFF DUP5 AND DUP4 PUSH2 0x485C JUMP JUMPDEST PUSH1 0x60 DUP2 MSTORE PUSH1 0x0 PUSH2 0x4A71 PUSH1 0x60 DUP4 ADD DUP7 PUSH2 0x473F JUMP JUMPDEST SWAP1 POP DUP4 PUSH1 0x20 DUP4 ADD MSTORE PUSH4 0xFFFFFFFF DUP4 AND PUSH1 0x40 DUP4 ADD MSTORE SWAP5 SWAP4 POP POP POP POP JUMP JUMPDEST DUP2 DUP2 SUB PUSH1 0x0 DUP4 SLT DUP1 ISZERO DUP4 DUP4 SGT AND DUP4 DUP4 SLT DUP3 AND OR ISZERO PUSH2 0x4631 JUMPI PUSH2 0x4631 PUSH2 0x45DB JUMP JUMPDEST DUP1 DUP3 ADD DUP3 DUP2 SLT PUSH1 0x0 DUP4 SLT DUP1 ISZERO DUP3 AND DUP3 ISZERO DUP3 AND OR ISZERO PUSH2 0x4ACD JUMPI PUSH2 0x4ACD PUSH2 0x45DB JUMP JUMPDEST POP POP SWAP3 SWAP2 POP POP JUMP JUMPDEST PUSH1 0x0 PUSH1 0x1 PUSH1 0x1 PUSH1 0xFF SHL ADD DUP3 ADD PUSH2 0x464A JUMPI PUSH2 0x464A PUSH2 0x45DB JUMP JUMPDEST PUSH4 0x4E487B71 PUSH1 0xE0 SHL PUSH1 0x0 MSTORE PUSH1 0x31 PUSH1 0x4 MSTORE PUSH1 0x24 PUSH1 0x0 REVERT INVALID LOG2 PUSH5 0x6970667358 0x22 SLT KECCAK256 0xCA SWAP12 PUSH16 0x63F0F3EACB93B92FFC9BCB128FBBC8AA CALLDATALOAD 0x2B PUSH11 0x58F71E27090FFF72B864 PUSH20 0x6F6C634300081400330000000000000000000000 "
		},
		"gasEstimates": {
			"creation": {
				"codeDepositCost": "3851400",
				"executionCost": "infinite",
				"totalCost": "infinite"
			},
			"external": {
				"DEFAULT_ADMIN_ROLE()": "328",
				"EXECUTOR_ROLE()": "286",
				"FULFILLER_ROLE()": "285",
				"SELLER_ROLE()": "261",
				"drawingPoolNonce()": "2413",
				"drawingPoolsInfo(uint32)": "2614",
				"execRequest()": "infinite",
				"execRequestBatch()": "infinite",
				"existedDrawing(uint256)": "6359",
				"existedUnit(uint256)": "6337",
				"fulfillRandomWords(uint256,uint256[])": "infinite",
				"getExistedDrawingPool()": "infinite",
				"getExistedUnitPool()": "infinite",
				"getLastRequestId()": "6752",
				"getPoolInfo(uint32)": "infinite",
				"getRequestInfo(uint256)": "infinite",
				"getReuqestQueue()": "infinite",
				"getRoleAdmin(bytes32)": "2515",
				"getTokenInfo(uint256)": "infinite",
				"getTokenMaxAmounts()": "infinite",
				"getTokenPoolInfo()": "infinite",
				"getTokenRemainings()": "infinite",
				"getTokenSupply(uint256)": "infinite",
				"getUnitPoolInfo(uint32)": "infinite",
				"getUserDrawable(address,uint32)": "2840",
				"grantRole(bytes32,address)": "infinite",
				"hasRole(bytes32,address)": "2762",
				"ids(uint256)": "4707",
				"maxAmounts(uint256)": "6316",
				"nftContract()": "2492",
				"pendingRequestNum()": "4604",
				"remainings(uint256)": "6359",
				"renounceRole(bytes32,address)": "29179",
				"requestNonce()": "2429",
				"requestsInfo(uint256)": "2751",
				"requestsQueue(uint256)": "4731",
				"revokeRole(bytes32,address)": "infinite",
				"sendRequest(uint32[],uint32[])": "infinite",
				"sendRequestBatch(uint32,uint32[],uint32[])": "infinite",
				"setDrawingPool(uint32[],uint32[])": "infinite",
				"setNFTcontract(address)": "26974",
				"setTokenMaxAmount(uint32[])": "infinite",
				"setTokenPool(uint256[])": "infinite",
				"setUnitPool(uint32[])": "infinite",
				"setUserDrawable(address,uint32[],uint32[])": "infinite",
				"setVRFGenerator(address)": "infinite",
				"supportsInterface(bytes4)": "473",
				"unitPoolNonce()": "2359",
				"unitPoolsInfo(uint32)": "infinite",
				"usersDrawable(address,uint32)": "2763",
				"vrfGenerator()": "2448"
			},
			"internal": {
				"buildOcTree(uint32[] memory)": "infinite",
				"checkUnitStatus(uint32)": "infinite",
				"closeUnitPool(uint32)": "infinite",
				"count(uint256[] memory)": "infinite",
				"drawTokenIndex(uint32,uint32)": "infinite",
				"drawUnitPoolID(uint32,uint32)": "infinite",
				"getAccumulatedArr(uint32[] memory)": "infinite",
				"getOctreeHeight(uint256)": "infinite",
				"getRandomWord32(uint256)": "infinite",
				"hash(uint256)": "infinite",
				"pop(uint32[] storage pointer,uint32)": "infinite",
				"removeTokenProb(uint256)": "infinite",
				"updateTokenProb(uint32,uint256,uint32)": "infinite"
			}
		},
		"methodIdentifiers": {
			"DEFAULT_ADMIN_ROLE()": "a217fddf",
			"EXECUTOR_ROLE()": "07bd0265",
			"FULFILLER_ROLE()": "4fd331c6",
			"SELLER_ROLE()": "dbe4613d",
			"drawingPoolNonce()": "5d7ba30f",
			"drawingPoolsInfo(uint32)": "75a6da9b",
			"execRequest()": "8c7520f0",
			"execRequestBatch()": "8487a06a",
			"existedDrawing(uint256)": "2e413c37",
			"existedUnit(uint256)": "8667b8d9",
			"fulfillRandomWords(uint256,uint256[])": "38ba4614",
			"getExistedDrawingPool()": "b749ea83",
			"getExistedUnitPool()": "2714795f",
			"getLastRequestId()": "19c2b4c3",
			"getPoolInfo(uint32)": "b670ed52",
			"getRequestInfo(uint256)": "0b816045",
			"getReuqestQueue()": "39da9fb8",
			"getRoleAdmin(bytes32)": "248a9ca3",
			"getTokenInfo(uint256)": "8c7a63ae",
			"getTokenMaxAmounts()": "3c15ecf4",
			"getTokenPoolInfo()": "d7b6453f",
			"getTokenRemainings()": "f36b4b58",
			"getTokenSupply(uint256)": "19b88edb",
			"getUnitPoolInfo(uint32)": "f3ebc985",
			"getUserDrawable(address,uint32)": "50cf21d9",
			"grantRole(bytes32,address)": "2f2ff15d",
			"hasRole(bytes32,address)": "91d14854",
			"ids(uint256)": "fac333ac",
			"maxAmounts(uint256)": "02f43023",
			"nftContract()": "d56d229d",
			"pendingRequestNum()": "d2b0022f",
			"remainings(uint256)": "3c36eaec",
			"renounceRole(bytes32,address)": "36568abe",
			"requestNonce()": "7c1a0302",
			"requestsInfo(uint256)": "61d34d42",
			"requestsQueue(uint256)": "4749c25c",
			"revokeRole(bytes32,address)": "d547741f",
			"sendRequest(uint32[],uint32[])": "6a82557f",
			"sendRequestBatch(uint32,uint32[],uint32[])": "7f2486ce",
			"setDrawingPool(uint32[],uint32[])": "40730aaa",
			"setNFTcontract(address)": "90297b0d",
			"setTokenMaxAmount(uint32[])": "1a75b3ed",
			"setTokenPool(uint256[])": "5a1c7c50",
			"setUnitPool(uint32[])": "cfa74b9c",
			"setUserDrawable(address,uint32[],uint32[])": "db2e3b4d",
			"setVRFGenerator(address)": "6ce6a4b4",
			"supportsInterface(bytes4)": "01ffc9a7",
			"unitPoolNonce()": "6473ec2c",
			"unitPoolsInfo(uint32)": "d8683b2e",
			"usersDrawable(address,uint32)": "4ed31428",
			"vrfGenerator()": "5ef73b1f"
		}
	},
	"abi": [
		{
			"inputs": [
				{
					"internalType": "address",
					"name": "_initialAdmin",
					"type": "address"
				}
			],
			"stateMutability": "nonpayable",
			"type": "constructor"
		},
		{
			"inputs": [],
			"name": "AccessControlBadConfirmation",
			"type": "error"
		},
		{
			"inputs": [
				{
					"internalType": "address",
					"name": "account",
					"type": "address"
				},
				{
					"internalType": "bytes32",
					"name": "neededRole",
					"type": "bytes32"
				}
			],
			"name": "AccessControlUnauthorizedAccount",
			"type": "error"
		},
		{
			"inputs": [
				{
					"internalType": "address",
					"name": "",
					"type": "address"
				},
				{
					"internalType": "uint32",
					"name": "",
					"type": "uint32"
				}
			],
			"name": "DrawableNotEnough",
			"type": "error"
		},
		{
			"inputs": [],
			"name": "EmptyIDs",
			"type": "error"
		},
		{
			"inputs": [],
			"name": "LengthNotMatch",
			"type": "error"
		},
		{
			"inputs": [
				{
					"internalType": "uint256",
					"name": "",
					"type": "uint256"
				}
			],
			"name": "RequestNotExist",
			"type": "error"
		},
		{
			"anonymous": false,
			"inputs": [
				{
					"indexed": true,
					"internalType": "uint256",
					"name": "requestId",
					"type": "uint256"
				},
				{
					"indexed": true,
					"internalType": "address",
					"name": "requester",
					"type": "address"
				}
			],
			"name": "RequestCompleted",
			"type": "event"
		},
		{
			"anonymous": false,
			"inputs": [
				{
					"indexed": true,
					"internalType": "uint256",
					"name": "requestId",
					"type": "uint256"
				},
				{
					"indexed": false,
					"internalType": "uint256[]",
					"name": "randomWords",
					"type": "uint256[]"
				}
			],
			"name": "RequestFulfilled",
			"type": "event"
		},
		{
			"anonymous": false,
			"inputs": [
				{
					"indexed": false,
					"internalType": "uint256",
					"name": "requestId",
					"type": "uint256"
				},
				{
					"indexed": false,
					"internalType": "address",
					"name": "_requester",
					"type": "address"
				}
			],
			"name": "RequestSent",
			"type": "event"
		},
		{
			"anonymous": false,
			"inputs": [
				{
					"indexed": true,
					"internalType": "bytes32",
					"name": "role",
					"type": "bytes32"
				},
				{
					"indexed": true,
					"internalType": "bytes32",
					"name": "previousAdminRole",
					"type": "bytes32"
				},
				{
					"indexed": true,
					"internalType": "bytes32",
					"name": "newAdminRole",
					"type": "bytes32"
				}
			],
			"name": "RoleAdminChanged",
			"type": "event"
		},
		{
			"anonymous": false,
			"inputs": [
				{
					"indexed": true,
					"internalType": "bytes32",
					"name": "role",
					"type": "bytes32"
				},
				{
					"indexed": true,
					"internalType": "address",
					"name": "account",
					"type": "address"
				},
				{
					"indexed": true,
					"internalType": "address",
					"name": "sender",
					"type": "address"
				}
			],
			"name": "RoleGranted",
			"type": "event"
		},
		{
			"anonymous": false,
			"inputs": [
				{
					"indexed": true,
					"internalType": "bytes32",
					"name": "role",
					"type": "bytes32"
				},
				{
					"indexed": true,
					"internalType": "address",
					"name": "account",
					"type": "address"
				},
				{
					"indexed": true,
					"internalType": "address",
					"name": "sender",
					"type": "address"
				}
			],
			"name": "RoleRevoked",
			"type": "event"
		},
		{
			"anonymous": false,
			"inputs": [
				{
					"indexed": false,
					"internalType": "uint32",
					"name": "drawingPoolID",
					"type": "uint32"
				}
			],
			"name": "SetDrawingPool",
			"type": "event"
		},
		{
			"anonymous": false,
			"inputs": [
				{
					"indexed": false,
					"internalType": "uint32[]",
					"name": "maxAmounts",
					"type": "uint32[]"
				}
			],
			"name": "SetTokenMaxAmount",
			"type": "event"
		},
		{
			"anonymous": false,
			"inputs": [
				{
					"indexed": false,
					"internalType": "uint256[]",
					"name": "ids",
					"type": "uint256[]"
				}
			],
			"name": "SetTokenPool",
			"type": "event"
		},
		{
			"anonymous": false,
			"inputs": [
				{
					"indexed": false,
					"internalType": "uint32",
					"name": "unitPoolID",
					"type": "uint32"
				}
			],
			"name": "SetUnitPool",
			"type": "event"
		},
		{
			"inputs": [],
			"name": "DEFAULT_ADMIN_ROLE",
			"outputs": [
				{
					"internalType": "bytes32",
					"name": "",
					"type": "bytes32"
				}
			],
			"stateMutability": "view",
			"type": "function"
		},
		{
			"inputs": [],
			"name": "EXECUTOR_ROLE",
			"outputs": [
				{
					"internalType": "bytes32",
					"name": "",
					"type": "bytes32"
				}
			],
			"stateMutability": "view",
			"type": "function"
		},
		{
			"inputs": [],
			"name": "FULFILLER_ROLE",
			"outputs": [
				{
					"internalType": "bytes32",
					"name": "",
					"type": "bytes32"
				}
			],
			"stateMutability": "view",
			"type": "function"
		},
		{
			"inputs": [],
			"name": "SELLER_ROLE",
			"outputs": [
				{
					"internalType": "bytes32",
					"name": "",
					"type": "bytes32"
				}
			],
			"stateMutability": "view",
			"type": "function"
		},
		{
			"inputs": [],
			"name": "drawingPoolNonce",
			"outputs": [
				{
					"internalType": "uint32",
					"name": "",
					"type": "uint32"
				}
			],
			"stateMutability": "view",
			"type": "function"
		},
		{
			"inputs": [
				{
					"internalType": "uint32",
					"name": "",
					"type": "uint32"
				}
			],
			"name": "drawingPoolsInfo",
			"outputs": [
				{
					"internalType": "bool",
					"name": "enable",
					"type": "bool"
				}
			],
			"stateMutability": "view",
			"type": "function"
		},
		{
			"inputs": [],
			"name": "execRequest",
			"outputs": [
				{
					"internalType": "uint256[]",
					"name": "",
					"type": "uint256[]"
				}
			],
			"stateMutability": "nonpayable",
			"type": "function"
		},
		{
			"inputs": [],
			"name": "execRequestBatch",
			"outputs": [],
			"stateMutability": "nonpayable",
			"type": "function"
		},
		{
			"inputs": [
				{
					"internalType": "uint256",
					"name": "",
					"type": "uint256"
				}
			],
			"name": "existedDrawing",
			"outputs": [
				{
					"internalType": "uint32",
					"name": "",
					"type": "uint32"
				}
			],
			"stateMutability": "view",
			"type": "function"
		},
		{
			"inputs": [
				{
					"internalType": "uint256",
					"name": "",
					"type": "uint256"
				}
			],
			"name": "existedUnit",
			"outputs": [
				{
					"internalType": "uint32",
					"name": "",
					"type": "uint32"
				}
			],
			"stateMutability": "view",
			"type": "function"
		},
		{
			"inputs": [
				{
					"internalType": "uint256",
					"name": "_requestId",
					"type": "uint256"
				},
				{
					"internalType": "uint256[]",
					"name": "_randomWords",
					"type": "uint256[]"
				}
			],
			"name": "fulfillRandomWords",
			"outputs": [],
			"stateMutability": "nonpayable",
			"type": "function"
		},
		{
			"inputs": [],
			"name": "getExistedDrawingPool",
			"outputs": [
				{
					"internalType": "uint32[]",
					"name": "drawingPools",
					"type": "uint32[]"
				}
			],
			"stateMutability": "view",
			"type": "function"
		},
		{
			"inputs": [],
			"name": "getExistedUnitPool",
			"outputs": [
				{
					"internalType": "uint32[]",
					"name": "unitPools",
					"type": "uint32[]"
				}
			],
			"stateMutability": "view",
			"type": "function"
		},
		{
			"inputs": [],
			"name": "getLastRequestId",
			"outputs": [
				{
					"internalType": "uint256",
					"name": "",
					"type": "uint256"
				}
			],
			"stateMutability": "view",
			"type": "function"
		},
		{
			"inputs": [
				{
					"internalType": "uint32",
					"name": "_poolID",
					"type": "uint32"
				}
			],
			"name": "getPoolInfo",
			"outputs": [
				{
					"internalType": "uint32[]",
					"name": "",
					"type": "uint32[]"
				},
				{
					"internalType": "uint32[]",
					"name": "",
					"type": "uint32[]"
				},
				{
					"internalType": "uint32[]",
					"name": "",
					"type": "uint32[]"
				}
			],
			"stateMutability": "view",
			"type": "function"
		},
		{
			"inputs": [
				{
					"internalType": "uint256",
					"name": "_requestId",
					"type": "uint256"
				}
			],
			"name": "getRequestInfo",
			"outputs": [
				{
					"components": [
						{
							"internalType": "bool",
							"name": "exists",
							"type": "bool"
						},
						{
							"internalType": "bool",
							"name": "fulfilled",
							"type": "bool"
						},
						{
							"internalType": "bool",
							"name": "completed",
							"type": "bool"
						},
						{
							"internalType": "address",
							"name": "requestSender",
							"type": "address"
						},
						{
							"internalType": "uint32[]",
							"name": "poolsID",
							"type": "uint32[]"
						},
						{
							"internalType": "uint32[]",
							"name": "amounts",
							"type": "uint32[]"
						},
						{
							"internalType": "uint256[]",
							"name": "randomWords",
							"type": "uint256[]"
						}
					],
					"internalType": "struct IHierarchicalDrawing.RequestInfo",
					"name": "",
					"type": "tuple"
				}
			],
			"stateMutability": "view",
			"type": "function"
		},
		{
			"inputs": [],
			"name": "getReuqestQueue",
			"outputs": [
				{
					"internalType": "uint256[]",
					"name": "",
					"type": "uint256[]"
				}
			],
			"stateMutability": "view",
			"type": "function"
		},
		{
			"inputs": [
				{
					"internalType": "bytes32",
					"name": "role",
					"type": "bytes32"
				}
			],
			"name": "getRoleAdmin",
			"outputs": [
				{
					"internalType": "bytes32",
					"name": "",
					"type": "bytes32"
				}
			],
			"stateMutability": "view",
			"type": "function"
		},
		{
			"inputs": [
				{
					"internalType": "uint256",
					"name": "_id",
					"type": "uint256"
				}
			],
			"name": "getTokenInfo",
			"outputs": [
				{
					"internalType": "bool",
					"name": "",
					"type": "bool"
				},
				{
					"internalType": "uint256",
					"name": "",
					"type": "uint256"
				},
				{
					"internalType": "uint32",
					"name": "",
					"type": "uint32"
				},
				{
					"internalType": "uint32",
					"name": "",
					"type": "uint32"
				}
			],
			"stateMutability": "view",
			"type": "function"
		},
		{
			"inputs": [],
			"name": "getTokenMaxAmounts",
			"outputs": [
				{
					"internalType": "uint32[]",
					"name": "",
					"type": "uint32[]"
				}
			],
			"stateMutability": "view",
			"type": "function"
		},
		{
			"inputs": [],
			"name": "getTokenPoolInfo",
			"outputs": [
				{
					"internalType": "uint256[]",
					"name": "",
					"type": "uint256[]"
				}
			],
			"stateMutability": "view",
			"type": "function"
		},
		{
			"inputs": [],
			"name": "getTokenRemainings",
			"outputs": [
				{
					"internalType": "uint32[]",
					"name": "",
					"type": "uint32[]"
				}
			],
			"stateMutability": "view",
			"type": "function"
		},
		{
			"inputs": [
				{
					"internalType": "uint256",
					"name": "_id",
					"type": "uint256"
				}
			],
			"name": "getTokenSupply",
			"outputs": [
				{
					"internalType": "uint256",
					"name": "",
					"type": "uint256"
				}
			],
			"stateMutability": "view",
			"type": "function"
		},
		{
			"inputs": [
				{
					"internalType": "uint32",
					"name": "_unitID",
					"type": "uint32"
				}
			],
			"name": "getUnitPoolInfo",
			"outputs": [
				{
					"internalType": "uint32[]",
					"name": "",
					"type": "uint32[]"
				},
				{
					"components": [
						{
							"internalType": "uint256",
							"name": "nums",
							"type": "uint256"
						},
						{
							"internalType": "uint256[]",
							"name": "result",
							"type": "uint256[]"
						}
					],
					"internalType": "struct PackedArray.PackedArray32",
					"name": "",
					"type": "tuple"
				}
			],
			"stateMutability": "view",
			"type": "function"
		},
		{
			"inputs": [
				{
					"internalType": "address",
					"name": "_user",
					"type": "address"
				},
				{
					"internalType": "uint32",
					"name": "_poolID",
					"type": "uint32"
				}
			],
			"name": "getUserDrawable",
			"outputs": [
				{
					"internalType": "uint32",
					"name": "",
					"type": "uint32"
				}
			],
			"stateMutability": "view",
			"type": "function"
		},
		{
			"inputs": [
				{
					"internalType": "bytes32",
					"name": "role",
					"type": "bytes32"
				},
				{
					"internalType": "address",
					"name": "account",
					"type": "address"
				}
			],
			"name": "grantRole",
			"outputs": [],
			"stateMutability": "nonpayable",
			"type": "function"
		},
		{
			"inputs": [
				{
					"internalType": "bytes32",
					"name": "role",
					"type": "bytes32"
				},
				{
					"internalType": "address",
					"name": "account",
					"type": "address"
				}
			],
			"name": "hasRole",
			"outputs": [
				{
					"internalType": "bool",
					"name": "",
					"type": "bool"
				}
			],
			"stateMutability": "view",
			"type": "function"
		},
		{
			"inputs": [
				{
					"internalType": "uint256",
					"name": "",
					"type": "uint256"
				}
			],
			"name": "ids",
			"outputs": [
				{
					"internalType": "uint256",
					"name": "",
					"type": "uint256"
				}
			],
			"stateMutability": "view",
			"type": "function"
		},
		{
			"inputs": [
				{
					"internalType": "uint256",
					"name": "",
					"type": "uint256"
				}
			],
			"name": "maxAmounts",
			"outputs": [
				{
					"internalType": "uint32",
					"name": "",
					"type": "uint32"
				}
			],
			"stateMutability": "view",
			"type": "function"
		},
		{
			"inputs": [],
			"name": "nftContract",
			"outputs": [
				{
					"internalType": "contract IMyNFT",
					"name": "",
					"type": "address"
				}
			],
			"stateMutability": "view",
			"type": "function"
		},
		{
			"inputs": [],
			"name": "pendingRequestNum",
			"outputs": [
				{
					"internalType": "uint256",
					"name": "",
					"type": "uint256"
				}
			],
			"stateMutability": "view",
			"type": "function"
		},
		{
			"inputs": [
				{
					"internalType": "uint256",
					"name": "",
					"type": "uint256"
				}
			],
			"name": "remainings",
			"outputs": [
				{
					"internalType": "uint32",
					"name": "",
					"type": "uint32"
				}
			],
			"stateMutability": "view",
			"type": "function"
		},
		{
			"inputs": [
				{
					"internalType": "bytes32",
					"name": "role",
					"type": "bytes32"
				},
				{
					"internalType": "address",
					"name": "callerConfirmation",
					"type": "address"
				}
			],
			"name": "renounceRole",
			"outputs": [],
			"stateMutability": "nonpayable",
			"type": "function"
		},
		{
			"inputs": [],
			"name": "requestNonce",
			"outputs": [
				{
					"internalType": "uint256",
					"name": "",
					"type": "uint256"
				}
			],
			"stateMutability": "view",
			"type": "function"
		},
		{
			"inputs": [
				{
					"internalType": "uint256",
					"name": "",
					"type": "uint256"
				}
			],
			"name": "requestsInfo",
			"outputs": [
				{
					"internalType": "bool",
					"name": "exists",
					"type": "bool"
				},
				{
					"internalType": "bool",
					"name": "fulfilled",
					"type": "bool"
				},
				{
					"internalType": "bool",
					"name": "completed",
					"type": "bool"
				},
				{
					"internalType": "address",
					"name": "requestSender",
					"type": "address"
				}
			],
			"stateMutability": "view",
			"type": "function"
		},
		{
			"inputs": [
				{
					"internalType": "uint256",
					"name": "",
					"type": "uint256"
				}
			],
			"name": "requestsQueue",
			"outputs": [
				{
					"internalType": "uint256",
					"name": "",
					"type": "uint256"
				}
			],
			"stateMutability": "view",
			"type": "function"
		},
		{
			"inputs": [
				{
					"internalType": "bytes32",
					"name": "role",
					"type": "bytes32"
				},
				{
					"internalType": "address",
					"name": "account",
					"type": "address"
				}
			],
			"name": "revokeRole",
			"outputs": [],
			"stateMutability": "nonpayable",
			"type": "function"
		},
		{
			"inputs": [
				{
					"internalType": "uint32[]",
					"name": "_poolsID",
					"type": "uint32[]"
				},
				{
					"internalType": "uint32[]",
					"name": "_drawAmounts",
					"type": "uint32[]"
				}
			],
			"name": "sendRequest",
			"outputs": [],
			"stateMutability": "nonpayable",
			"type": "function"
		},
		{
			"inputs": [
				{
					"internalType": "uint32",
					"name": "requestNum",
					"type": "uint32"
				},
				{
					"internalType": "uint32[]",
					"name": "_poolsID",
					"type": "uint32[]"
				},
				{
					"internalType": "uint32[]",
					"name": "_drawAmounts",
					"type": "uint32[]"
				}
			],
			"name": "sendRequestBatch",
			"outputs": [],
			"stateMutability": "nonpayable",
			"type": "function"
		},
		{
			"inputs": [
				{
					"internalType": "uint32[]",
					"name": "_unitIDs",
					"type": "uint32[]"
				},
				{
					"internalType": "uint32[]",
					"name": "_probs",
					"type": "uint32[]"
				}
			],
			"name": "setDrawingPool",
			"outputs": [],
			"stateMutability": "nonpayable",
			"type": "function"
		},
		{
			"inputs": [
				{
					"internalType": "address",
					"name": "_nftContract",
					"type": "address"
				}
			],
			"name": "setNFTcontract",
			"outputs": [],
			"stateMutability": "nonpayable",
			"type": "function"
		},
		{
			"inputs": [
				{
					"internalType": "uint32[]",
					"name": "_maxAmounts",
					"type": "uint32[]"
				}
			],
			"name": "setTokenMaxAmount",
			"outputs": [],
			"stateMutability": "nonpayable",
			"type": "function"
		},
		{
			"inputs": [
				{
					"internalType": "uint256[]",
					"name": "_ids",
					"type": "uint256[]"
				}
			],
			"name": "setTokenPool",
			"outputs": [],
			"stateMutability": "nonpayable",
			"type": "function"
		},
		{
			"inputs": [
				{
					"internalType": "uint32[]",
					"name": "_probs",
					"type": "uint32[]"
				}
			],
			"name": "setUnitPool",
			"outputs": [],
			"stateMutability": "nonpayable",
			"type": "function"
		},
		{
			"inputs": [
				{
					"internalType": "address",
					"name": "_user",
					"type": "address"
				},
				{
					"internalType": "uint32[]",
					"name": "_poolsID",
					"type": "uint32[]"
				},
				{
					"internalType": "uint32[]",
					"name": "_amounts",
					"type": "uint32[]"
				}
			],
			"name": "setUserDrawable",
			"outputs": [],
			"stateMutability": "nonpayable",
			"type": "function"
		},
		{
			"inputs": [
				{
					"internalType": "address",
					"name": "_vrfGenerator",
					"type": "address"
				}
			],
			"name": "setVRFGenerator",
			"outputs": [],
			"stateMutability": "nonpayable",
			"type": "function"
		},
		{
			"inputs": [
				{
					"internalType": "bytes4",
					"name": "interfaceId",
					"type": "bytes4"
				}
			],
			"name": "supportsInterface",
			"outputs": [
				{
					"internalType": "bool",
					"name": "",
					"type": "bool"
				}
			],
			"stateMutability": "view",
			"type": "function"
		},
		{
			"inputs": [],
			"name": "unitPoolNonce",
			"outputs": [
				{
					"internalType": "uint32",
					"name": "",
					"type": "uint32"
				}
			],
			"stateMutability": "view",
			"type": "function"
		},
		{
			"inputs": [
				{
					"internalType": "uint32",
					"name": "",
					"type": "uint32"
				}
			],
			"name": "unitPoolsInfo",
			"outputs": [
				{
					"internalType": "bool",
					"name": "enable",
					"type": "bool"
				},
				{
					"internalType": "uint8",
					"name": "treeHeight",
					"type": "uint8"
				},
				{
					"components": [
						{
							"internalType": "uint256",
							"name": "nums",
							"type": "uint256"
						},
						{
							"internalType": "uint256[]",
							"name": "result",
							"type": "uint256[]"
						}
					],
					"internalType": "struct PackedArray.PackedArray32",
					"name": "tree",
					"type": "tuple"
				}
			],
			"stateMutability": "view",
			"type": "function"
		},
		{
			"inputs": [
				{
					"internalType": "address",
					"name": "",
					"type": "address"
				},
				{
					"internalType": "uint32",
					"name": "",
					"type": "uint32"
				}
			],
			"name": "usersDrawable",
			"outputs": [
				{
					"internalType": "uint32",
					"name": "",
					"type": "uint32"
				}
			],
			"stateMutability": "view",
			"type": "function"
		},
		{
			"inputs": [],
			"name": "vrfGenerator",
			"outputs": [
				{
					"internalType": "contract IVRFManager",
					"name": "",
					"type": "address"
				}
			],
			"stateMutability": "view",
			"type": "function"
		}
	]
}